:020000040800F2
:1000000000520020290200082D1D0008D319000805
:100010009B1A000877030008113000080000000058
:10002000000000000000000000000000ED1F0008BC
:1000300099150008000000003F0200084102000876
:10004000430200084302000843020008430200087C
:10005000430200084302000843020008430200086C
:10006000430200084302000843020008430200085C
:100070004302000843020008A513000843020008D9
:10008000430200084302000843020008430200083C
:100090007D030008430200084302000843020008F1
:1000A00043020008852200084302000843020008BA
:1000B000A1220008BD220008D9220008430200083E
:1000C00043020008430200084302000843020008FC
:1000D00043020008430200084302000821290008E7
:1000E00043020008430200084302000843020008DC
:1000F00011230008430200084302000843020008DD
:100100004302000843020008F522000843020008E9
:1001100043020008C5270008430200084302000804
:10012000430200084302000843020008430200089B
:10013000430200084302000843020008430200088B
:10014000C1040008430200084302000843020008FB
:10015000430200084302000843020008430200086B
:10016000430200084302000843020008430200085B
:10017000430200084302000843020008430200084B
:10018000430200084302000800F002F800F03CF8C7
:100190000AA090E8000C82448344AAF10107DA45E2
:1001A00001D100F031F8AFF2090EBAE80F0013F0F8
:1001B000010F18BFFB1A43F00103184788300000F5
:1001C000A8300000103A24BF78C878C1FAD8520786
:1001D00024BF30C830C144BF04680C6070470000C1
:1001E0000023002400250026103A28BF78C1FBD840
:1001F000520728BF30C148BF0B6070471FB503F0DE
:100200001CF81FBD10B510BD00F07CF81146FFF7BB
:10021000F5FF02F0FFFF00F09AF803B4FFF7F2FFDA
:1002200003BC00F09DF800000948804709480047DA
:10023000FEE7FEE7FEE7FEE7FEE7FEE7FEE7FEE796
:10024000FEE7FEE704480549054A064B70470000F3
:100250001D22000889010008000C00200052002027
:10026000004E0020004E002040EA010370B59B07BD
:100270002ED14FF00136042A2AD308C810C99D1B7D
:100280009D43121F15EAC61517D0D8B2E1B2401A25
:1002900050EA056110D198B2A1B2401A50EA054166
:1002A0000AD123F07F4024F07F41401A50EA052113
:1002B00002D1180EA0EB146070BDA342DBD018BAB7
:1002C00021BA884201D9012070BD4FF0FF3070BDC6
:1002D0000AB9002070BD10F8013B11F8014B63B161
:1002E000A3420AD1521E08D010F8013B11F8014B6D
:1002F0001BB1A34201D1521EEDD1181B70BD704736
:1003000070477047754600F031F8AE460500694603
:10031000534620F00700854618B020B5FFF792FF3E
:10032000BDE820404FF000064FF000074FF00008F6
:100330004FF0000B21F00701AC46ACE8C009ACE877
:10034000C009ACE8C009ACE8C0098D46704710B5DB
:100350000446AFF300802046BDE81040FFF75DBFC4
:1003600001491820ABBEFEE7260002000048704796
:10037000A00B0020704700BFFEE7000010B586B05C
:10038000002400200390082304AA03A9444800F095
:10039000A3FE002005E004A9095C01AA1154411C38
:1003A000C8B20828F7DB40F20121039888421BD02D
:1003B000491C0398884217D0491C0398884213D0DF
:1003C0000398B0F5017F0FD0891C039888420BD0A9
:1003D000491C0398884207D0491C0398884203D0DF
:1003E0000398B0F5027F2DD10398401EC4B29DF84A
:1003F00005009DF8041000EB012004EB8401294A5C
:1004000042F821009DF80600000200B29DF8071096
:10041000084404EB840102EB8101C8609DF80900E7
:100420009DF8081000EB012000B204EB840102EB00
:10043000810108829DF80A0040B204EB840102EBBE
:10044000810188741849164800F098FA1649491C29
:10045000134800F093FA1449C91C114800F08EFAB1
:1004600012490F4800F08AFA11490D4800F086FA47
:1004700010490B4800F082FA0E490831084800F094
:100480007DFA0D49064800F079FA0C49044800F05D
:1004900075FA0A490831024800F070FA06B010BD3A
:1004A00000640040000B00200100F0107000F030EC
:1004B000030000120800003203000014080000349A
:1004C00010B586B000200390082304AA03A9C948E8
:1004D00000F002FE002005E004A9095C01AA115405
:1004E000411CC8B20828F7DB002451E1C4EBC4006A
:1004F00000EB4000C04901EBC000D0F8A40000F5BB
:100500004070039988427DD145F250220198811AAA
:10051000904278D018DC44F24432A0EB02019042C1
:1005200072D00ADCA0F58040A0F5A87000286CD03D
:10053000A0F2F110002869D150E0A1F6094189B17B
:10054000B1F5837FF7D18AE0A1F2FA31A9B1AB48C6
:10055000084400287ED0A0F2077000287BD006282F
:10056000E9D1BFE00298012803D1204601F098FBB1
:1005700002E0204601F088FBCCE09DED020AB8EED7
:10058000C00ADFED9F0A80EE201AC4EBC40000EB26
:100590004000994901EBC00080ED051AC4EBC4008E
:1005A00000EB400001EBC00090ED071AF0EE410AAD
:1005B000C4EBC40000EB400001EBC00090ED051A55
:1005C000B0EE410A01F056FAC4EBC40000EB400063
:1005D000894901EBC00080ED050A9BE09DED020A10
:1005E000B8EEC00ADFED870A80EE201AC4EBC40023
:1005F00000EB4000804901EBC00080ED091AC4EB1C
:10060000C40004E087E04AE014E03AE081E000EB57
:10061000400001EBC00090ED090ADFED7B0A20EEFF
:10062000200AC4EBC40000EB400001EBC00080EDE9
:10063000150A6FE09DED020AB8EEC00ADFED710AFF
:1006400080EE201AC4EBC40000EB40006A4901EBC5
:10065000C00001E03BE050E080ED0A1A5AE09DED59
:10066000020AB8EEC00ADFED660A80EE201AC4EB7B
:10067000C40000EB4000604901EBC00080ED141A9B
:1006800048E09DED020AB8EEC00AC4EBC40000EBDE
:100690004000594901EBC00080ED110A3AE0C4EB7B
:1006A000C40000EB4000544901EBC000D0ED100A3B
:1006B0009DED020AB8EEC00A30EE800AC4EBC40019
:1006C00000EB400001EBC00080ED110A22E04F4832
:1006D000C4EBC40101EB4101474A02EBC101C1F87F
:1006E000A00017E04A48C4EBC40101EB4101424AB3
:1006F00002EBC101C1F8A0000CE04548801FC4EB2B
:10070000C40101EB41013C4A02EBC101C1F8A00068
:1007100000E000BF32E00398B0F5407F2ED13B49A6
:1007200049420198084428B1A0F20770C0B10628D8
:1007300022D10AE03548C4EBC40101EB41012E4A45
:1007400002EBC101C1F8A00017E03148C4EBC401BD
:1007500001EB4101284A02EBC101C1F8A0000CE005
:100760002B48801FC4EBC40101EB4101224A02EB7C
:10077000C101C1F8A00000E000BF00BF04EB84008D
:10078000244901EB8000007A032800D103E0641CB7
:10079000082CFFF6ABAE00BF1F49164800F0EEF87C
:1007A0001D49491C134800F0E9F81B49C91C1148B0
:1007B00000F0E4F819490F4800F0E0F818490D4836
:1007C00000F0DCF817490B4800F0D8F8154908315B
:1007D000084800F0D3F81449064800F0CFF8134950
:1007E000044800F0CBF811490831024800F0C6F87F
:1007F00006B010BD00680040B0050020010500C033
:1008000000007A44002474493333333F4951004097
:1008100056580040000B00200100F0107000F0302E
:100820000300001208000032030000140800003426
:100830001CB5002496E0C4EBC40000EB40004B491B
:1008400001EBC000D0F8A00040B14949084490B382
:10085000A0F2077080B306287DD100E080E045F665
:1008600056000090C4EBC40000EB40003F4901EB90
:10087000C00090ED040ADFED3F0A20EE200ABDEE35
:10088000C00A8DED010AC4EBC40101EB4101374AF6
:1008900002EBC101D1F8A400DDE9001200F05AFD1D
:1008A0000020C4EBC40101EB4101304A02EBC1015D
:1008B000C1F8A00054E000E027E045F249100090A4
:1008C00004EB84002C4901EB8000B0F9100000EE2D
:1008D000100AB8EEC00A8DED010AC4EBC40101EBA9
:1008E0004101224A02EBC101D1F8A400DDE9001266
:1008F00000F030FD0020C4EBC40101EB41011B4AB4
:1009000002EBC101C1F8A0002AE045F650000090BA
:10091000C4EBC40000EB4000144901EBC00090EDB3
:10092000100ABDEEC00A8DED010AC4EBC40101EB53
:1009300041010E4A02EBC101D1F8A400DDE9001229
:1009400000F008FD0020C4EBC40101EB4101074A9F
:1009500002EBC10100E002E0C1F8A00000E000BF2E
:1009600000BF641C082CFFF666AF1CBDB00500205C
:10097000B7AEFFBF00007A44000B002000220C4BF2
:10098000994202D10023836111E0C1F3130201F007
:1009900000730BB1C2600AE001F080630BB1026129
:1009A00005E001F000630BB1826000E04260704737
:1009B0007000F0302DE9F04F8BB006460F4614461C
:1009C0001D46DDF850804FF00009CA46CB46B5F50C
:1009D000807F43D012DC102D34D008DC012D25D0CF
:1009E000022D26D0042D27D0082D4FD127E0202D11
:1009F0002BD0402D2CD0802D48D12CE0B5F5805F38
:100A000038D009DCB5F5007F2BD0B5F5806F2BD041
:100A1000B5F5006F3AD12AE0B5F5005F2DD0B5F5F8
:100A2000804F2DD0B5F5004F30D12CE04FF00009AC
:100A30002DE04FF001092AE04FF0020927E04FF0C6
:100A4000030924E04FF0040921E04FF005091EE0FE
:100A50004FF006091BE04FF0070918E04FF00809B6
:100A600015E04FF0090912E04FF00A090FE04FF0CE
:100A70000B090CE04FF00C0909E04FF00D0906E0FE
:100A80004FF00E0903E04FF00F0900E000BF00BF78
:100A9000B8F5807F4BD01ADCB8F1100F3BD00CDCDE
:100AA000B8F1010F2BD0B8F1020F2BD0B8F1040F21
:100AB0002BD0B8F1080F52D12AE0B8F1200F2DD079
:100AC000B8F1400F2DD0B8F1800F48D12CE0B8F527
:100AD000805F38D009DCB8F5007F2BD0B8F5806F87
:100AE0002BD0B8F5006F3AD12AE0B8F5005F2DD0D1
:100AF000B8F5804F2DD0B8F5004F30D12CE04FF035
:100B0000000A2DE04FF0010A2AE04FF0020A27E028
:100B10004FF0030A24E04FF0040A21E04FF0050AE9
:100B20001EE04FF0060A1BE04FF0070A18E04FF0F6
:100B3000080A15E04FF0090A12E04FF00A0A0FE028
:100B40004FF00B0A0CE04FF00C0A09E04FF00D0AD1
:100B500006E04FF00E0A03E04FF00F0A00E000BF7E
:100B600000BF7F48304418B1B0F5806F1AD10CE057
:100B70004FF0090B00208DF8120014208DF80400AE
:100B80000121480601F08EF90DE04FF0090B0E200F
:100B90008DF8120040208DF804000121000501F0BD
:100BA00081F900E000BF00BFC4F3090078BBA012C8
:100BB000A0F580108038092834D2DFE800F0050A5B
:100BC0000F14191E23292E000121084601F05AF99D
:100BD00029E00121022001F055F924E0012104203F
:100BE00001F050F91FE00121082001F04BF91AE053
:100BF0000121102001F046F915E00121202001F02B
:100C000041F910E00121402001F03CF90BE009E03E
:100C10000121802001F036F905E00121080201F0F0
:100C200031F900E000BF00BF5A464946204600F0B7
:100C3000ADFE5A465146204600F0A8FE45EA08009F
:100C4000099002208DF828008DF8290000208DF8E9
:100C50002A0001208DF82B0009A9204600F04EFE45
:100C6000304600F07FF800208DF81E008DF81F0040
:100C70008DF820008DF821008DF822008DF82300DA
:100C80008DF81A008DF81B000B208DF81C00072032
:100C90008DF81D007D2F22D008DC0A2F0FD0142FD5
:100CA00011D0322F13D0642F29D114E0FA2F1AD08B
:100CB000B7F5FA7F1BD0B7F57A7F20D11BE0C820AB
:100CC000ADF818001CE06420ADF8180018E02820EA
:100CD000ADF8180014E01420ADF8180010E0102052
:100CE000ADF818000CE00820ADF8180008E004206A
:100CF000ADF8180004E00220ADF8180000E000BFD5
:100D000000BF06A9304600F0D6F800208DF8130089
:100D100001208DF814000020ADF80800ADF80A009D
:100D2000ADF80C00ADF80E00ADF8100001208DF804
:100D3000150002A800F032F800208DF8050003200D
:100D40008DF8060001208DF8070001A800F0F0FFE3
:100D500001220221304600F0A5F80BB0BDE8F08F6B
:100D6000009CFFBF10B504460B48844209D1012105
:100D7000480601F0A7F800214FF0007001F0A2F83A
:100D800008E00121880601F09DF800214FF0806005
:100D900001F098F810BD00000064004010B500217B
:100DA000837A012202FA03F13D4A126842F00102FD
:100DB0003B4B1A603A4A1C3212688A43384B1C3348
:100DC0001A60027BCAB9364A0C3212688A43344B25
:100DD0000C331A604288C38842EA0343304A4032E7
:100DE000847A42F834300288838842EA03432C4AEA
:100DF0004032847A02EBC4025360027B012A19D18B
:100E0000274A0C3212680A43254B0C331A60428879
:100E1000038842EA0343224A4032847A42F834305B
:100E2000C288838842EA03431D4A4032847A02EB37
:100E3000C4025360C27A3AB9194A121D12688A4331
:100E4000174B1B1D1A6006E0154A121D12680A4353
:100E5000134B1B1D1A60028932B9114A14321268F1
:100E60008A430F4B14331A600289012A06D10C4AB7
:100E7000143212680A430A4B14331A60427B012A67
:100E800006D1074A1C3212680A43054B1C331A600C
:100E9000034A126822F00102014B1A6010BD0000E3
:100EA000006600401AB143690B43436102E04369A5
:100EB0008B434361704730B502460020002314681D
:100EC00024F002041460146844F00104146000E08B
:100ED0005B1C546804F001041CB94FF6FF74A34274
:100EE000F6D1546804F001040CB900206CE08C7950
:100EF000012C04D1146844F08004146003E01468E9
:100F000024F080041460CC79012C04D1146844F0DE
:100F10004004146003E0146824F0400414600C7A68
:100F2000012C04D1146844F02004146003E0146818
:100F300024F0200414604C7A012C04D1146844F08D
:100F40001004146003E0146824F0100414608C7A18
:100F5000012C04D1146844F00804146003E0146800
:100F600024F008041460CC7A012C04D1146844F0F5
:100F70000404146003E0146824F0040414608C7802
:100F8000A407CD7844EA05640D7944EA05444D7917
:100F900044EA05540D886D1E2C43D461146824F076
:100FA00001041460002300E05B1C546804F0010499
:100FB0001CB14FF6FF74A342F6D1546804F001044B
:100FC0000CB1002000E0012030BD0246002019B91C
:100FD000D36803F0030006E0012903D1136903F08D
:100FE000030000E00020704710B500F5D87303EB54
:100FF00001131B6803F004031372137A53B900F54D
:10100000D87303EB01131B6840F2FF7404EA5353D7
:10101000136009E000F5D87303EB01131B686FF050
:10102000604404EAD303536000F5D87303EB011363
:101030001B6803F00203537200F5D87303EB01132E
:101040005B6803F00F03937200F5D87303EB011391
:101050005B681B0AD37400F5D87303EB01139B681C
:10106000D37200F5D87303EB01139B681C0A147349
:1010700000F5D87303EB01139B681C0C547300F547
:10108000D87303EB01139B681B0E937300F5D873A1
:1010900003EB0113DB68D37300F5D87303EB011383
:1010A000DB681C0A147400F5D87303EB0113DB68CA
:1010B0001C0C547400F5D87303EB0113DB681B0E92
:1010C000937421B9C36843F02003C36003E003694C
:1010D00043F02003036110BD2DE9F04186B0804646
:1010E0000D4616461F46002400214046FFF76DFFBF
:1010F00018B9002006B0BDE8F08101AA00214046E1
:10110000FFF772FF002405E00DF10F00005D305580
:10111000601CC4B2BC42F7DB019828600120E9E7FB
:1011200010B502460020936803F08063B3F1806F2E
:1011300000D110E0936803F00063B3F1006F01D1B8
:10114000012008E0936803F08053B3F1805F01D180
:10115000022000E00420042874D002F5C07303EBE1
:1011600000131B6803F0010402F5C07303EB0013C6
:101170001C600B7A7BB94B7A0C8843EA445302F526
:10118000C07404EB00142468234302F5C07404EB1C
:101190000014236010E00B7A4C6843EAC4034C7AD5
:1011A000234302F5C07404EB00142468234302F5C2
:1011B000C07404EB001423608B7A03F00F038B726E
:1011C00002F5C07303EB00135B6823F00F0402F514
:1011D000C07303EB00135C6002F5C07303EB0013F4
:1011E0005B688C7A234302F5C07404EB00146360DF
:1011F0008B7B1C064B7B44EA03440B7B44EA0323B2
:10120000CC7A234302F5C07404EB0014A3608B7CFA
:101210001C064B7C44EA03440B7C44EA0323CC7B4E
:10122000234302F5C07404EB0014E36002F5C073BD
:1012300003EB00131B6843F0010402F5C07303EBDA
:1012400000131C6010BD000010B50246002321B140
:10125000012907D002290FD109E090681D4C00EA4E
:1012600004030BE090681C4C00EA040306E090685D
:101270001A4C00EA040301E0002300BF00BF184C31
:10128000181BA34216D007DC83B16FF080601844AE
:1012900070B1022818D111E0B0F5007F10D0114CC8
:1012A000204448B1B0F5003F0ED10BE002230DE021
:1012B00000230BE0002309E0002307E0012305E001
:1012C000012303E0012301E0002300BF00BFD8B2E7
:1012D00010BD00000300000400030008000003101C
:1012E000000100080001FFF710B50022D1E9003429
:1012F0001A1B0B684B609424235803EBD374B2EB96
:10130000640F02DD94231B58D21A9424235803EB54
:10131000D37464106442944202DD94231B581A442F
:10132000D0ED100A00EE102AB8EEC00A30EE800AA6
:1013300080ED100A91ED030AB8EEC00ADFED040A51
:1013400020EE200A80ED040A90ED040A10BD000092
:1013500063CF0B3E37B586B0044604F5207001908C
:10136000029000208DF80C008DF80D0008208DF8FB
:101370000E00002004E007A90A5C0D390A54401C45
:101380000828F8DB01A90648FFF7CAFE054600BF9A
:1013900029460348FFF758FF0128F9D109B030BDAD
:1013A0000068004010B50949094800F039F860B1FB
:1013B0000021074800F028F80449054800F00AF821
:1013C0004FF4AF61024800F0E5F810BD008000184E
:1013D000586002400246094B9A4201D2084801E097
:1013E0000648103801F000531BB1064B0B40C36098
:1013F00002E0044B0B408360704700001064024021
:10140000006002407D0F7D0F21B1026842F00102B1
:10141000026003E0026822F00102026070470000EF
:1014200070B50246002000240025124EB24201D2BF
:10143000114B01E00F4B103B104E0E4036B11E26F3
:1014400006EAD124166806EA040502E0566906F0A9
:10145000800501F000560EB15C6800E01C68084E83
:10146000344004EA010616B10DB1012000E000206D
:1014700070BD000010640240006002403C0F3C0F51
:101480007D0F7D0F10B501F080034BB122B1436990
:1014900043F08003436103E0436923F08003436129
:1014A00080290BD02AB1036801F01E042343036096
:1014B00004E0036801F01E04A343036010BD0000B4
:1014C00010B500220268134B1A40CC680B68234306
:1014D0004C6923438C692343CC6923430C6A23431F
:1014E0004C6A23438C6A23434C6B23438C6B23430A
:1014F0001A430260426922F00702D1E90B34234308
:101500001A4342610B6943604B6883608B68C36018
:1015100010BD00003F801CF038B505460C461A4847
:101520000088C82824DC1849088800EBD0714910CD
:10153000A0EB410171B91448008813490988491C7E
:10154000114A1180114B092201210090284600F018
:101550004EFD0DE00C4800880B490988491C0A4AD9
:1015600011800A4B0A2201210090204600F03FFD25
:1015700005480088C82806D101210548FFF744FF27
:1015800000200149088038BD04000020240000200C
:101590005860024041607047704700000120C84910
:1015A00008720121C6480177022180F8301080F8C6
:1015B0004410032180F85810012180F86C1002219A
:1015C00080F8801080F894100F21BE48C0F8A41055
:1015D0001021C0F84C110721C0F8F4110821C0F8FF
:1015E0009C12002067E10021C0EBC00202EB420226
:1015F000B44B03EBC20211724FF40052C0EBC001B6
:1016000001EB410103EBC101C1F8942000EB800123
:10161000AB4A02EB8101097A01297CD10621C0EB9A
:10162000C00202EB420243F832109FEDA70AC0EB62
:10163000C00101EB41011A4602EBC10181ED0B0A29
:101640009FEDA20AC0EBC00101EB410102EBC10119
:1016500081ED0C0AB3EE040AC0EBC00101EB4101BD
:1016600002EBC10181ED0F0A9FED990AC0EBC001A9
:1016700001EB410102EBC10181ED070A9FED950AE3
:10168000C0EBC00101EB410102EBC10181ED180A81
:101690009FED910AC0EBC00101EB410102EBC101DA
:1016A00081ED170A9FED8D0AC0EBC00101EB4101EE
:1016B00002EBC10181ED1B0AB3EE020AC0EBC001CF
:1016C00001EB410102EBC10181ED090AB3EE020A0F
:1016D000C0EBC00101EB410102EBC10181ED0A0A3F
:1016E0009FED7F0AC0EBC00101EB410102EBC1019C
:1016F00081ED050A9FED770AC0EBC00101EB4101C6
:1017000002EBC10181ED110AC0EBC00101EB410107
:1017100002EBC10100E022E091ED0A0ADFED710A5F
:1017200020EE200AC0EBC00101EB410102EBC10138
:1017300081ED150A9FED6A0AC0EBC00101EB410182
:1017400002EBC10181ED140A9FED670AC0EBC001F5
:1017500001EB410102EBC10181ED1A0AAAE000EBA5
:101760008001574A02EB8101097A02297DD10621C5
:10177000C0EBC00202EB4202524B43F832109FED25
:101780005B0AC0EBC00101EB41011A4602EBC1014B
:1017900081ED0B0A9FED560AC0EBC00101EB410140
:1017A00002EBC10181ED0C0AB0EE080AC0EBC001EA
:1017B00001EB410102EBC10181ED0F0A9FED4D0AE2
:1017C000C0EBC00101EB410102EBC10181ED070A51
:1017D000B0EE000AC0EBC00101EB410102EBC10118
:1017E00081ED180A9FED440AC0EBC00101EB4101F5
:1017F00002EBC10181ED170AB7EE080AC0EBC00188
:1018000001EB410102EBC10181ED1B0AB3EE020ABB
:10181000C0EBC00101EB410102EBC10181ED090AFE
:10182000B3EE020AC0EBC00101EB410102EBC101C2
:1018300081ED0A0A9FED2A0AC0EBC00101EB4101CC
:1018400002EBC10181ED050A9FED220AC0EBC00148
:1018500001EB410102EBC10181ED110AC0EBC001B6
:1018600001EB410102EBC10100E022E091ED0A0A27
:10187000DFED1C0A20EE200AC0EBC00101EB4101A4
:1018800002EBC10181ED150A9FED150AC0EBC00105
:1018900001EB410102EBC10181ED140A9FED120A37
:1018A000C0EBC00101EB410102EBC10181ED1A0A5D
:1018B00000E003E0401C0828FFF695AE00BF70472B
:1018C000000B0020B0050020CDCCCC3D6F12833A38
:1018D0000000A04400000000AE47E13DCDCC4C3FED
:1018E00000007A433333333F000020C38FC2F53CFE
:1018F000A69B443B00001645CDCC4C3DF0B50A46B6
:1019000000210023002400BF3DE0012505FA01F37A
:10191000156805EA03049C4234D105684F0003268C
:10192000BE40B543056015794E00B54006683543A5
:1019300005601579012D02D01579022D16D1856823
:101940004F000326BE40B543856055794E00B54033
:10195000866835438560456801268E40B5434560FD
:10196000456896798E40B6B235434560C5684F00EC
:101970000326BE40B543C560D5794E00B540C66864
:101980003543C560491C1029BFD3F0BDF0B5002315
:1019900000244D07ED0E02FA05F3CE1000F12005EC
:1019A00055F826504E07F70E0F26BE40B543CF1010
:1019B00000F1200646F82750CE1000F1200555F81A
:1019C000265045EA0304CE1000F1200545F82640D4
:1019D000F0BD00BFFEE7000000B5024692ED1A0A16
:1019E00082ED060A02F1100001F014FBF0EE401A3D
:1019F00092ED1B0AF0EE400AB0EE610A00F03AF8F0
:101A000082ED1E0A92ED040AB0EEC00AF0EE000A62
:101A1000B4EEE00AF1EE10FA03D8506F401C5067A4
:101A200001E000215167506FB0F5FA7F1DDB9FED9B
:101A30000F0A82ED100A92ED100ADFED0D0A30EE6A
:101A4000200A82ED110A9FED090A82ED1E0A9FED20
:101A5000070A82ED0E0A9FED050A82ED030A9FED4B
:101A6000030A82ED0D0A0520106000BD0000000091
:101A700000000046B4EEE00AF1EE10FA01DDB0EE2F
:101A8000600AB1EE601AB4EEC10AF1EE10FA03D2A8
:101A9000B1EE601AB0EE410A704700BFFEE70000E9
:101AA00010B50024B3E004EB8400734901EB80001F
:101AB000007A032800D1ADE004EB84026E4B03EB07
:101AC0008201C4EBC40202EB42026C4B03EBC20086
:101AD000FFF70AFCC4EBC40000EB4000674951F873
:101AE0003000022840D0052802D0062878D15BE0DB
:101AF000C4EBC40101EB4101604A02EBC10101F1F9
:101B0000400000F05BF9C4EBC40000EB40005B490F
:101B100001EBC00090ED190AC4EBC40000EB4000DB
:101B200001EBC00080ED050AC4EBC40101EB4101EB
:101B3000524A02EBC10101F1100001F0A3FAC4EB1B
:101B4000C40101EB41014D4A02EBC10101F110005A
:101B500001F060FAC4EBC40000EB4000474901EB20
:101B6000C00080ED030A3CE0C4EBC40101EB41017D
:101B7000424A02EBC10101F1100001F083FAC4EB0B
:101B8000C40101EB41013D4A02EBC10101F110002A
:101B900001F040FAC4EBC40000EB4000374901EB10
:101BA000C00080ED030A1CE0C4EBC40101EB41015D
:101BB000324A02EBC100FFF70FFFC4EBC40000EB99
:101BC00040002E4901EBC00090ED1E0AC4EBC4009A
:101BD00000EB400001EBC00080ED030A01E0FFE7ED
:101BE00000BF00BFC4EBC40000EB4000234901EB81
:101BF000C000007A012809D09FED210AC4EBC4007F
:101C000000EB400001EBC00080ED030A641C082CCF
:101C1000FFF649AF00BF194890ED030A194880ED5F
:101C2000000A164890ED2D0A164880ED010A134867
:101C300090ED570A134880ED020A104890ED810A92
:101C4000104880ED030A00F00FFA0C4890ED100ADE
:101C5000F2EE040A80EE201ABDEEC10A10EE104A20
:101C6000014691ED040ABDEEC00A10EE100A2146AD
:101C7000FFF752FC10BD0000000B0020B005002053
:101C800000000000F00A00200021C0EBC00202EBBF
:101C90004202024B03EBC20211727047B0050020F2
:101CA000C0EBC00101EB41011E4A52F83110052979
:101CB0000FD1C0EBC00101EB410102EBC10191ED7D
:101CC000100AC0EBC00101EB410102EBC10181ED43
:101CD000110AC0EBC00101EB4101124A52F8311068
:101CE000022909D19FED100AC0EBC00101EB4101AF
:101CF00002EBC10181ED050A9FED0B0AC0EBC001AB
:101D000001EB4101074A02EBC10181ED0D0A0121FE
:101D1000C0EBC00202EB4202024B03EBC2021172A3
:101D200070470000B00500200000000000BFFEE783
:101D300070B5002100230F22C4781CB3174C24680F
:101D400004F4E064C4F5E064C4F30721C1F10404C1
:101D5000E3B20A4144789C40E1B2847814402143C4
:101D60000C07210E0E4C05786155047804F01F0510
:101D70000124AC4005786D11AD0005F1E025C5F8F2
:101D8000004109E0047804F01F050124AC40054D32
:101D90000678761145F8264070BD00000CED00E095
:101DA00000E400E080E100E002490143024A1160E2
:101DB000704700000000FA050CED00E000B59FED53
:101DC0002F0AF0EE401A9FED2D0AB0EE402AB7EE32
:101DD000000AF0EE402A90ED010AD0ED000A30EE44
:101DE000600A80ED020A90ED020AD0ED070A20EEAB
:101DF000200AD0ED020A90ED031A70EEC10A90EDB0
:101E0000081A01EE200AF0EE401A90ED020A80ED69
:101E1000030A90ED020AB5EEC00AF1EE10FA03D201
:101E2000BFEE000AF0EE402A90ED050ADFED140A3D
:101E300020EE200A20EE220AD0ED020A60EE200AEF
:101E4000B1EEE00A20EE220AB0EE402AB0EEC20A5D
:101E5000F0EEE10AB4EEE00AF1EE10FA01D2F0EE93
:101E6000421A90ED040AF0EE400AB0EE610AFFF764
:101E700001FE80ED090A90ED090A00BD0000000096
:101E80003333B33F29B1064A12680243044B1A6048
:101E900004E0034A12688243014B1A607047000055
:101EA0003038024029B1064A12680243044B1A60D6
:101EB00004E0034A12688243014B1A607047000035
:101EC0004038024029B1064A12680243044B1A60A6
:101ED00004E0034A12688243014B1A607047000015
:101EE0002038024029B1064A12680243044B1A60A6
:101EF00004E0034A12688243014B1A6070470000F5
:101F000044380240F0B500210022002402250026BA
:101F10000223324F3F6807F00C0121B1042905D09C
:101F2000082937D105E02E4F076036E02D4F0760B6
:101F300033E02A4F3F1F3F68C7F38056274F3F1FAC
:101F40003F6807F03F036EB1264FB7FBF3F7DFF8AA
:101F50008CC0ACF1040CDCF800C0CCF3881C07FB8F
:101F60000CF40CE01E4FB7FBF3F7DFF870C0ACF1D8
:101F7000040CDCF800C0CCF3881C07FB0CF4174FF2
:101F80003F1F3F68C7F301477F1C7D00B4FBF5F797
:101F9000076002E0124F076000BF00BF0F4F3F68AD
:101FA00007F0F0010909104F7A5C0768D7404760D5
:101FB0000A4F3F6807F4E051890A0B4F7A5C476883
:101FC000D7408760054F3F6807F46041490B064FD3
:101FD0007A5C4768D740C760F0BD0000083802400F
:101FE0000024F40000127A001400002070472DE94C
:101FF000F0470746884691461C46089D0026B24693
:10200000BA46B8F1000F0DD0002F06DA2D20C5EB2F
:10201000C5016054CAF1000A08E02020C5EBC501E3
:10202000605403E02020C5EBC5016054012612E096
:10203000C6F105010A2001F0F4F8BAFBF0F00A211C
:10204000B0FBF1F201FB12003030C5EBC5012144B9
:102050008855701CC6B2062EEADBC5EBC5002044CD
:1020600080F80690BDE8F08730B587B005460020BF
:102070000090019000BF13E005EB800191ED000A94
:10208000DFED290A20EE200AF3EE040A80EE201A82
:10209000BDEEC10A10EE101A09B22DF81010401C46
:1020A0000428E9DB4FF400700290039000208DF8C3
:1020B00010008DF8110008208DF81200BDF8000006
:1020C000000A8DF81300BDF80000C1B28DF814109D
:1020D000BDF80200010A8DF81510BDF80200C1B26A
:1020E0008DF81610BDF80400010A8DF81710BDF820
:1020F0000400C1B28DF81810BDF80600010A8DF871
:102100001910BDF80600C1B28DF81A1002A90748CF
:10211000FFF706F8044600BF21460448FFF794F88D
:102120000128F9D107B030BD0000804600640040AE
:102130000CB50020019000903448006840F48030D5
:102140003249086000BF3148006800F40030009058
:102150000198401C0190009818B90198B0F5A06F43
:10216000F1D12A48006800F4003010B1012000903D
:1021700001E0002000900098012846D1234840301B
:10218000006840F0805021494031086020480068D4
:1021900040F480401E4908601C48083000681B4914
:1021A000083108600846006840F4004008600846AE
:1021B000006840F4A05008601648091F0860081F16
:1021C000006840F08070091F086000BF0F48006879
:1021D00000F000700028F9D040F205600E49086058
:1021E0000A480830006820F00300084908310860F8
:1021F0000846006840F00200086000BF034808304D
:10220000006800F00C000828F8D10CBD003802402E
:102210000070004008544007003C024010B51548CB
:10222000006840F47000134908601348006840F0EB
:1022300001001149086000200F49083108600E486C
:1022400000680E4908400C4908600D48091D0860E7
:10225000081F006820F48020091F0860002006493C
:102260000C310860FFF764FF4FF0006001498039CE
:10227000086010BD88ED00E000380240FFFFF6FE68
:102280001030002410B50121044800F05AF901284B
:1022900003D10121014800F049F810BD00000140C0
:1022A00010B50121880700F04CF9012805D1012162
:1022B000800700F03BF8FFF7F3FB10BD10B50121DC
:1022C000044800F03EF9012803D10121014800F043
:1022D0002DF810BD0004004010B50121044800F0A5
:1022E00030F9012803D10121014800F01FF810BD89
:1022F0000008004010B50121044800F022F901282F
:1023000003D10121014800F011F810BD000C00407C
:1023100010B50121044800F014F9012803D101216E
:10232000014800F003F810BD00040140CA430282D6
:10233000704721B1028842F00102028004E0028865
:102340004FF6FE731A40028070470000FEB5044647
:102350000D46002600200090019002906D49601A01
:102360008C426FD01ADC6C49A4EB01008C4274D013
:102370000ADCB4F1804F53D068482044002858D07C
:10238000B0F5806F72D15FE0B0F5806F71D0B0F5BD
:10239000006F77D0B0F5406FF4D17DE0B0F5923F9B
:1023A00023D009DCB0F5806F75D0B0F5644F0AD04A
:1023B000B0F5684F5AD10FE0B0F5943F1ED0B0F59C
:1023C000963F53D123E001210846FFF78BFD44F2ED
:1023D000A010ADF800007BE001210220FFF782FD94
:1023E00044F2A010ADF8000072E001210804FFF7EC
:1023F00079FD44F2A010ADF8000069E00121480425
:10240000FFF770FD44F2A010ADF8000060E001217C
:102410008804FFF767FD44F2A010ADF8000057E014
:1024200001210846FFF73EFD42F2D000ADF8000062
:102430004EE001210220FFF735FD42F2D000ADF859
:10244000000045E031E008E001210420FFF72AFD0B
:1024500042F2D000ADF800003AE001210820FFF779
:1024600021FD42F2D000ADF8000031E02FE000E0A5
:1024700008E001211020FFF715FD42F2D000ADF871
:10248000000025E001212020FFF70CFD42F2D000E2
:10249000ADF800001CE011E001214020FFF702FD33
:1024A00042F2D000ADF8000012E001218020FFF7D9
:1024B000F9FC42F2D000ADF8000009E00121080269
:1024C000FFF7F0FC42F2D000ADF8000000E000BFE2
:1024D00000BF4FF6FF7001900020ADF80800ADF886
:1024E00002006946204600F02BF901212046FFF743
:1024F00020FF0021204600F021F903E0204600F0F3
:102500001DF886B2AE42F9DB00212046FFF711FF2D
:10251000FEBD0000001C0040000C004000FCFFBF9E
:1025200070B506460C46002500BF04E00A2130467F
:10253000FFF70CFF6D1CA542F8D370BD0146486A39
:10254000704730B50246002000230024158A05EAB2
:102550000103958905EA010413B10CB1012000E0E3
:10256000002030BD1AB183890B43838102E0838947
:102570008B438381704700002DE9FF4104460D46DF
:1025800016461F46DDF828806949601A8C4270D0D3
:102590001ADC6849A4EB01008C426CD00ADCB4F16F
:1025A000804F4ED064482044002852D0B0F5806F50
:1025B00071D156E0B0F5806F65D0B0F5006F6CD08A
:1025C000B0F5406FF4D170E0B0F5923F21D009DC56
:1025D000B0F5806F7AD0B0F5644F0AD0B0F5684F8F
:1025E0007CD10EE0B0F5943F1BD0B0F5963F75D18D
:1025F0001FE001210846FFF775FC19208DF8000047
:102600006DE001210220FFF76DFC2C208DF8000009
:1026100065E001210804FFF765FC18208DF8000033
:102620005DE001211920FFF75DFC2C208DF80000F2
:1026300055E001218804FFF755FC1A208DF80000B1
:102640004DE001210846FFF72DFC1C208DF800000D
:1026500045E001210220FFF725FC1D208DF8000038
:102660003DE001210420FFF71DFC1E208DF8000035
:1026700035E023E0FFE701210820FFF713FC3220BB
:102680008DF800002BE001211020FFF70BFC362015
:102690008DF8000023E021E0FFE701212020FFF773
:1026A00001FC37208DF8000019E001214020FFF7E0
:1026B000F9FB2B208DF8000011E007E001218020BC
:1026C000FFF7F0FB2C208DF8000008E00121080244
:1026D000FFF7E8FB2D208DF8000000E000BF00BFF1
:1026E0000295ADF804600020ADF80C00ADF80600CE
:1026F00001A9204600F024F801212046FFF716FE2C
:10270000012211462046FFF72DFFF8B28DF8010097
:1027100008F0FF008DF8020001208DF803006846E4
:10272000FFF706FB01212046FFF703FEBDE8FF810E
:10273000001C0040000C004000FCFFBF41627047DD
:1027400000220288184B98420ED0184B98420BD0AA
:10275000B0F1804F08D0164B984205D0154B9842E7
:1027600002D0154B984204D14FF68F731A404B8814
:102770001A43124B984207D0114B984204D04FF69F
:10278000FF431A400B891A4302804B68C3620B88CF
:102790000385054B984202D0044B984201D18B7AB5
:1027A000038601238382704700000140000401403A
:1027B0000004004000080040000C004000100040F1
:1027C0000014004010B540F22551054800F0C8FA49
:1027D000012804D140F22551014800F090FA10BDC3
:1027E0000050004010B596B0044601210420FFF7C8
:1027F00049FB01218804FFF755FB01214805FFF73C
:1028000041FB07220A214248FFF7C0F807220B21AB
:102810003F48FFF7BBF84FF44060149002208DF85A
:1028200054008DF8550000208DF8560001208DF8D9
:10283000570014A93648FFF761F810940020ADF84E
:102840004400ADF84600ADF84800ADF84C000C204F
:10285000ADF84A0010A92F4800F0D2FA01212D4806
:1028600000F05CFA012280212A4800F063FA01227C
:1028700040F22551274800F09DFA4FF0006000908B
:102880002448001D019024480290402003904FF4FA
:10289000AF600490002005904FF480600690002007
:1028A0000790089009904FF400300A9000200B9098
:1028B00001200C9000200D900E9069461748FEF7FD
:1028C000FFFD01211548FEF79FFD0122102113484D
:1028D000FEF7D8FD0E208DF83C0002208DF83D005B
:1028E0008DF83E0001208DF83F000FA8FFF720FA79
:1028F00027208DF83C0000208DF83D0001208DF848
:102900003E008DF83F000FA8FFF712FA16B010BD79
:1029100000080240004800402400002058600240A7
:1029200010B540F225510A4800F01AFA01280ED1DC
:1029300040F22551064800F0E2F9054800F04DFB51
:102940000449087008460178014800F005F810BDF8
:10295000004800400000002070B505460C46202CC1
:1029600008D0AE48AE4909684454AD480068401CE0
:10297000AB490860AA480068401EA849085C0A28BC
:102980000BD0A7480068401E085C0D2805D0A4485D
:102990000068401E085C3B287DD1A14800680128E2
:1029A00003D100209E4908602FE19C4880783D2893
:1029B00072D19A48C0782D281ED14FF0FF30994926
:1029C000086004200BE09549095C974A126802EB05
:1029D000820201EB42013039934A1160401C904958
:1029E0000968491E8142EEDC8E4800688E490968FC
:1029F00048438D49086012E003200BE08749095CD9
:102A0000894A126802EB820201EB42013039864AA0
:102A10001160401C82490968491E8142EEDC022295
:102A200082A17E48FDF720FCD0B97F4890ED000AD6
:102A3000B8EEC00ADFED7E0A20EE200A7D4880ED68
:102A4000050A90ED050ADFED7C0A20EE200ABDEEB6
:102A5000C00A10EE102A79A1284600F03BFAD4E013
:102A6000022279A16D48FDF7FFFBE8B96E4890EDB1
:102A7000000AB8EEC00ADFED750A80EE201A6D4834
:102A800080ED091A90ED090ADFED700A20EE200AA8
:102A9000BDEEC00A01E0C0E080E010EE102A6CA19B
:102AA000284600F017FAB0E002226CA15B48FDF75F
:102AB000DBFBD0B95C4890ED000AB8EEC00ADFED50
:102AC000630A80EE201A5B4880ED0A1A90ED0A0A2C
:102AD000DFED5E0A20EE200ABDEEC00A10EE102ADD
:102AE0005FA1284600F0F6F98FE002225FA14B4873
:102AF000FDF7BAFBD0B94C4890ED000AB8EEC00A19
:102B0000DFED4B0A20EE200A4A4880ED050A90EDE1
:102B1000050ADFED490A20EE200ABDEEC00A10EEDC
:102B2000102A53A1284600F0D5F96EE0022253A1E5
:102B30003A48FDF799FB90B93B4890ED000AB8EE92
:102B4000C00A3C4880ED110A90ED110ABDEEC00AA2
:102B500010EE102A4AA1284600F0BCF955E00222E6
:102B60004AA12E48FDF780FB98B93248D0ED100AF3
:102B70002D4890ED000AB8EEC00A30EE800A2D48CC
:102B800080ED110A28483EA10268284600F0A2F90B
:102B90003BE03FA1284600F09DF936E0022242A129
:102BA0001E48FDF761FB78B9224890ED040ADFED7D
:102BB000220A20EE200ABDEEC00A10EE102A3BA128
:102BC000284600F087F920E002223AA11348FDF7D9
:102BD0004BFB58B9174890ED100ABDEEC00A10EE35
:102BE000102A35A1284600F075F90EE0022234A122
:102BF0000A48FDF739FB20B932A1284600F06AF9EE
:102C000003E034A1284600F065F90020044908607B
:102C10000549086001200349086070BD9C0500203B
:102C200008000020100000200C0000204A56000080
:102C30006F12833AB005002000007A444A563D25C1
:102C4000643B0D0A00000000414300000024744969
:102C500041433D25643B0D0A000000004443000051
:102C600044433D25643B0D0A000000005350000022
:102C700053503D25643B0D0A000000005041000008
:102C800050413D25643B0D0A0000000050520000F9
:102C9000494E56414C494420575249544520434DD2
:102CA000442121210D0A0000565800005658256481
:102CB0003B0D0A0050580000505825643B0D0A0097
:102CC00049510000495120696E76616C69640D0AB2
:102CD00000000000494E56414C49442052454144B1
:102CE00020434D442121210D0A00000001F400720F
:102CF000B2F5007F00D100BFCA430280704710B513
:102D00000022002340F66A14A14200D100BF0A123B
:102D100001249440A3B2DC43048010BD21B1828918
:102D200042F40052828104E082894DF6FF731A401A
:102D3000828170471AB1838A0B43838202E0838ABF
:102D40008B438382704702460020B1F5007F00D19B
:102D500000BF13880B400BB1012000E0002070473A
:102D600070B50246002400230025002040F66A16B4
:102D7000B14200D100BFC1F3421501F01F0301268B
:102D800006FA03F3012D02D19689334006E0022DA5
:102D900002D1168A334001E0968A33400C12012694
:102DA00006FA04F41688344013B10CB1012000E097
:102DB000002070BDF0B50346002400260025002049
:102DC00040F66A17B94200D100BF1846C1F3421459
:102DD00001F01F06012707FA06F5012C01D10C307E
:102DE00004E0022C01D1103000E014301AB1076861
:102DF0002F43076002E00768AF430760F0BD0000A3
:102E00002DE9FF4705460E460024A14600BFA04617
:102E1000B08900B100BF2C8A24F44054F0880443E8
:102E20002C82AC8941F20C608443B088318908431C
:102E3000718908430443AC81AC8A24F44074B0899E
:102E40000443AC826846FFF75DF82048854202D013
:102E50001F48854202D1DDF80C9001E0DDF80890B2
:102E6000A88900F4004040B109EBC90000EB09104B
:102E700031684900B0FBF1F707E009EBC90000EB4E
:102E8000091031688900B0FBF1F76420B7FBF0F05E
:102E900004012009642101FB1078A88900F4004096
:102EA00040B1322000EBC800B0FBF1F000F00700A9
:102EB000044308E0322000EB08106421B0FBF1F07D
:102EC00000F00F0004432C81BDE8FF870010014093
:102ED000001401400FB470B586B006460CA80190EE
:102EE00073E00B9800785C281CD10B98401C0B9069
:102EF00000786E2809D072280FD10D21304600F0DD
:102F000071F80B98401C0B900BE00A21304600F042
:102F100069F80B98401C0B9003E00B98401C0B9039
:102F200000BF4BE00B980078252840D10B98401C3F
:102F30000B900078642818D0732833D1019810C8FA
:102F400001900BE02178304600F04CF800BF4021A2
:102F50003046FFF7F8FE0028F9D0641C20780028DE
:102F6000F0D10B98401C0B9020E0019820C80190F4
:102F70000A2202A9284600F01BF902AC0BE02178D6
:102F8000304600F02FF800BF40213046FFF7DBFE4F
:102F90000028F9D0641C20780028F0D10B98401C40
:102FA0000B9003E00B98401C0B9000BF06E00B98C1
:102FB00010F8011B0B90304600F014F800BF4021C0
:102FC0003046FFF7C0FE0028F9D00B9800780028A3
:102FD00087D106B070BC5DF814FB01468888C0F349
:102FE0000800704730B504460D4600BF80212046DA
:102FF000FFF7A9FE0028F9D080212046FFF776FED2
:1030000040212046FFF772FEC5F30800A08030BDC6
:1030100000BFFEE700B590ED020AD0ED000A30EEE9
:10302000600A80ED040A90ED090AD0ED080A90EDDF
:10303000041A00EE810A80ED090A90ED0B1AF0EEF9
:10304000410A90ED091AB0EE410AFEF713FD80ED3A
:10305000090A90ED090AD0ED070A90ED041A00EE76
:10306000810A80ED0A0A90ED0B1AF0EE410A90ED0C
:103070000A1AB0EE410AFEF7FDFC80ED0A0A90ED57
:103080000A0A00BD90ED010AD0ED050A30EE600A93
:10309000D0ED020AB4EEE00AF1EE10FA08DD90ED90
:1030A000020AD0ED050A30EE200A80ED020A19E08E
:1030B00090ED010AD0ED060A30EE200AD0ED020AAA
:1030C000B4EEE00AF1EE10FA08D290ED020AD0ED6B
:1030D000060A30EE600A80ED020A03E090ED010A74
:1030E00080ED020A90ED020A7047000038B54FF4F7
:1030F000A060FEF759FE4FF46120FFF773FB4FF419
:1031000000704310234A4FF47A7100902248FDF773
:1031100051FC402020231F4A4FF4FA7100901F48B1
:10312000FDF748FC00200346532240F2E7310090AF
:103130004FF08040FFF720FA00214FF08040FFF76A
:10314000F8F8FEF72BFA01218807FFF7F2F8C821FB
:103150001348FFF7E5F9002417E09FED120AC4EBCE
:10316000C40000EB4000104901EBC00080ED100AE4
:103170002046FEF795FD04EB84000C4901EB80002E
:10318000007A032800D102E0641C082CE5DB00BFB4
:1031900038BD0000000402400064004000680040A8
:1031A0000004004000000000B0050020000B0020DB
:1031B000F0B503460D461646002729460A2E03D0D1
:1031C000002008702846F0BD33B9302001F8010B0B
:1031D000002008702846F6E7002B03DA2D2001F8BE
:1031E000010B5B420A4A0DE093FBF2F404B937B1DC
:1031F00004F1300001F8010B04FB123301270A200F
:1032000092FBF0F2002AEFDC002008702846DAE793
:1032100040420F0010B5FFF769FF01E0FDF708FB22
:10322000FCE710B502460023012000BF02E0504336
:103230005C1CE3B28B42FAD310BD4FF04070E1EE5C
:10324000100A7047643200080000002024000000CB
:10325000C40100088832000824000020DC5100006E
:10326000E001000800000000000000000000000075
:103270000000000001000000000000000102030443
:0832800001020304060708091E
:040000050800018965
:00000001FF
