:020000040800F2
:100000002055002029020008ED1C000807190008EF
:10001000EF190008770300081D38000800000000F1
:100020000000000000000000000000006123000844
:1000300029150008000000003F02000841020008E6
:10004000430200084302000843020008430200087C
:10005000430200084302000843020008430200086C
:10006000430200084302000843020008430200085C
:100070004302000843020008B113000843020008CD
:10008000430200084302000843020008430200083C
:100090007D030008430200084302000843020008F1
:1000A00043020008A1270008430200084302000899
:1000B000BD270008D9270008F527000843020008DB
:1000C00043020008430200084302000843020008FC
:1000D00043020008430200084302000831310008CF
:1000E00043020008430200084302000843020008DC
:1000F0002D280008430200084302000843020008BC
:1001000043020008430200081128000843020008C7
:1001100043020008D52F00084302000843020008EC
:10012000430200084302000843020008430200089B
:10013000430200084302000843020008430200088B
:10014000C1040008430200084302000843020008FB
:10015000430200084302000843020008430200086B
:10016000430200084302000843020008430200085B
:10017000430200084302000843020008430200084B
:10018000430200084302000800F002F800F03CF8C7
:100190000AA090E8000C82448344AAF10107DA45E2
:1001A00001D100F031F8AFF2090EBAE80F0013F0F8
:1001B000010F18BFFB1A43F00103184788380000ED
:1001C000A8380000103A24BF78C878C1FAD852077E
:1001D00024BF30C830C144BF04680C6070470000C1
:1001E0000023002400250026103A28BF78C1FBD840
:1001F000520728BF30C148BF0B6070471FB503F0DE
:100200001BFC1FBD10B510BD00F07CF81146FFF7B8
:10021000F5FF03F005FC00F09AF803B4FFF7F2FFD6
:1002200003BC00F09DF800000948804709480047DA
:10023000FEE7FEE7FEE7FEE7FEE7FEE7FEE7FEE796
:10024000FEE7FEE704480549054A064B70470000F3
:100250003927000889010008200F002020550020C0
:10026000205100202051002040EA010370B59B0777
:100270002ED14FF00136042A2AD308C810C99D1B7D
:100280009D43121F15EAC61517D0D8B2E1B2401A25
:1002900050EA056110D198B2A1B2401A50EA054166
:1002A0000AD123F07F4024F07F41401A50EA052113
:1002B00002D1180EA0EB146070BDA342DBD018BAB7
:1002C00021BA884201D9012070BD4FF0FF3070BDC6
:1002D0000AB9002070BD10F8013B11F8014B63B161
:1002E000A3420AD1521E08D010F8013B11F8014B6D
:1002F0001BB1A34201D1521EEDD1181B70BD704736
:1003000070477047754600F031F8AE460500694603
:10031000534620F00700854618B020B5FFF792FF3E
:10032000BDE820404FF000064FF000074FF00008F6
:100330004FF0000B21F00701AC46ACE8C009ACE877
:10034000C009ACE8C009ACE8C0098D46704710B5DB
:100350000446AFF300802046BDE81040FFF75DBFC4
:1003600001491820ABBEFEE7260002000048704796
:10037000BC0E0020704700BFFEE7000010B586B03D
:10038000002400200390082304AA03A9444800F095
:10039000A5FE002005E004A9095C01AA1154411C36
:1003A000C8B20828F7DB40F20121039888421BD02D
:1003B000491C0398884217D0491C0398884213D0DF
:1003C0000398B0F5017F0FD0891C039888420BD0A9
:1003D000491C0398884207D0491C0398884203D0DF
:1003E0000398B0F5027F2DD10398401EC4B29DF84A
:1003F00005009DF8041000EB012004EB8401294A5C
:1004000042F821009DF80600000200B29DF8071096
:10041000084404EB840102EB8101C8609DF80900E7
:100420009DF8081000EB012000B204EB840102EB00
:10043000810108829DF80A0040B204EB840102EBBE
:10044000810188741849164800F09AFA1649491C27
:10045000134800F095FA1449C91C114800F090FAAD
:1004600012490F4800F08CFA11490D4800F088FA43
:1004700010490B4800F084FA0E490831084800F092
:100480007FFA0D49064800F07BFA0C49044800F059
:1004900077FA0A490831024800F072FA06B010BD36
:1004A00000640040B80D00200100F0107000F03032
:1004B000030000120800003203000014080000349A
:1004C00010B586B000200390082304AA03A9C348EE
:1004D00000F004FE002005E004A9095C01AA115403
:1004E000411CC8B20828F7DB002445E104EB840076
:1004F000BB4901EB8000007A032800D13FE1C4EB47
:100500008410B84901EB8000D0F8F80000F5407085
:10051000039988427DD145F250420198811A904258
:1005200078D01ADC44F64D72A0EB0201904228D03C
:100530000BDCA0F58040A0F5A87000286BD0A0F2DD
:10054000F110E8B3032867D174E0B1F5837F6FD071
:10055000A1F203310029F6D199E0A34A881A914209
:1005600067D007DCB1F5FD7F16D0A048084400280D
:10057000E9D1A8E0A0F2077000287BD00628E2D1DC
:10058000B7E00298012803D1204601F075FB02E094
:10059000204601F067FBC0E09DED020AB8EEC00AFC
:1005A000DFED930A80EE201AC4EB84108D4901EB35
:1005B000800080ED071AC4EB841001EB800000E09E
:1005C00015E090ED091AF0EE410AC4EB841001EB3E
:1005D000800090ED071AB0EE410A01F0F5F9C4EB86
:1005E0008410804901EB800080ED070A95E09DEDC5
:1005F000020AB8EEC00ADFED7F0A80EE201AC4EBD3
:100600008410784901EB800080ED0B1AC4EB841054
:1006100003E083E051E02EE07EE001EB800090ED0E
:100620000B0AC4EB841001EB800080ED170A74E024
:1006300010E055E09DED020AB8EEC00ADFED6D0A4C
:1006400080EE201AC4EB8410664901EB800080ED37
:100650000C1A62E09DED020AB8EEC00ADFED640AF2
:1006600080EE201AC4EB84105E4901EB800080ED1F
:10067000161A52E046E09DED020AB8EEC00AC4EB3D
:100680008410584901EB800080ED130A45E0C4EB6B
:100690008410544901EB800090ED120AF8EEC00A74
:1006A0009DED020AB8EEC00A30EE800AC4EB841059
:1006B00001EB800080ED130A2FE02046DDE90112F6
:1006C00001F044FC29E0202000F066FE38B14A48E1
:1006D000C4EB8411434A02EB8101C1F8F4001CE031
:1006E0004648C4EB84113F4A02EB8101C1F8F40093
:1006F00013E04348C4EB84113A4A02EB8101C1F88C
:10070000F4000AE03E48801FC4EB8411354A02EB36
:100710008101C1F8F40000E000BF2CE00398B0F5BF
:10072000407F28D1354949420198084428B1A0F2B8
:100730000770A0B106281CD108E03048C4EB841132
:10074000284A02EB8101C1F8F40013E02C48C4EB05
:100750008411244A02EB8101C1F8F4000AE0284820
:10076000801FC4EB84111F4A02EB8101C1F8F40021
:1007700000E000BF00BF641C082CFFF6B7AE00BF4E
:100780002049164800F0FCF81E49491C134800F0A7
:10079000F7F81C49C91C114800F0F2F81A490F4833
:1007A00000F0EEF819490D4800F0EAF818490B4836
:1007B00000F0E6F816490831084800F0E1F815495C
:1007C000064800F0DDF81449044800F0D9F8124951
:1007D0000831024800F0D4F806B010BD00680040AF
:1007E000B80D0020C8050020F9FCFF3F0E0D00C029
:1007F00000007A44002474494247004049510040B7
:10080000565800400100F0107000F0300300001254
:100810000800003203000014080000341CB5002456
:100820009EE004EB8400514901EB8000007A03282C
:1008300000D198E0C4EB84104D4901EB80004D4A93
:10084000D0F8F410881A914233D005DC51B14A48EF
:100850000844002871D171E0A0F20770E8B30628BF
:100860007BD100E07AE045F656000090C4EB84109E
:100870003F4901EB800090ED060ADFED400A20EED3
:10088000200ABDEEC00A8DED010AC4EB8411384A7E
:1008900002EB8101D1F8F800DDE9001200F054FD0F
:1008A0000020C4EB8411324A02EB8101C1F8F4004C
:1008B00054E045F24910009004EB84002B4901EB11
:1008C0008000B0F9100000EE100AB8EEC00A8DEDFD
:1008D000010AC4EB8411264A00E010E002EB81011A
:1008E000D1F8F800DDE9001200F02EFD0020C4EB85
:1008F00084111F4A02EB8101C1F8F4002EE045F695
:1009000050000090C4EB8410194901EB8000806C0A
:100910000190C4EB8411164A02EB8101D1F8F80072
:10092000DDE9001200F010FD0020C4EB8411104A34
:1009300002EB8101C1F8F40010E00EE0202000F08D
:100940002BFD08B101F0DEFB0020C4EB8411084A46
:1009500002EB8101C1F8F40000E000BF00BF641C9D
:10096000082CFFF65EAF00BF1CBD0000B80D0020D4
:10097000C805002049510040BEB8FFBF00007A44BE
:1009800000220C4B994202D10023836111E0C1F394
:10099000130201F000730BB1C2600AE001F0806342
:1009A0000BB1026105E001F000630BB1826000E071
:1009B000426070477000F0302DE9F04F8BB0064672
:1009C0000F4614461D46DDF850804FF00009CA4618
:1009D000CB46B5F5807F43D012DC102D34D008DC37
:1009E000012D25D0022D26D0042D27D0082D4FD142
:1009F00027E0202D2BD0402D2CD0802D48D12CE06D
:100A0000B5F5805F38D009DCB5F5007F2BD0B5F5A2
:100A1000806F2BD0B5F5006F3AD12AE0B5F5005FB5
:100A20002DD0B5F5804F2DD0B5F5004F30D12CE04D
:100A30004FF000092DE04FF001092AE04FF00209C4
:100A400027E04FF0030924E04FF0040921E04FF0C4
:100A500005091EE04FF006091BE04FF0070918E0FA
:100A60004FF0080915E04FF0090912E04FF00A09AC
:100A70000FE04FF00B090CE04FF00C0909E04FF0CC
:100A80000D0906E04FF00E0903E04FF00F0900E0FA
:100A900000BF00BFB8F5807F4BD01ADCB8F1100F53
:100AA0003BD00CDCB8F1010F2BD0B8F1020F2BD0EA
:100AB000B8F1040F2BD0B8F1080F52D12AE0B8F1E9
:100AC000200F2DD0B8F1400F2DD0B8F1800F48D1B4
:100AD0002CE0B8F5805F38D009DCB8F5007F2BD06A
:100AE000B8F5806F2BD0B8F5006F3AD12AE0B8F591
:100AF000005F2DD0B8F5804F2DD0B8F5004F30D124
:100B00002CE04FF0000A2DE04FF0010A2AE04FF0F0
:100B1000020A27E04FF0030A24E04FF0040A21E024
:100B20004FF0050A1EE04FF0060A1BE04FF0070ADF
:100B300018E04FF0080A15E04FF0090A12E04FF0F4
:100B40000A0A0FE04FF00B0A0CE04FF00C0A09E024
:100B50004FF00D0A06E04FF00E0A03E04FF00F0AC7
:100B600000E000BF00BF7F48304418B1B0F5806F8F
:100B70001AD10CE04FF0090B00208DF81200142060
:100B80008DF804000121480601F0F4FA0DE04FF061
:100B9000090B0E208DF8120040208DF80400012171
:100BA000000501F0E7FA00E000BF00BFC4F3090050
:100BB00078BBA012A0F580108038092834D2DFE875
:100BC00000F0050A0F14191E23292E0001210846E2
:100BD00001F0C0FA29E00121022001F0BBFA24E073
:100BE0000121042001F0B6FA1FE00121082001F0E4
:100BF000B1FA1AE00121102001F0ACFA15E0012150
:100C0000202001F0A7FA10E00121402001F0A2FA13
:100C10000BE009E00121802001F09CFA05E00121B0
:100C2000080201F097FA00E000BF00BF5A464946AB
:100C3000204600F041FE5A465146204600F03CFE58
:100C400045EA0800099002208DF828008DF8290057
:100C500000208DF82A0001208DF82B0009A92046DC
:100C600000F0E2FD304600F07FF800208DF81E0015
:100C70008DF81F008DF820008DF821008DF82200DE
:100C80008DF823008DF81A008DF81B000B208DF8CD
:100C90001C0007208DF81D007D2F22D008DC0A2FB4
:100CA0000FD0142F11D0322F13D0642F29D114E07C
:100CB000FA2F1AD0B7F5FA7F1BD0B7F57A7F20D17B
:100CC0001BE0C820ADF818001CE06420ADF8180047
:100CD00018E02820ADF8180014E01420ADF8180032
:100CE00010E01020ADF818000CE00820ADF8180056
:100CF00008E00420ADF8180004E00220ADF8180068
:100D000000E000BF00BF06A9304600F0D6F8002082
:100D10008DF8130001208DF814000020ADF80800B4
:100D2000ADF80A00ADF80C00ADF80E00ADF81000FB
:100D300001208DF8150002A800F032F800208DF88F
:100D4000050003208DF8060001208DF8070001A89A
:100D500000F0CEFF01220221304600F0A5F80BB0D2
:100D6000BDE8F08F009CFFBF10B504460B488442DD
:100D700009D10121480601F00DFA00214FF0007061
:100D800001F008FA08E00121880601F003FA0021C9
:100D90004FF0806001F0FEF910BD000000640040DB
:100DA00010B50021837A012202FA03F13D4A12684C
:100DB00042F001023B4B1A603A4A1C3212688A43E5
:100DC000384B1C331A60027BCAB9364A0C3212689F
:100DD0008A43344B0C331A604288C38842EA034387
:100DE000304A4032847A42F834300288838842EABA
:100DF00003432C4A4032847A02EBC4025360027BE4
:100E0000012A19D1274A0C3212680A43254B0C33A8
:100E10001A604288038842EA0343224A4032847AB5
:100E200042F83430C288838842EA03431D4A403284
:100E3000847A02EBC4025360C27A3AB9194A121D8D
:100E400012688A43174B1B1D1A6006E0154A121DD3
:100E500012680A43134B1B1D1A60028932B9114AEA
:100E6000143212688A430F4B14331A600289012A24
:100E700006D10C4A143212680A430A4B14331A6022
:100E8000427B012A06D1074A1C3212680A43054BED
:100E90001C331A60034A126822F00102014B1A60E7
:100EA00010BD0000006600401AB143690B43436166
:100EB00002E043698B434361704730B5024600202E
:100EC0000023146824F002041460146844F0010440
:100ED000146000E05B1C546804F001041CB94FF678
:100EE000FF74A342F6D1546804F001040CB9002049
:100EF0006CE08C79012C04D1146844F080041460F7
:100F000003E0146824F080041460CC79012C04D12F
:100F1000146844F04004146003E0146824F04004B2
:100F200014600C7A012C04D1146844F0200414607D
:100F300003E0146824F0200414604C7A012C04D1DE
:100F4000146844F01004146003E0146824F01004E2
:100F500014608C7A012C04D1146844F008041460E5
:100F600003E0146824F008041460CC7A012C04D146
:100F7000146844F00404146003E0146824F00404CA
:100F800014608C78A407CD7844EA05640D7944EAAE
:100F900005444D7944EA05540D886D1E2C43D461F7
:100FA000146824F001041460002300E05B1C546802
:100FB00004F001041CB14FF6FF74A342F6D154684B
:100FC00004F001040CB1002000E0012030BD024615
:100FD000002019B9D36803F0030006E0012903D10A
:100FE000136903F0030000E00020704710B500F51E
:100FF000D87303EB01131B6803F004031372137A15
:1010000053B900F5D87303EB01131B6840F2FF746A
:1010100004EA5353136009E000F5D87303EB01139E
:101020001B686FF0604404EAD303536000F5D87383
:1010300003EB01131B6803F00203537200F5D8732E
:1010400003EB01135B6803F00F03937200F5D87391
:1010500003EB01135B681B0AD37400F5D87303EB31
:1010600001139B68D37200F5D87303EB01139B68DF
:101070001C0A147300F5D87303EB01139B681C0C56
:10108000547300F5D87303EB01139B681B0E937325
:1010900000F5D87303EB0113DB68D37300F5D87345
:1010A00003EB0113DB681C0A147400F5D87303EB1F
:1010B0000113DB681C0C547400F5D87303EB0113A7
:1010C000DB681B0E937421B9C36843F02003C3602F
:1010D00003E0036943F02003036110BD2DE9F041F3
:1010E00086B080460D4616461F4600240021404625
:1010F000FFF76DFF18B9002006B0BDE8F08101AA26
:1011000000214046FFF772FF002405E00DF10F00BB
:10111000005D3055601CC4B2BC42F7DB019828600A
:101120000120E9E710B502460020936803F08063D0
:10113000B3F1806F00D110E0936803F00063B3F166
:10114000006F01D1012008E0936803F08053B3F1F0
:10115000805F01D1022000E00420042874D002F551
:10116000C07303EB00131B6803F0010402F5C073A6
:1011700003EB00131C600B7A7BB94B7A0C8843EAB3
:10118000445302F5C07404EB00142468234302F5B1
:10119000C07404EB0014236010E00B7A4C6843EA3F
:1011A000C4034C7A234302F5C07404EB0014246892
:1011B000234302F5C07404EB001423608B7A03F020
:1011C0000F038B7202F5C07303EB00135B6823F00F
:1011D0000F0402F5C07303EB00135C6002F5C073EB
:1011E00003EB00135B688C7A234302F5C07404EBB5
:1011F000001463608B7B1C064B7B44EA03440B7B2F
:1012000044EA0323CC7A234302F5C07404EB0014B0
:10121000A3608B7C1C064B7C44EA03440B7C44EAB1
:101220000323CC7B234302F5C07404EB0014E3607A
:1012300002F5C07303EB00131B6843F0010402F5D1
:10124000C07303EB00131C6010BD000010B5024614
:10125000002321B1012907D002290FD109E09068AC
:101260001D4C00EA04030BE090681C4C00EA0403E8
:1012700006E090681A4C00EA040301E0002300BF76
:1012800000BF184C181BA34216D007DC83B16FF0C7
:101290008060184470B1022818D111E0B0F5007FC9
:1012A00010D0114C204448B1B0F5003F0ED10BE0F6
:1012B00002230DE000230BE0002309E0002307E0F8
:1012C000012305E0012303E0012301E0002300BF27
:1012D00000BFD8B210BD00000300000400030008E6
:1012E00000000310000100080001FFF710B5002204
:1012F000D1E900341A1B0B684B60E824235803EB38
:10130000D374B2EB640F02DDE8231B58D21AE82431
:10131000235803EBD37464106442944202DDE82343
:101320001B581A44836C1344836491ED030AB8EE8E
:10133000C00ADFED040A20EE200A80ED060A90EDD7
:10134000060A10BD63CF0B3E37B586B0044604F5E0
:1013500020700190029000208DF80C008DF80D0097
:1013600008208DF80E00002004E007A90A5C0D3962
:101370000A54401C0828F8DB01A90648FFF7D2FEF2
:10138000054600BF29460348FFF760FF0128F9D151
:1013900009B030BD0068004001460448D0F888001C
:1013A000084008B1012070470020FCE7C805002074
:1013B00010B50949094800F039F860B10021074823
:1013C00000F028F80449054800F00AF84FF4AF612E
:1013D000024800F0A7F810BD0080001858600240D5
:1013E0000246094B9A4201D2084801E006481038EB
:1013F00001F000531BB1064B0B40C36002E0044BED
:101400000B4083607047000010640240006002409F
:101410007D0F7D0F21B1026842F00102026003E0FE
:10142000026822F0010202607047000070B50246B7
:10143000002000240025124EB24201D2114B01E0DF
:101440000F4B103B104E0E4036B11E2606EAD1243B
:10145000166806EA040502E0566906F0800501F008
:1014600000560EB15C6800E01C68084E344004EA87
:10147000010616B10DB1012000E0002070BD000092
:1014800010640240006002403C0F3C0F7D0F7D0F56
:1014900010B501F080034BB122B1436943F08003E2
:1014A000436103E0436923F08003436180290BD04B
:1014B0002AB1036801F01E042343036004E00368BB
:1014C00001F01E04A343036010BD000010B500220C
:1014D0000268134B1A40CC680B6823434C692343C2
:1014E0008C692343CC6923430C6A23434C6A23430E
:1014F0008C6A23434C6B23438C6B23431A43026057
:10150000426922F00702D1E90B3423431A434261B6
:101510000B6943604B6883608B68C36010BD00003B
:101520003F801CF041607047704700000120AC49CB
:1015300008720321AA480177022180F8301080F850
:101540004410032180F85810012180F86C1002210A
:1015500080F8801080F894100521A248C0F8F81097
:101560000621C0F8F4110721C0F8F0120821C0F8D4
:10157000EC1300201EE10021C0EB8012994B03EB1D
:10158000820211724FF40052C0EB801103EB810113
:10159000C1F8E82000EB8001914A02EB8101097A51
:1015A00001297BD10721C0EB801243F822109FED67
:1015B0008E0AC0EB80111A4602EB810181ED0D0A03
:1015C0009FED8A0AC0EB801102EB810181ED0E0ACA
:1015D000B3EE040AC0EB801102EB810181ED110A28
:1015E0009FED830AC0EB801102EB810181ED090AB6
:1015F0009FED800AC0EB801102EB810181ED1A0A98
:101600009FED7D0AC0EB801102EB810181ED190A8B
:101610009FED7A0AC0EB801102EB810181ED300A67
:101620009FED770AC0EB801102EB810181ED0B0A7F
:101630009FED730AC0EB801102EB810181ED0C0A72
:101640009FED700AC0EB801102EB810181ED070A6A
:101650009FED680AC0EB801102EB810181ED130A56
:10166000C0EB801102EB810191ED0C0AC0EB8011FF
:1016700002EB810181ED170A9FED620AC0EB801138
:1016800002EB810181ED160A9FED5F0AC0EB80112C
:1016900002EB810181ED2F0A8BE0FFE700EB800177
:1016A0004F4A02EB8101097A02297DD10621C0EB64
:1016B00080124C4B43F822109FED540AC0EB80116E
:1016C0001A4602EB810181ED0D0A9FED510AC0EB34
:1016D000801102EB810181ED0E0AB1EE080AC0EB28
:1016E000801102EB810181ED110A9FED4A0AC0EBE6
:1016F000801102EB810181ED090A9FED440AC0EBE4
:10170000801102EB810181ED1A0A9FED430AC0EBC3
:10171000801102EB810181ED190A9FED400AC0EBB7
:10172000801102EB810181ED300A9FED350AC0EB9B
:10173000801102EB810181ED0B0A9FED310AC0EBB4
:10174000801102EB810181ED0C0A9FED2E0AC0EBA6
:10175000801102EB810181ED070A9FED260AC0EBA3
:10176000801102EB810181ED130AC0EB801102EBC5
:10177000810191ED0C0ADFED2A0A20EE200AC0EB70
:10178000801102EB810181ED170A9FED1E0AC0EB6B
:10179000801102EB810181ED160A9FED1B0AC0EB5F
:1017A000801102EB810100E002E081ED2F0A00E0F0
:1017B00003E0401C0828FFF6DEAE00BF9FED170ACD
:1017C000084880ED300A9FED150A80ED6F0A9FED05
:1017D000150A80ED2F0A9FED130A80ED6E0A7047FF
:1017E000B80D0020C8050020CDCCCC3D6F12833A47
:1017F0000000A04400000000AE47E13DCDCC4C3FCE
:101800000000C84200007A43000020C3CDCC4C3D0C
:10181000A69B443B000016451B2FDD3C3333334071
:101820003333333F00002043F0B50A460021002344
:10183000002400BF3DE0012505FA01F3156805EA23
:1018400003049C4234D105684F000326BE40B543D3
:10185000056015794E00B540066835430560157979
:10186000012D02D01579022D16D185684F0003266F
:10187000BE40B543856055794E00B5408668354316
:101880008560456801268E40B54345604568967978
:101890008E40B6B235434560C5684F000326BE4052
:1018A000B543C560D5794E00B540C6683543C560BF
:1018B000491C1029BFD3F0BDF0B5002300244D070B
:1018C000ED0E02FA05F3CE1000F1200555F8265072
:1018D0004E07F70E0F26BE40B543CF1000F120068D
:1018E00046F82750CE1000F1200555F8265045EA5D
:1018F0000304CE1000F1200545F82640F0BD4183D9
:1019000070470183704700BFFEE7000000B5024644
:1019100092ED2F0A82ED080A02F1180001F080FF13
:10192000F0EE401A92ED300AF0EE400AB0EE610A95
:1019300000F04AF882ED330A92ED060AB0EEC00AD2
:10194000F0EE000AB4EEE00AF1EE10FA05D8C82075
:101950008058401CC821885002E00021C8208150D6
:10196000C8208058B0F5FA7F29DB0020906492ED02
:10197000120AB8EEC00ADFED120A30EE200A82ED3C
:10198000130A9FED100A82ED330A9FED0E0A82EDD5
:10199000070A9FED0C0A82ED080A9FED0A0A82ED04
:1019A000100A9FED080A82ED030A9FED060A82EDF8
:1019B000330A9FED040A82ED0F0A0520106000BD76
:1019C0000000004600000000B4EEE00AF1EE10FA5C
:1019D00001DDB0EE600AB1EE601AB4EEC10AF1EEBC
:1019E00010FA03D2B1EE601AB0EE410A704700BFA0
:1019F000FEE7000070B501F08DF901F081F993491F
:101A000008610024D4E004EB8400914901EB8000DC
:101A1000007A032800D1CEE004EB84028C4B03EB68
:101A20008201C4EB8412894B03EB8200FFF75EFC5A
:101A3000C4EB8410854901EB8000007A012808D0AE
:101A40009FED840AC4EB841001EB800080ED030A53
:101A5000ADE0C4EB84107D4951F82000022836D057
:101A6000052804D006284CD007287CD15EE0C4EBC2
:101A70008411764A02EB810101F1480000F000FA7E
:101A8000C4EB8410714901EB800090ED1B0AC4EB9C
:101A9000841001EB800080ED070AC4EB84116B4ACF
:101AA00002EB810101F1180001F0F2FEC4EB841198
:101AB000664A02EB810101F1180001F0B1FEC4EBAE
:101AC0008410624901EB800080ED030A6DE0C4EBF5
:101AD00084115E4A02EB810101F1180001F0D8FE89
:101AE000C4EB8411594A02EB810101F1180001F0A5
:101AF00097FEC4EB8410554901EB800080ED030A8A
:101B000053E0C4EB8411514A02EB8100FFF7FEFE63
:101B1000C4EB84104D4901EB800090ED330AC4EB17
:101B2000841001EB800080ED030A3EE0C4EB8413D7
:101B3000464D05EB830303F11802C4EB841305EB58
:101B4000830303F14801C4EB841305EB830303F122
:101B5000700000F013F9C4EB8410294601EB8000FB
:101B600090ED240A00E01FE0C4EB841001EB80003C
:101B700080ED070AC4EB84112A4602EB810101F1D2
:101B8000180001F085FEC4EB84112A4602EB8101A6
:101B900001F1180001F044FEC4EB8410294601EB6A
:101BA000800080ED030A00E000BF00BF00BF641C9E
:101BB000082CFFF628AF00BF002041E000EB8001B9
:101BC000234A02EB8101097A012914D1C0EB80116B
:101BD0001E4A02EB810191ED030ADFED1F0A20EEA0
:101BE000200AF3EE040A80EE201A1C4901EB800162
:101BF00081ED001A23E000EB8001154A02EB810120
:101C0000097A022914D1C0EB8011104A02EB81013C
:101C100091ED030ADFED120A20EE200AF2EE040A2B
:101C200080EE201A0D4901EB800181ED001A06E0DB
:101C30009FED080A094901EB800181ED000A401C73
:101C40000428BBDB054800F08DFB70BDC8050020F3
:101C5000B80D00200000000000008046A80D002004
:101C600000401C460021C0EB8012024B03EB8202B5
:101C700011727047C8050020C0EB8011194A52F854
:101C8000211005290DD1C0EB801102EB810191EDEE
:101C9000120AB8EEC00AC0EB801102EB810181ED9F
:101CA000130AC0EB80110F4A52F82110022907D104
:101CB0009FED0D0AC0EB801102EB810181ED070A57
:101CC0009FED090AC0EB8011064A02EB810181ED0C
:101CD0000F0A0121C0EB8012024B03EB820211724A
:101CE00070470000C80500200000000000BFFEE7AC
:101CF00070B5002100230F22C4781CB3174C246850
:101D000004F4E064C4F5E064C4F30721C1F1040401
:101D1000E3B20A4144789C40E1B284781440214304
:101D20000C07210E0E4C05786155047804F01F0550
:101D30000124AC4005786D11AD0005F1E025C5F832
:101D4000004109E0047804F01F050124AC40054D72
:101D50000678761145F8264070BD00000CED00E0D5
:101D600000E400E080E100E002490143024A116022
:101D7000704700000000FA050CED00E070B5044665
:101D80000D4616464020FFF707FB00285BD094F86D
:101D90003000E17B884256DA607B217B884242DA60
:101DA00094F83010206850F82110024694F8300062
:101DB000401E52F82000081A217B90FBF1F000EE43
:101DC000100AB8EEC00A84ED090A607B401C6073FB
:101DD00094F83010206850F821002968401A00EE6D
:101DE000100AB8EEC00A224880ED000A90ED000A01
:101DF0002048D0ED000A20EE200A1D48D0ED000A50
:101E00001D4890ED001A70EEC10A1C4890ED001AB2
:101E100000EE810A84ED090A154890ED000A164883
:101E200080ED000A0FE094F83000401C84F8300088
:101E30000020607394F83000E17B884203D16FF09A
:101E4000400000F0E9FA00F0F5F894ED091AD4ED3D
:101E50000A1A31EE211AB0EE410A94ED0B1AF0EE97
:101E6000410AFFF7B1FD84ED080A94ED080A70BD40
:101E70001C0000201400002020000020180000207A
:101E800000B59FED300AF0EE401A9FED2E0AB0EE3D
:101E9000402AB7EE000AF0EE402AD0ED010A90ED9C
:101EA000000AB8EEC00A30EEC00A80ED020A90EDDA
:101EB000020AD0ED070A20EE200AD0ED020A90EDCA
:101EC000031A70EEC10A90ED081A01EE200AF0EE36
:101ED000401A90ED020A80ED030A90ED020AB5EE79
:101EE000C00AF1EE10FA03D2BFEE000AF0EE402A6B
:101EF00090ED050ADFED140A20EE200A20EE220AFA
:101F0000D0ED020A60EE200AB1EEE00A20EE220ACD
:101F1000B0EE402AB0EEC20AF0EEE10AB4EEE00AFA
:101F2000F1EE10FA01D2F0EE421A90ED040AF0EE52
:101F3000400AB0EE610AFFF747FD80ED090A90ED17
:101F4000090A00BD000000003333B33F37B5044633
:101F50001820FFF721FA10B90120334908703248E0
:101F60000078012802D002285BD114E0012000F0A3
:101F700053FA082000F050FA2C480299C0F8841057
:101F80000220294908706FF0080000F045FA10207F
:101F900000F042FA46E0019800F0304000283FD0BF
:101FA00001980001029940EA21712048806F204A7F
:101FB000127840F822101E480078401C1C49087016
:101FC0001A48D0F88400097888420ED9029840F364
:101FD0001B011648806F164A127840F822101448E8
:101FE0000078401C124908701AE000200E49087061
:101FF0000F4908706FF0100000F00EFA202000F07A
:102000000BFA6FF0010000F007FA022000F004FA6A
:102010000648D0F88410C0F880100021C0F8841061
:1020200000E000BF00BF3EBD24000020C805002026
:102030002500002010B54020FFF7AEF900285CD144
:102040000420FFF7A9F990B300200DE02B49496F58
:1020500051F82010294A126F42F820100022274917
:10206000496F41F82020401C2449D1F88410814256
:10207000ECD82248D0F88000010E204880F87F106C
:10208000D0F88000010C1D4880F87E10B0F8800068
:10209000010A1A4880F87C100021C0F88010402006
:1020A00000F0BAF96FF0040000F0B6F925E0FFE7A0
:1020B000124890F87E00012809D1402000F0ACF9C8
:1020C00000210E4880F8A01080F87D1015E00B4824
:1020D00090F87E0088B1094890F87E0002280CD163
:1020E0009FED070A054880ED250A9FED050A80ED62
:1020F000260A9FED030A80ED240A10BDC8050020C2
:102100000000000010B50220FFF746F9F8B10020EA
:102110000DE00F49896F51F820200D49496F41F8B2
:10212000202000220A49896F41F82020401C0849DC
:10213000D1F884108142ECD86FF0200000F06CF9E7
:102140006FF0020000F068F9042000F065F910BD9E
:10215000C805002029B1064A12680243044B1A60E0
:1021600004E0034A12688243014B1A607047000082
:102170003038024029B1064A12680243044B1A6003
:1021800004E0034A12688243014B1A607047000062
:102190004038024029B1064A12680243044B1A60D3
:1021A00004E0034A12688243014B1A607047000042
:1021B0002038024029B1064A12680243044B1A60D3
:1021C00004E0034A12688243014B1A607047000022
:1021D00044380240F0B500210022002402250026E8
:1021E0000223324F3F6807F00C0121B1042905D0CA
:1021F000082937D105E02E4F076036E02D4F0760E4
:1022000033E02A4F3F1F3F68C7F38056274F3F1FD9
:102210003F6807F03F036EB1264FB7FBF3F7DFF8D7
:102220008CC0ACF1040CDCF800C0CCF3881C07FBBC
:102230000CF40CE01E4FB7FBF3F7DFF870C0ACF105
:10224000040CDCF800C0CCF3881C07FB0CF4174F1F
:102250003F1F3F68C7F301477F1C7D00B4FBF5F7C4
:10226000076002E0124F076000BF00BF0F4F3F68DA
:1022700007F0F0010909104F7A5C0768D740476002
:102280000A4F3F6807F4E051890A0B4F7A5C4768B0
:10229000D7408760054F3F6807F46041490B064F00
:1022A0007A5C4768D740C760F0BD0000083802403C
:1022B0000024F40000127A002C00002010B504461F
:1022C00000BF0221094800F01FF80028F9D021467C
:1022D000064800F025F800BF0121044800F014F87A
:1022E0000028F9D0014800F018F810BD0030014076
:1022F00021B1028842F04002028004E002884FF6D9
:10230000BF731A40028070470246002013890B40B9
:102310000BB1012000E0002070470146888970471A
:102320008181704710B50022028802F441520B8867
:102330004C8823438C882343CC8823430C89234334
:102340004C8923438C892343CC8923431A4302803D
:10235000838B4FF2FF74234083830B8A038210BD6B
:102360007047000030B587B005460020009001900E
:1023700000BF0BE005EB800191ED000ABDEEC00A45
:1023800010EE101A09B22DF81010401C0428F1DBD1
:102390004FF400700290039000208DF810008DF82B
:1023A000110008208DF81200BDF80000000A8DF819
:1023B0001300BDF80000C1B28DF81410BDF8020082
:1023C000010A8DF81510BDF80200C1B28DF8161083
:1023D000BDF80400010A8DF81710BDF80400C1B261
:1023E0008DF81810BDF80600010A8DF81910BDF817
:1023F0000600C1B28DF81A1002A90648FEF792FE37
:10240000044600BF21460348FEF720FF0128F9D10A
:1024100007B030BD00640040012827D017DC10F160
:10242000090F62D009DC10F1810F70D010F1210F7B
:102430006ED010F1110F21D16BE010F1050F42D0D9
:1024400010F1030F2DD010F1020F17D117E0102853
:1024500054D006DC02281BD004282BD008280DD12C
:102460003AE020285ED0802808D16DE04049D1F8BC
:10247000881041F001023E49C1F8882076E03C49CD
:10248000D1F8881021F001023949C1F888206DE0A7
:102490003749D1F8881041F001023549C1F8882048
:1024A00064E03349D1F8881021F001023049C1F8C5
:1024B00088205BE02E49D1F8881041F001022C49B8
:1024C000C1F8882052E02A49D1F8881021F0010291
:1024D0002749C1F8882049E02549D1F8881041F002
:1024E00008022349C1F8882040E02149D1F888102A
:1024F00021F008021E49C1F8882037E01C49D1F8B4
:10250000881041F010021A49C1F888202EE024E01A
:1025100011E01749D1F8881021F010021449C1F8D0
:10252000882023E01249D1F8881041F02002104998
:10253000C1F888201AE00E49D1F8881021F0200255
:102540000B49C1F8882011E00949D1F8881041F001
:1025500080020749C1F8882008E00549D1F88810B1
:1025600021F080020249C1F8882000BF00BF7047F7
:10257000C80500200CB50020019000903448006888
:1025800040F480303249086000BF3148006800F4F0
:10259000003000900198401C0190009818B90198F3
:1025A000B0F5A06FF1D12A48006800F4003010B1F6
:1025B0000120009001E0002000900098012846D101
:1025C00023484030006840F0805021494031086085
:1025D0002048006840F480401E4908601C480830CC
:1025E00000681B49083108600846006840F4004054
:1025F00008600846006840F4A05008601648091FAB
:102600000860081F006840F08070091F086000BF64
:102610000F48006800F000700028F9D040F2056013
:102620000E4908600A480830006820F00300084995
:10263000083108600846006840F00200086000BFEA
:1026400003480830006800F00C000828F8D10CBDE1
:10265000003802400070004008544007003C02402F
:1026600000B587B001210846FFF774FD012108037A
:10267000FFF7A0FDE020059002208DF81800002053
:102680008DF81A0003208DF8190001208DF81B0029
:1026900005A92748FFF7C8F8052211462448FFF787
:1026A0000BF9052206212248FFF706F9052207212A
:1026B0001F48FFF701F91020059001208DF8180040
:1026C00000208DF81A0003208DF8190001208DF8E4
:1026D0001B0005A91648FFF7A7F810211448FFF7BB
:1026E00010F94FF48270ADF802000020ADF8000040
:1026F0004FF40060ADF804002020ADF80C0000207D
:10270000ADF80E00ADF806000120ADF8080040025B
:10271000ADF80A000720ADF8100069460548FFF73C
:1027200001FE01210348FFF7E3FD07B000BD0000F3
:10273000000002400030014010B51548006840F428
:102740007000134908601348006840F00100114907
:10275000086000200F49083108600E4800680E49E3
:1027600008400C4908600D48091D0860081F0068F2
:1027700020F48020091F0860002006490C31086001
:10278000FFF7F8FE4FF0006001498039086010BD86
:1027900088ED00E000380240FFFFF6FE1030002414
:1027A00010B50121044800F05AF9012803D1012194
:1027B000014800F049F810BD0000014010B50121AA
:1027C000880700F04CF9012805D10121800700F0AD
:1027D0003BF8FFF70FF910BD10B50121044800F0D8
:1027E0003EF9012803D10121014800F02DF810BD68
:1027F0000004004010B50121044800F030F9012820
:1028000003D10121014800F01FF810BD000800406D
:1028100010B50121044800F022F9012803D101215B
:10282000014800F011F810BD000C004010B5012166
:10283000044800F014F9012803D10121014800F0F7
:1028400003F810BD00040140CA430282704721B161
:10285000028842F00102028004E002884FF6FE7313
:102860001A40028070470000FEB504460D4600265F
:1028700000200090019002906D49601A8C426FD048
:102880001ADC6C49A4EB01008C4274D00ADCB4F170
:10289000804F53D068482044002858D0B0F5806F4E
:1028A00072D15FE0B0F5806F71D0B0F5006F77D076
:1028B000B0F5406FF4D17DE0B0F5923F23D009DC54
:1028C000B0F5806F75D0B0F5644F0AD0B0F5684FA1
:1028D0005AD10FE0B0F5943F1ED0B0F5963F53D1DA
:1028E00023E001210846FFF765FC44F2A010ADF893
:1028F00000007BE001210220FFF75CFC44F2A01005
:10290000ADF8000072E001210804FFF753FC44F227
:10291000A010ADF8000069E001214804FFF74AFC6F
:1029200044F2A010ADF8000060E001218804FFF738
:1029300041FC44F2A010ADF8000057E00121084628
:10294000FFF718FC42F2D000ADF800004EE0012184
:102950000220FFF70FFC42F2D000ADF8000045E086
:1029600031E008E001210420FFF704FC42F2D0002E
:10297000ADF800003AE001210820FFF7FBFB42F22E
:10298000D000ADF8000031E02FE000E008E00121C8
:102990001020FFF7EFFB42F2D000ADF8000025E079
:1029A00001212020FFF7E6FB42F2D000ADF8000045
:1029B0001CE011E001214020FFF7DCFB42F2D000D7
:1029C000ADF8000012E001218020FFF7D3FB42F2B6
:1029D000D000ADF8000009E001210802FFF7CAFBB2
:1029E00042F2D000ADF8000000E000BF00BF4FF69B
:1029F000FF7001900020ADF80800ADF802006946B4
:102A0000204600F02BF901212046FFF720FF00218E
:102A1000204600F021F903E0204600F01DF886B2C0
:102A2000AE42F9DB00212046FFF711FFFEBD00009A
:102A3000001C0040000C004000FCFFBF70B50646C3
:102A40000C46002500BF04E00A213046FFF70CFFCA
:102A50006D1CA542F8D370BD0146486A704730B579
:102A60000246002000230024158A05EA0103958907
:102A700005EA010413B10CB1012000E0002030BDD3
:102A80001AB183890B43838102E083898B4383815D
:102A9000704700002DE9FF4104460D4616461F46CB
:102AA000DDF828806949601A8C4270D01ADC6849C8
:102AB000A4EB01008C426CD00ADCB4F1804F4ED004
:102AC00064482044002852D0B0F5806F71D156E0A0
:102AD000B0F5806F65D0B0F5006F6CD0B0F5406F89
:102AE000F4D170E0B0F5923F21D009DCB0F5806FF1
:102AF0007AD0B0F5644F0AD0B0F5684F7CD10EE0C3
:102B0000B0F5943F1BD0B0F5963F75D11FE0012181
:102B10000846FFF74FFB19208DF800006DE00121FA
:102B20000220FFF747FB2C208DF8000065E0012113
:102B30000804FFF73FFB18208DF800005DE001213D
:102B40001920FFF737FB2C208DF8000055E00121FC
:102B50008804FFF72FFB1A208DF800004DE00121BB
:102B60000846FFF707FB1C208DF8000045E0012117
:102B70000220FFF7FFFA1D208DF800003DE0012143
:102B80000420FFF7F7FA1E208DF8000035E023E05F
:102B9000FFE701210820FFF7EDFA32208DF8000051
:102BA0002BE001211020FFF7E5FA36208DF8000018
:102BB00023E021E0FFE701212020FFF7DBFA3720A7
:102BC0008DF8000019E001214020FFF7D3FA2B20F7
:102BD0008DF8000011E007E001218020FFF7CAFA1C
:102BE0002C208DF8000008E001210802FFF7C2FA4E
:102BF0002D208DF8000000E000BF00BF0295ADF869
:102C000004600020ADF80C00ADF8060001A92046D4
:102C100000F024F801212046FFF716FE012211469C
:102C20002046FFF72DFFF8B28DF8010008F0FF00F5
:102C30008DF8020001208DF803006846FFF758F870
:102C400001212046FFF703FEBDE8FF81001C004084
:102C5000000C004000FCFFBF416270470022028868
:102C6000184B98420ED0184B98420BD0B0F1804FC1
:102C700008D0164B984205D0154B984202D0154B00
:102C8000984204D14FF68F731A404B881A43124B67
:102C9000984207D0114B984204D04FF6FF431A4098
:102CA0000B891A4302804B68C3620B880385054B6E
:102CB000984202D0044B984201D18B7A03860123BB
:102CC000838270470000014000040140000400407E
:102CD00000080040000C00400010004000140040BC
:102CE00010B500F01BF805490860084690ED000A91
:102CF000B8EEC00A80ED040A10BD0000580E002096
:102D000003480168C81701EB9070801070470000FD
:102D1000580E002010B5FFF7E3FF10BD38B50024B2
:102D200000200090694648F2214000F007F8044670
:102D3000BDF80000C0F30E0038BD000070B50546B8
:102D40000C461021A148FEF7DAFD00BF00BF00BF0E
:102D500000BF00BF00BF00BF00BF00BF00BF00BF7B
:102D600000BF00BF00BF00BF00BF00BF00BF00BF6B
:102D700000BF00BF00BF00BF00BF00BF00BF00BF5B
:102D800000BF00BF00BF00BF00BF00BF00BF00BF4B
:102D900000BF00BF00BF00BF00BF00BF00BF00BF3B
:102DA00000BF00BF00BF00BF00BF00BF00BF00BF2B
:102DB00000BF00BF00BF00BF00BF00BF00BF00BF1B
:102DC00000BF00BF00BF00BF00BF00BF00BF00BF0B
:102DD00000BF00BF00BF00BF00BF00BF00BF00BFFB
:102DE00000BF00BF00BF00BF00BF00BF00BF00BFEB
:102DF00000BF00BF00BF00BF00BF00BF00BF00BFDB
:102E000000BF00BF00BF00BF00BF00BF00BF00BFCA
:102E100000BF00BF00BF00BF00BF00BF00BF00BFBA
:102E200000BF00BF00BF00BF00BF00BF00BF00BFAA
:102E300000BF00BF00BF00BF00BF00BF00BF00BF9A
:102E400000BF00BF00BF00BF00BF00BF00BF00BF8A
:102E500000BF00BF00BF00BF00BF00BF00BF00BF7A
:102E600000BF00BF00BF00BF00BF00BF00BF00BF6A
:102E700000BF00BF00BF00BF00BF00BF00BF00BF5A
:102E800000BF00BF00BF00BF00BF00BF00BF00BF4A
:102E900000BF00BF00BF00BF00BF00BF00BF1021C8
:102EA0004A48FEF72EFD00BF00BF00BF00BF00BFB5
:102EB00000BF00BF00BF00BF00BF00BF00BF00BF1A
:102EC00000BF00BF00BF00BF00BF00BF00BF00BF0A
:102ED00000BF00BF00BF00BF00BF00BF00BF00BFFA
:102EE00000BF00BF00BF00BF00BF00BF00BF00BFEA
:102EF00000BF00BF00BF00BF00BF00BF00BF00BFDA
:102F000000BF00BF00BF00BF00BF00BF00BF00BFC9
:102F100000BF00BF00BF00BF00BF00BF00BF00BFB9
:102F200000BF00BF00BF00BF00BF00BF00BF00BFA9
:102F300000BF00BF00BF00BF00BF00BF00BF00BF99
:102F400000BF00BF00BF00BF00BF00BF00BF00BF89
:102F500000BF00BF00BF00BF00BF00BF00BF00BF79
:102F600000BF00BF00BF00BF00BF00BF00BF1021F7
:102F70001648FEF7C4FC2846FFF7A0F900BF134827
:102F8000006820F440401149086008460068086065
:102F900000BF2846FFF792F920802846FFF78EF9F8
:102FA0000B49088010210948FEF7ABFC00BF074819
:102FB000006820F44040054908600846006840F475
:102FC0000040086000BF0248008870BD0000024059
:102FD0002A00002010B540F22551054800F0C6FA3D
:102FE000012804D140F22551014800F08EFA10BDAD
:102FF0000050004010B596B0044601210420FFF7B0
:10300000A9F801218804FFF7B5F801214805FFF769
:10301000A1F807220A214248FEF74EFC07220B21A5
:103020003F48FEF749FC4FF44060149002208DF8B1
:1030300054008DF8550000208DF8560001208DF8C1
:10304000570014A93648FEF7EFFB10940020ADF8A6
:103050004400ADF84600ADF84800ADF84C000C2037
:10306000ADF84A0010A92F4800F0D0FA01212D48F0
:1030700000F05AFA012280212A4800F061FA012268
:1030800040F22551274800F09BFA4FF00060009075
:103090002448001D019024480290402003904FF4E2
:1030A000AF600490002005904FF4806006900020EF
:1030B0000790089009904FF400300A9000200B9080
:1030C00001200C9000200D900E9069461748FEF7E5
:1030D000FDF901211548FEF79DF901221021134841
:1030E000FEF7D6F90E208DF83C0002208DF83D0049
:1030F0008DF83E0001208DF83F000FA8FEF7F8FD87
:1031000027208DF83C0000208DF83D0001208DF82F
:103110003E008DF83F000FA8FEF7EAFD16B010BD87
:1031200000080240004800403C0000205860024077
:1031300010B540F225510A4800F018FA01280ED1C6
:1031400040F22551064800F0E0F9054800F04BFB3D
:103150000449087008460178014800F005F810BDE0
:10316000004800400000002070B505460C46202CA9
:1031700008D0AD48AD4909684454AC480068401CCB
:10318000AA490860A9480068401EA749085C0A28A7
:103190000BD0A6480068401E085C0D2805D0A34847
:1031A0000068401E085C3B287DD1A04800680128CB
:1031B00003D100209D4908602CE19B4880783D2880
:1031C00072D19948C0782D281ED14FF0FF30984910
:1031D000086004200BE09449095C964A126802EBEF
:1031E000820201EB42013039924A1160401C8F4942
:1031F0000968491E8142EEDC8D4800688D490968E6
:1032000048438C49086012E003200BE08649095CC2
:10321000884A126802EB820201EB42013039854A8A
:103220001160401C81490968491E8142EEDC02227E
:1032300081A17D48FDF718F8D0B97E4890ED000ACD
:10324000B8EEC00ADFED7D0A20EE200A7C4880ED52
:10325000070A90ED070ADFED7B0A20EE200ABDEE9B
:10326000C00A10EE102A78A1284600F039FAD1E001
:10327000022278A16C48FCF7F7FFE8B96D4890EDA1
:10328000000AB8EEC00ADFED740A80EE201A6C481E
:1032900080ED0B1A90ED0B0ADFED6F0A20EE200A8D
:1032A000BDEEC00A01E0BDE082E010EE102A6BA185
:1032B000284600F015FAADE002226BA15A48FCF74F
:1032C000D3FFD0B95B4890ED000AB8EEC00ADFED3D
:1032D000620A80EE201A5A4880ED0C1A90ED0C0A12
:1032E000DFED5D0A20EE200ABDEEC00A10EE102AC6
:1032F0005EA1284600F0F4F98CE002225EA14A4863
:10330000FCF7B2FFD0B94B4890ED000AB8EEC00A06
:10331000DFED4A0A20EE200A494880ED070A90EDC9
:10332000070ADFED480A20EE200ABDEEC00A10EEC3
:10333000102A52A1284600F0D3F96BE0022252A1D4
:103340003948FCF791FF90B93A4890ED000AB8EE81
:10335000C00A3B4880ED130A90ED130ABDEEC00A87
:1033600010EE102A49A1284600F0BAF952E00222D4
:1033700049A12D48FCF778FFA8B9314890ED120A11
:10338000F8EEC00A2B4890ED000AB8EEC00A30EE05
:10339000800A2B4880ED130A26483CA10268284683
:1033A00000F09EF936E03DA1284600F099F931E0A1
:1033B000022240A11C48FCF757FF78B9204890ED45
:1033C000060ADFED200A20EE200ABDEEC00A10EE4C
:1033D000102A39A1284600F083F91BE0022238A107
:1033E0001148FCF741FF30B9154836A1826C2846D8
:1033F00000F076F90EE0022234A10B48FCF734FF0E
:1034000020B933A1284600F06BF903E034A1284627
:1034100000F066F9002005490860064908600120AF
:103420000349086070BD0000B405002008000020BA
:10343000100000200C0000204A5600006F12833A52
:10344000C805002000007A444A563D25643B0D0A19
:1034500000000000414300000024744941433D2521
:10346000643B0D0A000000004443000044433D2536
:10347000643B0D0A000000005350000053503D25EE
:10348000643B0D0A000000005041000050413D2502
:10349000643B0D0A0000000050520000494E5641A6
:1034A0004C494420575249544520434D4421212141
:1034B0000D0A000056580000565825643B0D0A00BE
:1034C00050580000505825643B0D0A004951000037
:1034D000495120696E76616C69640D0A0000000034
:1034E000494E56414C4944205245414420434D44A5
:1034F0002121210D0A00000001F40072B2F5007FC5
:1035000000D100BFCA430280704710B500220023DB
:1035100040F66A14A14200D100BF0A12012494406F
:10352000A3B2DC43048010BD21B1828942F4005271
:10353000828104E082894DF6FF731A4082817047D0
:103540001AB1838A0B43838202E0838A8B4383828E
:10355000704702460020B1F5007F00D100BF1388FC
:103560000B400BB1012000E00020704770B502460F
:10357000002400230025002040F66A16B14200D145
:1035800000BFC1F3421501F01F03012606FA03F341
:10359000012D02D19689334006E0022D02D1168A10
:1035A000334001E0968A33400C12012606FA04F4F7
:1035B0001688344013B10CB1012000E0002070BD2A
:1035C000F0B50346002400260025002040F66A17C7
:1035D000B94200D100BF1846C1F3421401F01F06E2
:1035E000012707FA06F5012C01D10C3004E0022C6A
:1035F00001D1103000E014301AB107682F43076082
:1036000002E00768AF430760F0BD00002DE9FF4707
:1036100005460E460024A14600BFA046B08900B171
:1036200000BF2C8A24F44054F08804432C82AC89D7
:1036300041F20C608443B0883189084371890843A2
:103640000443AC81AC8A24F44074B0890443AC8256
:103650006846FEF7BFFD2048854202D01F488542DC
:1036600002D1DDF80C9001E0DDF80890A88900F4A3
:10367000004040B109EBC90000EB09103168490076
:10368000B0FBF1F707E009EBC90000EB0910316866
:103690008900B0FBF1F76420B7FBF0F004012009CA
:1036A000642101FB1078A88900F4004040B1322069
:1036B00000EBC800B0FBF1F000F00700044308E0A5
:1036C000322000EB08106421B0FBF1F000F00F0095
:1036D00004432C81BDE8FF87001001400014014025
:1036E0000FB470B586B006460CA8019073E00B9835
:1036F00000785C281CD10B98401C0B9000786E2839
:1037000009D072280FD10D21304600F071F80B98C6
:10371000401C0B900BE00A21304600F069F80B9832
:10372000401C0B9003E00B98401C0B9000BF4BE03B
:103730000B980078252840D10B98401C0B900078FE
:10374000642818D0732833D1019810C801900BE079
:103750002178304600F04CF800BF40213046FFF79A
:10376000F8FE0028F9D0641C20780028F0D10B98CE
:10377000401C0B9020E0019820C801900A2202A969
:10378000284600F01BF902AC0BE02178304600F02F
:103790002FF800BF40213046FFF7DBFE0028F9D0AC
:1037A000641C20780028F0D10B98401C0B9003E09B
:1037B0000B98401C0B9000BF06E00B9810F8011B03
:1037C0000B90304600F014F800BF40213046FFF760
:1037D000C0FE0028F9D00B980078002887D106B0E9
:1037E00070BC5DF814FB01468888C0F30800704780
:1037F00030B504460D4600BF80212046FFF7A9FEE4
:103800000028F9D080212046FFF776FE402120468F
:10381000FFF772FEC5F30800A08030BD00BFFEE7D1
:1038200000B590ED020AD0ED000A30EE600A80ED9E
:10383000040A90ED090AD0ED080A90ED041A00EE92
:10384000810A80ED090A90ED0B1AF0EE410A90ED25
:10385000091AB0EE410AFEF7B7F880ED090A90EDBB
:10386000090AD0ED070A90ED041A00EE810A80EDF6
:103870000A0A90ED0B1AF0EE410A90ED0A1AB0EE2A
:10388000410AFEF7A1F880ED0A0A90ED0A0A00BD90
:1038900090ED010AD0ED050A30EE600AD0ED020A83
:1038A000B4EEE00AF1EE10FA08DD90ED020AD0ED78
:1038B000050A30EE200A80ED020A19E090ED010AB7
:1038C000D0ED060A30EE200AD0ED020AB4EEE00A8E
:1038D000F1EE10FA08D290ED020AD0ED060A30EEB1
:1038E000600A80ED020A03E090ED010A80ED020A11
:1038F00090ED020A7047000038B54FF4A060FEF763
:1039000033FA4FF46120FFF775FB4FF4007043105A
:10391000244A4FF47A7100902348FDF74DF8402077
:103920002023204A4FF4FA7100902048FDF744F814
:10393000FEF796FE4DF6BF2000F079F80020034612
:10394000532240F2E73100904FF08040FFF7A2F899
:1039500000214FF08040FEF77AFFFDF7E7FD0121DF
:103960008807FEF774FFC8211148FFF767F80024A5
:1039700013E004EB84000F4901EB8000007A032878
:1039800000D10CE00020C4EB84110B4A02EB810152
:1039900088642046FEF770F9641C082CE9DB00BF40
:1039A00038BD000000040240006400400068004090
:1039B00000040040B80D0020C8050020F0B5034603
:1039C0000D461646002729460A2E03D0002008700F
:1039D0002846F0BD33B9302001F8010B00200870F3
:1039E0002846F6E7002B03DA2D2001F8010B5B4295
:1039F0000A4A0DE093FBF2F404B937B104F1300048
:103A000001F8010B04FB123301270A2092FBF0F2AC
:103A1000002AEFDC002008702846DAE740420F0059
:103A200010B5FFF769FF01E0FCF7F8FEFCE700BF07
:103A3000401E0028FCD170474FF04070E1EE100AA4
:103A400070470000643A0008000000203C000000BD
:103A5000C4010008A03A00083C000020E454000023
:103A6000E00100080000000000000000000000006D
:103A700000000000010000000AD7233C3333B33EAE
:103A80000000000000000000010000000000000035
:103A900000000000010203040102030406070809F4
:040000050800018965
:00000001FF
