:020000040800F2
:100000007053002029020008D91D0008031A0008B7
:10001000E71A0008770300081935000800000000FF
:100020000000000000000000000000004121000866
:100030008D150008000000003F0200084102000882
:10004000430200084302000843020008430200087C
:10005000430200084302000843020008430200086C
:10006000430200084302000843020008430200085C
:1000700043020008430200089913000843020008E5
:10008000430200084302000843020008430200083C
:100090007D030008430200084302000843020008F1
:1000A000430200089D2400084302000843020008A0
:1000B000B9240008D5240008F124000843020008F0
:1000C00043020008430200084302000843020008FC
:1000D0004302000843020008430200082D2E0008D6
:1000E00043020008430200084302000843020008DC
:1000F00029250008430200084302000843020008C3
:1001000043020008430200080D25000843020008CE
:1001100043020008D12C00084302000843020008F3
:10012000430200084302000843020008430200089B
:10013000430200084302000843020008430200088B
:10014000C1040008430200084302000843020008FB
:10015000430200084302000843020008430200086B
:10016000430200084302000843020008430200085B
:10017000430200084302000843020008430200084B
:10018000430200084302000800F002F800F03CF8C7
:100190000AA090E8000C82448344AAF10107DA45E2
:1001A00001D100F031F8AFF2090EBAE80F0013F0F8
:1001B000010F18BFFB1A43F001031847B0350000C8
:1001C000D0350000103A24BF78C878C1FAD8520759
:1001D00024BF30C830C144BF04680C6070470000C1
:1001E0000023002400250026103A28BF78C1FBD840
:1001F000520728BF30C148BF0B6070471FB503F0DE
:10020000B0FA1FBD10B510BD00F07CF81146FFF725
:10021000F5FF03F085FA00F09AF803B4FFF7F2FF58
:1002200003BC00F09DF800000948804709480047DA
:10023000FEE7FEE7FEE7FEE7FEE7FEE7FEE7FEE796
:10024000FEE7FEE704480549054A064B70470000F3
:100250003524000889010008700D0020705300202B
:10026000704F0020704F002040EA010370B59B07DB
:100270002ED14FF00136042A2AD308C810C99D1B7D
:100280009D43121F15EAC61517D0D8B2E1B2401A25
:1002900050EA056110D198B2A1B2401A50EA054166
:1002A0000AD123F07F4024F07F41401A50EA052113
:1002B00002D1180EA0EB146070BDA342DBD018BAB7
:1002C00021BA884201D9012070BD4FF0FF3070BDC6
:1002D0000AB9002070BD10F8013B11F8014B63B161
:1002E000A3420AD1521E08D010F8013B11F8014B6D
:1002F0001BB1A34201D1521EEDD1181B70BD704736
:1003000070477047754600F031F8AE460500694603
:10031000534620F00700854618B020B5FFF792FF3E
:10032000BDE820404FF000064FF000074FF00008F6
:100330004FF0000B21F00701AC46ACE8C009ACE877
:10034000C009ACE8C009ACE8C0098D46704710B5DB
:100350000446AFF300802046BDE81040FFF75DBFC4
:1003600001491820ABBEFEE7260002000048704796
:100370000C0D0020704700BFFEE7000010B586B0EE
:10038000002400200390082304AA03A9444800F095
:10039000A5FE002005E004A9095C01AA1154411C36
:1003A000C8B20828F7DB40F20121039888421BD02D
:1003B000491C0398884217D0491C0398884213D0DF
:1003C0000398B0F5017F0FD0891C039888420BD0A9
:1003D000491C0398884207D0491C0398884203D0DF
:1003E0000398B0F5027F2DD10398401EC4B29DF84A
:1003F00005009DF8041000EB012004EB8401294A5C
:1004000042F821009DF80600000200B29DF8071096
:10041000084404EB840102EB8101C8609DF80900E7
:100420009DF8081000EB012000B204EB840102EB00
:10043000810108829DF80A0040B204EB840102EBBE
:10044000810188741849164800F09AFA1649491C27
:10045000134800F095FA1449C91C114800F090FAAD
:1004600012490F4800F08CFA11490D4800F088FA43
:1004700010490B4800F084FA0E490831084800F092
:100480007FFA0D49064800F07BFA0C49044800F059
:1004900077FA0A490831024800F072FA06B010BD36
:1004A00000640040080C00200100F0107000F030E3
:1004B000030000120800003203000014080000349A
:1004C00010B586B000200390082304AA03A9C848E9
:1004D00000F004FE002005E004A9095C01AA115403
:1004E000411CC8B20828F7DB00244EE104EB84006D
:1004F000C04901EB8000007A032800D148E104EBF9
:10050000C40000EB0410BC4901EBC000D0F8C400EB
:1005100000F54070039988427DD145F25022019840
:10052000811A904278D018DC44F24432A0EB0201E8
:10053000904272D00ADCA0F58040A0F5A870002897
:100540006CD0A0F2F110002869D150E0A1F6094169
:1005500089B1B1F5837FF7D185E0A1F2FA31A9B174
:10056000A648084400287CD0A0F20770002879D063
:10057000062854D1BCE00298012803D1204601F09E
:10058000E3FB02E0204601F0D3FBC9E09DED020A47
:10059000B8EEC00ADFED9A0A80EE201A04EBC40020
:1005A00000EB0410944901EBC00080ED071A04EB46
:1005B000C40000EB041001EBC00090ED091AF0EE4E
:1005C000410A04EBC40000EB041001EBC00090ED05
:1005D000071AB0EE410A01F073FA04EBC40000EB15
:1005E0000410854901EBC00080ED070A98E09DEDFD
:1005F000020AB8EEC00ADFED830A80EE201A04EB8F
:10060000C40000EB04107C4901EBC00080ED0B1A24
:1006100004EBC40004E084E045E010E035E07EE057
:1006200000EB041001EBC00090ED0B0A04EBC400DA
:1006300000EB041001EBC00080ED170A70E09DEDA7
:10064000020AB8EEC00ADFED6F0A80EE201A04EB52
:10065000C40000EB0410684901EBC00080ED0C1AE7
:100660005EE03AE04FE09DED020AB8EEC00ADFED31
:10067000640A80EE201A04EBC40000EB04105E490B
:1006800001EBC00080ED161A4AE09DED020AB8EEBB
:10069000C00A04EBC40000EB0410574901EBC00092
:1006A00080ED130A3CE004EBC40000EB0410524957
:1006B00001EBC00090ED120AF8EEC00A9DED020AAF
:1006C000B8EEC00A30EE800A04EBC40000EB041060
:1006D00001EBC00080ED130A22E04B4804EBC4019B
:1006E00001EB0411444A02EBC101C1F8C00017E05C
:1006F000464804EBC40101EB04113F4A02EBC1017F
:10070000C1F8C0000CE04148801F04EBC40101EBBC
:100710000411394A02EBC101C1F8C00000E000BF7A
:1007200032E00398B0F5407F2ED137494942019815
:10073000084428B1A0F20770C0B1062822D10AE00F
:10074000314804EBC40101EB04112B4A02EBC10157
:10075000C1F8C00017E02D4804EBC40101EB0411FF
:10076000254A02EBC101C1F8C0000CE02748801FF8
:1007700004EBC40101EB04111F4A02EBC101C1F8F3
:10078000C00000E000BF00BF641C082CFFF6AEAE46
:1007900000BF1F49164800F0F3F81D49491C1448D2
:1007A00000F0EEF81A49C91C114800F0E9F819499F
:1007B0000F4800F0E5F818490D4800F0E1F8174936
:1007C0000B4800F0DDF815490831094800F0D8F869
:1007D0001349074800F0D4F81249054800F0D0F852
:1007E00010490831024800F0CBF806B010BD0000F7
:1007F00000680040080C0020B8050020010500C07A
:1008000000007A4400247449495100405658004081
:100810000100F0107000F0300300001208000032F8
:1008200003000014080000341CB500249AE004EB17
:1008300084004F4901EB8000007A032800D194E046
:1008400004EBC40000EB04104A4901EBC000D0F8EF
:10085000C00040B14849084490B3A0F2077080B38B
:1008600006287CD100E07BE045F65600009004EBC2
:10087000C40000EB04103F4901EBC00090ED060AF4
:10088000DFED3E0A20EE200ABDEEC00A8DED010A22
:1008900004EBC40101EB0411364A02EBC101D1F8AB
:1008A000C400DDE9001200F04FFD002004EBC4019C
:1008B00001EB04112F4A02EBC101C1F8C0004FE067
:1008C00000E027E045F24910009004EB840028493D
:1008D00001EB8000B0F9100000EE100AB8EEC00A7B
:1008E0008DED010A04EBC40101EB0411214A02EB76
:1008F000C101D1F8C400DDE9001200F025FD00209F
:1009000004EBC40101EB04111A4A02EBC101C1F866
:10091000C00025E045F65000009004EBC40000EB59
:100920000410144901EBC000806C019004EBC40179
:1009300001EB04110F4A02EBC101D1F8C400DDE95B
:10094000001200F001FD002004EBC40101EB0411D2
:10095000084A02EBC101C1F8C00001E0FFE700BF97
:1009600000BF641C082CFFF662AF00BF1CBD000076
:10097000080C0020B8050020B7AEFFBF00007A4485
:1009800000220C4B994202D10023836111E0C1F394
:10099000130201F000730BB1C2600AE001F0806342
:1009A0000BB1026105E001F000630BB1826000E071
:1009B000426070477000F0302DE9F04F8BB0064672
:1009C0000F4614461D46DDF850804FF00009CA4618
:1009D000CB46B5F5807F43D012DC102D34D008DC37
:1009E000012D25D0022D26D0042D27D0082D4FD142
:1009F00027E0202D2BD0402D2CD0802D48D12CE06D
:100A0000B5F5805F38D009DCB5F5007F2BD0B5F5A2
:100A1000806F2BD0B5F5006F3AD12AE0B5F5005FB5
:100A20002DD0B5F5804F2DD0B5F5004F30D12CE04D
:100A30004FF000092DE04FF001092AE04FF00209C4
:100A400027E04FF0030924E04FF0040921E04FF0C4
:100A500005091EE04FF006091BE04FF0070918E0FA
:100A60004FF0080915E04FF0090912E04FF00A09AC
:100A70000FE04FF00B090CE04FF00C0909E04FF0CC
:100A80000D0906E04FF00E0903E04FF00F0900E0FA
:100A900000BF00BFB8F5807F4BD01ADCB8F1100F53
:100AA0003BD00CDCB8F1010F2BD0B8F1020F2BD0EA
:100AB000B8F1040F2BD0B8F1080F52D12AE0B8F1E9
:100AC000200F2DD0B8F1400F2DD0B8F1800F48D1B4
:100AD0002CE0B8F5805F38D009DCB8F5007F2BD06A
:100AE000B8F5806F2BD0B8F5006F3AD12AE0B8F591
:100AF000005F2DD0B8F5804F2DD0B8F5004F30D124
:100B00002CE04FF0000A2DE04FF0010A2AE04FF0F0
:100B1000020A27E04FF0030A24E04FF0040A21E024
:100B20004FF0050A1EE04FF0060A1BE04FF0070ADF
:100B300018E04FF0080A15E04FF0090A12E04FF0F4
:100B40000A0A0FE04FF00B0A0CE04FF00C0A09E024
:100B50004FF00D0A06E04FF00E0A03E04FF00F0AC7
:100B600000E000BF00BF7F48304418B1B0F5806F8F
:100B70001AD10CE04FF0090B00208DF81200142060
:100B80008DF804000121480601F0E4F90DE04FF072
:100B9000090B0E208DF8120040208DF80400012171
:100BA000000501F0D7F900E000BF00BFC4F3090061
:100BB00078BBA012A0F580108038092834D2DFE875
:100BC00000F0050A0F14191E23292E0001210846E2
:100BD00001F0B0F929E00121022001F0ABF924E095
:100BE0000121042001F0A6F91FE00121082001F0F5
:100BF000A1F91AE00121102001F09CF915E0012172
:100C0000202001F097F910E00121402001F092F935
:100C10000BE009E00121802001F08CF905E00121C1
:100C2000080201F087F900E000BF00BF5A464946BC
:100C3000204600F0BFFE5A465146204600F0BAFE5C
:100C400045EA0800099002208DF828008DF8290057
:100C500000208DF82A0001208DF82B0009A92046DC
:100C600000F060FE304600F07FF800208DF81E0096
:100C70008DF81F008DF820008DF821008DF82200DE
:100C80008DF823008DF81A008DF81B000B208DF8CD
:100C90001C0007208DF81D007D2F22D008DC0A2FB4
:100CA0000FD0142F11D0322F13D0642F29D114E07C
:100CB000FA2F1AD0B7F5FA7F1BD0B7F57A7F20D17B
:100CC0001BE0C820ADF818001CE06420ADF8180047
:100CD00018E02820ADF8180014E01420ADF8180032
:100CE00010E01020ADF818000CE00820ADF8180056
:100CF00008E00420ADF8180004E00220ADF8180068
:100D000000E000BF00BF06A9304600F0D6F8002082
:100D10008DF8130001208DF814000020ADF80800B4
:100D2000ADF80A00ADF80C00ADF80E00ADF81000FB
:100D300001208DF8150002A800F032F800208DF88F
:100D4000050003208DF8060001208DF8070001A89A
:100D500001F044F801220221304600F0A5F80BB062
:100D6000BDE8F08F009CFFBF10B504460B488442DD
:100D700009D10121480601F0FDF800214FF0007073
:100D800001F0F8F808E00121880601F0F3F80021ED
:100D90004FF0806001F0EEF810BD000000640040EC
:100DA00010B50021837A012202FA03F13D4A12684C
:100DB00042F001023B4B1A603A4A1C3212688A43E5
:100DC000384B1C331A60027BCAB9364A0C3212689F
:100DD0008A43344B0C331A604288C38842EA034387
:100DE000304A4032847A42F834300288838842EABA
:100DF00003432C4A4032847A02EBC4025360027BE4
:100E0000012A19D1274A0C3212680A43254B0C33A8
:100E10001A604288038842EA0343224A4032847AB5
:100E200042F83430C288838842EA03431D4A403284
:100E3000847A02EBC4025360C27A3AB9194A121D8D
:100E400012688A43174B1B1D1A6006E0154A121DD3
:100E500012680A43134B1B1D1A60028932B9114AEA
:100E6000143212688A430F4B14331A600289012A24
:100E700006D10C4A143212680A430A4B14331A6022
:100E8000427B012A06D1074A1C3212680A43054BED
:100E90001C331A60034A126822F00102014B1A60E7
:100EA00010BD0000006600401AB143690B43436166
:100EB00002E043698B434361704730B5024600202E
:100EC0000023146824F002041460146844F0010440
:100ED000146000E05B1C546804F001041CB94FF678
:100EE000FF74A342F6D1546804F001040CB9002049
:100EF0006CE08C79012C04D1146844F080041460F7
:100F000003E0146824F080041460CC79012C04D12F
:100F1000146844F04004146003E0146824F04004B2
:100F200014600C7A012C04D1146844F0200414607D
:100F300003E0146824F0200414604C7A012C04D1DE
:100F4000146844F01004146003E0146824F01004E2
:100F500014608C7A012C04D1146844F008041460E5
:100F600003E0146824F008041460CC7A012C04D146
:100F7000146844F00404146003E0146824F00404CA
:100F800014608C78A407CD7844EA05640D7944EAAE
:100F900005444D7944EA05540D886D1E2C43D461F7
:100FA000146824F001041460002300E05B1C546802
:100FB00004F001041CB14FF6FF74A342F6D154684B
:100FC00004F001040CB1002000E0012030BD024615
:100FD000002019B9D36803F0030006E0012903D10A
:100FE000136903F0030000E00020704710B500F51E
:100FF000D87303EB01131B6803F004031372137A15
:1010000053B900F5D87303EB01131B6840F2FF746A
:1010100004EA5353136009E000F5D87303EB01139E
:101020001B686FF0604404EAD303536000F5D87383
:1010300003EB01131B6803F00203537200F5D8732E
:1010400003EB01135B6803F00F03937200F5D87391
:1010500003EB01135B681B0AD37400F5D87303EB31
:1010600001139B68D37200F5D87303EB01139B68DF
:101070001C0A147300F5D87303EB01139B681C0C56
:10108000547300F5D87303EB01139B681B0E937325
:1010900000F5D87303EB0113DB68D37300F5D87345
:1010A00003EB0113DB681C0A147400F5D87303EB1F
:1010B0000113DB681C0C547400F5D87303EB0113A7
:1010C000DB681B0E937421B9C36843F02003C3602F
:1010D00003E0036943F02003036110BD2DE9F041F3
:1010E00086B080460D4616461F4600240021404625
:1010F000FFF76DFF18B9002006B0BDE8F08101AA26
:1011000000214046FFF772FF002405E00DF10F00BB
:10111000005D3055601CC4B2BC42F7DB019828600A
:101120000120E9E710B502460020936803F08063D0
:10113000B3F1806F00D110E0936803F00063B3F166
:10114000006F01D1012008E0936803F08053B3F1F0
:10115000805F01D1022000E00420042874D002F551
:10116000C07303EB00131B6803F0010402F5C073A6
:1011700003EB00131C600B7A7BB94B7A0C8843EAB3
:10118000445302F5C07404EB00142468234302F5B1
:10119000C07404EB0014236010E00B7A4C6843EA3F
:1011A000C4034C7A234302F5C07404EB0014246892
:1011B000234302F5C07404EB001423608B7A03F020
:1011C0000F038B7202F5C07303EB00135B6823F00F
:1011D0000F0402F5C07303EB00135C6002F5C073EB
:1011E00003EB00135B688C7A234302F5C07404EBB5
:1011F000001463608B7B1C064B7B44EA03440B7B2F
:1012000044EA0323CC7A234302F5C07404EB0014B0
:10121000A3608B7C1C064B7C44EA03440B7C44EAB1
:101220000323CC7B234302F5C07404EB0014E3607A
:1012300002F5C07303EB00131B6843F0010402F5D1
:10124000C07303EB00131C6010BD000010B5024614
:10125000002321B1012907D002290FD109E09068AC
:101260001D4C00EA04030BE090681C4C00EA0403E8
:1012700006E090681A4C00EA040301E0002300BF76
:1012800000BF184C181BA34216D007DC83B16FF0C7
:101290008060184470B1022818D111E0B0F5007FC9
:1012A00010D0114C204448B1B0F5003F0ED10BE0F6
:1012B00002230DE000230BE0002309E0002307E0F8
:1012C000012305E0012303E0012301E0002300BF27
:1012D00000BFD8B210BD00000300000400030008E6
:1012E00000000310000100080001FFF710B5002204
:1012F000D1E900341A1B0B684B60B424235803EB6C
:10130000D374B2EB640F02DDB4231B58D21AB42499
:10131000235803EBD37464106442944202DDB42377
:101320001B581A44836C1344836491ED030AB8EE8E
:10133000C00ADFED040A20EE200A80ED060A90EDD7
:10134000060A10BD63CF0B3E37B586B0044604F5E0
:1013500020700190029000208DF80C008DF80D0097
:1013600008208DF80E00002004E007A90A5C0D3962
:101370000A54401C0828F8DB01A90648FFF7D2FEF2
:10138000054600BF29460348FFF760FF0128F9D151
:1013900009B030BD0068004010B50949094800F0A7
:1013A00039F860B10021074800F028F804490548E1
:1013B00000F00AF84FF4AF61024800F0E5F810BD04
:1013C00000800018586002400246094B9A4201D240
:1013D000084801E00648103801F000531BB1064BE5
:1013E0000B40C36002E0044B0B4083607047000079
:1013F00010640240006002407D0F7D0F21B1026841
:1014000042F00102026003E0026822F00102026081
:101410007047000070B50246002000240025124EDF
:10142000B24201D2114B01E00F4B103B104E0E4067
:1014300036B11E2606EAD124166806EA040502E043
:10144000566906F0800501F000560EB15C6800E0B8
:101450001C68084E344004EA010616B10DB10120A3
:1014600000E0002070BD00001064024000600240F7
:101470003C0F3C0F7D0F7D0F10B501F080034BB189
:1014800022B1436943F08003436103E0436923F0E1
:101490008003436180290BD02AB1036801F01E0448
:1014A0002343036004E0036801F01E04A3430360C8
:1014B00010BD000010B500220268134B1A40CC6822
:1014C0000B6823434C6923438C692343CC69234332
:1014D0000C6A23434C6A23438C6A23434C6B23439B
:1014E0008C6B23431A430260426922F00702D1E960
:1014F0000B3423431A4342610B6943604B6883609A
:101500008B68C36010BD00003F801CF038B50546F5
:101510000C461A480088C82824DC1849088800EBC3
:10152000D0714910A0EB410171B9144800881349EA
:101530000988491C114A1180114B09220121009090
:10154000284600F0FEFD0DE00C4800880B49098894
:10155000491C0A4A11800A4B0A22012100902046A8
:1015600000F0EFFD05480088C82806D10121054894
:10157000FFF744FF00200149088038BD0400002027
:101580002C00002058600240416070477047000006
:101590000120D14908720221CF48017780F830102C
:1015A000032180F844100921CC48C0F8C4100A2156
:1015B000C0F88C110B21C0F85412002067E1002103
:1015C00000EBC00202EB0012C44B03EBC20211722B
:1015D0004FF4005200EBC00101EB001103EBC1011D
:1015E000C1F8B42000EB8001BB4A02EB8101097A0B
:1015F00001297CD1052100EBC00202EB001243F867
:1016000032109FEDB70A00EBC00101EB00111A4642
:1016100002EBC10181ED0D0A9FEDB20A00EBC001A2
:1016200001EB001102EBC10181ED0E0AB3EE040AD9
:1016300000EBC00101EB001102EBC10181ED110AC9
:101640009FEDA90A00EBC00101EB001102EBC10103
:1016500081ED090A9FEDA50A00EBC00101EB001125
:1016600002EBC10181ED1A0A9FEDA10A00EBC00156
:1016700001EB001102EBC10181ED190A9FED9D0AFA
:1016800000EBC00101EB001102EBC10181ED230A67
:10169000B7EE000A00EBC00101EB001102EBC10143
:1016A00081ED0B0AB7EE000A00EBC00101EB00115F
:1016B00002EBC10181ED0C0A9FED8F0A00EBC00126
:1016C00001EB001102EBC10181ED070A9FED870AD2
:1016D00000EBC00101EB001102EBC10181ED130A27
:1016E00000EBC00101EB001102EBC10100E022E0C0
:1016F00091ED0C0ADFED810A20EE200A00EBC0011B
:1017000001EB001102EBC10181ED170A9FED7A0A8E
:1017100000EBC00101EB001102EBC10181ED160AE3
:101720009FED770A00EBC00101EB001102EBC10154
:1017300081ED220AAAE000EB8001674A02EB8101F9
:10174000097A02297DD1062100EBC00202EB0012CA
:10175000624B43F832109FED6B0A00EBC00101EBC6
:1017600000111A4602EBC10181ED0D0A9FED660AD8
:1017700000EBC00101EB001102EBC10181ED0E0A8B
:10178000B1EE080A00EBC00101EB001102EBC10150
:1017900081ED110A9FED5D0A00EBC00101EB001124
:1017A00002EBC10181ED090A9FED560A00EBC00171
:1017B00001EB001102EBC10181ED1A0A9FED540A01
:1017C00000EBC00101EB001102EBC10181ED190A30
:1017D0009FED500A00EBC00101EB001102EBC101CB
:1017E00081ED230A9FED4C0A00EBC00101EB0011D3
:1017F00002EBC10181ED0B0A9FED470A00EBC0012E
:1018000001EB001102EBC10181ED0C0A9FED3A0AD8
:1018100000EBC00101EB001102EBC10181ED070AF1
:101820009FED320A00EBC00101EB001102EBC10198
:1018300081ED130A00EBC00101EB001102EBC101C5
:1018400000E022E091ED0C0ADFED2C0A20EE200AE8
:1018500000EBC00101EB001102EBC10181ED170AA1
:101860009FED250A00EBC00101EB001102EBC10165
:1018700081ED160A9FED220A00EBC00101EB001179
:1018800002EBC10181ED220A00E003E0401C0828C0
:10189000FFF695AE00BF062010490860C1F8C800E9
:1018A000C1F890019FED1D0A084680ED230A9FEDC7
:1018B0001B0A80ED550A9FED190A80ED870A9FEDFE
:1018C000180A80ED220A9FED140A80ED540A9FED5C
:1018D000120A80ED860A7047080C0020B805002027
:1018E000CDCCCC3D6F12833A0000A0440000000034
:1018F000AE47E13DCDCC4C3F00007A433333333F1C
:10190000000020C3CDCC4C3DA69B443B00001645B7
:101910001B2FDD3C333333400000C8426666E63F90
:1019200000004842F0B50A4600210023002400BF11
:101930003DE0012505FA01F3156805EA03049C4220
:1019400034D105684F000326BE40B54305601579C4
:101950004E00B5400668354305601579012D02D06B
:101960001579022D16D185684F000326BE40B54378
:10197000856055794E00B540866835438560456879
:1019800001268E40B5434560456896798E40B6B2D3
:1019900035434560C5684F000326BE40B543C5606A
:1019A000D5794E00B540C6683543C560491C10293D
:1019B000BFD3F0BDF0B5002300244D07ED0E02FAB1
:1019C00005F3CE1000F1200555F826504E07F70E0E
:1019D0000F26BE40B543CF1000F1200646F8275031
:1019E000CE1000F1200555F8265045EA0304CE102C
:1019F00000F1200545F82640F0BD41837047018382
:101A0000704700BFFEE7000000B5024692ED220AD3
:101A100082ED080A02F1180001F080FDF0EE401A94
:101A200092ED230AF0EE400AB0EE610A00F048F8A9
:101A300082ED260A92ED060AB0EEC00AF0EE000A28
:101A4000B4EEE00AF1EE10FA05D894208058401C5C
:101A50009421885002E000219420815094208058E5
:101A6000B0F5FA7F29DB0020906492ED120AB8EEFF
:101A7000C00ADFED120A30EE200A82ED130A9FED54
:101A80000F0A82ED260A9FED0D0A82ED070A9FEDEF
:101A90000B0A82ED080A9FED090A82ED100A9FEDFC
:101AA000070A82ED030A9FED050A82ED260A9FEDE3
:101AB000030A82ED0F0A0520106000BD000000003F
:101AC000B4EEE00AF1EE10FA01DDB0EE600AB1EE1C
:101AD000601AB4EEC10AF1EE10FA03D2B1EE601A48
:101AE000B0EE410A704700BFFEE7000010B500F0FD
:101AF0008FFF00F083FF884908610A46916C1069E6
:101B0000FFF704FD0024B5E004EB8400834901EBFA
:101B10008000007A032800D1AFE004EB84027F4B01
:101B200003EB820104EBC40202EB04127A4B03EBD9
:101B3000C200FFF7DBFB04EBC40000EB04107649A6
:101B400001EBC000007A01280AD09FED750A04EB72
:101B5000C40000EB041001EBC00080ED030A88E034
:101B600004EBC40000EB04106B4951F8300002286C
:101B700040D0052802D0062878D15BE004EBC401F0
:101B800001EB0411644A02EBC10101F1480000F0CD
:101B90006BF904EBC40000EB04105F4901EBC000DB
:101BA00090ED1B0A04EBC40000EB041001EBC00035
:101BB00080ED070A04EBC40101EB0411564A02EB65
:101BC000C10101F1180001F0E1FC04EBC40101EBDB
:101BD0000411514A02EBC10101F1180001F09EFC11
:101BE00004EBC40000EB04104B4901EBC00080ED96
:101BF000030A3CE004EBC40101EB0411464A02EB8A
:101C0000C10101F1180001F0C1FC04EBC40101EBBA
:101C10000411414A02EBC10101F1180001F07EFC00
:101C200004EBC40000EB04103B4901EBC00080ED65
:101C3000030A1CE004EBC40101EB0411364A02EB79
:101C4000C100FFF7E1FE04EBC40000EB04103249D1
:101C500001EBC00090ED260A04EBC40000EB041079
:101C600001EBC00080ED030A01E0FFE700BF00BF09
:101C700000BF641C082CFFF647AF00BF002045E002
:101C800000EB8001254A02EB8101097A012916D176
:101C900000EBC00101EB00111F4A02EBC10191ED05
:101CA000030ADFED200A20EE200AF3EE040A80EE9C
:101CB000201A1D4901EB800181ED001A25E000EB9F
:101CC0008001164A02EB8101097A022916D100EB44
:101CD000C00101EB0011104A02EBC10191ED030AB2
:101CE000DFED120A20EE200AF2EE040A80EE201A3E
:101CF0000D4901EB800181ED001A06E09FED080A15
:101D0000094901EB800181ED000A401C0428B7DB82
:101D1000054800F053FA10BDB8050020080C00205B
:101D20000000000000008046F80B002000401C4628
:101D3000002100EBC00202EB0012024B03EBC202D7
:101D400011727047B805002000EBC00101EB0011D3
:101D50001F4A52F83110052911D100EBC00101EBE7
:101D6000001102EBC10191ED120AB8EEC00A00EBBE
:101D7000C00101EB001102EBC10181ED130A00EB80
:101D8000C00101EB0011124A52F83110022909D1A9
:101D90009FED100A00EBC00101EB001102EBC10145
:101DA00081ED070A9FED0B0A00EBC00101EB00116A
:101DB000074A02EBC10181ED0F0A012100EBC002CD
:101DC00002EB0012024B03EBC202117270470000DB
:101DD000B80500200000000000BFFEE770B500213C
:101DE00000230F22C4781CB3174C246804F4E06469
:101DF000C4F5E064C4F30721C1F10404E3B20A416D
:101E000044789C40E1B28478144021430C07210EB1
:101E10000E4C05786155047804F01F050124AC4090
:101E200005786D11AD0005F1E025C5F8004109E028
:101E3000047804F01F050124AC40054D06787611A6
:101E400045F8264070BD00000CED00E000E400E025
:101E500080E100E002490143024A1160704700003E
:101E60000000FA050CED00E000B59FED300AF0EE41
:101E7000401A9FED2E0AB0EE402AB7EE000AF0EEAF
:101E8000402AD0ED010A90ED000AB8EEC00A30EE0B
:101E9000C00A80ED020A90ED020AD0ED070A20EE9A
:101EA000200AD0ED020A90ED031A70EEC10A90EDFF
:101EB000081A01EE200AF0EE401A90ED020A80EDB9
:101EC000030A90ED020AB5EEC00AF1EE10FA03D251
:101ED000BFEE000AF0EE402A90ED050ADFED140A8D
:101EE00020EE200A20EE220AD0ED020A60EE200A3F
:101EF000B1EEE00A20EE220AB0EE402AB0EEC20AAD
:101F0000F0EEE10AB4EEE00AF1EE10FA01D2F0EEE2
:101F1000421A90ED040AF0EE400AB0EE610AFFF7B3
:101F2000CFFD80ED090A90ED090A00BD0000000018
:101F30003333B33F29B1064A12680243044B1A6097
:101F400004E0034A12688243014B1A6070470000A4
:101F50003038024029B1064A12680243044B1A6025
:101F600004E0034A12688243014B1A607047000084
:101F70004038024029B1064A12680243044B1A60F5
:101F800004E0034A12688243014B1A607047000064
:101F90002038024029B1064A12680243044B1A60F5
:101FA00004E0034A12688243014B1A607047000044
:101FB00044380240F0B5002100220024022500260A
:101FC0000223324F3F6807F00C0121B1042905D0EC
:101FD000082937D105E02E4F076036E02D4F076006
:101FE00033E02A4F3F1F3F68C7F38056274F3F1FFC
:101FF0003F6807F03F036EB1264FB7FBF3F7DFF8FA
:102000008CC0ACF1040CDCF800C0CCF3881C07FBDE
:102010000CF40CE01E4FB7FBF3F7DFF870C0ACF127
:10202000040CDCF800C0CCF3881C07FB0CF4174F41
:102030003F1F3F68C7F301477F1C7D00B4FBF5F7E6
:10204000076002E0124F076000BF00BF0F4F3F68FC
:1020500007F0F0010909104F7A5C0768D740476024
:102060000A4F3F6807F4E051890A0B4F7A5C4768D2
:10207000D7408760054F3F6807F46041490B064F22
:102080007A5C4768D740C760F0BD0000083802405E
:102090000024F40000127A001A00002010B5044653
:1020A00000BF0221094800F01FF80028F9D021469E
:1020B000064800F025F800BF0121044800F014F89C
:1020C0000028F9D0014800F018F810BD0030014098
:1020D00021B1028842F04002028004E002884FF6FB
:1020E000BF731A40028070470246002013890B40DC
:1020F0000BB1012000E0002070470146888970473D
:102100008181704710B50022028802F441520B8889
:102110004C8823438C882343CC8823430C89234356
:102120004C8923438C892343CC8923431A4302805F
:10213000838B4FF2FF74234083830B8A038210BD8D
:1021400070472DE9F0470746884691461C46089D92
:102150000026B246BA46B8F1000F0DD0002F06DABD
:102160002D20C5EBC5016054CAF1000A08E020200B
:10217000C5EBC501605403E02020C5EBC5016054E8
:10218000012612E0C6F105010A2001F0D9FABAFBD6
:10219000F0F00A21B0FBF1F201FB12003030C5EB88
:1021A000C50121448855701CC6B2062EEADBC5EB7A
:1021B000C500204480F80690BDE8F08730B587B0B0
:1021C000054600200090019000BF0BE005EB800168
:1021D00091ED000ABDEEC00A10EE101A09B22DF8FA
:1021E0001010401C0428F1DB4FF4007002900390A3
:1021F00000208DF810008DF8110008208DF81200D5
:10220000BDF80000000A8DF81300BDF80000C1B24F
:102210008DF81410BDF80200010A8DF81510BDF8F4
:102220000200C1B28DF81610BDF80400010A8DF845
:102230001710BDF80400C1B28DF81810BDF80600E3
:10224000010A8DF81910BDF80600C1B28DF81A10F8
:1022500002A90648FEF766FF044600BF2146034870
:10226000FEF7F4FF0128F9D107B030BD006400404B
:102270000CB50020019000903448006840F4803094
:102280003249086000BF3148006800F40030009017
:102290000198401C0190009818B90198B0F5A06F02
:1022A000F1D12A48006800F4003010B101200090FC
:1022B00001E0002000900098012846D123484030DA
:1022C000006840F080502149403108602048006893
:1022D00040F480401E4908601C48083000681B49D3
:1022E000083108600846006840F40040086008466D
:1022F000006840F4A05008601648091F0860081FD5
:10230000006840F08070091F086000BF0F48006837
:1023100000F000700028F9D040F205600E49086016
:102320000A480830006820F00300084908310860B6
:102330000846006840F00200086000BF034808300B
:10234000006800F00C000828F8D10CBD00380240ED
:102350000070004008544007003C024000B587B0C0
:1023600001210846FFF7E6FD01210803FFF712FEF1
:10237000E020059002208DF8180000208DF81A004A
:1023800003208DF8190001208DF81B0005A92748AE
:10239000FFF7C8FA052211462448FFF70BFB052278
:1023A00006212248FFF706FB052207211F48FFF7F9
:1023B00001FB1020059001208DF8180000208DF8F9
:1023C0001A0003208DF8190001208DF81B0005A9C3
:1023D0001648FFF7A7FA10211448FFF710FB4FF437
:1023E0008270ADF802000020ADF800004FF40060EC
:1023F000ADF804002020ADF80C000020ADF80E0070
:10240000ADF806000120ADF808004002ADF80A0062
:102410000720ADF8100069460548FFF773FE01215B
:102420000348FFF755FE07B000BD00000000024062
:102430000030014010B51548006840F470001349A1
:1024400008601348006840F001001149086000204E
:102450000F49083108600E4800680E4908400C49D1
:1024600008600D48091D0860081F006820F48020DE
:10247000091F0860002006490C310860FFF7F8FECC
:102480004FF0006001498039086010BD88ED00E020
:1024900000380240FFFFF6FE1030002410B5012185
:1024A000044800F05AF9012803D10121014800F045
:1024B00049F810BD0000014010B50121880700F067
:1024C0004CF9012805D10121800700F03BF8FFF706
:1024D0000DFB10BD10B50121044800F03EF90128A4
:1024E00003D10121014800F02DF810BD0004004087
:1024F00010B50121044800F030F9012803D1012171
:10250000014800F01FF810BD0008004010B501217F
:10251000044800F022F9012803D10121014800F00C
:1025200011F810BD000C004010B50121044800F066
:1025300014F9012803D10121014800F003F810BD6E
:1025400000040140CA430282704721B1028842F070
:102550000102028004E002884FF6FE731A400280F6
:1025600070470000FEB504460D460026002000908E
:10257000019002906D49601A8C426FD01ADC6C4950
:10258000A4EB01008C4274D00ADCB4F1804F53D02C
:1025900068482044002858D0B0F5806F72D15FE0C1
:1025A000B0F5806F71D0B0F5006F77D0B0F5406FA7
:1025B000F4D17DE0B0F5923F23D009DCB0F5806F17
:1025C00075D0B0F5644F0AD0B0F5684F5AD10FE01E
:1025D000B0F5943F1ED0B0F5963F53D123E00121D2
:1025E0000846FFF7D7FC44F2A010ADF800007BE0EE
:1025F00001210220FFF7CEFC44F2A010ADF800004C
:1026000072E001210804FFF7C5FC44F2A010ADF808
:10261000000069E001214804FFF7BCFC44F2A0106F
:10262000ADF8000060E001218804FFF7B3FC44F23C
:10263000A010ADF8000057E001210846FFF78AFC22
:1026400042F2D000ADF800004EE001210220FFF779
:1026500081FC42F2D000ADF8000045E031E008E036
:1026600001210420FFF776FC42F2D000ADF8000013
:102670003AE001210820FFF76DFC42F2D000ADF8EE
:10268000000031E02FE000E008E001211020FFF71A
:1026900061FC42F2D000ADF8000025E001212020CD
:1026A000FFF758FC42F2D000ADF800001CE011E04A
:1026B00001214020FFF74EFC42F2D000ADF80000AF
:1026C00012E001218020FFF745FC42F2D000ADF876
:1026D000000009E001210802FFF73CFC42F2D000B3
:1026E000ADF8000000E000BF00BF4FF6FF700190A2
:1026F0000020ADF80800ADF802006946204600F061
:102700002BF901212046FFF720FF0021204600F091
:1027100021F903E0204600F01DF886B2AE42F9DB55
:1027200000212046FFF711FFFEBD0000001C004005
:10273000000C004000FCFFBF70B506460C460025AB
:1027400000BF04E00A213046FFF70CFF6D1CA542D4
:10275000F8D370BD0146486A704730B50246002084
:1027600000230024158A05EA0103958905EA01047E
:1027700013B10CB1012000E0002030BD1AB18389F3
:102780000B43838102E083898B4383817047000080
:102790002DE9FF4104460D4616461F46DDF8288008
:1027A0006949601A8C4270D01ADC6849A4EB0100B8
:1027B0008C426CD00ADCB4F1804F4ED06448204487
:1027C000002852D0B0F5806F71D156E0B0F5806F1F
:1027D00065D0B0F5006F6CD0B0F5406FF4D170E00B
:1027E000B0F5923F21D009DCB0F5806F7AD0B0F51A
:1027F000644F0AD0B0F5684F7CD10EE0B0F5943F3D
:102800001BD0B0F5963F75D11FE001210846FFF7B8
:10281000C1FB19208DF800006DE001210220FFF7B7
:10282000B9FB2C208DF8000065E001210804FFF7BA
:10283000B1FB18208DF800005DE001211920FFF7A1
:10284000A9FB2C208DF8000055E001218804FFF73A
:10285000A1FB1A208DF800004DE001210846FFF78A
:1028600079FB1C208DF8000045E001210220FFF7D4
:1028700071FB1D208DF800003DE001210420FFF7D1
:1028800069FB1E208DF8000035E023E0FFE7012101
:102890000820FFF75FFB32208DF800002BE00121BC
:1028A0001020FFF757FB36208DF8000023E021E0D1
:1028B000FFE701212020FFF74DFB37208DF80000B6
:1028C00019E001214020FFF745FB2B208DF8000087
:1028D00011E007E001218020FFF73CFB2C208DF860
:1028E000000008E001210802FFF734FB2D208DF8DD
:1028F000000000E000BF00BF0295ADF804600020BA
:10290000ADF80C00ADF8060001A9204600F024F84F
:1029100001212046FFF716FE012211462046FFF74F
:102920002DFFF8B28DF8010008F0FF008DF80200CD
:1029300001208DF803006846FFF750FA0121204678
:10294000FFF703FEBDE8FF81001C0040000C0040C3
:1029500000FCFFBF4162704700220288184B98427A
:102960000ED0184B98420BD0B0F1804F08D0164BC8
:10297000984205D0154B984202D0154B984204D18D
:102980004FF68F731A404B881A43124B984207D068
:10299000114B984204D04FF6FF431A400B891A435B
:1029A00002804B68C3620B880385054B984202D0B6
:1029B000044B984201D18B7A0386012383827047AE
:1029C00000000140000401400004004000080040F5
:1029D000000C0040001000400014004010B500F052
:1029E0001BF805490860084690ED000AB8EEC00AD9
:1029F00080ED040A10BD0000A80C00200348016807
:102A0000C81701EB9070801070470000A80C0020E0
:102A100010B5FFF7E3FF10BD38B50024002000908B
:102A2000694648F2214000F007F80446BDF800006E
:102A3000C0F30E0038BD000070B505460C461021ED
:102A4000A148FEF7DAFF00BF00BF00BF00BF00BF14
:102A500000BF00BF00BF00BF00BF00BF00BF00BF7E
:102A600000BF00BF00BF00BF00BF00BF00BF00BF6E
:102A700000BF00BF00BF00BF00BF00BF00BF00BF5E
:102A800000BF00BF00BF00BF00BF00BF00BF00BF4E
:102A900000BF00BF00BF00BF00BF00BF00BF00BF3E
:102AA00000BF00BF00BF00BF00BF00BF00BF00BF2E
:102AB00000BF00BF00BF00BF00BF00BF00BF00BF1E
:102AC00000BF00BF00BF00BF00BF00BF00BF00BF0E
:102AD00000BF00BF00BF00BF00BF00BF00BF00BFFE
:102AE00000BF00BF00BF00BF00BF00BF00BF00BFEE
:102AF00000BF00BF00BF00BF00BF00BF00BF00BFDE
:102B000000BF00BF00BF00BF00BF00BF00BF00BFCD
:102B100000BF00BF00BF00BF00BF00BF00BF00BFBD
:102B200000BF00BF00BF00BF00BF00BF00BF00BFAD
:102B300000BF00BF00BF00BF00BF00BF00BF00BF9D
:102B400000BF00BF00BF00BF00BF00BF00BF00BF8D
:102B500000BF00BF00BF00BF00BF00BF00BF00BF7D
:102B600000BF00BF00BF00BF00BF00BF00BF00BF6D
:102B700000BF00BF00BF00BF00BF00BF00BF00BF5D
:102B800000BF00BF00BF00BF00BF00BF00BF00BF4D
:102B900000BF00BF00BF00BF00BF10214A48FEF7C2
:102BA0002EFF00BF00BF00BF00BF00BF00BF00BFBF
:102BB00000BF00BF00BF00BF00BF00BF00BF00BF1D
:102BC00000BF00BF00BF00BF00BF00BF00BF00BF0D
:102BD00000BF00BF00BF00BF00BF00BF00BF00BFFD
:102BE00000BF00BF00BF00BF00BF00BF00BF00BFED
:102BF00000BF00BF00BF00BF00BF00BF00BF00BFDD
:102C000000BF00BF00BF00BF00BF00BF00BF00BFCC
:102C100000BF00BF00BF00BF00BF00BF00BF00BFBC
:102C200000BF00BF00BF00BF00BF00BF00BF00BFAC
:102C300000BF00BF00BF00BF00BF00BF00BF00BF9C
:102C400000BF00BF00BF00BF00BF00BF00BF00BF8C
:102C500000BF00BF00BF00BF00BF00BF00BF00BF7C
:102C600000BF00BF00BF00BF00BF10211648FEF725
:102C7000C4FE2846FFF712FA00BF1348006820F48C
:102C800040401149086008460068086000BF2846B7
:102C9000FFF704FA20802846FFF700FA0B49088066
:102CA00010210948FEF7ABFE00BF0748006820F47A
:102CB0004040054908600846006840F4004008604C
:102CC00000BF0248008870BD0000024018000020CC
:102CD00010B540F22551054800F0C6FA012804D18C
:102CE00040F22551014800F08EFA10BD005000401E
:102CF00010B596B0044601210420FFF71BF901210D
:102D00008804FFF727F901214805FFF713F9072287
:102D10000A214248FEF74EFE07220B213F48FEF7EC
:102D200049FE4FF44060149002208DF854008DF855
:102D3000550000208DF8560001208DF8570014A989
:102D40003648FEF7EFFD10940020ADF84400ADF8D2
:102D50004600ADF84800ADF84C000C20ADF84A0034
:102D600010A92F4800F0D0FA01212D4800F05AFA9E
:102D7000012280212A4800F061FA012240F2255107
:102D8000274800F09BFA4FF0006000902448001D97
:102D9000019024480290402003904FF4AF600490CB
:102DA000002005904FF48060069000200790089066
:102DB00009904FF400300A9000200B9001200C90F5
:102DC00000200D900E9069461748FEF773FB012115
:102DD0001548FEF713FB012210211348FEF74CFBA8
:102DE0000E208DF83C0002208DF83D008DF83E004D
:102DF00001208DF83F000FA8FEF7F0FF27208DF887
:102E00003C0000208DF83D0001208DF83E008DF83B
:102E10003F000FA8FEF7E2FF16B010BD0008024009
:102E2000004800402C0000205860024010B540F2DD
:102E300025510A4800F018FA01280ED140F2255118
:102E4000064800F0E0F9054800F04BFB0449087023
:102E500008460178014800F005F810BD0048004020
:102E60000000002070B505460C46202C08D0AD4867
:102E7000AD4909684454AC480068401CAA49086040
:102E8000A9480068401EA749085C0A280BD0A6483C
:102E90000068401E085C0D2805D0A3480068401E4D
:102EA000085C3B287DD1A0480068012803D10020A0
:102EB0009D4908602CE19B4880783D2872D1994853
:102EC000C0782D281ED14FF0FF30984908600420AB
:102ED0000BE09449095C964A126802EB820201EB0E
:102EE00042013039924A1160401C8F490968491EDD
:102EF0008142EEDC8D4800688D49096848438C4961
:102F0000086012E003200BE08649095C884A1268D9
:102F100002EB820201EB42013039854A1160401C0C
:102F200081490968491E8142EEDC022281A17D4867
:102F3000FDF79AF9D0B97E4890ED000AB8EEC00AC4
:102F4000DFED7D0A20EE200A7C4880ED070A90ED37
:102F5000070ADFED7B0A20EE200ABDEEC00A10EE64
:102F6000102A78A1284600F039FAD1E0022278A18F
:102F70006C48FDF779F9E8B96D4890ED000AB8EEB4
:102F8000C00ADFED740A80EE201A6C4880ED0B1A3F
:102F900090ED0B0ADFED6F0A20EE200ABDEEC00AAD
:102FA00001E0BDE082E010EE102A6BA1284600F09F
:102FB00015FAADE002226BA15A48FDF755F9D0B9D8
:102FC0005B4890ED000AB8EEC00ADFED620A80EEC1
:102FD000201A5A4880ED0C1A90ED0C0ADFED5D0ABC
:102FE00020EE200ABDEEC00A10EE102A5EA128468F
:102FF00000F0F4F98CE002225EA14A48FDF734F9B2
:10300000D0B94B4890ED000AB8EEC00ADFED4A0A8D
:1030100020EE200A494880ED070A90ED070ADFED0F
:10302000480A20EE200ABDEEC00A10EE102A52A176
:10303000284600F0D3F96BE0022252A13948FDF78F
:1030400013F990B93A4890ED000AB8EEC00A3B482F
:1030500080ED130A90ED130ABDEEC00A10EE102A9F
:1030600049A1284600F0BAF952E0022249A12D48B0
:10307000FDF7FAF8A8B9314890ED120AF8EEC00A47
:103080002B4890ED000AB8EEC00A30EE800A2B48BB
:1030900080ED130A26483CA10268284600F09EF9FC
:1030A00036E03DA1284600F099F931E0022240A126
:1030B0001C48FDF7D9F878B9204890ED060ADFEDF5
:1030C000200A20EE200ABDEEC00A10EE102A39A117
:1030D000284600F083F91BE0022238A11148FDF7D1
:1030E000C3F830B9154836A1826C284600F076F94D
:1030F0000EE0022234A10B48FDF7B6F820B933A147
:10310000284600F06BF903E034A1284600F066F988
:10311000002005490860064908600120034908604D
:1031200070BD0000A4050020080000201000002051
:103130000C0000204A5600006F12833AB8050020A8
:1031400000007A444A563D25643B0D0A0000000009
:10315000414300000024744941433D25643B0D0A6E
:10316000000000004443000044433D25643B0D0A39
:10317000000000005350000053503D25643B0D0AF1
:10318000000000005041000050413D25643B0D0A05
:103190000000000050520000494E56414C49442066
:1031A000575249544520434D442121210D0A000026
:1031B00056580000565825643B0D0A005058000030
:1031C000505825643B0D0A004951000049512069BF
:1031D0006E76616C69640D0A00000000494E56412C
:1031E0004C4944205245414420434D442121210D66
:1031F0000A00000001F40072B2F5007F00D100BFA8
:10320000CA430280704710B50022002340F66A14BA
:10321000A14200D100BF0A1201249440A3B2DC43B2
:10322000048010BD21B1828942F40052828104E001
:1032300082894DF6FF731A40828170471AB1838AE2
:103240000B43838202E0838A8B438382704702466A
:103250000020B1F5007F00D100BF13880B400BB1F7
:10326000012000E00020704770B5024600240023D2
:103270000025002040F66A16B14200D100BFC1F31C
:10328000421501F01F03012606FA03F3012D02D1B6
:103290009689334006E0022D02D1168A334001E0C0
:1032A000968A33400C12012606FA04F4168834403C
:1032B00013B10CB1012000E0002070BDF0B5034651
:1032C000002400260025002040F66A17B94200D1EC
:1032D00000BF1846C1F3421401F01F06012707FA88
:1032E00006F5012C01D10C3004E0022C01D1103084
:1032F00000E014301AB107682F43076002E0076846
:10330000AF430760F0BD00002DE9FF4705460E46BC
:103310000024A14600BFA046B08900B100BF2C8A9E
:1033200024F44054F08804432C82AC8941F20C60B0
:103330008443B08831890843718908430443AC81D0
:10334000AC8A24F44074B0890443AC826846FEF72A
:1033500031FE2048854202D01F48854202D1DDF867
:103360000C9001E0DDF80890A88900F4004040B11D
:1033700009EBC90000EB091031684900B0FBF1F717
:1033800007E009EBC90000EB091031688900B0FBC8
:10339000F1F76420B7FBF0F004012009642101FB80
:1033A0001078A88900F4004040B1322000EBC8003A
:1033B000B0FBF1F000F00700044308E0322000EB1E
:1033C00008106421B0FBF1F000F00F0004432C81E1
:1033D000BDE8FF8700100140001401400FB470B534
:1033E00086B006460CA8019073E00B9800785C2824
:1033F0001CD10B98401C0B9000786E2809D07228C5
:103400000FD10D21304600F071F80B98401C0B9045
:103410000BE00A21304600F069F80B98401C0B9035
:1034200003E00B98401C0B9000BF4BE00B9800781A
:10343000252840D10B98401C0B900078642818D0A8
:10344000732833D1019810C801900BE021783046E1
:1034500000F04CF800BF40213046FFF7F8FE00288E
:10346000F9D0641C20780028F0D10B98401C0B90F8
:1034700020E0019820C801900A2202A9284600F005
:103480001DF902AC0BE02178304600F02FF800BFA8
:1034900040213046FFF7DBFE0028F9D0641C20787D
:1034A0000028F0D10B98401C0B9003E00B98401CB7
:1034B0000B9000BF06E00B9810F8011B0B903046F4
:1034C00000F014F800BF40213046FFF7C0FE00288E
:1034D000F9D00B980078002887D106B070BC5DF851
:1034E00014FB01468888C0F30800704730B50446D5
:1034F0000D4600BF80212046FFF7A9FE0028F9D025
:1035000080212046FFF776FE40212046FFF772FE1D
:10351000C5F30800A08030BD00BFFEE700B590ED08
:10352000020AD0ED000A30EE600A80ED040A90ED48
:10353000090AD0ED080A90ED041A00EE810A80ED28
:10354000090A90ED0B1AF0EE410A90ED091AB0EE5F
:10355000410AFEF7B5FA80ED090A90ED090AD0EDAF
:10356000070A90ED041A00EE810A80ED0A0A90ED38
:103570000B1AF0EE410A90ED0A1AB0EE410AFEF77E
:103580009FFA80ED0A0A90ED0A0A00BD90ED010A4B
:10359000D0ED050A30EE600AD0ED020AB4EEE00A82
:1035A000F1EE10FA08DD90ED020AD0ED050A30EEDA
:1035B000200A80ED020A19E090ED010AD0ED060A1A
:1035C00030EE200AD0ED020AB4EEE00AF1EE10FA75
:1035D00008D290ED020AD0ED060A30EE600A80EDC6
:1035E000020A03E090ED010A80ED020A90ED020A62
:1035F0007047000038B54FF4A060FEF72BFC4FF485
:103600006120FFF775FB4FF400704310254A4FF41B
:103610007A7100902448FDF7CFF940202023214AF9
:103620004FF4FA7100902148FDF7C6F9FEF796FEB7
:103630004DF6BF2000F090F800200346532240F2E0
:10364000E73100904FF08040FFF7A2F800214FF0E3
:103650008040FEF77AFFFDF79BFF01218807FEF708
:1036600074FFC8211248FFF767F8002415E004EB47
:103670008400104901EB8000007A032800D10EE09D
:10368000002004EBC40101EB04110B4A02EBC10161
:1036900088642046FEF758FB641C082CE7DB00BF5B
:1036A00038BD000000040240006400400068004093
:1036B00000040040080C0020B8050020F0B50346C7
:1036C0000D461646002729460A2E03D00020087012
:1036D0002846F0BD33B9302001F8010B00200870F6
:1036E0002846F6E7002B03DA2D2001F8010B5B4298
:1036F0000A4A0DE093FBF2F404B937B104F130004B
:1037000001F8010B04FB123301270A2092FBF0F2AF
:10371000002AEFDC002008702846DAE740420F005C
:1037200010B5FFF767FF9FED040A044880ED130A08
:1037300001E0FDF779F8FCE700000000B805002083
:1037400010B502460023012000BF02E050435C1C7C
:10375000E3B28B42FAD310BD00BF401E0028FCD15B
:1037600070474FF04070E1EE100A70478C37000848
:10377000000000202C000000C4010008B837000839
:103780002C00002044530000E0010008000000006D
:103790000000000000000000000000000100000028
:1037A000000000000000000000000102030401020C
:0837B0000304060708090000EC
:040000050800018965
:00000001FF
