:020000040800F2
:10000000484D0020290200084D170008451500083A
:10001000471600089703000811330008000000008D
:10002000000000000000000000000000ED220008B9
:10003000E5130008000000003F020008410200082C
:10004000430200084302000843020008430200087C
:10005000430200084302000843020008430200086C
:10006000430200084302000843020008430200085C
:100070004302000843020008F1110008430200088F
:10008000430200084302000843020008430200083C
:100090009D030008430200084302000843020008D1
:1000A00043020008852500084302000843020008B7
:1000B000A1250008BD250008D92500084302000835
:1000C00043020008430200084302000843020008FC
:1000D000430200084302000843020008212C0008E4
:1000E00043020008430200084302000843020008DC
:1000F00011260008430200084302000843020008DA
:100100004302000843020008F525000843020008E6
:1001100043020008C52A0008430200084302000801
:10012000430200084302000843020008430200089B
:10013000430200084302000843020008430200088B
:100140008904000843020008430200084302000833
:10015000430200084302000843020008430200086B
:10016000430200084302000843020008430200085B
:10017000430200084302000843020008430200084B
:10018000430200084302000800F002F800F03CF8C7
:100190000AA090E8000C82448344AAF10107DA45E2
:1001A00001D100F031F8AFF2090EBAE80F0013F0F8
:1001B000010F18BFFB1A43F001031847E83700008E
:1001C00008380000103A24BF78C878C1FAD852071E
:1001D00024BF30C830C144BF04680C6070470000C1
:1001E0000023002400250026103A28BF78C1FBD840
:1001F000520728BF30C148BF0B6070471FB503F0DE
:10020000CCFB1FBD10B510BD00F090F81146FFF7F4
:10021000F5FF03F0D1F900F0AEF803B4FFF7F2FFF9
:1002200003BC00F0B1F800000948804709480047C6
:10023000FEE7FEE7FEE7FEE7FEE7FEE7FEE7FEE796
:10024000FEE7FEE704480549054A064B70470000F3
:100250001D2500088901000848070020484D00209E
:10026000484900204849002040EA010370B59B0737
:100270002ED14FF00136042A2AD308C810C99D1B7D
:100280009D43121F15EAC61517D0D8B2E1B2401A25
:1002900050EA056110D198B2A1B2401A50EA054166
:1002A0000AD123F07F4024F07F41401A50EA052113
:1002B00002D1180EA0EB146070BDA342DBD018BAB7
:1002C00021BA884201D9012070BD4FF0FF3070BDC6
:1002D0000AB9002070BD10F8013B11F8014B63B161
:1002E000A3420AD1521E08D010F8013B11F8014B6D
:1002F0001BB1A34201D1521EEDD1181B70BD704736
:100300007047704710B500F009F8006810BD10B5CF
:10031000044600F003F8046010BD00000048704778
:10032000E806002000487047E80600207546FFF701
:10033000F9FFAE4605006946534620F007008546A2
:1003400018B020B5FFF77EFFBDE820404FF0000653
:100350004FF000074FF000084FF0000B21F00701AD
:10036000AC46ACE8C009ACE8C009ACE8C009ACE8F0
:10037000C0098D46704710B50446AFF30080204693
:10038000BDE81040FFF749BF01491820ABBEFEE7AA
:1003900026000200704700BFFEE7000000B585B0F0
:1003A00000200290082303AA02A92F4800F0ACFD08
:1003B000002005E003A9095C0DF80010411CC8B23B
:1003C0000828F7DB40F20121029888421DD19DF8F0
:1003D00001009DF8001000EB0120244908609DF801
:1003E0000200000200B29DF8031008441F49486053
:1003F0009DF805009DF8041000EB012000B21B4998
:1004000008819DF8060040B288721949164800F02C
:10041000CDF91749491C144800F0C8F91449C91C02
:10042000114800F0C3F913490F4800F0BFF9124911
:100430000D4800F0BBF911490B4800F0B7F90F491E
:100440000831094800F0B2F90D49074800F0AEF94B
:100450000C49054800F0AAF90A490831024800F0A1
:10046000A5F905B000BD000000640040880600202A
:100470000100F0107000F03003000012080000329C
:10048000030000140800003400B585B0002002907D
:10049000082303AA02A9844800F036FD002005E0E5
:1004A00003A9095C0DF80010411CC8B20828F7DB4D
:1004B00040F205310298884275D145F250220098E9
:1004C000811A904270D018DC44F24432A0EB020151
:1004D00090425CD00ADCA0F58040A0F5A87000280E
:1004E00071D0A0F2F11000286CD144E0A1F60941CE
:1004F00089B1B1F5837F65D157E0A1F2FA3199B1A5
:100500006A480844002874D0A0F20770002878D008
:1005100006287BD171E00198012802D101F0F6F89C
:1005200001E001F0EDF872E09DED010AB8EEC00ABD
:10053000DFED5F0A80EE201A5E4880ED051A90ED2F
:10054000050ADFED5D0AB4EEE00AF1EE10FA03DD14
:100550009FED590A80ED050A564890ED050ADFED3A
:10056000570AB4EEE00AF1EE10FA03D29FED530AF7
:1005700080ED050A4BE09DED010AB8EEC00ADFED03
:10058000500A80EE201A4B4880ED061A3FE09DEDA0
:10059000010AB8EEC00ADFED4A0A80EE201A45488B
:1005A00080ED071A33E033E015E09DED010AB8EE67
:1005B000C00ADFED3F0A80EE201A3E4880ED051AA2
:1005C00025E000E022E09DED010AB8EEC00A3948BE
:1005D00080ED0D0A1BE03748D0ED0C0A9DED010AB5
:1005E000B8EEC00A30EE800A80ED0D0A0FE000E0A0
:1005F00007E034482F49C86709E033482D49C867E8
:1006000005E03148801F2B49C86700E000BF1DE0AE
:100610000298B0F5407F19D12A4949420098084410
:1006200028B1A0F2077050B106280DD103E025488B
:100630002049C86709E024481E49C86705E02248E8
:10064000801F1C49C86700E000BF00BF1F49164853
:1006500000F0ACF81D49491C134800F0A7F81B49ED
:10066000C91C114800F0A2F819490F4800F09EF883
:1006700018490D4800F09AF817490B4800F096F811
:1006800015490831084800F091F81449064800F06F
:100690008DF81349044800F089F8114908310248DF
:1006A00000F084F805B000BD00680040010500C0FE
:1006B00000007A44F80500200000A0440000A0C417
:1006C0000024744949510040565800400100F01080
:1006D0007000F03003000012080000320300001424
:1006E000080000341CB52D482D4AC16F881A91426C
:1006F0000DD005DC51B12B48084400284BD12CE02B
:10070000A0F2FB60A0B3062845D110E044E045F21A
:1007100055100090214890ED030A8DED010ADDE9A6
:10072000000100F03DFD00201C49C86734E045F69B
:1007300056000090194890ED040ADFED1B0A20EEE8
:10074000200ABDEEC00A8DED010ADDE9000100F0CE
:1007500027FD00201149C8671EE045F249100090AE
:10076000DDE9000100F01CFD00200C49C86713E022
:10077000FFE745F650000090084890ED0C0ABDEEEA
:10078000C00A8DED010ADDE9000100F009FD00203D
:100790000249C86700E000BF00BF1CBDF80500208B
:1007A00055510040B7AEFFBF00007A4400220C4B09
:1007B000994202D10023836111E0C1F3130201F0D9
:1007C00000730BB1C2600AE001F080630BB10261FB
:1007D00005E001F000630BB1826000E04260704709
:1007E0007000F0302DE9F04F8BB006460F461446EE
:1007F0001D46DDF850804FF00009CA46CB46B5F5DE
:10080000807F43D012DC102D34D008DC012D25D0A0
:10081000022D26D0042D27D0082D4FD127E0202DE2
:100820002BD0402D2CD0802D48D12CE0B5F5805F09
:1008300038D009DCB5F5007F2BD0B5F5806F2BD013
:10084000B5F5006F3AD12AE0B5F5005F2DD0B5F5CA
:10085000804F2DD0B5F5004F30D12CE04FF000097E
:100860002DE04FF001092AE04FF0020927E04FF098
:10087000030924E04FF0040921E04FF005091EE0D0
:100880004FF006091BE04FF0070918E04FF0080988
:1008900015E04FF0090912E04FF00A090FE04FF0A0
:1008A0000B090CE04FF00C0909E04FF00D0906E0D0
:1008B0004FF00E0903E04FF00F0900E000BF00BF4A
:1008C000B8F5807F4BD01ADCB8F1100F3BD00CDCB0
:1008D000B8F1010F2BD0B8F1020F2BD0B8F1040FF3
:1008E0002BD0B8F1080F52D12AE0B8F1200F2DD04B
:1008F000B8F1400F2DD0B8F1800F48D12CE0B8F5F9
:10090000805F38D009DCB8F5007F2BD0B8F5806F58
:100910002BD0B8F5006F3AD12AE0B8F5005F2DD0A2
:10092000B8F5804F2DD0B8F5004F30D12CE04FF006
:10093000000A2DE04FF0010A2AE04FF0020A27E0FA
:100940004FF0030A24E04FF0040A21E04FF0050ABB
:100950001EE04FF0060A1BE04FF0070A18E04FF0C8
:10096000080A15E04FF0090A12E04FF00A0A0FE0FA
:100970004FF00B0A0CE04FF00C0A09E04FF00D0AA3
:1009800006E04FF00E0A03E04FF00F0A00E000BF50
:1009900000BF7F48304418B1B0F5806F1AD10CE029
:1009A0004FF0090B00208DF8120014208DF8040080
:1009B0000121480601F0F6FB0DE04FF0090B0E2077
:1009C0008DF8120040208DF804000121000501F08F
:1009D000E9FB00E000BF00BFC4F3090078BBA01230
:1009E000A0F580108038092834D2DFE800F0050A2D
:1009F0000F14191E23292E000121084601F0C2FB05
:100A000029E00121022001F0BDFB24E001210420A6
:100A100001F0B8FB1FE00121082001F0B3FB1AE050
:100A20000121102001F0AEFB15E00121202001F092
:100A3000A9FB10E00121402001F0A4FB0BE009E03C
:100A40000121802001F09EFB05E00121080201F058
:100A500099FB00E000BF00BF5A464946204600F01F
:100A600043FD5A465146204600F03EFD45EA080047
:100A7000099002208DF828008DF8290000208DF8BB
:100A80002A0001208DF82B0009A9204600F0E4FC83
:100A9000304600F07FF800208DF81E008DF81F0012
:100AA0008DF820008DF821008DF822008DF82300AC
:100AB0008DF81A008DF81B000B208DF81C00072004
:100AC0008DF81D007D2F22D008DC0A2F0FD0142FA7
:100AD00011D0322F13D0642F29D114E0FA2F1AD05D
:100AE000B7F5FA7F1BD0B7F57A7F20D11BE0C8207D
:100AF000ADF818001CE06420ADF8180018E02820BC
:100B0000ADF8180014E01420ADF8180010E0102023
:100B1000ADF818000CE00820ADF8180008E004203B
:100B2000ADF8180004E00220ADF8180000E000BFA6
:100B300000BF06A9304600F0D6F800208DF813005B
:100B400001208DF814000020ADF80800ADF80A006F
:100B5000ADF80C00ADF80E00ADF8100001208DF8D6
:100B6000150002A800F032F800208DF805000320DF
:100B70008DF8060001208DF8070001A800F0E8FDBF
:100B800001220221304600F0A5F80BB0BDE8F08F3D
:100B9000009CFFBF10B504460B48844209D10121D7
:100BA000480601F00FFB00214FF0007001F00AFB36
:100BB00008E00121880601F005FB00214FF080606C
:100BC00001F000FB10BD00000064004010B50021E2
:100BD000837A012202FA03F13D4A126842F00102CF
:100BE0003B4B1A603A4A1C3212688A43384B1C331A
:100BF0001A60027BCAB9364A0C3212688A43344BF7
:100C00000C331A604288C38842EA0343304A4032B8
:100C1000847A42F834300288838842EA03432C4ABB
:100C20004032847A02EBC4025360027B012A19D15C
:100C3000274A0C3212680A43254B0C331A6042884B
:100C4000038842EA0343224A4032847A42F834302D
:100C5000C288838842EA03431D4A4032847A02EB09
:100C6000C4025360C27A3AB9194A121D12688A4303
:100C7000174B1B1D1A6006E0154A121D12680A4325
:100C8000134B1B1D1A60028932B9114A14321268C3
:100C90008A430F4B14331A600289012A06D10C4A89
:100CA000143212680A430A4B14331A60427B012A39
:100CB00006D1074A1C3212680A43054B1C331A60DE
:100CC000034A126822F00102014B1A6010BD0000B5
:100CD000006600401AB143690B43436102E0436977
:100CE0008B434361704730B50246002000231468EF
:100CF00024F002041460146844F00104146000E05D
:100D00005B1C546804F001041CB94FF6FF74A34245
:100D1000F6D1546804F001040CB900206CE08C7921
:100D2000012C04D1146844F08004146003E01468BA
:100D300024F080041460CC79012C04D1146844F0B0
:100D40004004146003E0146824F0400414600C7A3A
:100D5000012C04D1146844F02004146003E01468EA
:100D600024F0200414604C7A012C04D1146844F05F
:100D70001004146003E0146824F0100414608C7AEA
:100D8000012C04D1146844F00804146003E01468D2
:100D900024F008041460CC7A012C04D1146844F0C7
:100DA0000404146003E0146824F0040414608C78D4
:100DB000A407CD7844EA05640D7944EA05444D79E9
:100DC00044EA05540D886D1E2C43D461146824F048
:100DD00001041460002300E05B1C546804F001046B
:100DE0001CB14FF6FF74A342F6D1546804F001041D
:100DF0000CB1002000E0012030BD0246002019B9EE
:100E0000D36803F0030006E0012903D1136903F05E
:100E1000030000E00020704710B500F5D87303EB25
:100E200001131B6803F004031372137A53B900F51E
:100E3000D87303EB01131B6840F2FF7404EA5353A9
:100E4000136009E000F5D87303EB01131B686FF022
:100E5000604404EAD303536000F5D87303EB011335
:100E60001B6803F00203537200F5D87303EB011300
:100E70005B6803F00F03937200F5D87303EB011363
:100E80005B681B0AD37400F5D87303EB01139B68EE
:100E9000D37200F5D87303EB01139B681C0A14731B
:100EA00000F5D87303EB01139B681C0C547300F519
:100EB000D87303EB01139B681B0E937300F5D87373
:100EC00003EB0113DB68D37300F5D87303EB011355
:100ED000DB681C0A147400F5D87303EB0113DB689C
:100EE0001C0C547400F5D87303EB0113DB681B0E64
:100EF000937421B9C36843F02003C36003E003691E
:100F000043F02003036110BD2DE9F04186B0804617
:100F10000D4616461F46002400214046FFF76DFF90
:100F200018B9002006B0BDE8F08101AA00214046B2
:100F3000FFF772FF002405E00DF10F00005D305552
:100F4000601CC4B2BC42F7DB019828600120E9E7CD
:100F500010B502460020936803F08063B3F1806F00
:100F600000D110E0936803F00063B3F1006F01D18A
:100F7000012008E0936803F08053B3F1805F01D152
:100F8000022000E00420042874D002F5C07303EBB3
:100F900000131B6803F0010402F5C07303EB001398
:100FA0001C600B7A7BB94B7A0C8843EA445302F5F8
:100FB000C07404EB00142468234302F5C07404EBEE
:100FC0000014236010E00B7A4C6843EAC4034C7AA7
:100FD000234302F5C07404EB00142468234302F594
:100FE000C07404EB001423608B7A03F00F038B7240
:100FF00002F5C07303EB00135B6823F00F0402F5E6
:10100000C07303EB00135C6002F5C07303EB0013C5
:101010005B688C7A234302F5C07404EB00146360B0
:101020008B7B1C064B7B44EA03440B7B44EA032383
:10103000CC7A234302F5C07404EB0014A3608B7CCC
:101040001C064B7C44EA03440B7C44EA0323CC7B20
:10105000234302F5C07404EB0014E36002F5C0738F
:1010600003EB00131B6843F0010402F5C07303EBAC
:1010700000131C6010BD000010B50246002321B112
:10108000012907D002290FD109E090681D4C00EA20
:1010900004030BE090681C4C00EA040306E090682F
:1010A0001A4C00EA040301E0002300BF00BF184C03
:1010B000181BA34216D007DC83B16FF08060184480
:1010C00070B1022818D111E0B0F5007F10D0114C9A
:1010D000204448B1B0F5003F0ED10BE002230DE0F3
:1010E00000230BE0002309E0002307E0012305E0D3
:1010F000012303E0012301E0002300BF00BFD8B2B9
:1011000010BD0000030000040003000800000310ED
:10111000000100080001FFF770B500250024002041
:1011200000F006FA05461A4800682C1A18480560AF
:101130001849086F00EBD071B4EB610F02DD154860
:10114000006F241A1349086F00EBD071491049420F
:10115000A14202DD0F48006F04440E48D0ED0C0A96
:1011600000EE104AB8EEC00A30EE800A80ED0C0A9C
:10117000094890ED010AB8EEC00ADFED080A20EE3A
:10118000200A044880ED040A90ED040A70BD0000B6
:1011900058000020F80500208806002063CF0B3E91
:1011A00013B586B040F285200190029000208DF8A2
:1011B0000C008DF80D0008208DF80E00002004E0D2
:1011C00006A90A5C09390A54401C0828F8DB01A961
:1011D0000648FFF7BDFE044600BF21460348FFF75F
:1011E0004BFF0128F9D108B010BD00000068004095
:1011F00010B50949094800F039F860B100210748E5
:1012000000F028F80449054800F00AF84FF4AF61EF
:10121000024800F0E5F810BD008000185860024058
:101220000246094B9A4201D2084801E006481038AC
:1012300001F000531BB1064B0B40C36002E0044BAE
:101240000B40836070470000106402400060024061
:101250007D0F7D0F21B1026842F00102026003E0C0
:10126000026822F0010202607047000070B5024679
:10127000002000240025124EB24201D2114B01E0A1
:101280000F4B103B104E0E4036B11E2606EAD124FD
:10129000166806EA040502E0566906F0800501F0CA
:1012A00000560EB15C6800E01C68084E344004EA49
:1012B000010616B10DB1012000E0002070BD000054
:1012C00010640240006002403C0F3C0F7D0F7D0F18
:1012D00010B501F080034BB122B1436943F08003A4
:1012E000436103E0436923F08003436180290BD00D
:1012F0002AB1036801F01E042343036004E003687D
:1013000001F01E04A343036010BD000010B50022CD
:101310000268134B1A40CC680B6823434C69234383
:101320008C692343CC6923430C6A23434C6A2343CF
:101330008C6A23434C6B23438C6B23431A43026018
:10134000426922F00702D1E90B3423431A43426178
:101350000B6943604B6883608B68C36010BD0000FD
:101360003F801CF038B505460C461A480088C8284E
:1013700024DC1849088800EBD0714910A0EB41012A
:1013800071B91448008813490988491C114A118011
:10139000114B092201210090284600F0A8FF0DE022
:1013A0000C4800880B490988491C0A4A11800A4BDD
:1013B0000A2201210090204600F099FF054800888C
:1013C000C82806D101210548FFF744FF0020014944
:1013D000088038BD040000206C00002058600240E6
:1013E000416070477047000010B500201649087230
:1013F0009FED160A084680ED030A02208867002048
:10140000C8674FF400511048016701F0B7FF00F0C2
:1014100085FE00F0FBF806200B490860B2EE0E0ACC
:10142000084680ED060AB2EE0E0A80ED070A9FED2F
:10143000080A80ED050A9FED050A80ED0D0A9FED73
:10144000050A80ED120A10BDF8050020000000001A
:1014500000409C44000020C3F0B50A460021002350
:10146000002400BF3DE0012505FA01F3156805EAF7
:1014700003049C4234D105684F000326BE40B543A7
:10148000056015794E00B54006683543056015794D
:10149000012D02D01579022D16D185684F00032643
:1014A000BE40B543856055794E00B54086683543EA
:1014B0008560456801268E40B5434560456896794C
:1014C0008E40B6B235434560C5684F000326BE4026
:1014D000B543C560D5794E00B540C6683543C56093
:1014E000491C1029BFD3F0BDF0B5002300244D07DF
:1014F000ED0E02FA05F3CE1000F1200555F8265046
:101500004E07F70E0F26BE40B543CF1000F1200660
:1015100046F82750CE1000F1200555F8265045EA30
:101520000304CE1000F1200545F82640F0BD000070
:10153000014601EB4100024A52F8200070470000CA
:101540008806002000BFFEE700B52B48D0ED120A48
:10155000B0EE600A01F0DEFEB0EE403ADFED270AA1
:10156000B0EE430A00F05CF8234880ED150A90EDD8
:101570000C0A2348D0ED000A30EE600AB0EEC00A33
:10158000F0EE000AB4EEE00AF1EE10FA05D81A48BF
:10159000006D401C1849086502E0002116480165ED
:1015A000154890ED0C0A164880ED000A1248006DAF
:1015B000B0F5FA7F1EDB9FED130A0F4880ED0C0A91
:1015C00090ED0C0A80ED0D0A9FED0E0A80ED150AD4
:1015D0009FED0C0A80ED0B0A9FED0A0A80ED030ACD
:1015E0009FED080A80ED0A0A0020074908700520CF
:1015F0000149086000BD0000F8050020CDCC4C3F3B
:10160000540000200000000014000020B8EE080A7A
:10161000024880ED120A002101657047F80500209C
:10162000B4EEE00AF1EE10FA01DDB0EE600AB1EEC0
:10163000601AB4EEC10AF1EE10FA03D2B1EE601AEC
:10164000B0EE410A704700BFFEE7000010B52DED77
:10165000028BFFF761FD2748006802280ED005289D
:1016600002D0062821D118E000F0B8F8B0EE408A88
:1016700001F050FE1F4880ED030A17E01D48D0ED31
:10168000050AB0EE600A01F09FFEB0EE403A01F0AC
:1016900041FE184880ED030A08E0FFF755FF1548A2
:1016A00090ED150A80ED030A00E000BF00BF11486D
:1016B000007A012804D09FED100A0E4880ED030A3D
:1016C0000C4890ED030A0D4880ED000A00F04CFE36
:1016D000084A92ED0C0ABDEEC00A10EE101A92ED07
:1016E000040ABDEEC00A10EE100AFFF73BFEBDEC87
:1016F000028B10BDF80500200000000078060020D5
:101700000020014908727047F80500200D48006864
:10171000052804D10B4890ED0C0A80ED0D0A09480C
:101720000068022804D1074890ED040A80ED050AFC
:101730009FED050A034880ED0A0A0120014908725D
:1017400070470000F80500200000000000BFFEE721
:1017500070B5002100230F22C4781CB3174C2468F5
:1017600004F4E064C4F5E064C4F30721C1F10404A7
:10177000E3B20A4144789C40E1B2847814402143AA
:101780000C07210E0E4C05786155047804F01F05F6
:101790000124AC4005786D11AD0005F1E025C5F8D8
:1017A000004109E0047804F01F050124AC40054D18
:1017B0000678761145F8264070BD00000CED00E07B
:1017C00000E400E080E100E002490143024A1160C8
:1017D000704700000000FA050CED00E010B52DED9B
:1017E000068B9FEDFE0AB0EE408A9FEDFC0AF0EEFC
:1017F000408AFB4890ED0D0AFA48D0ED000AB4EE9D
:10180000600AF1EE10FA7DD0F54890ED050ADFEDA3
:10181000F60AB4EEE00AF1EE10FA03D8B7EE000AC9
:1018200080ED050AEE4890ED060ADFEDF00AB4EE11
:10183000E00AF1EE10FA03D89FEDED0A80ED060AFA
:10184000E74890ED0D0AD0ED0C0A30EE600AE94849
:1018500080ED000AE24890ED040ABDEEC00AE648B9
:1018600080ED000ADE4890ED050AF0EE400AE248FD
:1018700090ED000AB8EEC00AFFF7D2FEBDEEC00A36
:10188000DD4880ED000ADB4890ED000AB5EEC00AA5
:10189000F1EE10FA03D2FF20D849087002E00120CF
:1018A000D6490870D4480068002803DAFF20D449DC
:1018B000087002E00120D2490870C94890ED050A7D
:1018C00060EE000A90ED061A80EE810AF0EE000A42
:1018D00080EE201ACB4880ED001AC74800684043CC
:1018E00000EE100AF8EEC00ABD4890ED061A80EE30
:1018F000810AF0EE000A80EE201AC34880ED001A3B
:10190000C04800E0CCE190ED000ABF48D0ED000AED
:1019100030EE600ABD4880ED000AB84890F900003A
:10192000B74991F9001010FB01F0002817DDB3480A
:1019300090F9000000EE100AB8EEC00AAD48D0EDF4
:10194000000A20EE200AB048D0ED000AB4EEE00A0A
:10195000F1EE10FA03D2FF20AD49087002E0012039
:10196000AB490870A54890F90000A34909684843AD
:1019700000EE100AB8EEC00A9948D0ED050AB4EEA0
:10198000E00AF1EE10FA64DDA1480078012860D188
:101990000520A04908609D4890ED000AB1EE400A7C
:1019A00080ED000A964890F9000093490968484381
:1019B00000EE100AB8EEC00A8948D0ED050A30EEF4
:1019C000600AD0ED060A80EE201ABDEEC10A9248E8
:1019D00080ED000A8E4890F90000884991F90010C6
:1019E00010FB01F000EE100AF8EEC00A814890EDFD
:1019F000001A854890ED000A10EE810A7848D0ED73
:101A0000050A80EE201ABDEEC10A844880ED000A66
:101A1000734890ED050A90ED061AC0EE010A7E4863
:101A200000687E490968084400EE100AB8EEC00A52
:101A300030EE800ABDEEC00A794880ED000A002031
:101A400078490860664890ED0C0A774880ED000AF6
:101A50001BE16F4890F90000684991F9001010FBF4
:101A600001F000EE100AB8EEC00A6248D0ED000A9C
:101A700020EE200A6548D0ED000A624890ED001A79
:101A800070EE810AB4EEE00AF1EE10FA67D8032096
:101A9000604908605E4890F90000584991F90010CB
:101AA00010FB01F000EE100AF8EEC00A514890ED6C
:101AB000001A554890ED000A00EE810AF1EE000A86
:101AC00020EE200A4648D0ED060A80EE201A11EEDC
:101AD000104A204601F0F0FE41EC1A0BB0EE4A0A23
:101AE000F0EE6A0A01F0AEFCB0EE409AF0EE609AB9
:101AF00051EC190B01F090FD49490860444890F9F8
:101B000000003E4991F9001010FB01F03A490968C4
:101B1000484300EE100AB8EEC00A3148D0ED060A7C
:101B200080EE201ABDEEC10A3E4880ED000A2C4826
:101B300090ED0C0A364890F90000304991F90010F8
:101B400010FB01F000EE900AF8EEE00A2E4890ED4E
:101B5000001A00EEC10A344880ED000A95E0042026
:101B60002C4908601E4890ED050AD0ED060A80EE6B
:101B7000201ABDEEC10A284880ED000A244890F9D9
:101B800000001E4991F9001010FB01F000EE100A50
:101B9000F8EEC00A174890ED001A1B4890ED000AB5
:101BA00000EE810A1748D0ED000AB0EE001A01EEEF
:101BB000600A0B48D0ED050A80EE201ABDEEC10A7E
:101BC000164880ED000A006813490968022202FBEA
:101BD0000100134908600E4828E0000000000000E2
:101BE000F8050020440000206F12833AACC5273767
:101BF000A69B443B300000202C0000201500002054
:101C000016000020380000203C0000203400002096
:101C100014000020280000202000002024000020C4
:101C20001C000020180000204800002090F900004F
:101C3000F74991F9001010FB01F0F6490968484393
:101C400000EE100AB8EEC00AF348D0ED060A80EEA6
:101C5000201ABDEEC10AF14880ED000AEE4890ED71
:101C60000C0AEF4890F90000E94991F9001010FBC7
:101C700001F000EE900AF8EEE00AEA4890ED001A52
:101C800000EEC10AE84880ED000AE4480068C01C84
:101C9000E2490860E04890ED0D0AE44880ED000A52
:101CA000E3480068032863D1E249086800EBD0717B
:101CB000DA4A1268B2EB610F28DAD94890F90000CD
:101CC000D34991F9001010FB01F000EE100AB8EEB4
:101CD000C00AF6EE000A20EE200ACF48D0ED060A30
:101CE00060EE200ACD4890ED000AB8EEC00A60EE22
:101CF000800A90ED000AB8EEC01ACB4890ED000AB9
:101D000000EE810ACC4880ED000AA7E1C44890F9B2
:101D10000000BF4991F9001010FB01F000EE100A1D
:101D2000B8EEC00AF6EE000A20EE200ABA48D0ED5E
:101D3000060A60EE200ABF480068B8490968401AE0
:101D400000EE100AB8EEC00A60EE800AB9480068DA
:101D5000B2490968401A00EE100AB8EEC01AAE483F
:101D600090ED0D0A00EEC10AB34880ED000A75E15E
:101D7000AF48006804287DD1A8480068AF490968C9
:101D8000884228DAA64890F90000A14991F900108C
:101D900010FB01F000EE100AB8EEC00AF6EE000AE1
:101DA00020EE200A9C48D0ED060A60EE200A9B48EF
:101DB00090ED000AB8EEC00A60EE800A90ED000ACD
:101DC000B8EEC01A984890ED000A00EE810A9A48D1
:101DD00080ED000A42E19948006899490968084481
:101DE0008E490968884221DD8D4890F900008849B4
:101DF00091F9001010FB01F000EE100AB8EEC01AC5
:101E00008548D0ED050A854890ED000AF8EEC01A25
:101E10008C4890ED000A10EEA10A8348D0ED000A2C
:101E200041EE000A8448C0ED000A17E17C4890F9B1
:101E30000000774991F9001010FB01F000EE100A44
:101E4000B8EEC00AF6EE000A20EE200A7248D0ED85
:101E5000060A60EE200A7748006870490968401A4F
:101E600000EE100AB8EEC00A60EE800A7148006801
:101E70006A4900E00EE00968401A00EE100AB8EE68
:101E8000C01A654890ED0D0A00EEC10A6A4880ED5F
:101E9000000AE3E06648006805287CD15F480068D6
:101EA00066490968884242DA5D4890F9000058495D
:101EB00091F9001010FB01F000EE100AB8EEC00A14
:101EC000F6EE000A20EE200A5348D0ED060A60EE36
:101ED000200A524890ED000AB8EEC00A20EE801A9F
:101EE0004F4890F900004A4991F9001010FB01F0A9
:101EF000554991F9001010FB01F046490968484323
:101F000046490968484300EE100AB8EEC00A464840
:101F1000D0ED000A30EE200A4048D0ED000AF8EE7D
:101F2000E00A01EE600A444880ED000A96E043486A
:101F3000006843490968084438490968884235DD22
:101F4000374890F90000324991F9001010FB01F078
:101F500000EE100AB8EEC00A2F48D0ED050A60EE78
:101F6000200A2E48006835490968401A00EE100A18
:101F7000B8EEC01A2A4890F90000254991F90010DE
:101F800010FB01F000EE100AF8EEC01A2F4890ED99
:101F9000002A254800E05BE090ED000A01EE820A8D
:101FA00000EE810A244880ED000A57E01C4890F9B1
:101FB0000000174991F9001010FB01F000EE100A23
:101FC000B8EEC00AF6EE000A20EE200A1248D0ED64
:101FD000060A60EE200A1748006810490968401A8E
:101FE00000EE100AB8EEC00A60EE800A11480068E0
:101FF0000A490968401A00EE100AB8EEC01A0648ED
:1020000090ED0D0A00EEC10A0B4880ED000A25E0B4
:10201000150000202C000020F805002018000020EA
:10202000140000203C000020480000204400002054
:10203000280000201C00002040000020200000207C
:10204000240000203800002016000020340000206A
:102050002B4890ED0D0A2B4880ED000A284890EDA2
:102060000C0A2848D0ED000A30EEC00AB0EE408AD3
:10207000234890ED100A2448D0ED000A78EE600A5B
:1020800020EE200A1E48D0ED0F0A08EE200AD0EDFF
:10209000040A9FED1E1A01EE600AF0EE408A1A480B
:1020A00080ED008AB0EEC80ADFED190AB4EEE00A4E
:1020B000F1EE10FA03D89FED150AF0EE408A1548AC
:1020C000006815490968884203DB13480068114914
:1020D00008600B4890ED050AF0EE400AB0EE680A81
:1020E000FFF79EFA064880ED110A0A480068401C76
:1020F00008490860024890ED110ABDEC068B10BD3E
:10210000F8050020400000205000002000000000E2
:1021100000004843180000201C00002010B59FED6F
:10212000130A134880ED0F0A9FED120A80ED100A82
:10213000B2EE040A80ED050A9FED0F0A80ED060A53
:102140009FED0D0A80ED070AFEF7E6FF9FED0B0AF3
:10215000074880ED0C0A90ED0C0A80ED0D0A90ED19
:102160000C0A074880ED000A10BD0000AE47E13DB3
:10217000F8050020EC519040A69B443B0000000075
:102180004400002029B1064A12680243044B1A6039
:1021900004E0034A12688243014B1A607047000052
:1021A0003038024029B1064A12680243044B1A60D3
:1021B00004E0034A12688243014B1A607047000032
:1021C0004038024029B1064A12680243044B1A60A3
:1021D00004E0034A12688243014B1A607047000012
:1021E0002038024029B1064A12680243044B1A60A3
:1021F00004E0034A12688243014B1A6070470000F2
:1022000044380240F0B500210022002402250026B7
:102210000223324F3F6807F00C0121B1042905D099
:10222000082937D105E02E4F076036E02D4F0760B3
:1022300033E02A4F3F1F3F68C7F38056274F3F1FA9
:102240003F6807F03F036EB1264FB7FBF3F7DFF8A7
:102250008CC0ACF1040CDCF800C0CCF3881C07FB8C
:102260000CF40CE01E4FB7FBF3F7DFF870C0ACF1D5
:10227000040CDCF800C0CCF3881C07FB0CF4174FEF
:102280003F1F3F68C7F301477F1C7D00B4FBF5F794
:10229000076002E0124F076000BF00BF0F4F3F68AA
:1022A00007F0F0010909104F7A5C0768D7404760D2
:1022B0000A4F3F6807F4E051890A0B4F7A5C476880
:1022C000D7408760054F3F6807F46041490B064FD0
:1022D0007A5C4768D740C760F0BD0000083802400C
:1022E0000024F40000127A005C00002070472DE901
:1022F000F0470746884691461C46089D0026B24690
:10230000BA46B8F1000F0DD0002F06DA2D20C5EB2C
:10231000C5016054CAF1000A08E02020C5EBC501E0
:10232000605403E02020C5EBC5016054012612E093
:10233000C6F105010A2001F063F9BAFBF0F00A21A9
:10234000B0FBF1F201FB12003030C5EBC5012144B6
:102350008855701CC6B2062EEADBC5EBC5002044CA
:1023600080F80690BDE8F08730B587B005460020BC
:102370000090019000BF13E005EB800191ED000A91
:10238000DFED290A20EE200AF3EE040A80EE201A7F
:10239000BDEEC10A10EE101A09B22DF81010401C43
:1023A0000428E9DB4FF400700290039000208DF8C0
:1023B00010008DF8110008208DF81200BDF8000003
:1023C000000A8DF81300BDF80000C1B28DF814109A
:1023D000BDF80200010A8DF81510BDF80200C1B267
:1023E0008DF81610BDF80400010A8DF81710BDF81D
:1023F0000400C1B28DF81810BDF80600010A8DF86E
:102400001910BDF80600C1B28DF81A1002A90748CC
:10241000FEF79EFD044600BF21460448FEF72CFE51
:102420000128F9D107B030BD0000804600640040AB
:102430000CB50020019000903448006840F48030D2
:102440003249086000BF3148006800F40030009055
:102450000198401C0190009818B90198B0F5A06F40
:10246000F1D12A48006800F4003010B1012000903A
:1024700001E0002000900098012846D12348403018
:10248000006840F0805021494031086020480068D1
:1024900040F480401E4908601C48083000681B4911
:1024A000083108600846006840F4004008600846AB
:1024B000006840F4A05008601648091F0860081F13
:1024C000006840F08070091F086000BF0F48006876
:1024D00000F000700028F9D040F205600E49086055
:1024E0000A480830006820F00300084908310860F5
:1024F0000846006840F00200086000BF034808304A
:10250000006800F00C000828F8D10CBD003802402B
:102510000070004008544007003C024010B51548C8
:10252000006840F47000134908601348006840F0E8
:1025300001001149086000200F49083108600E4869
:1025400000680E4908400C4908600D48091D0860E4
:10255000081F006820F48020091F08600020064939
:102560000C310860FFF764FF4FF0006001498039CB
:10257000086010BD88ED00E000380240FFFFF6FE65
:102580001030002410B50121044800F05AF9012848
:1025900003D10121014800F049F810BD00000140BD
:1025A00010B50121880700F04CF9012805D101215F
:1025B000800700F03BF8FFF749F810BD10B5012186
:1025C000044800F03EF9012803D10121014800F040
:1025D0002DF810BD0004004010B50121044800F0A2
:1025E00030F9012803D10121014800F01FF810BD86
:1025F0000008004010B50121044800F022F901282C
:1026000003D10121014800F011F810BD000C004079
:1026100010B50121044800F014F9012803D101216B
:10262000014800F003F810BD00040140CA430282D3
:10263000704721B1028842F00102028004E0028862
:102640004FF6FE731A40028070470000FEB5044644
:102650000D46002600200090019002906D49601AFE
:102660008C426FD01ADC6C49A4EB01008C4274D010
:102670000ADCB4F1804F53D068482044002858D079
:10268000B0F5806F72D15FE0B0F5806F71D0B0F5BA
:10269000006F77D0B0F5406FF4D17DE0B0F5923F98
:1026A00023D009DCB0F5806F75D0B0F5644F0AD047
:1026B000B0F5684F5AD10FE0B0F5943F1ED0B0F599
:1026C000963F53D123E001210846FFF78BFD44F2EA
:1026D000A010ADF800007BE001210220FFF782FD91
:1026E00044F2A010ADF8000072E001210804FFF7E9
:1026F00079FD44F2A010ADF8000069E00121480422
:10270000FFF770FD44F2A010ADF8000060E0012179
:102710008804FFF767FD44F2A010ADF8000057E011
:1027200001210846FFF73EFD42F2D000ADF800005F
:102730004EE001210220FFF735FD42F2D000ADF856
:10274000000045E031E008E001210420FFF72AFD08
:1027500042F2D000ADF800003AE001210820FFF776
:1027600021FD42F2D000ADF8000031E02FE000E0A2
:1027700008E001211020FFF715FD42F2D000ADF86E
:10278000000025E001212020FFF70CFD42F2D000DF
:10279000ADF800001CE011E001214020FFF702FD30
:1027A00042F2D000ADF8000012E001218020FFF7D6
:1027B000F9FC42F2D000ADF8000009E00121080266
:1027C000FFF7F0FC42F2D000ADF8000000E000BFDF
:1027D00000BF4FF6FF7001900020ADF80800ADF883
:1027E00002006946204600F02BF901212046FFF740
:1027F00020FF0021204600F021F903E0204600F0F0
:102800001DF886B2AE42F9DB00212046FFF711FF2A
:10281000FEBD0000001C0040000C004000FCFFBF9B
:1028200070B506460C46002500BF04E00A2130467C
:10283000FFF70CFF6D1CA542F8D370BD0146486A36
:10284000704730B50246002000230024158A05EAAF
:102850000103958905EA010413B10CB1012000E0E0
:10286000002030BD1AB183890B43838102E0838944
:102870008B438381704700002DE9FF4104460D46DC
:1028800016461F46DDF828806949601A8C4270D0D0
:102890001ADC6849A4EB01008C426CD00ADCB4F16C
:1028A000804F4ED064482044002852D0B0F5806F4D
:1028B00071D156E0B0F5806F65D0B0F5006F6CD087
:1028C000B0F5406FF4D170E0B0F5923F21D009DC53
:1028D000B0F5806F7AD0B0F5644F0AD0B0F5684F8C
:1028E0007CD10EE0B0F5943F1BD0B0F5963F75D18A
:1028F0001FE001210846FFF775FC19208DF8000044
:102900006DE001210220FFF76DFC2C208DF8000006
:1029100065E001210804FFF765FC18208DF8000030
:102920005DE001211920FFF75DFC2C208DF80000EF
:1029300055E001218804FFF755FC1A208DF80000AE
:102940004DE001210846FFF72DFC1C208DF800000A
:1029500045E001210220FFF725FC1D208DF8000035
:102960003DE001210420FFF71DFC1E208DF8000032
:1029700035E023E0FFE701210820FFF713FC3220B8
:102980008DF800002BE001211020FFF70BFC362012
:102990008DF8000023E021E0FFE701212020FFF770
:1029A00001FC37208DF8000019E001214020FFF7DD
:1029B000F9FB2B208DF8000011E007E001218020B9
:1029C000FFF7F0FB2C208DF8000008E00121080241
:1029D000FFF7E8FB2D208DF8000000E000BF00BFEE
:1029E0000295ADF804600020ADF80C00ADF80600CB
:1029F00001A9204600F024F801212046FFF716FE29
:102A0000012211462046FFF72DFFF8B28DF8010094
:102A100008F0FF008DF8020001208DF803006846E1
:102A2000FEF796FE01212046FFF703FEBDE8FF8179
:102A3000001C0040000C004000FCFFBF41627047DA
:102A400000220288184B98420ED0184B98420BD0A7
:102A5000B0F1804F08D0164B984205D0154B9842E4
:102A600002D0154B984204D14FF68F731A404B8811
:102A70001A43124B984207D0114B984204D04FF69C
:102A8000FF431A400B891A4302804B68C3620B88CC
:102A90000385054B984202D0044B984201D18B7AB2
:102AA0000386012383827047000001400004014037
:102AB0000004004000080040000C004000100040EE
:102AC0000014004010B540F22551054800F0C8FA46
:102AD000012804D140F22551014800F090FA10BDC0
:102AE0000050004010B596B0044601210420FFF7C5
:102AF00049FB01218804FFF755FB01214805FFF739
:102B000041FB07220A214248FEF7EEFC07220B2177
:102B10003F48FEF7E9FC4FF44060149002208DF826
:102B200054008DF8550000208DF8560001208DF8D6
:102B3000570014A93648FEF78FFC10940020ADF81A
:102B40004400ADF84600ADF84800ADF84C000C204C
:102B5000ADF84A0010A92F4800F0D2FA01212D4803
:102B600000F05CFA012280212A4800F063FA012279
:102B700040F22551274800F09DFA4FF00060009088
:102B80002448001D019024480290402003904FF4F7
:102B9000AF600490002005904FF480600690002004
:102BA0000790089009904FF400300A9000200B9095
:102BB00001200C9000200D900E9069461748FEF7FA
:102BC000A5FB01211548FEF745FB01221021134802
:102BD000FEF77EFB0E208DF83C0002208DF83D00B4
:102BE0008DF83E0001208DF83F000FA8FEF7B0FDE4
:102BF00027208DF83C0000208DF83D0001208DF845
:102C00003E008DF83F000FA8FEF7A2FD16B010BDE4
:102C100000080240004800406C000020586002405C
:102C200010B540F225510A4800F01AFA01280ED1D9
:102C300040F22551064800F0E2F9054800F04DFB4E
:102C40000449087008460178014800F005F810BDF5
:102C5000004800400000002070B505460C46202CBE
:102C600008D0AE48AE4909684454AD480068401CDD
:102C7000AB490860AA480068401EA849085C0A28B9
:102C80000BD0A7480068401E085C0D2805D0A4485A
:102C90000068401E085C3B287DD1A14800680128DF
:102CA00003D100209E4908602FE19C4880783D2890
:102CB00072D19A48C0782D281ED14FF0FF30994923
:102CC000086004200BE09549095C974A126802EB02
:102CD000820201EB42013039934A1160401C904955
:102CE0000968491E8142EEDC8E4800688E490968F9
:102CF00048438D49086012E003200BE08749095CD6
:102D0000894A126802EB820201EB42013039864A9D
:102D10001160401C82490968491E8142EEDC022292
:102D200082A17E48FDF7A0FAD0B97F4890ED000A55
:102D3000B8EEC00ADFED7E0A20EE200A7D4880ED65
:102D4000050A90ED050ADFED7C0A20EE200ABDEEB3
:102D5000C00A10EE102A79A1284600F03BFAD4E010
:102D6000022279A16D48FDF77FFAE8B96E4890ED2F
:102D7000000AB8EEC00ADFED750A80EE201A6D4831
:102D800080ED061A90ED060ADFED700A20EE200AAB
:102D9000BDEEC00A01E0C0E080E010EE102A6CA198
:102DA000284600F017FAB0E002226CA15B48FDF75C
:102DB0005BFAD0B95C4890ED000AB8EEC00ADFEDCE
:102DC000630A80EE201A5B4880ED071A90ED070A2F
:102DD000DFED5E0A20EE200ABDEEC00A10EE102ADA
:102DE0005FA1284600F0F6F98FE002225FA14B4870
:102DF000FDF73AFAD0B94C4890ED000AB8EEC00A97
:102E0000DFED4B0A20EE200A4A4880ED050A90EDDE
:102E1000050ADFED490A20EE200ABDEEC00A10EED9
:102E2000102A53A1284600F0D5F96EE0022253A1E2
:102E30003A48FDF719FA90B93B4890ED000AB8EE10
:102E4000C00A3C4880ED0D0A90ED0D0ABDEEC00AA7
:102E500010EE102A4AA1284600F0BCF955E00222E3
:102E60004AA12E48FDF700FA98B93248D0ED0C0A75
:102E70002D4890ED000AB8EEC00A30EE800A2D48C9
:102E800080ED0D0A28483EA10268284600F0A2F90C
:102E90003BE03FA1284600F09DF936E0022242A126
:102EA0001E48FDF7E1F978B9224890ED040ADFEDFC
:102EB000220A20EE200ABDEEC00A10EE102A3BA125
:102EC000284600F087F920E002223AA11348FDF7D6
:102ED000CBF958B9174890ED0C0ABDEEC00A10EEB8
:102EE000102A35A1284600F075F90EE0022234A11F
:102EF0000A48FDF7B9F920B932A1284600F06AF96D
:102F000003E034A1284600F065F900200449086078
:102F10000549086001200349086070BDE4050020F0
:102F200008000020100000200C0000204A5600007D
:102F30006F12833AF805002000007A444A563D2576
:102F4000643B0D0A00000000414300000024744966
:102F500041433D25643B0D0A00000000444300004E
:102F600044433D25643B0D0A00000000535000001F
:102F700053503D25643B0D0A000000005041000005
:102F800050413D25643B0D0A0000000050520000F6
:102F9000494E56414C494420575249544520434DCF
:102FA000442121210D0A000056580000565825647E
:102FB0003B0D0A0050580000505825643B0D0A0094
:102FC00049510000495120696E76616C69640D0AAF
:102FD00000000000494E56414C49442052454144AE
:102FE00020434D442121210D0A00000001F400720C
:102FF000B2F5007F00D100BFCA430280704710B510
:103000000022002340F66A14A14200D100BF0A1238
:1030100001249440A3B2DC43048010BD21B1828915
:1030200042F40052828104E082894DF6FF731A4017
:10303000828170471AB1838A0B43838202E0838ABC
:103040008B438382704702460020B1F5007F00D198
:1030500000BF13880B400BB1012000E00020704737
:1030600070B50246002400230025002040F66A16B1
:10307000B14200D100BFC1F3421501F01F03012688
:1030800006FA03F3012D02D19689334006E0022DA2
:1030900002D1168A334001E0968A33400C12012691
:1030A00006FA04F41688344013B10CB1012000E094
:1030B000002070BDF0B50346002400260025002046
:1030C00040F66A17B94200D100BF1846C1F3421456
:1030D00001F01F06012707FA06F5012C01D10C307B
:1030E00004E0022C01D1103000E014301AB107685E
:1030F0002F43076002E00768AF430760F0BD0000A0
:103100002DE9FF4705460E460024A14600BFA04614
:10311000B08900B100BF2C8A24F44054F0880443E5
:103120002C82AC8941F20C608443B0883189084319
:10313000718908430443AC81AC8A24F44074B0899B
:103140000443AC826846FFF75DF82048854202D010
:103150001F48854202D1DDF80C9001E0DDF80890AF
:10316000A88900F4004040B109EBC90000EB091048
:1031700031684900B0FBF1F707E009EBC90000EB4B
:10318000091031688900B0FBF1F76420B7FBF0F05B
:1031900004012009642101FB1078A88900F4004093
:1031A00040B1322000EBC800B0FBF1F000F00700A6
:1031B000044308E0322000EB08106421B0FBF1F07A
:1031C00000F00F0004432C81BDE8FF870010014090
:1031D000001401400FB470B586B006460CA80190EB
:1031E00073E00B9800785C281CD10B98401C0B9066
:1031F00000786E2809D072280FD10D21304600F0DA
:1032000071F80B98401C0B900BE00A21304600F03F
:1032100069F80B98401C0B9003E00B98401C0B9036
:1032200000BF4BE00B980078252840D10B98401C3C
:103230000B900078642818D0732833D1019810C8F7
:1032400001900BE02178304600F04CF800BF40219F
:103250003046FFF7F8FE0028F9D0641C20780028DB
:10326000F0D10B98401C0B9020E0019820C80190F1
:103270000A2202A9284600F06DF902AC0BE0217881
:10328000304600F02FF800BF40213046FFF7DBFE4C
:103290000028F9D0641C20780028F0D10B98401C3D
:1032A0000B9003E00B98401C0B9000BF06E00B98BE
:1032B00010F8011B0B90304600F014F800BF4021BD
:1032C0003046FFF7C0FE0028F9D00B9800780028A0
:1032D00087D106B070BC5DF814FB01468888C0F346
:1032E0000800704730B504460D4600BF80212046D7
:1032F000FFF7A9FE0028F9D080212046FFF776FECF
:1033000040212046FFF772FEC5F30800A08030BDC3
:1033100000BFFEE700B5F0EE401A174890ED040A32
:1033200031EEC00AB0EE402A90ED0A0AD0ED090A4B
:1033300000EE820A80ED0A0AD0ED0A0AB0EE600AB9
:10334000F0EE080AFEF76CF90B4880ED0A0A90EDE2
:103350000A0AD0ED080A00EE820AF0EE402AF0EEEA
:10336000080AB0EE620AFEF75BF9034880ED0B0A2B
:1033700090ED0B0A00BD0000F80500209FED0E0A3D
:103380000E4880ED080A9FED0E0A80ED090A9FEDB8
:103390000D0A80ED0A0A9FED0B0A80ED050A9FEDEC
:1033A000090A80ED060A9FED070A80ED070A9FEDE6
:1033B000050A80ED0B0A70478FC2F53CF805002026
:1033C000A69B443B00000000F0EE400A1B4890ED35
:1033D000060A30EEC00A1A4890ED001AB4EEC10A8F
:1033E000F1EE10FA0ADD154890ED060A144890ED4A
:1033F000001A30EE010A80ED000A1AE00F4890ED45
:10340000070A30EE200A0E4890ED001AB4EEC10A09
:10341000F1EE10FA0AD2094890ED070A084890ED3B
:10342000001A31EE400A80ED000A02E00448C0EDC7
:10343000000A034890ED000A70470000F8050020DC
:103440004C00002000B52DED048BB0EE409AF0EE5C
:10345000609A83B051EC190B00F062F941EC180B43
:1034600018EE100A18EE901A8DED008B002818BF88
:103470000120084320F00040C0F17F6000F1E040EF
:10348000C00F14D019EE101A19EE900A8DED009BA2
:10349000002918BF0121084320F00040C0F17F60DF
:1034A00000F1E040C00F04BF0120FCF730FFB0EE98
:1034B000480A03B0F0EE680ABDEC048B00BD0000C2
:1034C00008B54FF4A060FEF77FF94FF4E130FFF745
:1034D00009FB4FF400704310184A4FF47A710090C2
:1034E0001748FDF77FF940202023144A4FF4FA7162
:1034F00000901448FDF776F900200346532240F26D
:10350000E73100904FF08040FFF7B6F900214FF00F
:103510008040FFF78EF8FDF767FF01218807FFF76E
:1035200088F8C8210848FFF77BF99FED080A08488A
:1035300080ED0C0AFEF7EAF808BD00000004024026
:1035400000640040006800400004004000000000EB
:10355000F8050020F0B503460D461646002729461B
:103560000A2E03D0002008702846F0BD33B9302061
:1035700001F8010B002008702846F6E7002B03DA5B
:103580002D2001F8010B5B420A4A0DE093FBF2F497
:1035900004B937B104F1300001F8010B04FB123318
:1035A00001270A2092FBF0F2002AEFDC00200870CD
:1035B0002846DAE740420F0010B5FFF781FF15E01B
:1035C000FDF790F89FED0A0A0A4880ED0D0A4FF4C6
:1035D000FA610948FFF724F99FED080A054880EDD4
:1035E0000D0A4FF4FA610448FFF71AF9E8E7000002
:1035F00000009047F8050020000400400000008013
:1036000010B502460023012000BF02E050435C1CBD
:10361000E3B28B42FAD310BD4FEA41034FEA535352
:10362000A3F58063D3F11E03C8BFD3F1210C0CDDD9
:103630004FF0004242EAC12242EA505232FA03FC01
:103640008CEAE17CACEBE1707047102BC4BF00202A
:10365000704703F5787CBCF1FF3F04D06FF0004267
:1036600082EA2100704770B500F005F84992248085
:1036700000207047F2E70EF1020E2EF0030E5EF806
:10368000046B364205D4012A43EB030515F5001FF0
:1036900012D8012841EB010C1CF5001F0CD80ED1EB
:1036A0004FEAD17C15F5001F0CEB4C0C0CF1020C11
:1036B00008BF4CEBD37C04E04FF0080C01E04FEA6C
:1036C000D37C0CEB4C0526FA05F606F00706B6F19E
:1036D000040C06D20EEB860CBDE870404CF0010CD9
:1036E0006047DFE80CF0090B02024FF000414FF099
:1036F0000000A1F5002170BD19461046012851EBCC
:10370000010418BFD4F5001484BF002001F000416B
:1037100070BD0808A0F500114FEA310170470000A4
:103720002DE9F04101F5801CBCF5001FC0F2A98015
:103730004FEA115C21EA0C510CF1FD0C41F48011AF
:103740005FEA5C0C0CF5C07C01D34000494130A419
:10375000890241EA905187028E0E0A0CA45D04FB97
:1037600004F602FB06F6C6F14046A4FB0662F60D1F
:1037700046EA422606FB06F4A4FB01235242C3F1AB
:10378000404338BF5B1EA6FB02420024E6FB032435
:10379000D20B42EA4446A6FB0623A1FB02E2A3FBAE
:1037A00007E4E3FB61426442C2F1404E38BFAEF130
:1037B000010EA6FB04234FF00002E6FB0E32A2FB33
:1037C00003463400E2FB6264A1FB06E6A4FB07E8C3
:1037D000E4FB61687642C8F1405838BFA8F101089F
:1037E000A2FB06E4A3FB08E5E2FB6854A1FB05E6A7
:1037F000A7FB04E8E1FB648618F1200556F10006FA
:10380000A809A8F11B08B10908F03F08B8F10A0F90
:1038100040EA86601CD901EB0C51BDE8F08100BF85
:10382000FCF5EEE8E2DDD8D3CFCBC7C3C0BDB9B657
:10383000B4B1AEACA9A7A5A3A19F9D9B9A9896955C
:103840009392908F8D8C8B898887868584838281E3
:10385000A0FB006800FB01F208EB4208B8EB8728E8
:1038600007D5341858EB0104D5D5401C51F100019F
:10387000D1E7341A78EB0104CDD4401E71F1000178
:10388000C9E75FEA4C0C5FEA9C5C0DD105D34FF0B1
:10389000000001F00041BDE8F081BDE8F04170B5E5
:1038A000FFF7E9FE6DDBFFBEBDE8F0414FF0000021
:1038B000004970470000F87F43004FEAD30C4FEAFD
:1038C0003C0C43401FBF40070CF1605113F0FE4F0A
:1038D00070471CF0006F03D100200CF000417047CE
:1038E0000CF0004343EA507010B540EACC0000F001
:1038F0000EF800BF000000924FEA0001FFF709BF79
:103900004FF000414FF00000A1F5002170470EF18B
:10391000020E2EF0030E5EF8044B244204D44FEA4C
:103920004102B2F17F4F11D84FEA4003B3F17F4F0C
:103930000CD80ED14FEAD07CB2F17F4F0CEB4C0C7F
:103940000CF1020C08BF4CEBD17C04E04FF0080CEA
:1039500001E04FEAD17C0CEB4C0324FA03F404F0B1
:103960000704B4F1040C06D20EEB840CBDE8104041
:103970004CF0010C6047DFE80CF0070802024FF042
:103980000040A0F5800010BD0846420018BFD2F1EB
:10399000807288BF00F0004010BD4FF04070E1EE33
:1039A000100A7047C4390008000000206C000000B5
:1039B000C4010008303A00086C000020DC4C000014
:1039C000E00100080000000000000000000000000E
:1039D00000000000010000000000000000000000E6
:1039E00000000000000000000000000000000000D7
:1039F00000000000000000000000000000000000C7
:103A000000000000000000000000000000000000B6
:103A100000000000000000000000000000000000A6
:103A20000000000001020304010203040607080964
:040000050800018965
:00000001FF
