:020000040800F2
:100000000052002029020008C518000877140008D3
:10001000A1140008770300087529000800000000FB
:10002000000000000000000000000000551A000859
:1000300029120008000000003F02000841020008E9
:10004000430200084302000843020008430200087C
:10005000430200084302000843020008430200086C
:10006000430200084302000843020008430200085C
:1000700043020008430200083D1000084302000844
:10008000430200084302000843020008430200083C
:1000900079030008430200084302000843020008F5
:1000A00043020008791C00084302000843020008CC
:1000B0009D1C0008BD1C0008E11C0008430200084C
:1000C00043020008430200084302000843020008FC
:1000D000430200084302000843020008BD22000852
:1000E00043020008430200084302000843020008DC
:1000F000291D0008430200084302000843020008CB
:100100004302000843020008051D000843020008DE
:100110004302000869210008430200084302000866
:10012000430200084302000843020008430200089B
:10013000430200084302000843020008430200088B
:100140009904000843020008430200084302000823
:10015000430200084302000843020008430200086B
:10016000430200084302000843020008430200085B
:10017000430200084302000843020008430200084B
:10018000430200084302000800F002F800F03CF8C7
:100190000AA090E8000C82448344AAF10107DA45E2
:1001A00001D100F031F8AFF2090EBAE80F0013F0F8
:1001B000010F18BFFB1A43F001031847182900006C
:1001C00038290000103A24BF78C878C1FAD85207FD
:1001D00024BF30C830C144BF04680C6070470000C1
:1001E0000023002400250026103A28BF78C1FBD840
:1001F000520728BF30C148BF0B6070471FB502F0DF
:1002000063FC1FBD10B510BD00F07CF81146FFF770
:10021000F5FF02F0F7FB00F09AF803B4FFF7F2FFE6
:1002200003BC00F09DF800000948804709480047DA
:10023000FEE7FEE7FEE7FEE7FEE7FEE7FEE7FEE796
:10024000FEE7FEE704480549054A064B70470000F3
:10025000751B000889010008000C002000520020D6
:10026000004E0020004E002040EA010370B59B07BD
:100270002ED14FF00136042A2AD308C810C99D1B7D
:100280009D43121F15EAC61517D0D8B2E1B2401A25
:1002900050EA056110D198B2A1B2401A50EA054166
:1002A0000AD123F07F4024F07F41401A50EA052113
:1002B00002D1180EA0EB146070BDA342DBD018BAB7
:1002C00021BA884201D9012070BD4FF0FF3070BDC6
:1002D0000AB9002070BD10F8013B11F8014B63B161
:1002E000A3420AD1521E08D010F8013B11F8014B6D
:1002F0001BB1A34201D1521EEDD1181B70BD704736
:1003000070477047754600F031F8AE460500694603
:10031000534620F00700854618B020B5FFF792FF3E
:10032000BDE820404FF000064FF000074FF00008F6
:100330004FF0000B21F00701AC46ACE8C009ACE877
:10034000C009ACE8C009ACE8C0098D46704710B5DB
:100350000446AFF300802046BDE81040FFF75DBFC4
:1003600001491820ABBEFEE7260002000048704796
:10037000A00B00207047FEE710B584B000203A4C77
:100380000090082302AA6946204600F089FD0099E2
:10039000DDE90232A1F5007001381CBFA1F5007043
:1003A000B0F1020016D0A1F50070033818BFB1F506
:1003B000017F0FD0A1F5007005381CBFA1F50070BA
:1003C000B0F1060006D0A1F50070073818BFB1F5EE
:1003D000027F1ED1A1F20120C3F3072103F0FF0C1D
:1003E000C0B201EB0C2C00EB8001204840F821C08A
:1003F0004FEA136CC3F307431B020CFA83F300EBC1
:100400008101C2F3072000EB0220CB6008821014A8
:1004100088741749204600F045FA1649204600F036
:1004200041FA1549204600F03DFA1449204600F0F3
:1004300039FA1349204600F035FA1249204600F0F7
:1004400031FA1149204600F02DFA1049204600F0FB
:1004500029FA0F49204600F025FA0E49204600F0FF
:1004600021FA04B010BD000000640040000B002021
:100470000100F0100200F0100400F0107000F030E5
:1004800003000012080000321000003203000014C4
:1004900008000034100000342DE9F04F00202DED4D
:1004A000028B85B00823009002AA6946734800F0C9
:1004B000F7FCDDE90276A7F5A048DFF8C4B1A8F59E
:1004C0001478002508F60C709FED6E8ADFED6E8AB9
:1004D00001906E48DFF8B89107EB000A05EB850044
:1004E0000BEB8000007A032870D0C5EBC50000EB51
:1004F000400009EBC004D4F8A40000F54071009856
:10050000814275D145F25020874260D01BDC44F215
:1005100044300199874247D00DDCA7F5824050381E
:1005200004BF00EE106AB8EEC00A58D0A0F5807083
:10053000F1382ED068E0A1F54060093811D0B0F54F
:10054000837F3AD060E0A8F54071FA3912D0514863
:1005500008187DD0A0F5E060073847D0062878D08D
:1005600052E0012E284602D001F080F94CE001F063
:1005700089F949E000EE106AF8EEC00A80EEA80A98
:1005800084ED050AD4ED070A00F076FF84ED050A34
:100590003AE000EE106AF8EEC00A80EE880A84EDB8
:1005A000090A84ED150A2FE000EE106AB8EEC00AC1
:1005B000C0EE080AC4ED0A0A26E000EE106AB8EEA2
:1005C000C00AC0EE280AC4ED140A1DE020E000EEC7
:1005D000106AD4ED100AB8EEC00A30EE800A84ED3D
:1005E000110A11E004E0C4F8A0000DE02A48FAE77F
:1005F000B0F5407F08D1BAF1000F3AD0AAF5E0601B
:100600000738F3D0062836D06D1C082DFFF666AFEC
:100610001A4C2249204600F045F92149204600F0B5
:1006200041F92049204600F03DF91F49204600F0DD
:1006300039F91E49204600F035F91D49204600F0E1
:1006400031F91C49204600F02DF91B49204601E0F4
:100650000FE010E000F026F91849204600F022F9DA
:100660001749204600F01EF905B0BDEC028BBDE82D
:10067000F08F1448B7E71448B5E700000068004061
:10068000000B00200024744900007A44B7AEFFBF7D
:10069000B0050020010500C0505800400100F010D6
:1006A0000200F0100400F0107000F030030000129F
:1006B000080000321000003203000014080000346B
:1006C0001000003449510040565800402DE9F04FC9
:1006D00000252DED028B8BB0DFF8B4B19FED6D8A54
:1006E000DFF8B4916D4FDFF8B8A14FF008082E463F
:1006F00005EB850009EB8000017A032902BF0BB0EE
:10070000BDEC028BBDE8F08FC5EBC50101EB4101EB
:100710000AEBC104D4F8A010002941D011EB0B0161
:1007200046D0A1F5E06007387BD0062838D194ED9B
:10073000040AD4F8A42045F6560120EE080A02F572
:100740002072029203928DF810600A0ABDEEC00A70
:100750008DF811608DF814208DF812800A0C8DF838
:10076000131010EE100A8DF81520090E8DF81610D2
:10077000010A8DF81810010C8DF817008DF819106A
:10078000000E8DF81A0002A9384600F0B7FB009061
:100790003846009900F014FC0128F9D1C4F8A06093
:1007A0006D1C082DA4DB0BB0BDEC028BBDE8F08FF7
:1007B000B0F91000D4F8A42045F2491102F52072D6
:1007C00000EE100A029203928DF810600A0AB8EE49
:1007D000C00A8DF811608DF814208DF812800A0C73
:1007E0008DF8131010EE100A8DF81520090E8DF8F3
:1007F0001610010A8DF81810010C8DF817008DF8ED
:100800001910000E8DF81A0002A9384600F076FB88
:1008100000903846009900F0D3FB0128F9D1BDE7DC
:10082000FFE794ED100AD4F8A42045F6500102F534
:100830002072029203928DF810600A0ABDEEC00A7F
:100840008DF811608DF814208DF812800A0C8DF847
:10085000131010EE100A8DF81520090E8DF81610E1
:10086000010A8DF81810010C8DF817008DF8191079
:10087000000E8DF81A0002A9384600F03FFB0090E8
:100880003846009900F09CFB0128F9D186E700006A
:10089000B7AEFFBF00007A44000B002000680040A4
:1008A000B00500200B4A914202BF002181617047D0
:1008B000C1F3130211F0007F1CBFC260704711F03A
:1008C000806F1CBF0261704711F0006F14BF82601F
:1008D000426070477000F0302DE9FF4F8DB0002569
:1008E0001A9F1E4692462C46A946B3F5807F08BF44
:1008F000082542D01EDC102E08BF04253DD00DDC9B
:10090000012E3AD0022E08BF012536D0042E08BF92
:10091000022532D0082E08BF03252EE0202E08BF66
:1009200005252AD0402E08BF062526D0802E08BFD8
:10093000072522E0B6F5805F08BF0C251DD00EDC30
:10094000B6F5007F08BF092517D0B6F5806F08BF40
:100950000A2512D0B6F5006F08BF0B250DE0B6F5DD
:10096000005F08BF0D2508D0B6F5804F08BF0E25E3
:1009700003D0B6F5004F08BF0F25B7F5807F08BF3D
:10098000082442D01EDC102F08BF04243DD00DDC0B
:10099000012F3AD0022F08BF012436D0042F08BF00
:1009A000022432D0082F08BF03242EE0202F08BFD6
:1009B00005242AD0402F08BF062426D0802F08BF48
:1009C000072422E0B7F5805F08BF0C241DD00EDCA1
:1009D000B7F5007F08BF092417D0B7F5806F08BFAF
:1009E0000A2412D0B7F5006F08BF0B240DE0B7F54D
:1009F000005F08BF0D2408D0B7F5804F08BF0E2454
:100A000003D0B7F5004F08BF0F244FF0140B0D981B
:100A10004FF00008A0F5C840B0F1804003D0B0F519
:100A2000806F09D014E001214FF009098DF816807C
:100A30008DF830B0480609E00E208DF816004020F1
:100A40008DF830004FF009090121000500F08AFF00
:100A5000CAF3090000282BD14FEAAA20A0F5801084
:100A60008038092824D2DFE800F005080B0E1114A5
:100A7000171A1F000121084613E00121022010E08F
:100A8000012104200DE0012108200AE001211020AD
:100A900007E00121202004E00121402001E00121A4
:100AA000802000F053FF03E00121080200F04EFF18
:100AB0004A462946504600F0CDFC4A46214650465B
:100AC00000F0C8FC02258DF82C5046EA07008DF88E
:100AD0002D500A908DF82E8001248DF82F400AA900
:100AE000504600F06FFC0D9800F061F88DF8228000
:100AF0008DF823800B208DF820000720CDF824806E
:100B00008DF821000E988DF81E808DF81F807D28AD
:100B100008BF102020D010DC0A2808BFC8201BD036
:100B2000142808BF642017D0322808BF282013D00B
:100B3000642808BFADF81CB010E0FA2808BF0820F0
:100B40000AD0B0F5FA7F08BF042005D0B0F57A7F4F
:100B500008BFADF81C5001E0ADF81C0007A90D98C6
:100B600000F0C2F88DF817808DF81840ADF80C80B1
:100B7000ADF81080ADF80E80ADF81280ADF814809D
:100B80008DF8194003A800F02FF88DF8318003206C
:100B90008DF832008DF833400CA800F095FE01224C
:100BA00002210D9800F098F811B0BDE8F08FA0F187
:100BB000804110B5B1F5C8414FF0010109D0880658
:100BC00000F0DCFEBDE8104000214FF0806000F036
:100BD000D5BE4FF0007000F0D1FEBDE810400021FE
:100BE0004FF0007000F0CABE30B4817A354B01225C
:100BF00002FA01F11A6842F001021A60DFF8C8C077
:100C0000DCF800208A43CCF80020047B2F4AD4B9BA
:100C100014688C4314604488C58844EA0544857A86
:100C2000ED0005F1804505F5C045C5F8404604884E
:100C3000858844EA0544857AED0005F1804505F58F
:100C4000C045C5F84446047B012C18D114680C43F8
:100C50001460847A0268E40004F1804404F5C0441E
:100C60004FEA3242C4F84026847A4268E40004F134
:100C7000804404F5C0444FEA3242C4F84426C47AA2
:100C8000134A002C14680CBF8C430C431460048975
:100C9000104A14B914688C4314600489012C02D1E1
:100CA00014680C431460407B012804D1DCF8000078
:100CB0000843CCF80000186820F00100186030BC30
:100CC00070470000006600401C6600400C66004053
:100CD0000466004014660040002A426914BF1143B4
:100CE00022EA0101416170470268002322F00202FA
:100CF0000260026842F0010202604FF6FF7200BF1C
:100D0000D0F804C01CF0010F03D1934218BF5B1C44
:100D1000F6D1436813F0010F59D08B79012B03688A
:100D20000CBF43F0800323F080030360CB79012BD9
:100D300003680CBF43F0400323F0400303600B7AC9
:100D4000012B03680CBF43F0200323F02003036052
:100D50004B7A012B03680CBF43F0100323F0100300
:100D600003608B7A012B03680CBF43F0080323F068
:100D700008030360CB7A012B03680CBF43F0040324
:100D800023F0040303608B7891F803C09B0743EAC8
:100D90000C6391F804C043EA0C4391F805C009883C
:100DA00043EA0C53491E1943C161016821F0010156
:100DB00001600021436813F0010F1CBF9142491CE0
:100DC000F8D1406810F0010F04BF012070470020E7
:100DD000704702460020002908BFD06803D00129CF
:100DE0000CBF1069704700F00300704700EB01135F
:100DF000D3F8B0C11CF0040C82F808C0D3F8B0C11D
:100E000007BF4FEA5C5CC2F800C04FEADC0CC2F8D6
:100E100004C0D3F8B0C10CF0020C82F809C0D3F8BA
:100E2000B4C10CF00F0C82F80AC0D3F8B4C14FEA79
:100E30001C2C82F813C0D3F8B8C182F80BC0D3F8C9
:100E4000B8C14FEA1C2C82F80CC0D3F8B8C14FEAE5
:100E50001C4C82F80DC0D3F8B8C14FEA1C6C82F864
:100E60000EC0D3F8BCC182F80FC0D3F8BCC14FEAA2
:100E70001C2C82F810C0D3F8BCC14FEA1C4C82F87D
:100E800011C0D3F8BC311B0E937421B1016941F03C
:100E9000200101617047C16841F02001C1607047C5
:100EA000F0B50C4685B01D46164607460021FFF7F3
:100EB00090FF002804BF05B0F0BD6A460021384607
:100EC000FFF794FFA5B1721E0DF10A0015F0010F96
:100ED00004D09DF80B1002F8011F401C6B0807D0CE
:100EE0004178517010F8021F02F8021F5B1EF7D103
:100EF0000098206005B00120F0BD000010B402464B
:100F00000020936813F0806F3FD000BF02EB001207
:100F1000D2F8803103F00103C2F880310B7A002B44
:100F200042D0D2F880C14C684CEA030391F809C062
:100F30004CEAC40C43EA0C03C2F880318B7A03F00C
:100F40000F038B72D2F8843123F00F03C2F884317F
:100F5000D2F8843191F80AC043EA0C03C2F8843114
:100F6000CB7AD1F80CC043EA0C23C2F88831CB7B92
:100F7000096943EA0121C2F88C11D2F8801141F0CD
:100F80000101C2F8801110BC7047906810F0006F2A
:100F900018BF0120BAD1906810F0805F14BF022002
:100FA0000420B3D110BC7047D2F8803191F809C049
:100FB00043EA0C03B1F800C043EA4C53BCE700001D
:100FC0001A4A002904BF8068194907D0012904BFC3
:100FD0008068184902D0022902D022E0084002E0CD
:100FE000806815490840A0F10061A1F58071904228
:100FF00015D008DCA8B16FF08061401808BF7047B9
:10100000022810D00BE0B1F5007F0CD0A1F10060F8
:10101000B0F57F4008BF7047B0F5003F03D0002017
:10102000704702207047012070470000000100084F
:1010300003000004000300080000031070B50C4D0D
:101040000C4C2946204600F037F8002808BF70BD38
:101050000021204600F026F82946204600F00CF832
:101060002046BDE870404FF4AF6100F0DBB80000EF
:101070000080001858600240064A904234BF06487B
:10108000064811F0005F064A01EA020114BFC16080
:1010900081607047106402400060024000640240BA
:1010A0007D0F7D0F0029016814BF41F0010121F07F
:1010B0000101016070470000124A0023904234BFD2
:1010C000114A124ADFF848C011EA0C0F04BF406908
:1010D00000F0800006D04FF01E0C00680CEAD12C06
:1010E00000EA0C0011F0005F14BF52681268DFF8CC
:1010F00024C002EA0C020A421CBF00280123184641
:10110000704700001064024000600240006402402A
:101110003C0F3C0F7D0F7D0F11F0800F01F01E037F
:1011200006D072B1D0F814C04CF0800CC0F814C0D6
:10113000802908BF7047002A1CBF0168194307D0E7
:1011400008E0426922F080024261802908BF7047AE
:10115000016899430160704710B402681B4BD1F8D5
:101160000CC01A400B6843EA0C03D1E905C44CEAF1
:10117000040C43EA0C03D1F81CC043EA0C03D1F879
:1011800020C043EA0C03D1F824C043EA0C03D1F891
:1011900028C043EA0C03D1F834C043EA0C03D1F869
:1011A00038C043EA0C031A4302604269D1E90B3CA0
:1011B00022F0070243EA0C031A4342610A694260C3
:1011C0004A6882608968C16010BC70473F801CF02B
:1011D00038B5114C8C462288C82A88BF38BD12F019
:1011E000010F0D4B1B8803F1010323800B4B009271
:1011F00014BF0A2209224FF0010118BF604600F017
:101200002BFC2088C82818BF38BD01210448FFF7EF
:1012100049FF0020208038BD040000202400002069
:10122000586002404160704770470000F0B4DFF83A
:1012300050C1012102208CF808108CF81C108CF889
:1012400030008CF8440003228CF858208CF86C1085
:101250008CF880004B498CF8940006250520C1F8D5
:101260004C51C1F8A4000720C1F8F4010022082065
:10127000164687029FED445ADFED444AB3EE044A16
:10128000DFED435ADFED432A9FED432ADFED431A9A
:10129000B7EE000ADFED420A9FED421A9FED423A97
:1012A000C1F89C02C2EBC20000EB400401EBC40099
:1012B00002EB820306720CEB8303C0F894701B7A76
:1012C000012B02D0022B1FD04BE041F8345080EDAF
:1012D0000B5AC0ED0C4A80ED0F4AC0ED075AC0ED25
:1012E000181AC0ED172A80ED1B2A80ED090A80ED3F
:1012F0000A0AC0ED050AC0ED111A80ED151AC0EDFD
:10130000140A80ED1A3A29E0DFED283A41F834500A
:101310009FED276AC0ED0B3A80ED0C6AB1EE086ACA
:1013200080ED0F6A9FED236A80ED076AC0ED183AE1
:10133000DFED213AC0ED173ADFED203AC0ED1B3A60
:1013400080ED090A80ED0A0AC0ED050AC0ED111A08
:1013500080ED151AC0ED140A80ED1A3A521C082AC5
:10136000A0DB9FED160A81ED1B0A81ED450A9FED7A
:10137000140A81ED1A0A81ED440A0D60F0BC704731
:10138000000B0020B0050020CDCCCC3D6F12833A7D
:101390000000A044AE47E13DCDCC4C3F0000000032
:1013A00000007A433333333F000020C3CDCC4C3DA3
:1013B000A69B443B000016451B2FDD3C33333340D6
:1013C000000020432DE9F001002201255FF0030613
:1013D000D1F800C005FA02F30CEA030C9C4533D1A6
:1013E00007684FEA420C06FA0CF4A74307600F792E
:1013F000D0F8008007FA0CF747EA080707600F7972
:10140000012F18BF022F14D18768A74387604F7937
:10141000D0F8088007FA0CF747EA080787604768A2
:1014200027EA0303436043688F799740BFB23B4389
:101430004360C368A343C360CB7903FA0CF3D0F8CD
:101440000CC043EA0C03C360521C102AC0D3BDE891
:10145000F00170474B07DB0E9A40C90800EB810092
:10146000016A4FF00F0C0CFA03F399430162016A11
:10147000114301627047FEE7B4EEE00AF1EE10FAA4
:1014800008DC00BFF1EE600AB4EEE00AF1EE10FAFB
:1014900003D37047B0EE600AF4E7B0EE600A70471D
:1014A000FEE700002DE9F0470022DFEDE73AF7EE16
:1014B000005ABFEE004A9FEDE55A15460526DFEDBE
:1014C000E44ADFEDE42AE44BE44C00BF02EB820087
:1014D00003EB800C9CF80800032800F01F81C2EB8E
:1014E000C20000EB4008DCE9007004EBC801381AC8
:1014F000CCF80470D1F8947007EBD779B0EB690F92
:10150000C8BFC01B4FEA6909C9F100098145C8BFBE
:101510003844D1ED100A00EE100AB8EEC00A30EEE1
:10152000800A81ED100A9CED030AB8EEC00A20EE95
:10153000230A81ED040A087A012818BFC1ED032AA5
:101540007DD154F8380002287FD0052802D0062823
:1015500077D0DFE0D1ED110A91ED100AB0EE653AD7
:1015600001F1400030EEC01A81ED121A91ED170A18
:10157000D1ED130AD1ED181A21EE000A71EE600ABE
:1015800081ED131A91ED121A01EEA00AB5EEC01A00
:10159000F1EE10FA38BFB0EE443AD0ED050A60EE35
:1015A000850A60EE830A20EE811AF1EEC10AB0EEE0
:1015B000C01A60EE830AF0EEE01AF4EEC11AF1EE02
:1015C00010FA38BFB0EE600A90ED041AB4EEC10A0A
:1015D000F1EE10FA00F32A81F1EE410AB4EEE00ACE
:1015E000F1EE10FAC0F0268180ED090A91ED190A9A
:1015F00001F1100081ED050AD1ED050A91ED091AFE
:1016000091ED060A70EEC11AF4EEC01AF1EE10FA6E
:10161000C8BF30EE010A0DDC90ED061A70EE811A9B
:10162000F4EEC01AF1EE10FA34BF30EE410AC0ED0C
:10163000020A01D280ED020A01F09EF902E069E09F
:1016400003E027E081ED030A64E091ED051AD1ED96
:10165000090A91ED060A01F1100071EE601AF4EE2C
:10166000C01AF1EE10FAC8BF30EE200A0DDCD0ED42
:10167000060A71EE201AF4EEC01AF1EE10FA34BF29
:1016800030EE600A80ED021A01D280ED020A01F00C
:1016900073F93DE091ED1A0A01F1100081ED060A9F
:1016A00001F06AF9D1ED1B0AB4EEE00AF1EE10FA8E
:1016B0007DDC00BFB1EE601AB4EEC10AF1EE10FAA3
:1016C00076D300BF81ED1E0A91ED040AB0EEC00A88
:1016D00010EE100AB0F1804FC8BF4D6716DC486F9E
:1016E000401C4867B0F5FA7F10DBC1ED102AC1ED50
:1016F000114AC1ED1E2AC1ED052AC1ED062AC1ED30
:101700000E2AC1ED032AC1ED0D2A0E6091ED1E0ACD
:1017100081ED030A521C082AFFF6D8AE197ADFEDD4
:10172000501AB3EE040ADFED4F0A4F48B2EE041A26
:10173000012933D0022918BFC0ED002A39D0197F02
:1017400001293FD0022918BFC0ED012A43D000BFB4
:1017500093F83010012947D0022918BFC0ED022AA2
:1017600049D000BF93F8441001294DD0022918BF79
:10177000C0ED032A51D03C4800F0AEF994ED6D0A5B
:10178000BDEEC00A10EE101A94ED580ABDE8F047FD
:10179000BDEEC00A10EE100AFFF71ABD94ED032A41
:1017A00022EE212A82EE003A80ED003AC7E744E0BB
:1017B00046E094ED032A22EE203A83EE012A80EDE2
:1017C000002ABCE794ED2D2A22EE212A82EE003A6F
:1017D00080ED013ABCE794ED2D2A22EE203A83EE0B
:1017E000012A80ED012AB3E794ED572A22EE212A3F
:1017F00082EE003A05E094ED572A22EE202A82EE8E
:10180000013A80ED023AADE7D4ED810A60EEA10A1B
:1018100080EE801A80ED031AADE794ED810A20EE88
:10182000200AC0EE010AC0ED030AA4E7B0EE410AA7
:10183000D2E600BFB1EE410AD6E6B0EE600A39E763
:10184000B1EE600A3EE7000063CF0B3E3333B33F97
:101850000000004600000000000B0020B005002042
:101860000000804600401C46F00A0020C0EBC0008B
:10187000034A00EB400002EBC000002101727047F8
:10188000B0050020C0EBC0000C4900EB40000B4A43
:1018900051F830109FED0A0A02EBC000052904BF81
:1018A000D0ED100AC0ED110A03D0022908BF80ED67
:1018B000050A80ED0D0A012101727047B005002074
:1018C00000000000FEE7000010B4C27801780F2489
:1018D0004FF0010C0AB3174A126801F1E02102F43B
:1018E000E062C2F5E062C2F30722C2F10403D44011
:1018F00042789A40837823401A43120181F80024E9
:10190000007800F01F010CFA01F14009800000F19D
:10191000E020C0F8001110BC704701F01F000CFA65
:1019200000F04909890001F1E021C1F8800110BCF3
:10193000704700000CED00E0034940F0FD7040F0FE
:1019400080600860704700000CED00E0044A002948
:10195000116814BF084321EA0000106070470000BE
:1019600030380240044A0029116814BF084321EAB4
:10197000000010607047000040380240044A00290F
:10198000116814BF084321EA00001060704700008E
:1019900020380240044A0029116814BF084321EA94
:1019A000000010607047000044380240254A30B4FF
:1019B0001168254B11F00C0106D05C10042908BFFA
:1019C000046002D008291ED0036011680F2303EAC7
:1019D00011111E4B595CD0F800C02CFA01F1416086
:1019E000D2F800C0072404EA9C2C13F80CC021FA9A
:1019F0000CFCC0F808C0126804EA52329A5CD1406C
:101A0000C16030BC70471249D1F800C0CCF380559A
:101A1000D1F800C0002D0CF03F0C14BFB4FBFCF358
:101A2000B3FBFCF3D1F800C00968CCF3881C03FBBE
:101A30000CF3C1F30141491C4900B3FBF1F1016012
:101A4000C3E70000083802400024F400140000201E
:101A50000438024070470000F0B44FF0200C049CA2
:101A60000029C4EBC40418BF0028A8BF03F804C0B1
:101A700002DA2D2119554042164D4FF0010CE6189F
:101A80000A24DCF105014FF001030CD011F0010F25
:101A900018BF0A23C1F3470129B163436343491EB9
:101AA00011F0FF01F9D1B0FBF3F1A5FB0143DB0815
:101AB0005B4203EB830301EB4301303106F80C106A
:101AC0000CF1010101F0FF0CBCF1060FD8D3B2718B
:101AD000F0BC7047CDCCCCCC30B590ED000A85B0D1
:101AE0004FF0000CBDEEC00A4FF4007410EE102A47
:101AF00090ED010ABDEEC00A10EE101A90ED020A38
:101B0000BDEEC00A10EE103A90ED030A8DF808C041
:101B10008DF809C04FF0080C8DF80AC04FEA122C5E
:101B2000BDEEC00A8DF80C200A0A8DF80D2010EECB
:101B3000100A8DF80E10190A8DF80F108DF810305C
:101B4000010A009401948DF81110094C8DF81200CF
:101B50008DF80BC069462046FFF7D0F905462946A7
:101B60002046FFF72DFA0128F9D105B030BD00005D
:101B700000640040374882B0016841F470010160A0
:101B80003548016841F001010160344900230B60D0
:101B9000026822F4102222F08072026000F1040C2C
:101BA0002F4ACCF80020026822F4802202600A1D2D
:101BB000136001930093026842F48032026002686D
:101BC00002F400320092019A521C0192009A1AB952
:101BD000019AB2F5A06FF2D1026812F4003F08BF7B
:101BE000009331D0012200921E4A136843F08053C3
:101BF00013601D4A136843F4804313600A680A6047
:101C00000A6842F400420A600A6842F4A0520A607C
:101C1000164ACCF80020026842F080720260026826
:101C200012F0007FFBD0124A40F205601060086895
:101C300020F003000860086840F0020008600868AF
:101C400000F00C000828FAD10A494FF00060086043
:101C500002B0704788ED00E00038024008380240CA
:101C60001030002440380240007000400854400703
:101C7000003C024008ED00E010B5074C0121204671
:101C800000F058F9012818BF10BD01212046BDE819
:101C9000104000F05BB800000000014010B50121C9
:101CA000880700F047F9012818BF10BD01218807F7
:101CB00000F04CF8BDE81040FFF7F4BB10B5074C3E
:101CC0000121204600F036F9012818BF10BD01217E
:101CD0002046BDE8104000F039B800000004004084
:101CE00010B5074C0121204600F024F9012818BF47
:101CF00010BD01212046BDE8104000F027B80000CB
:101D00000008004010B5074C0121204600F012F9F0
:101D1000012818BF10BD01212046BDE8104000F089
:101D200015B80000000C004010B5074C01212046FA
:101D300000F000F9012818BF10BD01212046BDE8C0
:101D4000104000F003B8000000040140C9430182C4
:101D500070470029018814BF41F0010121F0010101
:101D6000018070472DE9F04F85B05FEA0108054614
:101D70004FF0000704BF05B0BDE8F08FDFF8A8B151
:101D80000026A5EB0B0909F580504FF6FF7A03906A
:101D90000A240096019602965D456ED01ADC6348CF
:101DA000039985426BD00BDCB5F1804F4AD0A5F189
:101DB0008040B0F580604ED0B0F5806F54D06FE0B9
:101DC000B1F5806F64D0B1F5006F7DD0B1F5406F93
:101DD0007BD065E0B9F5923F1FD009DCB9F5806F83
:101DE00074D0B9F5644F0AD0B9F5684F0ED057E0FA
:101DF000B9F5943F18D0B9F5963F1CD050E00121B9
:101E00000846FFF7C7FD44F2A01047E00121022079
:101E1000FFF7C0FD44F2A01040E001210804FFF7E5
:101E2000B9FD44F2A01039E001214804FFF7B2FDEA
:101E300044F2A01032E001218804FFF7ABFD44F228
:101E4000A0102BE001210846FFF78CFD42F2D000E4
:101E5000ADF8000024E001210220FFF783FD42F2EB
:101E6000D000ADF800001BE001210420FFF77AFD4F
:101E700042F2D000ADF8000012E046E0FFE7012199
:101E80000820FFF76FFD42F2D000ADF8000007E038
:101E900001211020FFF766FD42F2D000ADF80000EE
:101EA000CDF804A0ADF80860ADF802606946284698
:101EB00000F01AF901212846FFF74BFF00212846C0
:101EC00000F010F9284602E011E017E024E000F0ED
:101ED0002FF880B2A042F5D300212846FFF739FF42
:101EE0007F1C4745FFF454AF05B0BDE8F08F0121DA
:101EF0002020FFF737FD42F2D000CFE7012140203C
:101F0000FFF730FD42F2D000C8E701218020FFF743
:101F100029FD42F2D000C1E701210802FFF722FDAE
:101F200042F2D000BAE70000001C0040000C004064
:101F3000406A7047038A002280890B4200EA010050
:101F40001CBF0028012210467047002A828914BF56
:101F5000114322EA01018181704700002DE9F0431D
:101F6000894685B05D498046401A2C240C9E1D464A
:101F7000174688457CD01BDC5949A8EB01008845F1
:101F80005BD00BDCB8F1804F45D0A8F18040B0F5B4
:101F9000806046D0B0F5806F49D077E0B0F5806FB3
:101FA00051D0B0F5006F54D0B0F5406F58D06DE00F
:101FB000B0F5923F1CD009DCB0F5806F5FD0B0F572
:101FC000644F0AD0B0F5684F0DD05FE0B0F5943F94
:101FD00014D0B0F5963F18D058E001210846FFF71D
:101FE000D9FC192041E001210220FFF7D3FC43E096
:101FF00001210804FFF7CEFC182036E0012119204A
:10200000FFF7C8FC8DF8004040E001218804FFF78D
:10201000C1FC1A2029E001210846FFF7A3FC1C207F
:1020200023E001210220FFF79DFC1D201DE001217E
:102030000420FFF797FC1E2017E001210820FFF77E
:1020400091FC322011E001211020FFF78BFC36209B
:102050000BE001212020FFF785FC372005E007E099
:1020600001214020FFF77EFC2B208DF800000DE0C1
:1020700001218020FFF776FC8DF8004006E0012169
:102080000802FFF76FFC2D208DF800000020ADF84E
:102090000470ADF80C00ADF80600CDF8089001A969
:1020A000404600F021F801214046FFF74FFE012293
:1020B00011464046FFF749FF8DF801508DF8026048
:1020C00001208DF803006846FFF7FEFB0121404622
:1020D000FFF73FFE05B0BDE8F0830000001C0040A4
:1020E000000C00404162704710B402881C4BDFF8BE
:1020F00074C0984218BF604511D0B0F1804F1CBF2A
:10210000A0F18044B4F5806409D0A0F18044B4F516
:1021100000641CBFA0F18044B4F5406403D14C8836
:1021200022F070022243A0F18044B4F580541CBF19
:10213000A0F18044B4F5A05403D00C8922F440727D
:10214000224302804A68C2620A880285984212BF0E
:102150006045897A01860121818210BC70470000A8
:10216000000001400004014010B5084C40F2255128
:10217000204600F0B0FA012818BF10BD40F22551EA
:102180002046BDE8104000F087BA00000050004033
:102190002DE9F041074696B001210420FFF7D6FB58
:1021A00001218804FFF7DEFB01214805FFF7CEFB84
:1021B000DFF8F88007220A214046FFF74BF9072293
:1021C0000B214046FFF746F902268DF854604FF484
:1021D00040608DF85560002414908DF8564001251C
:1021E0008DF8575014A94046FFF7ECF81097ADF85A
:1021F00048400C202E4FADF84440ADF84A00ADF8F1
:102200004640ADF84C4010A9384600F0A3FA012131
:10221000384600F048FA01228021384600F04CFA96
:10222000012240F22551384600F07BFAE806009082
:10223000381D01901F480290402003904FF4AF607A
:10224000CDE90404A802CDE90604C0010894CDE953
:102250000940CDE90B45184F0D94694638460E9458
:10226000FEF77AFF01213846FEF71CFF01221021FC
:102270003846FEF751FF0E208DF83C008DF83D608A
:102280008DF83E608DF83F500FA8FFF71DFB27200B
:102290008DF83C008DF83D408DF83E508DF83F5054
:1022A0000FA8FFF711FB16B0BDE8F081000802404F
:1022B00000480040240000205860024010B50C4C3B
:1022C00040F22551204600F006FA012818BF10BD43
:1022D00040F22551204600F0DFF9204600F038FB9F
:1022E000C1B2044801702046BDE8104000F004B8B7
:1022F00000480040000000202DE9F04107462DED88
:10230000048B2029B248B34C03D062688154511C1D
:1023100061606368C11811F8011C0A291FBF0D29EB
:102320003B29BDEC048BBDE8F0810026012B08BFE2
:10233000666021D08178A84DDFEDA88A3D2923D0A1
:102340000222A7A1A248FDF78FFF002800F02281FA
:102350000222A4A19E48FDF787FF002800F02881F3
:102360000222A1A19A48FDF77FFF002800F02B81EF
:102370009EA1384600F04AFA01206660C4E9026076
:10238000BDEC048BBDE8F08190F803806FF02F0165
:10239000B8F12D0F5AD0A3F1040CBCF1000F22DDCF
:1023A000821C13F0010F07D0A068521C00EB8000C4
:1023B00001EB40004044A0605FEA6C0018BFA368D6
:1023C00011D000BF92F801C003EB830301EB43037C
:1023D000634412F802CF03EB830301EB430363442E
:1023E000401EEFD1A360022286A17948FDF73CFF91
:1023F0009FED859A00285DD0022284A17448FDF7E4
:1024000033FF9FED838A002867D0022281A17048A4
:10241000FDF72AFF002876D002227FA16C48FDF745
:1024200023FF00286DD002227CA16948FDF71CFF24
:10243000002867D002227AA16548FDF715FF002821
:1024400074D078A1384600F0E1F995E74FF0FF3CF1
:102450005A1FC4F80CC0002A27DD6FF0040883EA75
:102460000803C01C13F0010F09D0D4F8088010F83D
:10247000013F08EB880801EB48084344A360521071
:1024800018BFA36811D000BF90F8018003EB83034D
:1024900001EB4303434410F8028F03EB830301EB8A
:1024A00043034344521EEFD1A360A06800FB0CF02D
:1024B000A06098E794ED020A60A13846B8EEC00A21
:1024C00020EE090A85ED050A20EE280ABDEEC00AB5
:1024D00010EE102A00F09AF94EE794ED020A5AA184
:1024E0003846F8EEC00A80EE880A85ED090A20EE2B
:1024F000080ABDEEC00A10EE102A00F087F93BE78B
:1025000001E014E026E094ED020A52A13846F8EE0C
:10251000C00A80EE880A85ED0A0A20EE080ABDEEA0
:10252000C00A10EE102A00F071F925E721E094EDC1
:10253000020A4BA13846B8EEC00A20EE090A85ED22
:10254000050A20EE280ABDEEC00A10EE102A00F09F
:102550005DF911E794ED020A44A13846B8EEC00ACD
:1025600085ED110ABDEEC00A10EE102A00F04EF9FA
:1025700002E7A268D5ED100A00EE102A3BA138460A
:10258000B8EEC00A30EE800A85ED110A00F03EF97F
:10259000F2E600BF95ED040A37A1384620EE280A7E
:1025A000BDEEC00A10EE102A00F030F9E4E600BFDC
:1025B00095ED100A32A13846BDEEC00A10EE102A81
:1025C00000F024F9D8E630A1384600F01FF9D3E630
:1025D0009C05002004000020B005002000007A4483
:1025E000565800005058000049510000494E5641CD
:1025F0004C4944205245414420434D442121210D62
:102600000A0000004A5600006F12833A414300005E
:10261000002474494443000053500000504100001E
:1026200050520000494E56414C494420575249549B
:102630004520434D442121210D0A00004A563D25E5
:10264000643B0D0A0000000041433D25643B0D0A38
:102650000000000044433D25643B0D0A00000000DB
:1026600053503D25643B0D0A0000000050413D25BC
:10267000643B0D0A00000000565825643B0D0A001B
:10268000505825643B0D0A00495120696E76616CF3
:1026900069640D0A00000000090A012202FA01F132
:1026A000C943018070470029818914BF41F400515A
:1026B00021F4005181817047002A828A14BF11439E
:1026C00022EA0101818270470246002012880A42F4
:1026D00018BF0120704710B401F01F02012400232D
:1026E000C1F3421C04FA02F2BCF1010F04BFB0F8BE
:1026F0000CC00CEA020208D0BCF1020F0CBFB0F80B
:1027000010C0B0F814C00CEA0202090A008804FAEA
:1027100001F10840002A1CBF00280123184610BC04
:102720007047C1F3421301F01F014FF0010C0CFA86
:1027300001F1012B08BF0C3003D0022B0CBF10306D
:102740001430002A026814BF114322EA010101601B
:102750007047000030B50446008A85B00D46C98830
:1027600020F4405008432082A089A9882A8920F4B7
:10277000037011436A8920F4A05010430843A081DC
:10278000A08AA98920F440700843A0826846FFF718
:102790000DF9A4F18040B0F588301BBFA4F1804052
:1027A000B0F58A3003980298A18911F4004F00EB2C
:1027B000C00101EB0010296814BF49008900B0FB7B
:1027C000F1F0114A6FF0180CA2FB00314909090120
:1027D0000B0903FB0CF300EB8300A38913F4004FF8
:1027E0004FF0320314BF03EBC00003EB0010A2FB59
:1027F00000204FEA501014BF00F0070000F00F0057
:102800000843208105B030BD1F85EB510FB42DE981
:10281000F04F85B083460F9810AD0078002802BFB6
:1028200005B0BDE8F00F5DF814FB4FF03009464FDE
:10283000DFF818814FF02D0A00260F9801785C29E7
:1028400016D000F1010025290F9022D0584600F043
:1028500083F840215846FFF737FF0028F9D00F983A
:1028600000780028E9D105B0BDE8F00F5DF814FB51
:10287000401C0F9001786E2906D072290ED10D21CF
:10288000584600F069F81EE00A21584600F064F846
:1028900019E0017864291AD0732902D0401C0F90E6
:1028A000D7E755F8044B207868B1C1B2584600F01C
:1028B00053F840215846FFF707FF0028F9D014F8D5
:1028C000010F0028F1D10F98401C0F90C1E755F877
:1028D000040B00236946002804BF8DF800908DF892
:1028E00001601CD005DA8DF800A0C0F1000001F1F4
:1028F00001013C4690FBF4F252EA030C06D002F1CF
:10290000300301F8013B02FB1400012388FB04C2E1
:102910004FEAA20CACEBE274002CEBDC0E709DF8DD
:1029200000006C460028CED02178584600F014F8FC
:1029300040215846FFF7C8FE0028F9D014F8010FCF
:102940000028F1D1BFE7000040420F0067666666CD
:102950008088C0F308007047028812F0800FFBD017
:102960004FF67F7202804FF6BF720280C1F30801FA
:1029700081807047FEE7000090ED020AD0ED000A6A
:1029800070EE601AC0ED041A90ED090AD0ED080A45
:1029900000EEA10A80ED090A90ED0B1AB4EEC10A0F
:1029A000F1EE10FA21DC00BFF0EE410AF1EE600A10
:1029B000B4EEE00AF1EE10FA1AD300BF80ED090A76
:1029C00090ED072A02EE210A80ED0A0AB4EEC10A50
:1029D000F1EE10FA0FDC00BFB4EEE00AF1EE10FAEF
:1029E0000CD300BF80ED0A0A7047B0EE410ADBE766
:1029F000B0EE600AE2E7B0EE410AEDE7B0EE600A41
:102A0000F0E7000070B54FF4A0602DED028B82B0AE
:102A1000FEF792FF4FF46120FFF7BAFB4FF400700E
:102A2000224C4310009022464FF47A712048FDF763
:102A300053FF40200090202322464FF4FA711D4896
:102A4000FDF74AFF002003460090532240F2E73191
:102A50002005FFF783FA00212005FFF77AF9FEF73A
:102A6000E5FB01218807FFF774F9C8211248FFF739
:102A700079F9124D9FED128A124E002404EB840066
:102A800005EB8000007A03280DD0C4EBC40000EBF6
:102A9000400006EBC00080ED108A2046FEF7F2FEF3
:102AA000641C082CEADBFDF711FEFCE70004024081
:102AB000006400400068004000040040000B00205B
:102AC00000000000B00500204FF04070E1EE100A59
:102AD00070470000F42A00080000002024000000D5
:102AE000C4010008182B000824000020DC5100005D
:102AF000E0010008000000000000000000000000ED
:102B000000000000010000000000000001020304BA
:082B1000010203040607080995
:040000050800018965
:00000001FF
