:020000040800F2
:10000000C85D002069020008A51D0008AB190008A2
:100010009B1A000807040008493B00080000000084
:10002000000000000000000000000000C9250008DA
:10003000C1150008000000007F02000881020008CE
:10004000830200088302000883020008830200087C
:10005000830200088302000883020008830200086C
:10006000830200088302000883020008830200085C
:100070008302000883020008491400088302000874
:10008000830200088302000883020008830200083C
:100090000D040008830200088302000883020008A0
:1000A00083020008A92A00088302000883020008CE
:1000B000C52A0008E12A0008FD2A0008830200087A
:1000C00083020008830200088302000883020008FC
:1000D0008302000883020008830200083934000804
:1000E00083020008830200088302000883020008DC
:1000F000352B0008830200088302000883020008F1
:100100008302000883020008192B000883020008FC
:1001100083020008DD320008830200088302000821
:10012000830200088302000883020008830200089B
:10013000830200088302000883020008830200088B
:1001400051050008830200088302000883020008AA
:10015000830200088302000883020008830200086B
:10016000830200088302000883020008830200085B
:10017000830200088302000883020008830200084B
:10018000830200088302000800F002F800F05CF827
:100190000AA090E8000C82448344AAF10107DA45E2
:1001A00001D100F051F8AFF2090EBAE80F0013F0D8
:1001B000010F18BFFB1A43F001031847BC3B0000B6
:1001C000DC3B00000A444FF0000C10F8013B13F038
:1001D000070408BF10F8014B1D1108BF10F8015BA0
:1001E000641E05D010F8016B641E01F8016BF9D193
:1001F00013F0080F1EBF10F8014BAD1C0C1B09D1EA
:100200006D1E58BF01F801CBFAD505E014F8016B5B
:1002100001F8016B6D1EF9D59142D6D370470000ED
:100220000023002400250026103A28BF78C1FBD8FF
:10023000520728BF30C148BF0B6070471FB503F09D
:1002400095FD1FBD10B510BD00F0A3F81146FFF7D6
:10025000F5FF03F07BFD00F0C1F803B4FFF7F2FFF8
:1002600003BC00F0C5F80000094880470948004772
:10027000FEE7FEE7FEE7FEE7FEE7FEE7FEE7FEE756
:10028000FEE7FEE704480549054A064B70470000B3
:10029000412A000889010008C8170020C85D002015
:1002A000C8590020C859002040EA010370B59B07D7
:1002B0002ED14FF00136042A2AD308C810C99D1B3D
:1002C0009D43121F15EAC61517D0D8B2E1B2401AE5
:1002D00050EA056110D198B2A1B2401A50EA054126
:1002E0000AD123F07F4024F07F41401A50EA0521D3
:1002F00002D1180EA0EB146070BDA342DBD018BA77
:1003000021BA884201D9012070BD4FF0FF3070BD85
:100310000AB9002070BD10F8013B11F8014B63B120
:10032000A3420AD1521E08D010F8013B11F8014B2C
:100330001BB1A34201D1521EEDD1181B70BD4FF06D
:10034000000200B5134694469646203922BFA0E825
:100350000C50A0E80C50B1F12001BFF4F7AF090731
:1003600028BFA0E80C5048BF0CC05DF804EB890022
:1003700028BF40F8042B08BF704748BF20F8022B65
:1003800011F0804F18BF00F8012B7047704770477D
:100390007047754600F032F8AE4605006946534690
:1003A00020F00700854618B020B5FFF76BFFBDE8C9
:1003B00020404FF000064FF000074FF000084FF0CC
:1003C000000B21F00701AC46ACE8C009ACE8C0095D
:1003D000ACE8C009ACE8C0098D46704710B50446CA
:1003E000AFF300802046BDE81040FFF736BF0000A5
:1003F00001491820ABBEFEE7260002000048704706
:1004000068170020704700BFFEE7000010B586B0F7
:10041000002400200390082304AA03A9444800F004
:10042000A5FE002005E004A9095C01AA1154411CA5
:10043000C8B20828F7DB40F20121039888421BD09C
:10044000491C0398884217D0491C0398884213D04E
:100450000398B0F5017F0FD0891C039888420BD018
:10046000491C0398884207D0491C0398884203D04E
:100470000398B0F5027F2DD10398401EC4B29DF8B9
:1004800005009DF8041000EB012004EB8401294ACB
:1004900042F821009DF80600000200B29DF8071006
:1004A000084404EB840102EB8101C8609DF8090057
:1004B0009DF8081000EB012000B204EB840102EB70
:1004C000810108829DF80A0040B204EB840102EB2E
:1004D000810188741849164800F09AFA1649491C97
:1004E000134800F095FA1449C91C114800F090FA1D
:1004F00012490F4800F08CFA11490D4800F088FAB3
:1005000010490B4800F084FA0E490831084800F001
:100510007FFA0D49064800F07BFA0C49044800F0C8
:1005200077FA0A490831024800F072FA06B010BDA5
:1005300000640040641600200100F0107000F030EC
:100540000300001208000032030000140800003409
:1005500010B586B000200390082304AA03A9C3485D
:1005600000F004FE002005E004A9095C01AA115472
:10057000411CC8B20828F7DB002445E104EB8400E5
:10058000BB4901EB8000007A032800D13FE1C4EBB6
:100590000410B84901EB4010D0F8DC0100F54070C0
:1005A000039988427DD145F250420198811A9042C8
:1005B00078D01ADC44F64D72A0EB0201904228D0AC
:1005C0000BDCA0F58040A0F5A87000286BD0A0F24D
:1005D000F110E8B3032867D174E0B1F5837F6FD0E1
:1005E000A1F203310029F6D199E0A34A881A914279
:1005F00067D007DCB1F5FD7F16D0A048084400287D
:10060000E9D1A8E0A0F2077000287BD00628E2D14B
:10061000B7E00298012803D1204601F087FB02E0F1
:10062000204601F079FBC0E09DED020AB8EEC00A59
:10063000DFED930A80EE201AC4EB04108D4901EB24
:10064000401080ED071AC4EB041001EB401000E0ED
:1006500015E090ED091AF0EE410AC4EB041001EB2D
:10066000401090ED071AB0EE410A01F003FAC4EB16
:100670000410804901EB401080ED070A95E09DEDE4
:10068000020AB8EEC00ADFED7F0A80EE201AC4EB42
:100690000410784901EB401080ED0B1AC4EB0410F4
:1006A00003E083E051E02EE07EE001EB401090EDAE
:1006B0000B0AC4EB041001EB401080ED170A74E044
:1006C00010E055E09DED020AB8EEC00ADFED6D0ABC
:1006D00080EE201AC4EB0410664901EB401080ED57
:1006E0000C1A62E09DED020AB8EEC00ADFED640A62
:1006F00080EE201AC4EB04105E4901EB401080ED3F
:10070000161A52E046E09DED020AB8EEC00AC4EBAC
:100710000410584901EB401080ED130A45E0C4EB8A
:100720000410544901EB401090ED120AF8EEC00A93
:100730009DED020AB8EEC00A30EE800AC4EB041048
:1007400001EB401080ED130A2FE02046DDE9011295
:1007500001F0CAFC29E0202000F06AFE38B14A48C6
:10076000C4EB0411434A02EB4111C1F8D8011CE06B
:100770004648C4EB04113F4A02EB4111C1F8D801CD
:1007800013E04348C4EB04113A4A02EB4111C1F8AB
:10079000D8010AE03E48801FC4EB0411354A02EB41
:1007A0004111C1F8D80100E000BF2CE00398B0F57A
:1007B000407F28D1354949420198084428B1A0F228
:1007C0000770A0B106281CD108E03048C4EB041122
:1007D000284A02EB4111C1F8D80113E02C48C4EBC0
:1007E0000411244A02EB4111C1F8D8010AE028485B
:1007F000801FC4EB04111F4A02EB4111C1F8D8015C
:1008000000E000BF00BF641C082CFFF6B7AE00BFBD
:100810002049164800F0FCF81E49491C134800F016
:10082000F7F81C49C91C114800F0F2F81A490F48A2
:1008300000F0EEF819490D4800F0EAF818490B48A5
:1008400000F0E6F816490831084800F0E1F81549CB
:10085000064800F0DDF81449044800F0D9F81249C0
:100860000831024800F0D4F806B010BD006800401E
:100870006416002054070020F9FCFF3F0E0D00C055
:1008800000007A4400247449424700404951004026
:10089000565800400100F0107000F03003000012C4
:1008A0000800003203000014080000341CB50024C6
:1008B0009EE004EB8400514901EB8000007A03289C
:1008C00000D198E0C4EB04104D4901EB40104D4AB3
:1008D000D0F8D811881A914233D005DC51B14A487A
:1008E0000844002871D171E0A0F20770E8B306282F
:1008F0007BD100E07AE045F656000090C4EB04108E
:100900003F4901EB401090ED060ADFED400A20EE72
:10091000200ABDEEC00A8DED010AC4EB0411384A6D
:1009200002EB4111D1F8DC01DDE9001200F058FDC5
:100930000020C4EB0411324A02EB4111C1F8D80186
:1009400054E045F24910009004EB84002B4901EB80
:100950008000B0F9100000EE100AB8EEC00A8DED6C
:10096000010AC4EB0411264A00E010E002EB411139
:10097000D1F8DC01DDE9001200F032FD0020C4EB0B
:1009800004111F4A02EB4111C1F8D8012EE045F6CF
:1009900050000090C4EB0410194901EB4010806C2A
:1009A0000190C4EB0411164A02EB4111D1F8DC01AD
:1009B000DDE9001200F014FD0020C4EB0411104A20
:1009C00002EB4111C1F8D80110E00EE0202000F048
:1009D0002FFD08B101F076FC0020C4EB0411084A99
:1009E00002EB4111C1F8D80100E000BF00BF641C58
:1009F000082CFFF65EAF00BF1CBD0000641600208F
:100A00005407002049510040BEB8FFBF00007A449F
:100A100000220C4B994202D10023836111E0C1F303
:100A2000130201F000730BB1C2600AE001F08063B1
:100A30000BB1026105E001F000630BB1826000E0E0
:100A4000426070477000F0302DE9F04F8BB00646E1
:100A50000F4614461D46DDF850804FF00009CA4687
:100A6000CB46B5F5807F43D012DC102D34D008DCA6
:100A7000012D25D0022D26D0042D27D0082D4FD1B1
:100A800027E0202D2BD0402D2CD0802D48D12CE0DC
:100A9000B5F5805F38D009DCB5F5007F2BD0B5F512
:100AA000806F2BD0B5F5006F3AD12AE0B5F5005F25
:100AB0002DD0B5F5804F2DD0B5F5004F30D12CE0BD
:100AC0004FF000092DE04FF001092AE04FF0020934
:100AD00027E04FF0030924E04FF0040921E04FF034
:100AE00005091EE04FF006091BE04FF0070918E06A
:100AF0004FF0080915E04FF0090912E04FF00A091C
:100B00000FE04FF00B090CE04FF00C0909E04FF03B
:100B10000D0906E04FF00E0903E04FF00F0900E069
:100B200000BF00BFB8F5807F4BD01ADCB8F1100FC2
:100B30003BD00CDCB8F1010F2BD0B8F1020F2BD059
:100B4000B8F1040F2BD0B8F1080F52D12AE0B8F158
:100B5000200F2DD0B8F1400F2DD0B8F1800F48D123
:100B60002CE0B8F5805F38D009DCB8F5007F2BD0D9
:100B7000B8F5806F2BD0B8F5006F3AD12AE0B8F500
:100B8000005F2DD0B8F5804F2DD0B8F5004F30D193
:100B90002CE04FF0000A2DE04FF0010A2AE04FF060
:100BA000020A27E04FF0030A24E04FF0040A21E094
:100BB0004FF0050A1EE04FF0060A1BE04FF0070A4F
:100BC00018E04FF0080A15E04FF0090A12E04FF064
:100BD0000A0A0FE04FF00B0A0CE04FF00C0A09E094
:100BE0004FF00D0A06E04FF00E0A03E04FF00F0A37
:100BF00000E000BF00BF7F48304418B1B0F5806FFF
:100C00001AD10CE04FF0090B00208DF812001420CF
:100C10008DF804000121480601F0A0FB0DE04FF023
:100C2000090B0E208DF8120040208DF804000121E0
:100C3000000501F093FB00E000BF00BFC4F3090012
:100C400078BBA012A0F580108038092834D2DFE8E4
:100C500000F0050A0F14191E23292E000121084651
:100C600001F06CFB29E00121022001F067FB24E088
:100C70000121042001F062FB1FE00121082001F0A6
:100C80005DFB1AE00121102001F058FB15E0012165
:100C9000202001F053FB10E00121402001F04EFB29
:100CA0000BE009E00121802001F048FB05E0012173
:100CB000080201F043FB00E000BF00BF5A4649466E
:100CC000204600F04BFE5A465146204600F046FEB4
:100CD00045EA0800099002208DF828008DF82900C7
:100CE00000208DF82A0001208DF82B0009A920464C
:100CF00000F0ECFD304600F07FF800208DF81E007B
:100D00008DF81F008DF820008DF821008DF822004D
:100D10008DF823008DF81A008DF81B000B208DF83C
:100D20001C0007208DF81D007D2F22D008DC0A2F23
:100D30000FD0142F11D0322F13D0642F29D114E0EB
:100D4000FA2F1AD0B7F5FA7F1BD0B7F57A7F20D1EA
:100D50001BE0C820ADF818001CE06420ADF81800B6
:100D600018E02820ADF8180014E01420ADF81800A1
:100D700010E01020ADF818000CE00820ADF81800C5
:100D800008E00420ADF8180004E00220ADF81800D7
:100D900000E000BF00BF06A9304600F0D6F80020F2
:100DA0008DF8130001208DF814000020ADF8080024
:100DB000ADF80A00ADF80C00ADF80E00ADF810006B
:100DC00001208DF8150002A800F032F800208DF8FF
:100DD000050003208DF8060001208DF8070001A80A
:100DE00000F0E2FF01220221304600F0A5F80BB02E
:100DF000BDE8F08F009CFFBF10B504460B4884424D
:100E000009D10121480601F0B9FA00214FF0007024
:100E100001F0B4FA08E00121880601F0AFFA0021E0
:100E20004FF0806001F0AAFA10BD0000006400409D
:100E300010B50021837A012202FA03F13D4A1268BB
:100E400042F001023B4B1A603A4A1C3212688A4354
:100E5000384B1C331A60027BCAB9364A0C3212680E
:100E60008A43344B0C331A604288C38842EA0343F6
:100E7000304A4032847A42F834300288838842EA29
:100E800003432C4A4032847A02EBC4025360027B53
:100E9000012A19D1274A0C3212680A43254B0C3318
:100EA0001A604288038842EA0343224A4032847A25
:100EB00042F83430C288838842EA03431D4A4032F4
:100EC000847A02EBC4025360C27A3AB9194A121DFD
:100ED00012688A43174B1B1D1A6006E0154A121D43
:100EE00012680A43134B1B1D1A60028932B9114A5A
:100EF000143212688A430F4B14331A600289012A94
:100F000006D10C4A143212680A430A4B14331A6091
:100F1000427B012A06D1074A1C3212680A43054B5C
:100F20001C331A60034A126822F00102014B1A6056
:100F300010BD0000006600401AB143690B434361D5
:100F400002E043698B434361704730B5024600209D
:100F50000023146824F002041460146844F00104AF
:100F6000146000E05B1C546804F001041CB94FF6E7
:100F7000FF74A342F6D1546804F001040CB90020B8
:100F80006CE08C79012C04D1146844F08004146066
:100F900003E0146824F080041460CC79012C04D19F
:100FA000146844F04004146003E0146824F0400422
:100FB00014600C7A012C04D1146844F020041460ED
:100FC00003E0146824F0200414604C7A012C04D14E
:100FD000146844F01004146003E0146824F0100452
:100FE00014608C7A012C04D1146844F00804146055
:100FF00003E0146824F008041460CC7A012C04D1B6
:10100000146844F00404146003E0146824F0040439
:1010100014608C78A407CD7844EA05640D7944EA1D
:1010200005444D7944EA05540D886D1E2C43D46166
:10103000146824F001041460002300E05B1C546871
:1010400004F001041CB14FF6FF74A342F6D15468BA
:1010500004F001040CB1002000E0012030BD024684
:10106000002019B9D36803F0030006E0012903D179
:10107000136903F0030000E00020704710B500F58D
:10108000D87303EB01131B6803F004031372137A84
:1010900053B900F5D87303EB01131B6840F2FF74DA
:1010A00004EA5353136009E000F5D87303EB01130E
:1010B0001B686FF0604404EAD303536000F5D873F3
:1010C00003EB01131B6803F00203537200F5D8739E
:1010D00003EB01135B6803F00F03937200F5D87301
:1010E00003EB01135B681B0AD37400F5D87303EBA1
:1010F00001139B68D37200F5D87303EB01139B684F
:101100001C0A147300F5D87303EB01139B681C0CC5
:10111000547300F5D87303EB01139B681B0E937394
:1011200000F5D87303EB0113DB68D37300F5D873B4
:1011300003EB0113DB681C0A147400F5D87303EB8E
:101140000113DB681C0C547400F5D87303EB011316
:10115000DB681B0E937421B9C36843F02003C3609E
:1011600003E0036943F02003036110BD2DE9F04162
:1011700086B080460D4616461F4600240021404694
:10118000FFF76DFF18B9002006B0BDE8F08101AA95
:1011900000214046FFF772FF002405E00DF10F002B
:1011A000005D3055601CC4B2BC42F7DB019828607A
:1011B0000120E9E710B502460020936803F0806340
:1011C000B3F1806F00D110E0936803F00063B3F1D6
:1011D000006F01D1012008E0936803F08053B3F160
:1011E000805F01D1022000E00420042874D002F5C1
:1011F000C07303EB00131B6803F0010402F5C07316
:1012000003EB00131C600B7A7BB94B7A0C8843EA22
:10121000445302F5C07404EB00142468234302F520
:10122000C07404EB0014236010E00B7A4C6843EAAE
:10123000C4034C7A234302F5C07404EB0014246801
:10124000234302F5C07404EB001423608B7A03F08F
:101250000F038B7202F5C07303EB00135B6823F07E
:101260000F0402F5C07303EB00135C6002F5C0735A
:1012700003EB00135B688C7A234302F5C07404EB24
:10128000001463608B7B1C064B7B44EA03440B7B9E
:1012900044EA0323CC7A234302F5C07404EB001420
:1012A000A3608B7C1C064B7C44EA03440B7C44EA21
:1012B0000323CC7B234302F5C07404EB0014E360EA
:1012C00002F5C07303EB00131B6843F0010402F541
:1012D000C07303EB00131C6010BD000010B5024684
:1012E000002321B1012907D002290FD109E090681C
:1012F0001D4C00EA04030BE090681C4C00EA040358
:1013000006E090681A4C00EA040301E0002300BFE5
:1013100000BF184C181BA34216D007DC83B16FF036
:101320008060184470B1022818D111E0B0F5007F38
:1013300010D0114C204448B1B0F5003F0ED10BE065
:1013400002230DE000230BE0002309E0002307E067
:10135000012305E0012303E0012301E0002300BF96
:1013600000BFD8B210BD0000030000040003000855
:1013700000000310000100080001FFF710B5002273
:10138000D1E900341A1B0B684B604FF4E674235804
:1013900003EBD374B2EB640F03DD4FF4E6731B5819
:1013A000D21A4FF4E674235803EBD37464106442EA
:1013B000944203DD4FF4E6731B581A44836C1344C4
:1013C000836491ED030AB8EEC00ADFED040A20EE53
:1013D000200A80ED060A90ED060A10BD63CF0B3E91
:1013E00037B586B0044604F52070019002900020C5
:1013F0008DF80C008DF80D0008208DF80E000020EF
:1014000004E007A90A5C0D390A54401C0828F8DBDF
:1014100001A90648FFF7CEFE054600BF294603484E
:10142000FFF75CFF0128F9D109B030BD006800402A
:1014300001460448D0F86C01084008B1012070470B
:101440000020FCE75407002010B50949094800F0C6
:1014500039F860B10021074800F028F80449054830
:1014600000F00AF84FF4AF61024800F0A7F810BD91
:1014700000800018586002400246094B9A4201D28F
:10148000084801E00648103801F000531BB1064B34
:101490000B40C36002E0044B0B40836070470000C8
:1014A00010640240006002407D0F7D0F21B1026890
:1014B00042F00102026003E0026822F001020260D1
:1014C0007047000070B50246002000240025124E2F
:1014D000B24201D2114B01E00F4B103B104E0E40B7
:1014E00036B11E2606EAD124166806EA040502E093
:1014F000566906F0800501F000560EB15C6800E008
:101500001C68084E344004EA010616B10DB10120F2
:1015100000E0002070BD0000106402400060024046
:101520003C0F3C0F7D0F7D0F10B501F080034BB1D8
:1015300022B1436943F08003436103E0436923F030
:101540008003436180290BD02AB1036801F01E0497
:101550002343036004E0036801F01E04A343036017
:1015600010BD000010B500220268134B1A40CC6871
:101570000B6823434C6923438C692343CC69234381
:101580000C6A23434C6A23438C6A23434C6B2343EA
:101590008C6B23431A430260426922F00702D1E9AF
:1015A0000B3423431A4342610B6943604B688360E9
:1015B0008B68C36010BD00003F801CF04160704725
:1015C000704700000120AF4908720321AD48017740
:1015D000022180F8301080F84410032180F8581060
:1015E000012180F86C10022180F8801080F894109E
:1015F0000521A548C0F8DC110621C0F8BC1307215D
:10160000C0F89C150821C0F87C17002020E10021BB
:10161000C0EB00129C4B03EB421211724FF40052CC
:10162000C0EB001103EB4111C1F8CC2100EB8001AC
:10163000944A02EB8101097A01297CD10721C0EB90
:10164000001203EB421211609FED900AC0EB0011F3
:101650001A4602EB411181ED0D0A9FED8D0AC0EB98
:10166000001102EB411181ED0E0AB3EE040AC0EB4A
:10167000001102EB411181ED110A9FED860AC0EBCA
:10168000001102EB411181ED090A9FED830AC0EBC5
:10169000001102EB411181ED1A0A9FED800AC0EBA7
:1016A000001102EB411181ED190A9FED7D0AC0EB9B
:1016B000001102EB411181ED690A9FED7A0AC0EB3E
:1016C000001102EB411181ED0B0A9FED760AC0EB90
:1016D000001102EB411181ED0C0A9FED6F0AC0EB86
:1016E000001102EB411181ED070A9FED6B0AC0EB7F
:1016F000001102EB411181ED130AC0EB001102EB66
:10170000411191ED0C0AC0EB001102EB411181ED8A
:10171000170A9FED650AC0EB001102EB411181ED44
:10172000160A9FED620AC0EB001102EB411181ED38
:10173000680A8CE0FFE700EB8001524A02EB81016E
:10174000097A02297ED10621C0EB00124E4B03EB31
:10175000421211609FED560AC0EB00111A4602EBCF
:10176000411181ED0D0A9FED530AC0EB001102EB10
:10177000411181ED0E0AB1EE080AC0EB001102EB37
:10178000411181ED110A9FED4C0AC0EB001102EBF3
:10179000411181ED090A9FED460AC0EB001102EBF1
:1017A000411181ED1A0A9FED450AC0EB001102EBD1
:1017B000411181ED190A9FED420AC0EB001102EBC5
:1017C000411181ED690A9FED370AC0EB001102EB70
:1017D000411181ED0B0A9FED330AC0EB001102EBC2
:1017E000411181ED0C0A9FED300AC0EB001102EBB4
:1017F000411181ED070A9FED280AC0EB001102EBB1
:10180000411181ED130AC0EB001102EB411191ED82
:101810000C0ADFED2C0A20EE200AC0EB001102EBCF
:10182000411181ED170A9FED200AC0EB001102EB78
:10183000411181ED160A9FED1D0AC0EB001102EB6C
:10184000411100E002E081ED680A00E003E0401C85
:101850000828FFF6DCAE00BF9FED190A0A4880EDAC
:10186000690A9FED170A80EDE10A9FED170A80EDE6
:10187000680A9FED150A80EDE00A9FED0A0A80EDE7
:10188000600A70476416002054070020CDCCCC3D80
:101890006F12833B0000A04400000000AE47E13D12
:1018A000CDCC4C3F0000C84200007A43000020C36A
:1018B000CDCC4C3DA69B443B000016451B2FDD3C88
:1018C000333333403333333F00002043F0B50A460F
:1018D00000210023002400BF3DE0012505FA01F3AB
:1018E000156805EA03049C4234D105684F000326BD
:1018F000BE40B543056015794E00B54006683543D6
:1019000005601579012D02D01579022D16D1856853
:101910004F000326BE40B543856055794E00B54063
:10192000866835438560456801268E40B54345602D
:10193000456896798E40B6B235434560C5684F001C
:101940000326BE40B543C560D5794E00B540C66894
:101950003543C560491C1029BFD3F0BDF0B5002345
:1019600000244D07ED0E02FA05F3CE1000F120051C
:1019700055F826504E07F70E0F26BE40B543CF1040
:1019800000F1200646F82750CE1000F1200555F84A
:10199000265045EA0304CE1000F1200545F8264004
:1019A000F0BD418370470183704700BFFEE7000030
:1019B00000B5024692ED680A82ED080A02F11800AD
:1019C00002F0C4F8F0EE401A92ED690AF0EE400A17
:1019D000B0EE610A00F04EF882ED6C0A92ED060A54
:1019E000B0EEC00AF0EE000AB4EEE00AF1EE10FA32
:1019F00007D84FF4D6708058401C4FF4D6718850E9
:101A000003E000214FF4D67081504FF4D670805817
:101A1000B0F5FA7F29DB0020906492ED120AB8EE4F
:101A2000C00ADFED120A30EE200A82ED130A9FEDA4
:101A3000100A82ED6C0A9FED0E0A82ED070A9FEDF7
:101A40000C0A82ED080A9FED0A0A82ED100A9FED4A
:101A5000080A82ED030A9FED060A82ED6C0A9FEDEB
:101A6000040A82ED0F0A0520106000BD0000004648
:101A700000000000B4EEE00AF1EE10FA01DDB0EE75
:101A8000600AB1EE601AB4EEC10AF1EE10FA03D2A8
:101A9000B1EE601AB0EE410A704700BFFEE70000E9
:101AA00070B501F0BBFA01F0AFFA92490861002469
:101AB000D1E004EB8400904901EB8000007A032818
:101AC00000D1CBE004EB84028B4B03EB8201C4EB2F
:101AD0000412884B03EB4210FFF750FCC4EB0410D8
:101AE000844901EB4010007A012808D09FED830A59
:101AF000C4EB041001EB401080ED030AAAE0C4EB34
:101B000004107C4901EB40100068022836D00528FB
:101B100004D0062851D007287DD163E0C4EB04111E
:101B2000744A02EB411101F1480000F077FAC4EB6E
:101B30000410704901EB401090ED1B0AC4EB041037
:101B400001EB401080ED070AC4EB0411694A02EB77
:101B5000411101F1180002F031F8C4EB0411654A9B
:101B600002EB411101F1180001F0F0FFC4EB041089
:101B7000604901EB401080ED030A69E05E48B0F96E
:101B800010305C4890ED060ABDEEC00A10EE102A37
:101B90005BA15D4801F028FFC4EB0411554A02EB3C
:101BA000411101F1180001F0D1FFC4EB04105149BB
:101BB00001EB401080ED030A4AE0C4EB04114D4AEA
:101BC00002EB4110FFF7F4FEC4EB0410494901EBAE
:101BD000401090ED6C0AC4EB041001EB401080ED56
:101BE000030A35E0C4EB0413424D05EB431303F144
:101BF0001802C4EB041305EB431303F14801C4EBD3
:101C0000041305EB431303F1700000F013F9C4EB68
:101C10000410294600E01AE001EB401090ED5D0A47
:101C2000C4EB041001EB401080ED080AC4EB041172
:101C30002A4602EB411101F1180001F087FFC4EBC5
:101C40000410294601EB401080ED030A00E000BFBC
:101C500000BF00BF641C082CFFF62BAF00BF0020A4
:101C600041E000EB8001244A02EB8101097A01295D
:101C700014D1C0EB00111F4A02EB411191ED030A90
:101C8000DFED220A20EE200AF3EE040A80EE201A8D
:101C90001F4901EB800181ED001A23E000EB800178
:101CA000154A02EB8101097A022914D1C0EB001117
:101CB000104A02EB411191ED030ADFED160A20EE06
:101CC000200AF2EE040A80EE201A114901EB80018D
:101CD00081ED001A06E09FED090A0D4901EB800134
:101CE00081ED000A401C0428BBDB094800F06EFCB3
:101CF00070BD0000540700206416002000000000A2
:101D000025640925640D0A00004800400000804653
:101D10005416002000401C460021C0EB0012024B6C
:101D200003EB42121172704754070020C0EB001100
:101D30001A4A02EB4111096805290DD1C0EB0011C7
:101D400002EB411191ED120AB8EEC00AC0EB00118E
:101D500002EB411181ED130AC0EB00110F4A02EBB7
:101D600041110968022907D19FED0D0AC0EB00114E
:101D700002EB411181ED070A9FED090AC0EB00114A
:101D8000064A02EB411181ED0F0A0121C0EB00125E
:101D9000024B03EB421211727047000054070020FF
:101DA0000000000000BFFEE770B5002100230F22F5
:101DB000C4781CB3174C246804F4E064C4F5E064F0
:101DC000C4F30721C1F10404E3B20A4144789C4002
:101DD000E1B28478144021430C07210E0E4C0578A3
:101DE0006155047804F01F050124AC4005786D119D
:101DF000AD0005F1E025C5F8004109E0047804F0E4
:101E00001F050124AC40054D0678761145F82640A3
:101E100070BD00000CED00E000E400E080E100E0B7
:101E200002490143024A1160704700000000FA05B0
:101E30000CED00E0FEB504460D4616464020FFF7C7
:101E4000F7FA00287BD094F8140194F8F310884234
:101E500075DA94F8F10094F8F010884271DA94F889
:101E6000140180B994F8140154F820002968401A2C
:101E700094F8F01090FBF1F000EE100AB8EEC00AF2
:101E800084ED420A0FE094F8140154F82000296808
:101E9000401A94F8F01090FBF1F000EE100AB8EE42
:101EA000C00A84ED420ADFED4F0A4F4890ED000A68
:101EB000FFF7E0FD4C4880ED000A94F8F100401C6B
:101EC00084F8F10094F8140154F820002968401AAD
:101ED00000EE100AB8EEC00A444880ED000A4248FD
:101EE00090ED000A4248D0ED000A404890ED001AFB
:101EF00000EE810A3C4880ED000A3C4890ED000A63
:101F00003C48D0ED000A20EE200A3848D0ED000A07
:101F1000394890ED001A70EEC10A384890ED001A69
:101F200000EE810A3048D0ED000A30EE200A84ED40
:101F3000430A2E4890ED000A2F4880ED000A20E069
:101F4000FFE7F534E07F401CE077002004F8040C44
:101F5000E07F14F8021CF53C884207D16FF0400086
:101F600000F08EFB4FF4007000F08AFB94F814111F
:101F700094F8F300401E814203DB4FF4807000F0C0
:101F80007FFB1F4890ED030ABDEEC00AD6ED000AA4
:101F9000FDEEE00A96ED021ABDEEC11A8DED001AB3
:101FA000CDED010A8DED020A94F8140154F82020B9
:101FB00014A119482B6801F017FD00F00DF994EDFC
:101FC000421AD4ED431A31EE211AB0EE410A94EDD3
:101FD000441AF0EE410AFFF74DFD84ED410A94EDFD
:101FE000410AFEBD000020442800002020000020FF
:101FF0001C000020140000202400002018000020F5
:10200000540700202564092564092564092564090D
:1020100025640D0A000000000048004000B59FED57
:10202000300AF0EE401A9FED2E0AB0EE402AB7EECD
:10203000000AF0EE402AD0ED010A90ED000AB8EE59
:10204000C00A30EEC00A80ED020A90ED020AD0ED1F
:10205000070A20EE200AD0ED020A90ED031A70EE76
:10206000C10A90ED081A01EE200AF0EE401A90ED38
:10207000020A80ED030A90ED020AB5EEC00AF1EE05
:1020800010FA03D2BFEE000AF0EE402A90ED050AE6
:10209000DFED140A20EE200A20EE220AD0ED020A1B
:1020A00060EE200AB1EEE00A20EE220AB0EE402AED
:1020B000B0EEC20AF0EEE10AB4EEE00AF1EE10FA78
:1020C00001D2F0EE421A90ED040AF0EE400AB0EEB2
:1020D000610AFFF7CFFC80ED090A90ED090A00BD07
:1020E000000000003333B33F37B504461820FFF734
:1020F0009FF910B90120344908703348007801284D
:1021000002D002285DD118E06FF4007000F0B8FA38
:10211000012000F0B5FA082000F0B2FA2B4802992D
:10212000C0F868110220284908706FF0080000F01C
:10213000A7FA102000F0A4FA44E0019800F0304023
:1021400000283DD001980001029940EA2171204801
:10215000204A127840F822101E480078401C1D4981
:1021600008701A48D0F86801097888420DD9029899
:1021700040F31B011648174A127840F82210154800
:102180000078401C134908701AE000200E490870BE
:10219000104908706FF0100000F072FA202000F073
:1021A0006FFA6FF0010000F06BFA022000F068FA9D
:1021B0000648D0F86811C0F864110021C0F8681111
:1021C00000E000BF00BF3EBD2C00002054070020EF
:1021D000640800202D00002010B54020FFF728F9EA
:1021E000002869D10420FFF723F9002838D03348AC
:1021F000D0F86401010E314880F86311D0F8640111
:10220000010C2E4880F86211B0F86401010A2B48D5
:1022100080F860110021C0F8641100200BE027490C
:10222000C03151F82020503941F82020002250318F
:1022300041F82020401C214991F863118142EEDCD5
:10224000402000F01DFA6FF0040000F019FA6FF45E
:10225000807000F015FA0021184880F8841127E0FA
:10226000164890F86201012809D1402000F008FAD0
:102270000021124880F8841180F8611118E00F489D
:1022800090F86201A0B10D4890F8620102280FD1C8
:102290009FED0B0A094880ED5E0A9FED090A80ED6B
:1022A0005F0A9FED070A80ED5D0A002180F8841126
:1022B0006FF4807000F0E4F910BD000054070020B6
:1022C0000000000010B50220FFF7B2F8E0B10020D6
:1022D0000AE00E4951F82020503941F82020002210
:1022E000503141F82020401C0949D1F86811814241
:1022F000EFD86FF0200000F0C3F96FF0020000F09B
:10230000BFF9042000F0BCF910BD000064080020F3
:102310005407002010B54FF48C710648FEF70FF8F3
:102320009FED050A0348703880ED600A002180F8AF
:10233000841110BDC40700200000A04429B1064A42
:1023400012680243044B1A6004E0034A1268824395
:10235000014B1A60704700003038024029B1064A2C
:1023600012680243044B1A6004E0034A1268824375
:10237000014B1A60704700004038024029B1064AFC
:1023800012680243044B1A6004E0034A1268824355
:10239000014B1A60704700002038024029B1064AFC
:1023A00012680243044B1A6004E0034A1268824335
:1023B000014B1A607047000044380240F0B500211C
:1023C00000220024022500260223324F3F6807F036
:1023D0000C0121B1042905D0082937D105E02E4F81
:1023E000076036E02D4F076033E02A4F3F1F3F68FC
:1023F000C7F38056274F3F1F3F6807F03F036EB17A
:10240000264FB7FBF3F7DFF88CC0ACF1040CDCF817
:1024100000C0CCF3881C07FB0CF40CE01E4FB7FB8C
:10242000F3F7DFF870C0ACF1040CDCF800C0CCF3BB
:10243000881C07FB0CF4174F3F1F3F68C7F3014789
:102440007F1C7D00B4FBF5F7076002E0124F0760C8
:1024500000BF00BF0F4F3F6807F0F0010909104FA0
:102460007A5C0768D74047600A4F3F6807F4E0513D
:10247000890A0B4F7A5C4768D7408760054F3F68F1
:1024800007F46041490B064F7A5C4768D740C76044
:10249000F0BD0000083802400024F40000127A0069
:1024A000B801002010B500201CE0184901EB8001A4
:1024B00091ED000A9FED161AC0EE010A9FED150A74
:1024C00020EEC00ADFED140A20EE200ADFED130A29
:1024D00020EE200ABDEEC00A10EE101A104A42F893
:1024E0002010401C1028E0DB0A210D48703880F8CD
:1024F0006011002180F86211102180F86311002121
:1025000080F88411402000F0BBF810BDD4000020FA
:102510000000B443000000469A9959409A999941A5
:10252000C407002010B5044600BF0221094800F08E
:102530001FF80028F9D02146064800F025F800BF12
:102540000121044800F014F80028F9D0014800F0F7
:1025500018F810BD0030014021B1028842F040025D
:10256000028004E002884FF6BF731A400280704771
:102570000246002013890B400BB1012000E000202F
:1025800070470146888970478181704710B50022E5
:10259000028802F441520B884C8823438C882343E1
:1025A000CC8823430C8923434C8923438C892343C0
:1025B000CC8923431A430280838B4FF2FF7423405C
:1025C00083830B8A038210BD7047000030B587B04B
:1025D000054600200090019000BF0BE005EB800154
:1025E00091ED000ABDEEC00A10EE101A09B22DF8E6
:1025F0001010401C0428F1DB4FF40070029003908F
:1026000000208DF810008DF8110008208DF81200C0
:10261000BDF80000000A8DF81300BDF80000C1B23B
:102620008DF81410BDF80200010A8DF81510BDF8E0
:102630000200C1B28DF81610BDF80400010A8DF831
:102640001710BDF80400C1B28DF81810BDF80600CF
:10265000010A8DF81910BDF80600C1B28DF81A10E4
:1026600002A90648FEF7A6FD044600BF214603481E
:10267000FEF734FE0128F9D107B030BD00640040F8
:1026800001283BD023DC10F1110F76D012DC10F1C1
:10269000810F73D007DC00F2012100296FD0B1F562
:1026A000807F33D1DDE010F1410F69D010F1210FAF
:1026B000F7D18EE010F1090F63D010F1050F4AD069
:1026C00010F1030F35D010F1020FEAD11FE02028DE
:1026D00074D008DC022823D0042833D0082843D043
:1026E0001028DED156E0402867D080287AD0B0F597
:1026F000807F6DD0B0F5007FD3D197E05E49D1F8EF
:102700006C1141F001025C49C1F86C21B2E05A49F8
:10271000D1F86C1121F001025749C1F86C21A9E0F0
:102720005549D1F86C1141F001025349C1F86C21AF
:10273000A0E05149D1F86C1121F001024E49C1F8D5
:102740006C2197E04C49D1F86C1141F004024A49E0
:10275000C1F86C218EE04849D1F86C1121F00402D7
:102760004549C1F86C2185E04349D1F86C1141F02D
:1027700008024149C1F86C217CE014E03BE05EE0D6
:102780004BE03D49D1F86C1121F008023A49C1F8FB
:102790006C216FE03849D1F86C1141F010023649D4
:1027A000C1F86C2166E03449D1F86C1121F01002B7
:1027B0003149C1F86C215DE000E025E02E49D1F8F7
:1027C0006C1141F020022C49C1F86C2152E009E063
:1027D0003EE02949D1F86C1121F020022649C1F8C8
:1027E0006C2147E02449D1F86C1141F08002224964
:1027F000C1F86C213EE02049D1F86C1121F0800233
:102800001D49C1F86C2135E01B49D1F86C1141F02C
:1028100040021949C1F86C212CE01749D1F86C111C
:1028200021F040021449C1F86C2123E01249D1F88B
:102830006C1141F400721049C1F86C211AE00E4984
:10284000D1F86C1121F400720B49C1F86C2111E030
:102850000949D1F86C1141F480720749C1F86C2123
:1028600008E00549D1F86C1121F480720249C1F8E1
:102870006C2100BF00BF7047540700200CB500203A
:10288000019000903448006840F48030324908607C
:1028900000BF3148006800F4003000900198401CEF
:1028A0000190009818B90198B0F5A06FF1D12A48AD
:1028B000006800F4003010B10120009001E0002019
:1028C00000900098012846D123484030006840F02D
:1028D00080502149403108602048006840F4804021
:1028E0001E4908601C48083000681B490831086010
:1028F0000846006840F4004008600846006840F45C
:10290000A05008601648091F0860081F006840F0C2
:102910008070091F086000BF0F48006800F0007059
:102920000028F9D040F205600E4908600A480830D6
:10293000006820F003000849083108600846006874
:1029400040F00200086000BF03480830006800F053
:102950000C000828F8D10CBD00380240007000407F
:1029600008544007003C024000B587B001210846EA
:10297000FFF7E4FC01210803FFF710FDE0200590BC
:1029800002208DF8180000208DF81A0003208DF821
:10299000190001208DF81B0005A92748FEF796FFB6
:1029A000052211462448FEF7D9FF052206212248B8
:1029B000FEF7D4FF052207211F48FEF7CFFF1020A6
:1029C000059001208DF8180000208DF81A000320D2
:1029D0008DF8190001208DF81B0005A91648FEF797
:1029E00075FF10211448FEF7DEFF4FF48270ADF83A
:1029F00002000020ADF800004FF40060ADF80400C4
:102A00002020ADF80C000020ADF80E00ADF8060057
:102A10000120ADF808004002ADF80A000720ADF82B
:102A2000100069460548FFF7B1FD01210348FFF793
:102A300093FD07B000BD00000000024000300140DF
:102A400010B51548006840F4700013490860134839
:102A5000006840F001001149086000200F4908316A
:102A600008600E4800680E4908400C4908600D488F
:102A7000091D0860081F006820F48020091F0860F5
:102A8000002006490C310860FFF7F8FE4FF00060A7
:102A900001498039086010BD88ED00E0003802402F
:102AA000FFFFF6FE1030002410B50121044800F0AD
:102AB0005AF9012803D10121014800F049F810BD5D
:102AC0000000014010B50121880700F04CF90128F1
:102AD00005D10121800700F03BF8FEF7E1FF10BDB2
:102AE00010B50121044800F03EF9012803D101216D
:102AF000014800F02DF810BD0004004010B5012180
:102B0000044800F030F9012803D10121014800F008
:102B10001FF810BD0008004010B50121044800F066
:102B200022F9012803D10121014800F011F810BD5C
:102B3000000C004010B50121044800F014F90128F0
:102B400003D10121014800F003F810BD0004014049
:102B5000CA430282704721B1028842F0010202801A
:102B600004E002884FF6FE731A40028070470000AE
:102B7000FEB504460D46002600200090019002900C
:102B80006D49601A8C426FD01ADC6C49A4EB0100CD
:102B90008C4274D00ADCB4F1804F53D06848204492
:102BA000002858D0B0F5806F72D15FE0B0F5806F2B
:102BB00071D0B0F5006F77D0B0F5406FF4D17DE003
:102BC000B0F5923F23D009DCB0F5806F75D0B0F539
:102BD000644F0AD0B0F5684F5AD10FE0B0F5943F7A
:102BE0001ED0B0F5963F53D123E001210846FFF7F0
:102BF000D5FB44F2A010ADF800007BE001210220DB
:102C0000FFF7CCFB44F2A010ADF8000072E0012108
:102C10000804FFF7C3FB44F2A010ADF8000069E020
:102C200001214804FFF7BAFB44F2A010ADF8000000
:102C300060E001218804FFF7B1FB44F2A010ADF879
:102C4000000057E001210846FFF788FB42F2D00060
:102C5000ADF800004EE001210220FFF77FFB42F2B9
:102C6000D000ADF8000045E031E008E0012104208B
:102C7000FFF774FB42F2D000ADF800003AE001210A
:102C80000820FFF76BFB42F2D000ADF8000031E006
:102C90002FE000E008E001211020FFF75FFB42F287
:102CA000D000ADF8000025E001212020FFF756FB01
:102CB00042F2D000ADF800001CE011E001214020FC
:102CC000FFF74CFB42F2D000ADF8000012E001210A
:102CD0008020FFF743FB42F2D000ADF8000009E08E
:102CE00001210802FFF73AFB42F2D000ADF80000E4
:102CF00000E000BF00BF4FF6FF7001900020ADF86C
:102D00000800ADF802006946204600F02BF90121C9
:102D10002046FFF720FF0021204600F021F903E0C4
:102D2000204600F01DF886B2AE42F9DB00212046B5
:102D3000FFF711FFFEBD0000001C0040000C00402A
:102D400000FCFFBF70B506460C46002500BF04E03E
:102D50000A213046FFF70CFF6D1CA542F8D370BD69
:102D60000146486A704730B502460020002300241F
:102D7000158A05EA0103958905EA010413B10CB12E
:102D8000012000E0002030BD1AB183890B4383810C
:102D900002E083898B438381704700002DE9FF4166
:102DA00004460D4616461F46DDF828806949601A1C
:102DB0008C4270D01ADC6849A4EB01008C426CD0C4
:102DC0000ADCB4F1804F4ED064482044002852D031
:102DD000B0F5806F71D156E0B0F5806F65D0B0F579
:102DE000006F6CD0B0F5406FF4D170E0B0F5923F59
:102DF00021D009DCB0F5806F7AD0B0F5644F0AD0ED
:102E0000B0F5684F7CD10EE0B0F5943F1BD0B0F523
:102E1000963F75D11FE001210846FFF7BFFA192040
:102E20008DF800006DE001210220FFF7B7FA2C2099
:102E30008DF8000065E001210804FFF7AFFA1820C3
:102E40008DF800005DE001211920FFF7A7FA2C2082
:102E50008DF8000055E001218804FFF79FFA1A2041
:102E60008DF800004DE001210846FFF777FA1C209D
:102E70008DF8000045E001210220FFF76FFA1D20C8
:102E80008DF800003DE001210420FFF767FA1E20C5
:102E90008DF8000035E023E0FFE701210820FFF76F
:102EA0005DFA32208DF800002BE001211020FFF7A1
:102EB00055FA36208DF8000023E021E0FFE70121DC
:102EC0002020FFF74BFA37208DF8000019E0012190
:102ED0004020FFF743FA2B208DF8000011E007E0B7
:102EE00001218020FFF73AFA2C208DF8000008E03D
:102EF00001210802FFF732FA2D208DF8000000E0D2
:102F000000BF00BF0295ADF804600020ADF80C00D2
:102F1000ADF8060001A9204600F024F80121204662
:102F2000FFF716FE012211462046FFF72DFFF8B2EB
:102F30008DF8010008F0FF008DF8020001208DF8E7
:102F400003006846FEF730FF01212046FFF703FE2D
:102F5000BDE8FF81001C0040000C004000FCFFBFEA
:102F60004162704700220288184B98420ED0184BDD
:102F700098420BD0B0F1804F08D0164B984205D044
:102F8000154B984202D0154B984204D14FF68F73DF
:102F90001A404B881A43124B984207D0114B984263
:102FA00004D04FF6FF431A400B891A4302804B6846
:102FB000C3620B880385054B984202D0044B9842AC
:102FC00001D18B7A03860123838270470000014080
:102FD000000401400004004000080040000C0040D4
:102FE000001000400014004010B500F01BF8054927
:102FF0000860084690ED000AB8EEC00A80ED040AA9
:1030000010BD00000417002003480168C81701EB39
:1030100090708010704700000417002010B5FFF773
:10302000E3FF10BD38B5002400200090694648F247
:10303000214000F007F80446BDF80000C0F30E0080
:1030400038BD000070B505460C461021A148FEF7BA
:10305000A8FC00BF00BF00BF00BF00BF00BF00BF93
:1030600000BF00BF00BF00BF00BF00BF00BF00BF68
:1030700000BF00BF00BF00BF00BF00BF00BF00BF58
:1030800000BF00BF00BF00BF00BF00BF00BF00BF48
:1030900000BF00BF00BF00BF00BF00BF00BF00BF38
:1030A00000BF00BF00BF00BF00BF00BF00BF00BF28
:1030B00000BF00BF00BF00BF00BF00BF00BF00BF18
:1030C00000BF00BF00BF00BF00BF00BF00BF00BF08
:1030D00000BF00BF00BF00BF00BF00BF00BF00BFF8
:1030E00000BF00BF00BF00BF00BF00BF00BF00BFE8
:1030F00000BF00BF00BF00BF00BF00BF00BF00BFD8
:1031000000BF00BF00BF00BF00BF00BF00BF00BFC7
:1031100000BF00BF00BF00BF00BF00BF00BF00BFB7
:1031200000BF00BF00BF00BF00BF00BF00BF00BFA7
:1031300000BF00BF00BF00BF00BF00BF00BF00BF97
:1031400000BF00BF00BF00BF00BF00BF00BF00BF87
:1031500000BF00BF00BF00BF00BF00BF00BF00BF77
:1031600000BF00BF00BF00BF00BF00BF00BF00BF67
:1031700000BF00BF00BF00BF00BF00BF00BF00BF57
:1031800000BF00BF00BF00BF00BF00BF00BF00BF47
:1031900000BF00BF00BF00BF00BF00BF00BF00BF37
:1031A00000BF00BF00BF10214A48FEF7FCFB00BF74
:1031B00000BF00BF00BF00BF00BF00BF00BF00BF17
:1031C00000BF00BF00BF00BF00BF00BF00BF00BF07
:1031D00000BF00BF00BF00BF00BF00BF00BF00BFF7
:1031E00000BF00BF00BF00BF00BF00BF00BF00BFE7
:1031F00000BF00BF00BF00BF00BF00BF00BF00BFD7
:1032000000BF00BF00BF00BF00BF00BF00BF00BFC6
:1032100000BF00BF00BF00BF00BF00BF00BF00BFB6
:1032200000BF00BF00BF00BF00BF00BF00BF00BFA6
:1032300000BF00BF00BF00BF00BF00BF00BF00BF96
:1032400000BF00BF00BF00BF00BF00BF00BF00BF86
:1032500000BF00BF00BF00BF00BF00BF00BF00BF76
:1032600000BF00BF00BF00BF00BF00BF00BF00BF66
:1032700000BF00BF00BF10211648FEF792FB284692
:10328000FFF750F900BF1348006820F4404011498F
:10329000086008460068086000BF2846FFF742F94A
:1032A00020802846FFF73EF90B4908801021094885
:1032B000FEF779FB00BF0748006820F4404005494D
:1032C00008600846006840F40040086000BF0248FB
:1032D000008870BD000002403200002010B540F2AE
:1032E0002551054800F0C6FA012804D140F22551C5
:1032F000014800F08EFA10BD0050004010B596B0A5
:10330000044601210420FFF719F801218804FFF782
:1033100025F801214805FFF711F807220A21424844
:10332000FEF71CFB07220B213F48FEF717FB4FF46B
:103330004060149002208DF854008DF85500002054
:103340008DF8560001208DF8570014A93648FEF775
:10335000BDFA10940020ADF84400ADF84600ADF879
:103360004800ADF84C000C20ADF84A0010A92F48D9
:1033700000F0D0FA01212D4800F05AFA01228021F4
:103380002A4800F061FA012240F22551274800F056
:103390009BFA4FF0006000902448001D01902448E3
:1033A0000290402003904FF4AF60049000200590FD
:1033B0004FF48060069000200790089009904FF429
:1033C00000300A9000200B9001200C9000200D90FE
:1033D0000E9069461748FEF7C5F801211548FEF71B
:1033E00065F8012210211348FEF79EF80E208DF893
:1033F0003C0002208DF83D008DF83E0001208DF844
:103400003F000FA8FEF7D0FC27208DF83C000020DD
:103410008DF83D0001208DF83E008DF83F000FA88B
:10342000FEF7C2FC16B010BD000802400048004084
:10343000C80100205860024010B540F225510A48EA
:1034400000F018FA01280ED140F22551064800F08C
:10345000E0F9054800F05DFB044908700846017872
:10346000014800F005F810BD0048004000000020B1
:1034700070B505460C46202C08D0AD48AD4909680A
:103480004454AC480068401CAA490860A948006838
:10349000401EA749085C0A280BD0A6480068401EB9
:1034A000085C0D2805D0A3480068401E085C3B2836
:1034B0007DD1A0480068012803D100209D49086003
:1034C0002CE19B4880783D2872D19948C0782D28FE
:1034D0001ED14FF0FF309849086004200BE094495A
:1034E000095C964A126802EB820201EB4201303914
:1034F000924A1160401C8F490968491E8142EEDCE6
:103500008D4800688D49096848438C49086012E07D
:1035100003200BE08649095C884A126802EB8202AC
:1035200001EB42013039854A1160401C814909682C
:10353000491E8142EEDC022281A17D48FCF7B4FEE7
:10354000D0B97E4890ED000AB8EEC00ADFED7D0AE2
:1035500020EE200A7C4880ED070A90ED070ADFED97
:103560007B0A20EE200ABDEEC00A10EE102A78A1D8
:10357000284600F039FAD1E0022278A16C48FCF725
:1035800093FEE8B96D4890ED000AB8EEC00ADFED91
:10359000740A80EE201A6C4880ED0B1A90ED0B0A2D
:1035A000DFED6F0A20EE200ABDEEC00A01E0BDE0AB
:1035B00082E010EE102A6BA1284600F015FAADE06B
:1035C00002226BA15A48FCF76FFED0B95B4890ED20
:1035D000000AB8EEC00ADFED620A80EE201A5A48EF
:1035E00080ED0C1A90ED0C0ADFED5D0A20EE200A4A
:1035F000BDEEC00A10EE102A5EA1284600F0F4F9D4
:103600008CE002225EA14A48FCF74EFED0B94B483E
:1036100090ED000AB8EEC00ADFED4A0A20EE200A5B
:10362000494880ED070A90ED070ADFED480A20EED1
:10363000200ABDEEC00A10EE102A52A1284600F062
:10364000D3F96BE0022252A13948FCF72DFE90B964
:103650003A4890ED000AB8EEC00A3B4880ED130AE4
:1036600090ED130ABDEEC00A10EE102A49A12846BB
:1036700000F0BAF952E0022249A12D48FCF714FEED
:10368000A8B9314890ED120AF8EEC00A2B4890ED27
:10369000000AB8EEC00A30EE800A2B4880ED130A0B
:1036A00026483CA10268284600F09EF936E03DA17C
:1036B000284600F099F931E0022240A11C48FCF7AD
:1036C000F3FD78B9204890ED060ADFED200A20EEE0
:1036D000200ABDEEC00A10EE102A39A1284600F0DB
:1036E00083F91BE0022238A11148FCF7DDFD30B957
:1036F000154836A1826C284600F076F90EE00222C9
:1037000034A10B48FCF7D0FD20B933A1284600F0C6
:103710006BF903E034A1284600F066F90020054962
:1037200008600649086001200349086070BD000078
:103730004007002008000020100000200C0000209E
:103740004A5600006F12833A5407002000007A4462
:103750004A563D25643B0D0A00000000414300002D
:103760000024744941433D25643B0D0A00000000DC
:103770004443000044433D25643B0D0A0000000023
:103780005350000053503D25643B0D0A00000000DB
:103790005041000050413D25643B0D0A00000000EF
:1037A00050520000494E56414C494420575249540A
:1037B0004520434D442121210D0A000056580000A8
:1037C000565825643B0D0A00505800005058256497
:1037D0003B0D0A0049510000495120696E76616C29
:1037E00069640D0A00000000494E56414C494420CE
:1037F0005245414420434D442121210D0A0000003F
:1038000001F40072B2F5007F00D100BFCA4302800C
:10381000704710B50022002340F66A14A14200D17F
:1038200000BF0A1201249440A3B2DC43048010BDFF
:1038300021B1828942F40052828104E082894DF6EE
:10384000FF731A40828170471AB1838A0B438382C7
:1038500002E0838A8B438382704702460020B1F5E1
:10386000007F00D100BF13880B400BB1012000E0A6
:103870000020704770B50246002400230025002078
:1038800040F66A16B14200D100BFC1F3421501F003
:103890001F03012606FA03F3012D02D19689334056
:1038A00006E0022D02D1168A334001E0968A3340A9
:1038B0000C12012606FA04F41688344013B10CB138
:1038C000012000E0002070BDF0B503460024002672
:1038D0000025002040F66A17B94200D100BF184603
:1038E000C1F3421401F01F06012707FA06F5012C67
:1038F00001D10C3004E0022C01D1103000E0143072
:103900001AB107682F43076002E00768AF430760FA
:10391000F0BD00002DE9FF4705460E460024A146F4
:1039200000BFA046B08900B100BF2C8A24F44054E7
:10393000F08804432C82AC8941F20C608443B08847
:1039400031890843718908430443AC81AC8A24F46B
:103950004074B0890443AC826846FEF72FFD2048CE
:10396000854202D01F48854202D1DDF80C9001E06B
:10397000DDF80890A88900F4004040B109EBC900C7
:1039800000EB091031684900B0FBF1F707E009EBE3
:10399000C90000EB091031688900B0FBF1F7642021
:1039A000B7FBF0F004012009642101FB1078A8891D
:1039B00000F4004040B1322000EBC800B0FBF1F051
:1039C00000F00700044308E0322000EB08106421F7
:1039D000B0FBF1F000F00F0004432C81BDE8FF873D
:1039E00000100140001401400FB4F0B585B0074647
:1039F0000CA8009084E00B9800785C281CD10B98F0
:103A0000401C0B9000786E2809D072280FD10D2130
:103A1000384600F083F80B98401C0B900BE00A210D
:103A2000384600F07BF80B98401C0B9003E00B9895
:103A3000401C0B9000BF5CE00B980078252851D10A
:103A40000B98401C0B90007864281BD0732802D080
:103A5000782842D133E0009810C800900BE021781C
:103A6000384600F05BF800BF40213846FFF7F5FE0E
:103A70000028F9D0641C20780028F0D10B98401C55
:103A80000B902EE0009820C800900A2201A9284639
:103A900000F02AF901AC0BE02178384600F03EF83E
:103AA00000BF40213846FFF7D8FE0028F9D0641C3B
:103AB00020780028F0D10B98401C0B9011E0009862
:103AC00040C80090300E0A2201A900F00DF90A2228
:103AD00001A9284600F008F903E00B98401C0B9060
:103AE00000BF06E00B9810F8011B0B90384600F061
:103AF00015F800BF40213846FFF7AFFE0028F9D087
:103B00000B98007800287FF476AF05B0F0BC5DF824
:103B100014FB01468888C0F30800704730B504469E
:103B20000D4600BF80212046FFF797FE0028F9D000
:103B300080212046FFF764FE40212046FFF760FE0B
:103B4000C5F30800A08030BD00BFFEE700B590EDD2
:103B5000020AD0ED000A30EE600A80ED040A90ED12
:103B6000090AD0ED080A90ED041A00EE810A80EDF2
:103B7000090A90ED0B1AF0EE410A90ED091AB0EE29
:103B8000410AFDF777FF80ED090A90ED090AD0EDB3
:103B9000070A90ED041A00EE810A80ED0A0A90ED02
:103BA0000B1AF0EE410A90ED0A1AB0EE410AFDF749
:103BB00061FF80ED0A0A90ED0A0A00BD90ED010A4E
:103BC000D0ED050A30EE600AD0ED020AB4EEE00A4C
:103BD000F1EE10FA08DD90ED020AD0ED050A30EEA4
:103BE000200A80ED020A19E090ED010AD0ED060AE4
:103BF00030EE200AD0ED020AB4EEE00AF1EE10FA3F
:103C000008D290ED020AD0ED060A30EE600A80ED8F
:103C1000020A03E090ED010A80ED020A90ED020A2B
:103C20007047000038B54FF4A060FEF7F9F84FF484
:103C30006120FFF763FB4FF400704310244A4FF4F8
:103C40007A7100902348FCF7FFFE40202023204A91
:103C50004FF4FA7100902048FCF7F6FEFEF784FE60
:103C60004DF6BF2000F07DF800200346532240F2BD
:103C7000E73100904FF08040FFF790F800214FF0BF
:103C80008040FEF768FFFDF79DFC01218807FEF7E5
:103C900062FFC8211148FFF755F8002413E004EB38
:103CA00084000F4901EB8000007A032800D10CE06A
:103CB0000020C4EB04110B4A02EB4111886420463A
:103CC000FEF734F8641C082CE9DB00BF38BD0000A7
:103CD000000402400064004000680040000400400E
:103CE0006416002054070020F0B503460D46164622
:103CF000002729460A2E03D0002008702846F0BD70
:103D000033B9302001F8010B002008702846F6E78F
:103D1000002B03DA2D2001F8010B5B420A4A0DE06B
:103D200093FBF2F404B937B104F1300001F8010B50
:103D300004FB123301270A2092FBF0F2002AEFDC89
:103D4000002008702846DAE740420F0010B5FFF760
:103D500069FFFEF7DFFAFEF7A5FB01E0FCF7A6FD21
:103D6000FCE700BF401E0028FCD170474FF04070B8
:103D7000E1EE100A70470000983D000800000020A6
:103D8000C8010000C4010008DC3E0008C801002092
:103D9000005C0000200200080110320128096F12A7
:103DA000833A0AD7233C08E91C4110572AEAD3C6B4
:103DB000535FB8C637B78DC64F8132C678AE80C55F
:103DC000271C484558A51C46985E7846F57F9F46B7
:103DD000EDEFB546AE53BE4619F6B846079BA7466B
:103DE000C8338D4692D75A469A7518468B33B645D6
:103DF0007D83274569072644732797C1EE12103C3F
:103E0000DC5D381D43DC58E143B5F77744DFD0D2A1
:103E100044C411144593B22E45020F2845FE80E19B
:103E2000287029B1BA2FC5A4F4C9C50C8E27C69035
:103E3000096EC62FD498C673BBB5C63DF2CAC61369
:103E400064D7C63057DCC6E711DDC6323F22401AC0
:103E500090041122411A48041A90041AC4041AF852
:103E6000042312421A24041A32041A3C041A42048B
:103E70005A4404411A40381AC0041A102C1A40043B
:103E80005A70401AA8041AC0041AD8041AF0041A66
:103E900004301A10041A1C041A28041A34041A4094
:103EA000041A4C041A58045A6404290C2914291CB5
:103EB0002924292C2934293C2944294C2954295CBA
:103EC0002964296C2974297C2984298C2994A12DA1
:0C3ED000010203040405000607080900B5
:040000050800018965
:00000001FF
