:020000040800F2
:10000000584D002029020008BD1200085D110008AB
:100010003712000897030008E92D000800000000CF
:100020000000000000000000000000003D1E00086D
:100030003D100008000000003F02000841020008D7
:10004000430200084302000843020008430200087C
:10005000430200084302000843020008430200086C
:10006000430200084302000843020008430200085C
:100070004302000843020008C50E000843020008BE
:10008000430200084302000843020008430200083C
:100090009D030008430200084302000843020008D1
:1000A000430200085D2000084302000843020008E4
:1000B0007920000895200008B120000843020008BC
:1000C00043020008430200084302000843020008FC
:1000D000430200084302000843020008F926000812
:1000E00043020008430200084302000843020008DC
:1000F000E920000843020008430200084302000808
:100100004302000843020008CD2000084302000813
:10011000430200089D25000843020008430200082E
:10012000430200084302000843020008430200089B
:10013000430200084302000843020008430200088B
:10014000430200084302000843020008430200087B
:10015000430200084302000843020008430200086B
:10016000430200084302000843020008430200085B
:10017000430200084302000843020008430200084B
:10018000430200084302000800F002F800F03CF8C7
:100190000AA090E8000C82448344AAF10107DA45E2
:1001A00001D100F031F8AFF2090EBAE80F0013F0F8
:1001B000010F18BFFB1A43F001031847C8320000B3
:1001C000E8320000103A24BF78C878C1FAD8520744
:1001D00024BF30C830C144BF04680C6070470000C1
:1001E0000023002400250026103A28BF78C1FBD840
:1001F000520728BF30C148BF0B6070471FB503F0DE
:100200003CF91FBD10B510BD00F090F81146FFF786
:10021000F5FF02F04FFF00F0AEF803B4FFF7F2FF76
:1002200003BC00F0B1F800000948804709480047C6
:10023000FEE7FEE7FEE7FEE7FEE7FEE7FEE7FEE796
:10024000FEE7FEE704480549054A064B70470000F3
:10025000F51F00088901000858070020584D0020AC
:10026000584900205849002040EA010370B59B0717
:100270002ED14FF00136042A2AD308C810C99D1B7D
:100280009D43121F15EAC61517D0D8B2E1B2401A25
:1002900050EA056110D198B2A1B2401A50EA054166
:1002A0000AD123F07F4024F07F41401A50EA052113
:1002B00002D1180EA0EB146070BDA342DBD018BAB7
:1002C00021BA884201D9012070BD4FF0FF3070BDC6
:1002D0000AB9002070BD10F8013B11F8014B63B161
:1002E000A3420AD1521E08D010F8013B11F8014B6D
:1002F0001BB1A34201D1521EEDD1181B70BD704736
:100300007047704710B500F009F8006810BD10B5CF
:10031000044600F003F8046010BD00000048704778
:10032000F806002000487047F80600207546FFF7E1
:10033000F9FFAE4605006946534620F007008546A2
:1003400018B020B5FFF77EFFBDE820404FF0000653
:100350004FF000074FF000084FF0000B21F00701AD
:10036000AC46ACE8C009ACE8C009ACE8C009ACE8F0
:10037000C0098D46704710B50446AFF30080204693
:10038000BDE81040FFF749BF01491820ABBEFEE7AA
:1003900026000200704700BFFEE7000010B50823EA
:1003A0002F4A3049304800F01FFC002005E02C495E
:1003B000095C2E4A1154411CC8B20828F7DB2948B1
:1003C000006840F2012188421DD128484078274921
:1003D000097800EB01202649086024488078000253
:1003E00000B22249C9780844214948601F48407931
:1003F0001E49097900EB012000B21D4908811B4804
:10040000807940B288721B49174800F03FF81949BB
:10041000491C154800F03AF81649C91C124800F06A
:1004200035F81549104800F031F814490E4800F02D
:100430002DF813490C4800F029F8114908310A48F1
:1004400000F024F80F49084800F020F80E4906484B
:1004500000F01CF80C490831034800F017F810BDF3
:100460001000002018000020006400400000002060
:10047000980600200100F0107000F0300300001218
:1004800008000032030000140800003400220C4B66
:10049000994202D10023836111E0C1F3130201F0FC
:1004A00000730BB1C2600AE001F080630BB102611E
:1004B00005E001F000630BB1826000E0426070472C
:1004C0007000F0302DE9F04F8BB006460F46144611
:1004D0001D46DDF850804FF00009CA46CB46B5F501
:1004E000807F43D012DC102D34D008DC012D25D0C4
:1004F000022D26D0042D27D0082D4FD127E0202D06
:100500002BD0402D2CD0802D48D12CE0B5F5805F2C
:1005100038D009DCB5F5007F2BD0B5F5806F2BD036
:10052000B5F5006F3AD12AE0B5F5005F2DD0B5F5ED
:10053000804F2DD0B5F5004F30D12CE04FF00009A1
:100540002DE04FF001092AE04FF0020927E04FF0BB
:10055000030924E04FF0040921E04FF005091EE0F3
:100560004FF006091BE04FF0070918E04FF00809AB
:1005700015E04FF0090912E04FF00A090FE04FF0C3
:100580000B090CE04FF00C0909E04FF00D0906E0F3
:100590004FF00E0903E04FF00F0900E000BF00BF6D
:1005A000B8F5807F4BD01ADCB8F1100F3BD00CDCD3
:1005B000B8F1010F2BD0B8F1020F2BD0B8F1040F16
:1005C0002BD0B8F1080F52D12AE0B8F1200F2DD06E
:1005D000B8F1400F2DD0B8F1800F48D12CE0B8F51C
:1005E000805F38D009DCB8F5007F2BD0B8F5806F7C
:1005F0002BD0B8F5006F3AD12AE0B8F5005F2DD0C6
:10060000B8F5804F2DD0B8F5004F30D12CE04FF029
:10061000000A2DE04FF0010A2AE04FF0020A27E01D
:100620004FF0030A24E04FF0040A21E04FF0050ADE
:100630001EE04FF0060A1BE04FF0070A18E04FF0EB
:10064000080A15E04FF0090A12E04FF00A0A0FE01D
:100650004FF00B0A0CE04FF00C0A09E04FF00D0AC6
:1006600006E04FF00E0A03E04FF00F0A00E000BF73
:1006700000BF7F48304418B1B0F5806F1AD10CE04C
:100680004FF0090B00208DF8120014208DF80400A3
:100690000121480601F02EFB0DE04FF0090B0E2062
:1006A0008DF8120040208DF804000121000501F0B2
:1006B00021FB00E000BF00BFC4F3090078BBA0121B
:1006C000A0F580108038092834D2DFE800F0050A50
:1006D0000F14191E23292E000121084601F0FAFAF1
:1006E00029E00121022001F0F5FA24E00121042093
:1006F00001F0F0FA1FE00121082001F0EBFA1AE006
:100700000121102001F0E6FA15E00121202001F07E
:10071000E1FA10E00121402001F0DCFA0BE009E0F1
:100720000121802001F0D6FA05E00121080201F044
:10073000D1FA00E000BF00BF5A464946204600F00B
:10074000DFFC5A465146204600F0DAFC45EA080034
:10075000099002208DF828008DF8290000208DF8DE
:100760002A0001208DF82B0009A9204600F080FC0A
:10077000304600F07FF800208DF81E008DF81F0035
:100780008DF820008DF821008DF822008DF82300CF
:100790008DF81A008DF81B000B208DF81C00072027
:1007A0008DF81D007D2F22D008DC0A2F0FD0142FCA
:1007B00011D0322F13D0642F29D114E0FA2F1AD080
:1007C000B7F5FA7F1BD0B7F57A7F20D11BE0C820A0
:1007D000ADF818001CE06420ADF8180018E02820DF
:1007E000ADF8180014E01420ADF8180010E0102047
:1007F000ADF818000CE00820ADF8180008E004205F
:10080000ADF8180004E00220ADF8180000E000BFC9
:1008100000BF06A9304600F0D6F800208DF813007E
:1008200001208DF814000020ADF80800ADF80A0092
:10083000ADF80C00ADF80E00ADF8100001208DF8F9
:10084000150002A800F032F800208DF80500032002
:100850008DF8060001208DF8070001A800F030FD9A
:1008600001220221304600F0A5F80BB0BDE8F08F60
:10087000009CFFBF10B504460B48844209D10121FA
:10088000480601F047FA00214FF0007001F042FAEB
:1008900008E00121880601F03DFA00214FF0806058
:1008A00001F038FA10BD00000064004010B50021CE
:1008B000837A012202FA03F13D4A126842F00102F2
:1008C0003B4B1A603A4A1C3212688A43384B1C333D
:1008D0001A60027BCAB9364A0C3212688A43344B1A
:1008E0000C331A604288C38842EA0343304A4032DC
:1008F000847A42F834300288838842EA03432C4ADF
:100900004032847A02EBC4025360027B012A19D17F
:10091000274A0C3212680A43254B0C331A6042886E
:10092000038842EA0343224A4032847A42F8343050
:10093000C288838842EA03431D4A4032847A02EB2C
:10094000C4025360C27A3AB9194A121D12688A4326
:10095000174B1B1D1A6006E0154A121D12680A4348
:10096000134B1B1D1A60028932B9114A14321268E6
:100970008A430F4B14331A600289012A06D10C4AAC
:10098000143212680A430A4B14331A60427B012A5C
:1009900006D1074A1C3212680A43054B1C331A6001
:1009A000034A126822F00102014B1A6010BD0000D8
:1009B000006600401AB143690B43436102E043699A
:1009C0008B434361704730B5024600200023146812
:1009D00024F002041460146844F00104146000E080
:1009E0005B1C546804F001041CB94FF6FF74A34269
:1009F000F6D1546804F001040CB900206CE08C7945
:100A0000012C04D1146844F08004146003E01468DD
:100A100024F080041460CC79012C04D1146844F0D3
:100A20004004146003E0146824F0400414600C7A5D
:100A3000012C04D1146844F02004146003E014680D
:100A400024F0200414604C7A012C04D1146844F082
:100A50001004146003E0146824F0100414608C7A0D
:100A6000012C04D1146844F00804146003E01468F5
:100A700024F008041460CC7A012C04D1146844F0EA
:100A80000404146003E0146824F0040414608C78F7
:100A9000A407CD7844EA05640D7944EA05444D790C
:100AA00044EA05540D886D1E2C43D461146824F06B
:100AB00001041460002300E05B1C546804F001048E
:100AC0001CB14FF6FF74A342F6D1546804F0010440
:100AD0000CB1002000E0012030BD0246002019B911
:100AE000D36803F0030006E0012903D1136903F082
:100AF000030000E00020704710B500F5D87303EB49
:100B000001131B6803F004031372137A53B900F541
:100B1000D87303EB01131B6840F2FF7404EA5353CC
:100B2000136009E000F5D87303EB01131B686FF045
:100B3000604404EAD303536000F5D87303EB011358
:100B40001B6803F00203537200F5D87303EB011323
:100B50005B6803F00F03937200F5D87303EB011386
:100B60005B681B0AD37400F5D87303EB01139B6811
:100B7000D37200F5D87303EB01139B681C0A14733E
:100B800000F5D87303EB01139B681C0C547300F53C
:100B9000D87303EB01139B681B0E937300F5D87396
:100BA00003EB0113DB68D37300F5D87303EB011378
:100BB000DB681C0A147400F5D87303EB0113DB68BF
:100BC0001C0C547400F5D87303EB0113DB681B0E87
:100BD000937421B9C36843F02003C36003E0036941
:100BE00043F02003036110BD2DE9F04186B080463B
:100BF0000D4616461F46002400214046FFF76DFFB4
:100C000018B9002006B0BDE8F08101AA00214046D5
:100C1000FFF772FF002405E00DF10F00005D305575
:100C2000601CC4B2BC42F7DB019828600120E9E7F0
:100C300010B502460020936803F08063B3F1806F23
:100C400000D110E0936803F00063B3F1006F01D1AD
:100C5000012008E0936803F08053B3F1805F01D175
:100C6000022000E00420042874D002F5C07303EBD6
:100C700000131B6803F0010402F5C07303EB0013BB
:100C80001C600B7A7BB94B7A0C8843EA445302F51B
:100C9000C07404EB00142468234302F5C07404EB11
:100CA0000014236010E00B7A4C6843EAC4034C7ACA
:100CB000234302F5C07404EB00142468234302F5B7
:100CC000C07404EB001423608B7A03F00F038B7263
:100CD00002F5C07303EB00135B6823F00F0402F509
:100CE000C07303EB00135C6002F5C07303EB0013E9
:100CF0005B688C7A234302F5C07404EB00146360D4
:100D00008B7B1C064B7B44EA03440B7B44EA0323A6
:100D1000CC7A234302F5C07404EB0014A3608B7CEF
:100D20001C064B7C44EA03440B7C44EA0323CC7B43
:100D3000234302F5C07404EB0014E36002F5C073B2
:100D400003EB00131B6843F0010402F5C07303EBCF
:100D500000131C6010BD000010B50246002321B135
:100D6000012907D002290FD109E090681D4C00EA43
:100D700004030BE090681C4C00EA040306E0906852
:100D80001A4C00EA040301E0002300BF00BF184C26
:100D9000181BA34216D007DC83B16FF080601844A3
:100DA00070B1022818D111E0B0F5007F10D0114CBD
:100DB000204448B1B0F5003F0ED10BE002230DE016
:100DC00000230BE0002309E0002307E0012305E0F6
:100DD000012303E0012301E0002300BF00BFD8B2DC
:100DE00010BD000003000004000300080000031011
:100DF000000100080001FFF710B52DED028B002463
:100E00009FED2B0AB0EE408A002000F09DF90446C9
:100E100028480068201A00EE100AB8EEC00AB0EEAA
:100E2000408A24480460244890ED1A0AB8EEC00AAB
:100E3000F6EE000A20EE200AB4EEC80AF1EE10FA2F
:100E400007D290ED1A0AB8EEC00A38EE400AB0EEAA
:100E5000408A194890ED1A0AB8EEC00AF6EE000A68
:100E600020EE600AB4EEC80AF1EE10FA07DD90ED4C
:100E70001A0AB8EEC00A30EE080AB0EE408A0E48F0
:100E800090ED0A0A30EE080A80ED0A0A0B4890ED50
:100E9000010AB8EEC00ADFED0A0A20EE200A064871
:100EA00080ED020A90ED020ABDEC028B10BD00003D
:100EB00000000000740000201406002098060020A6
:100EC00063CF0B3E10B50949094800F039F860B10D
:100ED0000021074800F028F80449054800F00AF806
:100EE0004FF4AF61024800F0A7F810BD0080001871
:100EF000586002400246094B9A4201D2084801E07C
:100F00000648103801F000531BB1064B0B40C3607C
:100F100002E0044B0B408360704700001064024005
:100F2000006002407D0F7D0F21B1026842F0010296
:100F3000026003E0026822F00102026070470000D4
:100F400070B50246002000240025124EB24201D2A4
:100F5000114B01E00F4B103B104E0E4036B11E26D8
:100F600006EAD124166806EA040502E0566906F08E
:100F7000800501F000560EB15C6800E01C68084E68
:100F8000344004EA010616B10DB1012000E0002052
:100F900070BD000010640240006002403C0F3C0F36
:100FA0007D0F7D0F10B501F080034BB122B1436975
:100FB00043F08003436103E0436923F0800343610E
:100FC00080290BD02AB1036801F01E04234303607B
:100FD00004E0036801F01E04A343036010BD000099
:100FE00010B500220268134B1A40CC680B682343EB
:100FF0004C6923438C692343CC6923430C6A234304
:101000004C6A23438C6A23434C6B23438C6B2343EE
:101010001A430260426922F00702D1E90B342343EC
:101020001A4342610B6943604B6883608B68C360FD
:1010300010BD00003F801CF0416070477047000009
:1010400010B59FED090A094880ED010A0220074901
:101050000867086001030548816601F00DFF00F094
:1010600005FE00F0C5F810BD0000000014060020C9
:10107000F0B50A4600210023002400BF3DE0012511
:1010800005FA01F3156805EA03049C4234D10568AA
:101090004F000326BE40B543056015794E00B540AC
:1010A0000668354305601579012D02D01579022DAA
:1010B00016D185684F000326BE40B543856055793B
:1010C0004E00B540866835438560456801268E40F0
:1010D000B5434560456896798E40B6B23543456064
:1010E000C5684F000326BE40B543C560D5794E00A4
:1010F000B540C6683543C560491C1029BFD3F0BD53
:10110000F0B5002300244D07ED0E02FA05F3CE10D2
:1011100000F1200555F826504E07F70E0F26BE4069
:10112000B543CF1000F1200646F82750CE1000F14D
:10113000200555F8265045EA0304CE1000F120059D
:1011400045F82640F0BD0000014601EB4100024A8F
:1011500052F82000704700009806002000BFFEE70C
:1011600000B51F48D0ED100AB0EE600A01F03EFE57
:101170001B4880ED130A90ED0A0A1A48D0ED000AC8
:1011800030EE600AB0EEC00AF0EE000AB4EEE00AFB
:10119000F1EE10FA05D81248806C401C10498864A2
:1011A00002E000210E4881640D4890ED0A0A0D48C6
:1011B00080ED000A0A48806CB0F5FA7F0EDB9FEDE7
:1011C0000A0A074880ED0A0A90ED0A0A80ED0B0A28
:1011D00000200649087005200149086000BD000094
:1011E00014060020700000200000000030000020E5
:1011F0009FED050A054880ED110AB8EE080A80ED5A
:10120000100A0021816470470000000014060020CD
:10121000B4EEE00AF1EE10FA01DDB0EE600AB1EED4
:10122000601AB4EEC10AF1EE10FA03D2B1EE601A00
:10123000B0EE410A704700BFFEE7000010B52DED8B
:10124000028BFFF7D9FD1B48006802280ED0052845
:1012500002D0062821D118E000F078F8B0EE408ADC
:1012600001F0C4FD134880ED010A17E01148D0EDEC
:10127000030AB0EE600A01F025FEB0EE403A01F03C
:10128000B5FD0C4880ED010A08E0FFF769FF094849
:1012900090ED130A80ED010A00E000BF00BF054891
:1012A00090ED010A044880ED000A00F0C9FDBDEC94
:1012B000028B10BD140600208806002000BFFEE748
:1012C00070B5002100230F22C4781CB3174C24688A
:1012D00004F4E064C4F5E064C4F30721C1F104043C
:1012E000E3B20A4144789C40E1B28478144021433F
:1012F0000C07210E0E4C05786155047804F01F058B
:101300000124AC4005786D11AD0005F1E025C5F86C
:10131000004109E0047804F01F050124AC40054DAC
:101320000678761145F8264070BD00000CED00E00F
:1013300000E400E080E100E002490143024A11605C
:10134000704700000000FA050CED00E010B52DED2F
:10135000068B9FEDFE0AB0EE408A9FEDFC0AF0EE90
:10136000408AFB4890ED0B0AFA48D0ED000AB4EE33
:10137000600AF1EE10FA7DD0F54890ED030ADFED3A
:10138000F60AB4EEE00AF1EE10FA03D8B7EE000A5E
:1013900080ED030AEE4890ED040ADFEDF00AB4EEAA
:1013A000E00AF1EE10FA03D89FEDED0A80ED040A91
:1013B000E74890ED0B0AD0ED0A0A30EE600AE948E2
:1013C00080ED000AE24890ED020ABDEEC00AE64850
:1013D00080ED000ADE4890ED030AF0EE400AE24894
:1013E00090ED000AB8EEC00AFFF712FFBDEEC00A8A
:1013F000DD4880ED000ADB4890ED000AB5EEC00A3A
:10140000F1EE10FA03D2FF20D849087002E0012063
:10141000D6490870D4480068002803DAFF20D44970
:10142000087002E00120D2490870C94890ED030A13
:1014300060EE000A90ED041A80EE810AF0EE000AD8
:1014400080EE201ACB4880ED001AC7480068404360
:1014500000EE100AF8EEC00ABD4890ED041A80EEC6
:10146000810AF0EE000A80EE201AC34880ED001ACF
:10147000C04800E0CCE190ED000ABF48D0ED000A82
:1014800030EE600ABD4880ED000AB84890F90000CF
:10149000B74991F9001010FB01F0002817DDB3489F
:1014A00090F9000000EE100AB8EEC00AAD48D0ED89
:1014B000000A20EE200AB048D0ED000AB4EEE00A9F
:1014C000F1EE10FA03D2FF20AD49087002E00120CE
:1014D000AB490870A54890F90000A3490968484342
:1014E00000EE100AB8EEC00A9948D0ED030AB4EE37
:1014F000E00AF1EE10FA64DDA1480078012860D11D
:101500000520A04908609D4890ED000AB1EE400A10
:1015100080ED000A964890F9000093490968484315
:1015200000EE100AB8EEC00A8948D0ED030A30EE8A
:10153000600AD0ED040A80EE201ABDEEC10A92487E
:1015400080ED000A8E4890F90000884991F900105A
:1015500010FB01F000EE100AF8EEC00A814890ED91
:10156000001A854890ED000A10EE810A7848D0ED07
:10157000030A80EE201ABDEEC10A844880ED000AFD
:10158000734890ED030A90ED041AC0EE010A7E48FC
:1015900000687E490968084400EE100AB8EEC00AE7
:1015A00030EE800ABDEEC00A794880ED000A0020C6
:1015B00078490860664890ED0A0A774880ED000A8D
:1015C0001BE16F4890F90000684991F9001010FB89
:1015D00001F000EE100AB8EEC00A6248D0ED000A31
:1015E00020EE200A6548D0ED000A624890ED001A0E
:1015F00070EE810AB4EEE00AF1EE10FA67D803202B
:10160000604908605E4890F90000584991F900105F
:1016100010FB01F000EE100AF8EEC00A514890ED00
:10162000001A554890ED000A00EE810AF1EE000A1A
:1016300020EE200A4648D0ED040A80EE201A11EE72
:10164000104A204601F0A8FE41EC1A0BB0EE4A0AFF
:10165000F0EE6A0A01F074FCB0EE409AF0EE609A87
:1016600051EC190B01F048FD49490860444890F9D4
:1016700000003E4991F9001010FB01F03A49096859
:10168000484300EE100AB8EEC00A3148D0ED040A13
:1016900080EE201ABDEEC10A3E4880ED000A2C48BB
:1016A00090ED0A0A364890F90000304991F900108F
:1016B00010FB01F000EE900AF8EEE00A2E4890EDE3
:1016C000001A00EEC10A344880ED000A95E00420BB
:1016D0002C4908601E4890ED030AD0ED040A80EE04
:1016E000201ABDEEC10A284880ED000A244890F96E
:1016F00000001E4991F9001010FB01F000EE100AE5
:10170000F8EEC00A174890ED001A1B4890ED000A49
:1017100000EE810A1748D0ED000AB0EE001A01EE83
:10172000600A0B48D0ED030A80EE201ABDEEC10A14
:10173000164880ED000A006813490968022202FB7E
:101740000100134908600E4828E000000000000076
:1017500014060020600000206F12833AACC52737C2
:10176000A69B443B4C000020480000203100002094
:1017700032000020540000205800002050000020BB
:1017800030000020440000203C00002040000020E9
:1017900038000020340000206400002090F9000090
:1017A000F74991F9001010FB01F0F6490968484328
:1017B00000EE100AB8EEC00AF348D0ED040A80EE3D
:1017C000201ABDEEC10AF14880ED000AEE4890ED06
:1017D0000A0AEF4890F90000E94991F9001010FB5E
:1017E00001F000EE900AF8EEE00AEA4890ED001AE7
:1017F00000EEC10AE84880ED000AE4480068C01C19
:10180000E2490860E04890ED0B0AE44880ED000AE8
:10181000E3480068032863D1E249086800EBD0710F
:10182000DA4A1268B2EB610F28DAD94890F9000061
:10183000D34991F9001010FB01F000EE100AB8EE48
:10184000C00AF6EE000A20EE200ACF48D0ED040AC6
:1018500060EE200ACD4890ED000AB8EEC00A60EEB6
:10186000800A90ED000AB8EEC01ACB4890ED000A4D
:1018700000EE810ACC4880ED000AA7E1C44890F947
:101880000000BF4991F9001010FB01F000EE100AB2
:10189000B8EEC00AF6EE000A20EE200ABA48D0EDF3
:1018A000040A60EE200ABF480068B8490968401A77
:1018B00000EE100AB8EEC00A60EE800AB94800686F
:1018C000B2490968401A00EE100AB8EEC01AAE48D4
:1018D00090ED0B0A00EEC10AB34880ED000A75E1F5
:1018E000AF48006804287DD1A8480068AF4909685E
:1018F000884228DAA64890F90000A14991F9001021
:1019000010FB01F000EE100AB8EEC00AF6EE000A75
:1019100020EE200A9C48D0ED040A60EE200A9B4885
:1019200090ED000AB8EEC00A60EE800A90ED000A61
:10193000B8EEC01A984890ED000A00EE810A9A4865
:1019400080ED000A42E19948006899490968084415
:101950008E490968884221DD8D4890F90000884948
:1019600091F9001010FB01F000EE100AB8EEC01A59
:101970008548D0ED030A854890ED000AF8EEC01ABC
:101980008C4890ED000A10EEA10A8348D0ED000AC1
:1019900041EE000A8448C0ED000A17E17C4890F946
:1019A0000000774991F9001010FB01F000EE100AD9
:1019B000B8EEC00AF6EE000A20EE200A7248D0ED1A
:1019C000040A60EE200A7748006870490968401AE6
:1019D00000EE100AB8EEC00A60EE800A7148006896
:1019E0006A4900E00EE00968401A00EE100AB8EEFD
:1019F000C01A654890ED0B0A00EEC10A6A4880EDF6
:101A0000000AE3E06648006805287CD15F4800686A
:101A100066490968884242DA5D4890F900005849F1
:101A200091F9001010FB01F000EE100AB8EEC00AA8
:101A3000F6EE000A20EE200A5348D0ED040A60EECC
:101A4000200A524890ED000AB8EEC00A20EE801A33
:101A50004F4890F900004A4991F9001010FB01F03D
:101A6000554991F9001010FB01F0464909684843B7
:101A700046490968484300EE100AB8EEC00A4648D5
:101A8000D0ED000A30EE200A4048D0ED000AF8EE12
:101A9000E00A01EE600A444880ED000A96E04348FF
:101AA000006843490968084438490968884235DDB7
:101AB000374890F90000324991F9001010FB01F00D
:101AC00000EE100AB8EEC00A2F48D0ED030A20EE4F
:101AD000201A2E48006835490968401A00EE100A9D
:101AE000F8EEC00A2A4890F90000254991F9001043
:101AF00010FB01F000EE100AF8EEC01A2F4890ED2E
:101B0000002A254800E05BE090ED000A01EE820A21
:101B100001EE200A244880ED000A57E01C4890F9A5
:101B20000000174991F9001010FB01F000EE100AB7
:101B3000B8EEC00AF6EE000A20EE200A1248D0EDF8
:101B4000040A60EE200A1748006810490968401A24
:101B500000EE100AB8EEC00A60EE800A1148006874
:101B60000A490968401A00EE100AB8EEC01A064881
:101B700090ED0B0A00EEC10A0B4880ED000A25E04B
:101B8000310000204800002014060020340000200E
:101B90003000002058000020640000206000002079
:101BA00044000020380000205C0000203C000020A1
:101BB000400000205400002032000020500000208F
:101BC000234890ED0B0A234880ED000A204890ED51
:101BD0000A0A2048D0ED000A30EEC00AB0EE408A72
:101BE0001B4890ED0E0A1C48D0ED000A78EE600A02
:101BF00020EE200A1648D0ED0D0A08EE200AD0ED9E
:101C0000020A9FED161A01EE600AF0EE408A1248B1
:101C100080ED008A1248006812490968884203DB97
:101C2000104800680E490860DFED0F0AB0EE680A40
:101C3000FFF7EEFA064880ED0F0A09480068401CDD
:101C400007490860024890ED0F0ABDEC068B10BDF5
:101C5000140600205C0000206C0000200000000042
:101C6000340000203800002000007A4410B59FEDB9
:101C7000130A134880ED0D0A9FED120A80ED0E0A3B
:101C8000B2EE040A80ED030A9FED0F0A80ED040A0C
:101C90009FED0D0A80ED050AFFF7AEF89FED0B0AE8
:101CA000074880ED0A0A90ED0A0A80ED0B0A90EDD4
:101CB0000A0A074880ED000A10BD0000B6F3FD3C9B
:101CC0001406002023DB793DA69B443B0000000066
:101CD0006000002029B1064A12680243044B1A60D2
:101CE00004E0034A12688243014B1A607047000007
:101CF0003038024029B1064A12680243044B1A6088
:101D000004E0034A12688243014B1A6070470000E6
:101D10004038024029B1064A12680243044B1A6057
:101D200004E0034A12688243014B1A6070470000C6
:101D30002038024029B1064A12680243044B1A6057
:101D400004E0034A12688243014B1A6070470000A6
:101D500044380240F0B5002100220024022500266C
:101D60000223324F3F6807F00C0121B1042905D04E
:101D7000082937D105E02E4F076036E02D4F076068
:101D800033E02A4F3F1F3F68C7F38056274F3F1F5E
:101D90003F6807F03F036EB1264FB7FBF3F7DFF85C
:101DA0008CC0ACF1040CDCF800C0CCF3881C07FB41
:101DB0000CF40CE01E4FB7FBF3F7DFF870C0ACF18A
:101DC000040CDCF800C0CCF3881C07FB0CF4174FA4
:101DD0003F1F3F68C7F301477F1C7D00B4FBF5F749
:101DE000076002E0124F076000BF00BF0F4F3F685F
:101DF00007F0F0010909104F7A5C0768D740476087
:101E00000A4F3F6807F4E051890A0B4F7A5C476834
:101E1000D7408760054F3F6807F46041490B064F84
:101E20007A5C4768D740C760F0BD000008380240C0
:101E30000024F40000127A007800002070470000AF
:101E400030B587B0054600200090019000BF13E038
:101E500005EB800191ED000ADFED290A20EE200A52
:101E6000F3EE040A80EE201ABDEEC10A10EE101A3D
:101E700009B22DF81010401C0428E9DB4FF4007063
:101E80000290039000208DF810008DF811000820BA
:101E90008DF81200BDF80000000A8DF81300BDF89F
:101EA0000000C1B28DF81410BDF80200010A8DF8CF
:101EB0001510BDF80200C1B28DF81610BDF804006F
:101EC000010A8DF81710BDF80400C1B28DF8181082
:101ED000BDF80600010A8DF81910BDF80600C1B260
:101EE0008DF81A1002A90748FEF7A2FE044600BFAB
:101EF00021460448FEF730FF0128F9D107B030BD74
:101F000000008046006400400CB500200190009065
:101F10003448006840F480303249086000BF3148DE
:101F2000006800F4003000900198401C0190009877
:101F300018B90198B0F5A06FF1D12A48006800F4F3
:101F4000003010B10120009001E0002000900098C6
:101F5000012846D123484030006840F08050214994
:101F6000403108602048006840F480401E49086005
:101F70001C48083000681B490831086008460068A2
:101F800040F4004008600846006840F4A050086033
:101F90001648091F0860081F006840F08070091F7C
:101FA000086000BF0F48006800F000700028F9D0FA
:101FB00040F205600E4908600A480830006820F0C9
:101FC00003000849083108600846006840F0020034
:101FD000086000BF03480830006800F00C000828C3
:101FE000F8D10CBD00380240007000400854400792
:101FF000003C024010B51548006840F470001349D9
:1020000008601348006840F0010011490860002092
:102010000F49083108600E4800680E4908400C4915
:1020200008600D48091D0860081F006820F4802022
:10203000091F0860002006490C310860FFF764FFA3
:102040004FF0006001498039086010BD88ED00E064
:1020500000380240FFFFF6FE1030002410B50121C9
:10206000044800F05AF9012803D10121014800F089
:1020700049F810BD0000014010B50121880700F0AB
:102080004CF9012805D10121800700F03BF8FFF74A
:10209000D5F810BD10B50121044800F03EF9012823
:1020A00003D10121014800F02DF810BD00040040CB
:1020B00010B50121044800F030F9012803D10121B5
:1020C000014800F01FF810BD0008004010B50121C4
:1020D000044800F022F9012803D10121014800F051
:1020E00011F810BD000C004010B50121044800F0AB
:1020F00014F9012803D10121014800F003F810BDB3
:1021000000040140CA430282704721B1028842F0B4
:102110000102028004E002884FF6FE731A4002803A
:1021200070470000FEB504460D46002600200090D2
:10213000019002906D49601A8C426FD01ADC6C4994
:10214000A4EB01008C4274D00ADCB4F1804F53D070
:1021500068482044002858D0B0F5806F72D15FE005
:10216000B0F5806F71D0B0F5006F77D0B0F5406FEB
:10217000F4D17DE0B0F5923F23D009DCB0F5806F5B
:1021800075D0B0F5644F0AD0B0F5684F5AD10FE062
:10219000B0F5943F1ED0B0F5963F53D123E0012116
:1021A0000846FFF7C7FD44F2A010ADF800007BE041
:1021B00001210220FFF7BEFD44F2A010ADF800009F
:1021C00072E001210804FFF7B5FD44F2A010ADF85C
:1021D000000069E001214804FFF7ACFD44F2A010C3
:1021E000ADF8000060E001218804FFF7A3FD44F290
:1021F000A010ADF8000057E001210846FFF77AFD76
:1022000042F2D000ADF800004EE001210220FFF7BD
:1022100071FD42F2D000ADF8000045E031E008E089
:1022200001210420FFF766FD42F2D000ADF8000066
:102230003AE001210820FFF75DFD42F2D000ADF841
:10224000000031E02FE000E008E001211020FFF75E
:1022500051FD42F2D000ADF8000025E00121202020
:10226000FFF748FD42F2D000ADF800001CE011E09D
:1022700001214020FFF73EFD42F2D000ADF8000002
:1022800012E001218020FFF735FD42F2D000ADF8C9
:10229000000009E001210802FFF72CFD42F2D00006
:1022A000ADF8000000E000BF00BF4FF6FF700190E6
:1022B0000020ADF80800ADF802006946204600F0A5
:1022C0002BF901212046FFF720FF0021204600F0D6
:1022D00021F903E0204600F01DF886B2AE42F9DB9A
:1022E00000212046FFF711FFFEBD0000001C00404A
:1022F000000C004000FCFFBF70B506460C460025F0
:1023000000BF04E00A213046FFF70CFF6D1CA54218
:10231000F8D370BD0146486A704730B502460020C8
:1023200000230024158A05EA0103958905EA0104C2
:1023300013B10CB1012000E0002030BD1AB1838937
:102340000B43838102E083898B43838170470000C4
:102350002DE9FF4104460D4616461F46DDF828804C
:102360006949601A8C4270D01ADC6849A4EB0100FC
:102370008C426CD00ADCB4F1804F4ED064482044CB
:10238000002852D0B0F5806F71D156E0B0F5806F63
:1023900065D0B0F5006F6CD0B0F5406FF4D170E04F
:1023A000B0F5923F21D009DCB0F5806F7AD0B0F55E
:1023B000644F0AD0B0F5684F7CD10EE0B0F5943F81
:1023C0001BD0B0F5963F75D11FE001210846FFF7FD
:1023D000B1FC19208DF800006DE001210220FFF70B
:1023E000A9FC2C208DF8000065E001210804FFF70E
:1023F000A1FC18208DF800005DE001211920FFF7F5
:1024000099FC2C208DF8000055E001218804FFF78D
:1024100091FC1A208DF800004DE001210846FFF7DD
:1024200069FC1C208DF8000045E001210220FFF727
:1024300061FC1D208DF800003DE001210420FFF724
:1024400059FC1E208DF8000035E023E0FFE7012154
:102450000820FFF74FFC32208DF800002BE001210F
:102460001020FFF747FC36208DF8000023E021E024
:10247000FFE701212020FFF73DFC37208DF8000009
:1024800019E001214020FFF735FC2B208DF80000DA
:1024900011E007E001218020FFF72CFC2C208DF8B3
:1024A000000008E001210802FFF724FC2D208DF830
:1024B000000000E000BF00BF0295ADF804600020FE
:1024C000ADF80C00ADF8060001A9204600F024F894
:1024D00001212046FFF716FE012211462046FFF794
:1024E0002DFFF8B28DF8010008F0FF008DF8020012
:1024F00001208DF803006846FEF7E2FE0121204628
:10250000FFF703FEBDE8FF81001C0040000C004007
:1025100000FCFFBF4162704700220288184B9842BE
:102520000ED0184B98420BD0B0F1804F08D0164B0C
:10253000984205D0154B984202D0154B984204D1D1
:102540004FF68F731A404B881A43124B984207D0AC
:10255000114B984204D04FF6FF431A400B891A439F
:1025600002804B68C3620B880385054B984202D0FA
:10257000044B984201D18B7A0386012383827047F2
:102580000000014000040140000400400008004039
:10259000000C0040001000400014004010B540F254
:1025A0002551054800F0C8FA012804D140F2255110
:1025B000014800F090FA10BD0050004010B596B0F0
:1025C000044601210820FFF785FB01218804FFF75D
:1025D00091FB01214805FFF77DFB072208214248B6
:1025E000FEF78EFD072209213F48FEF789FD4FF4D3
:1025F0004070149002208DF854008DF85500002092
:102600008DF8560001208DF8570014A93648FEF7C2
:102610002FFD10940020ADF84400ADF84600ADF851
:102620004800ADF84C000C20ADF84A0010A92F4826
:1026300000F0D2FA01212D4800F05CFA012280213D
:102640002A4800F063FA012240F22551274800F0A1
:102650009DFA4FF0006000902448001D019024482E
:102660000290402003904FF4AF600490002005904A
:102670004FF48060069000200790089009904FF476
:1026800000300A9000200B9001200C9000200D904B
:102690000E9069461748FEF7A3FC01211548FEF786
:1026A00043FC012210211348FEF77CFC0E208DF81C
:1026B0003C0002208DF83D008DF83E0001208DF891
:1026C0003F000FA8FEF7FCFD27208DF83C000020FE
:1026D0008DF83D0001208DF83E008DF83F000FA8D9
:1026E000FEF7EEFD16B010BD000C024000480040A1
:1026F000880000205860024010B540F225510A4879
:1027000000F01AFA01280ED140F22551064800F0D7
:10271000E2F9054800F04DFB0449087008460178CD
:10272000014800F005F810BD004800400F000020EF
:1027300070B505460C46202C08D0AE48AE49096855
:102740004454AD480068401CAB490860AA48006882
:10275000401EA849085C0A280BD0A7480068401E04
:10276000085C0D2805D0A4480068401E085C3B2882
:102770007DD1A1480068012803D100209E4908604E
:102780002FE19C4880783D2872D19A48C0782D2846
:102790001ED14FF0FF309949086004200BE09549A5
:1027A000095C974A126802EB820201EB4201303960
:1027B000934A1160401C90490968491E8142EEDC31
:1027C0008E4800688E49096848438D49086012E0C8
:1027D00003200BE08749095C894A126802EB8202F8
:1027E00001EB42013039864A1160401C8249096878
:1027F000491E8142EEDC022282A17E48FDF734FDB3
:10280000D0B97F4890ED000AB8EEC00ADFED7E0A2D
:1028100020EE200A7D4880ED030A90ED030ADFEDEB
:102820007C0A20EE200ABDEEC00A10EE102A79A123
:10283000284600F03BFAD4E0022279A16D48FDF76A
:1028400013FDE8B96E4890ED000AB8EEC00ADFED5E
:10285000750A80EE201A6D4880ED041A90ED040A86
:10286000DFED700A20EE200ABDEEC00A01E0C0E0F4
:1028700080E010EE102A6CA1284600F017FAB0E0B4
:1028800002226CA15B48FDF7EFFCD0B95C4890EDEB
:10289000000AB8EEC00ADFED630A80EE201A5B483A
:1028A00080ED051A90ED050ADFED5E0A20EE200AA4
:1028B000BDEEC00A10EE102A5FA1284600F0F6F91E
:1028C0008FE002225FA14B48FDF7CEFCD0B94C4807
:1028D00090ED000AB8EEC00ADFED4B0A20EE200AA8
:1028E0004A4880ED030A90ED030ADFED490A20EE25
:1028F000200ABDEEC00A10EE102A53A1284600F0AF
:10290000D5F96EE0022253A13A48FDF7ADFC90B92B
:102910003B4890ED000AB8EEC00A3C4880ED0B0A37
:1029200090ED0B0ABDEEC00A10EE102A4AA128460F
:1029300000F0BCF955E002224AA12E48FDF794FCB4
:1029400098B93248D0ED0A0A2D4890ED000AB8EE49
:10295000C00A30EE800A2D4880ED0B0A28483EA1BF
:102960000268284600F0A2F93BE03FA1284600F0AB
:102970009DF936E0022242A11E48FDF775FC78B9A8
:10298000224890ED020ADFED220A20EE200ABDEE79
:10299000C00A10EE102A3BA1284600F087F920E07B
:1029A00002223AA11348FDF75FFC58B9174890ED91
:1029B0000A0ABDEEC00A10EE102A35A1284600F022
:1029C00075F90EE0022234A10A48FDF74DFC20B94A
:1029D00032A1284600F06AF903E034A1284600F04D
:1029E00065F9002004490860054908600120034991
:1029F000086070BD00060020240000202C0000208C
:102A0000280000204A5600006F12833A1406002066
:102A100000007A444A563D25643B0D0A0000000040
:102A2000414300000024744941433D25643B0D0AA5
:102A3000000000004443000044433D25643B0D0A70
:102A4000000000005350000053503D25643B0D0A28
:102A5000000000005041000050413D25643B0D0A3C
:102A60000000000050520000494E56414C4944209D
:102A7000575249544520434D442121210D0A00005D
:102A800056580000565825643B0D0A005058000067
:102A9000505825643B0D0A004951000049512069F6
:102AA0006E76616C69640D0A00000000494E564163
:102AB0004C4944205245414420434D442121210D9D
:102AC0000A00000001F40072B2F5007F00D100BFDF
:102AD000CA430280704710B50022002340F66A14F2
:102AE000A14200D100BF0A1201249440A3B2DC43EA
:102AF000048010BD21B1828942F40052828104E039
:102B000082894DF6FF731A40828170471AB1838A19
:102B10000B43838202E0838A8B43838270470246A1
:102B20000020B1F5007F00D100BF13880B400BB12E
:102B3000012000E00020704770B502460024002309
:102B40000025002040F66A16B14200D100BFC1F353
:102B5000421501F01F03012606FA03F3012D02D1ED
:102B60009689334006E0022D02D1168A334001E0F7
:102B7000968A33400C12012606FA04F41688344073
:102B800013B10CB1012000E0002070BDF0B5034688
:102B9000002400260025002040F66A17B94200D123
:102BA00000BF1846C1F3421401F01F06012707FABF
:102BB00006F5012C01D10C3004E0022C01D11030BB
:102BC00000E014301AB107682F43076002E007687D
:102BD000AF430760F0BD00002DE9FF4705460E46F4
:102BE0000024A14600BFA046B08900B100BF2C8AD6
:102BF00024F44054F08804432C82AC8941F20C60E8
:102C00008443B08831890843718908430443AC8107
:102C1000AC8A24F44074B0890443AC826846FFF760
:102C200099F82048854202D01F48854202D1DDF83C
:102C30000C9001E0DDF80890A88900F4004040B154
:102C400009EBC90000EB091031684900B0FBF1F74E
:102C500007E009EBC90000EB091031688900B0FBFF
:102C6000F1F76420B7FBF0F004012009642101FBB7
:102C70001078A88900F4004040B1322000EBC80071
:102C8000B0FBF1F000F00700044308E0322000EB55
:102C900008106421B0FBF1F000F00F0004432C8118
:102CA000BDE8FF8700100140001401400FB470B56B
:102CB00086B006460CA8019073E00B9800785C285B
:102CC0001CD10B98401C0B9000786E2809D07228FC
:102CD0000FD10D21304600F071F80B98401C0B907D
:102CE0000BE00A21304600F069F80B98401C0B906D
:102CF00003E00B98401C0B9000BF4BE00B98007852
:102D0000252840D10B98401C0B900078642818D0DF
:102D1000732833D1019810C801900BE02178304618
:102D200000F04CF800BF40213046FFF7F8FE0028C5
:102D3000F9D0641C20780028F0D10B98401C0B902F
:102D400020E0019820C801900A2202A9284600F03C
:102D50007FF902AC0BE02178304600F02FF800BF7D
:102D600040213046FFF7DBFE0028F9D0641C2078B4
:102D70000028F0D10B98401C0B9003E00B98401CEE
:102D80000B9000BF06E00B9810F8011B0B9030462B
:102D900000F014F800BF40213046FFF7C0FE0028C5
:102DA000F9D00B980078002887D106B070BC5DF888
:102DB00014FB01468888C0F30800704730B504460C
:102DC0000D4600BF80212046FFF7A9FE0028F9D05C
:102DD00080212046FFF776FE40212046FFF772FE55
:102DE000C5F30800A08030BD00BFFEE700B5F0EEDF
:102DF000401A204890ED020A31EEC00AB0EE402A97
:102E000090ED080AD0ED070A00EE820A80ED080A6C
:102E1000D0ED080AB0EE600AF3EE040AFEF7F8F906
:102E2000144880ED080A90ED080AD0ED060A00EE7D
:102E3000820AF0EE402AF3EE040AB0EE620AFEF7D0
:102E4000E7F90C4880ED090A90ED080AB0EEC00AD7
:102E5000D0ED090AF0EEE00AB4EEE00AF1EE10FA65
:102E600003DD90ED090A80ED080A024890ED090A99
:102E700000BD0000140600209FED0E0A0E4880EDF4
:102E8000060A9FED0E0A80ED070A9FED0D0A80ED00
:102E9000080A9FED0B0A80ED030A9FED090A80EDF9
:102EA000040A9FED070A80ED050A9FED050A80EDF3
:102EB000090A70478FC2F53C14060020A69B443BCC
:102EC00000000000F0EE400A1B4890ED040A30EECE
:102ED000C00A1A4890ED001AB4EEC10AF1EE10FAD9
:102EE0000ADD154890ED040A144890ED001A30EE02
:102EF000010A80ED000A1AE00F4890ED050A30EE55
:102F0000200A0E4890ED001AB4EEC10AF1EE10FA54
:102F10000AD2094890ED050A084890ED001A31EEF2
:102F2000400A80ED000A02E00448C0ED000A0348B0
:102F300090ED000A70470000140600206800002091
:102F400000B52DED048BB0EE409AF0EE609A83B0A0
:102F500051EC190B00F054F941EC180B18EE100A63
:102F600018EE901A8DED008B002818BF0120084341
:102F700020F00040C0F17F6000F1E040C00F14D0AD
:102F800019EE101A19EE900A8DED009B002918BF5A
:102F90000121084320F00040C0F17F6000F1E040D3
:102FA000C00F04BF0120FDF7B2F9B0EE480A03B02C
:102FB000F0EE680ABDEC048B00BD000008B54FF4CC
:102FC000A060FEF7B9F900200346532240F2E73132
:102FD00000904FF08040FFF7BBF900214FF0804098
:102FE000FFF793F84FF4E130FFF7E8FA4FF4007081
:102FF0004310114A4FF47A7100901048FDF762FABD
:10300000FEF71EF802200E4908609FED0E0A0846E2
:1030100080ED040A9FED0B0A80ED050A9FED0A0A78
:1030200080ED030A9FED090A80ED0B0A0121880754
:10303000FFF76BF808BD0000000402400064004088
:10304000140600209A99993E000048430000C046AB
:10305000F0B503460D461646002729460A2E03D032
:10306000002008702846F0BD33B9302001F8010B6C
:10307000002008702846F6E7002B03DA2D2001F81F
:10308000010B5B420A4A0DE093FBF2F404B937B13D
:1030900004F1300001F8010B04FB123301270A2070
:1030A00092FBF0F2002AEFDC002008702846DAE7F5
:1030B00040420F0010B5FFF781FF13E09FED0A0AB1
:1030C0000A4880ED0B0A40F6B8310948FFF714F9B9
:1030D0009FED080A054880ED0B0A40F6B831044818
:1030E000FFF70AF9EAE700000000C04614060020D6
:1030F000000400400000C0C64FEA41034FEA5353AA
:10310000A3F58063D3F11E03C8BFD3F1210C0CDDFE
:103110004FF0004242EAC12242EA505232FA03FC26
:103120008CEAE17CACEBE1707047102BC4BF00204F
:10313000704703F5787CBCF1FF3F04D06FF000428C
:1031400082EA2100704770B500F005F849922480AA
:1031500000207047F2E70EF1020E2EF0030E5EF82B
:10316000046B364205D4012A43EB030515F5001F15
:1031700012D8012841EB010C1CF5001F0CD80ED110
:103180004FEAD17C15F5001F0CEB4C0C0CF1020C36
:1031900008BF4CEBD37C04E04FF0080C01E04FEA91
:1031A000D37C0CEB4C0526FA05F606F00706B6F1C3
:1031B000040C06D20EEB860CBDE870404CF0010CFE
:1031C0006047DFE80CF0090B02024FF000414FF0BE
:1031D0000000A1F5002170BD19461046012851EBF1
:1031E000010418BFD4F5001484BF002001F0004191
:1031F00070BD0808A0F500114FEA310170470000CA
:103200002DE9F04101F5801CBCF5001FC0F2A9803A
:103210004FEA115C21EA0C510CF1FD0C41F48011D4
:103220005FEA5C0C0CF5C07C01D34000494130A43E
:10323000890241EA905187028E0E0A0CA45D04FBBC
:1032400004F602FB06F6C6F14046A4FB0662F60D44
:1032500046EA422606FB06F4A4FB01235242C3F1D0
:10326000404338BF5B1EA6FB02420024E6FB03245A
:10327000D20B42EA4446A6FB0623A1FB02E2A3FBD3
:1032800007E4E3FB61426442C2F1404E38BFAEF155
:10329000010EA6FB04234FF00002E6FB0E32A2FB58
:1032A00003463400E2FB6264A1FB06E6A4FB07E8E8
:1032B000E4FB61687642C8F1405838BFA8F10108C4
:1032C000A2FB06E4A3FB08E5E2FB6854A1FB05E6CC
:1032D000A7FB04E8E1FB648618F1200556F100061F
:1032E000A809A8F11B08B10908F03F08B8F10A0FB6
:1032F00040EA86601CD901EB0C51BDE8F08100BFAB
:10330000FCF5EEE8E2DDD8D3CFCBC7C3C0BDB9B67C
:10331000B4B1AEACA9A7A5A3A19F9D9B9A98969581
:103320009392908F8D8C8B89888786858483828108
:10333000A0FB006800FB01F208EB4208B8EB87280D
:1033400007D5341858EB0104D5D5401C51F10001C4
:10335000D1E7341A78EB0104CDD4401E71F100019D
:10336000C9E75FEA4C0C5FEA9C5C0DD105D34FF0D6
:10337000000001F00041BDE8F081BDE8F04170B50A
:10338000FFF7E9FE6DDBFFBEBDE8F0414FF0000046
:10339000004970470000F87F43004FEAD30C4FEA22
:1033A0003C0C43401FBF40070CF1605113F0FE4F2F
:1033B00070471CF0006F03D100200CF000417047F3
:1033C0000CF0004343EA507010B540EACC0000F026
:1033D0000EF800BF000000924FEA0001FFF709BF9E
:1033E0004FF000414FF00000A1F5002170470EF1B1
:1033F000020E2EF0030E5EF8044B244204D44FEA72
:103400004102B2F17F4F11D84FEA4003B3F17F4F31
:103410000CD80ED14FEAD07CB2F17F4F0CEB4C0CA4
:103420000CF1020C08BF4CEBD17C04E04FF0080C0F
:1034300001E04FEAD17C0CEB4C0324FA03F404F0D6
:103440000704B4F1040C06D20EEB840CBDE8104066
:103450004CF0010C6047DFE80CF0070802024FF067
:103460000040A0F5800010BD0846420018BFD2F110
:10347000807288BF00F0004010BD4FF04070E1EE58
:10348000100A7047A43400080000002088000000E3
:10349000C40100082C35000888000020D04C000032
:1034A000E001000800000000000000000000000033
:1034B000000000000000000000000000000000000C
:1034C00000000000000000000000000000000000FC
:1034D00001000000000000000000000000000000EB
:1034E00000000000000000000000000000000000DC
:1034F00000000000000000000000000000000000CC
:1035000000000000000000000000000000000000BB
:1035100000000000000000000000000000000000AB
:0C3520000102030401020304060708096D
:040000050800018965
:00000001FF
