:020000040800F2
:10000000605500202902000815160008950F000809
:100010001713000877030008392F000800000000BC
:10002000000000000000000000000000191C000893
:100030005D0D0008000000003F02000841020008BA
:10004000430200084302000843020008430200087C
:10005000430200084302000843020008430200086C
:10006000430200084302000843020008430200085C
:100070004302000843020008E50B000843020008A1
:10008000430200084302000843020008430200083C
:100090007D0300084302000843020008610D0008C8
:1000A00043020008952000084302000843020008AC
:1000B000B1200008CD200008E92000084302000814
:1000C00043020008430200084302000843020008FC
:1000D0004302000843020008430200084D280008BC
:1000E00043020008430200084302000843020008DC
:1000F00021210008430200084302000843020008CF
:1001000043020008430200080521000843020008DA
:1001100043020008F12600084302000843020008D9
:10012000430200084302000843020008430200089B
:10013000430200084302000843020008430200088B
:10014000C1040008430200084302000843020008FB
:10015000430200084302000843020008430200086B
:10016000430200084302000843020008430200085B
:10017000430200084302000843020008430200084B
:10018000430200084302000800F002F800F03CF8C7
:100190000AA090E8000C82448344AAF10107DA45E2
:1001A00001D100F031F8AFF2090EBAE80F0013F0F8
:1001B000010F18BFFB1A43F0010318477C2F000002
:1001C0009C2F0000103A24BF78C878C1FAD8520793
:1001D00024BF30C830C144BF04680C6070470000C1
:1001E0000023002400250026103A28BF78C1FBD840
:1001F000520728BF30C148BF0B6070471FB502F0DF
:1002000095FF1FBD10B510BD00F07CF81146FFF73B
:10021000F5FF02F031FF00F09AF803B4FFF7F2FFA8
:1002200003BC00F09DF800000948804709480047DA
:10023000FEE7FEE7FEE7FEE7FEE7FEE7FEE7FEE796
:10024000FEE7FEE704480549054A064B70470000F3
:100250002D20000889010008600F00206055002053
:10026000605100206051002040EA010370B59B07F7
:100270002ED14FF00136042A2AD308C810C99D1B7D
:100280009D43121F15EAC61517D0D8B2E1B2401A25
:1002900050EA056110D198B2A1B2401A50EA054166
:1002A0000AD123F07F4024F07F41401A50EA052113
:1002B00002D1180EA0EB146070BDA342DBD018BAB7
:1002C00021BA884201D9012070BD4FF0FF3070BDC6
:1002D0000AB9002070BD10F8013B11F8014B63B161
:1002E000A3420AD1521E08D010F8013B11F8014B6D
:1002F0001BB1A34201D1521EEDD1181B70BD704736
:1003000070477047754600F031F8AE460500694603
:10031000534620F00700854618B020B5FFF792FF3E
:10032000BDE820404FF000064FF000074FF00008F6
:100330004FF0000B21F00701AC46ACE8C009ACE877
:10034000C009ACE8C009ACE8C0098D46704710B5DB
:100350000446AFF300802046BDE81040FFF75DBFC4
:1003600001491820ABBEFEE7260002000048704796
:10037000FC0E0020704700BFFEE7000010B586B0FD
:10038000002400200390082304AA03A9444800F095
:10039000E8FA002005E004A9095C01AA1154411CF7
:1003A000C8B20828F7DB40F20121039888421BD02D
:1003B000491C0398884217D0491C0398884213D0DF
:1003C0000398B0F5017F0FD0891C039888420BD0A9
:1003D000491C0398884207D0491C0398884203D0DF
:1003E0000398B0F5027F2DD10398401EC4B29DF84A
:1003F00005009DF8041000EB012004EB8401294A5C
:1004000042F821009DF80600000200B29DF8071096
:10041000084404EB840102EB8101C8609DF80900E7
:100420009DF8081000EB012000B204EB840102EB00
:10043000810108829DF80A0040B204EB840102EBBE
:10044000810188741849164800F0E8F91649491CDA
:10045000134800F0E3F91449C91C114800F0DEF913
:1004600012490F4800F0DAF911490D4800F0D6F9A9
:1004700010490B4800F0D2F90E490831084800F045
:10048000CDF90D49064800F0C9F90C49044800F0BF
:10049000C5F90A490831024800F0C0F906B010BD9C
:1004A00000640040E00D00200100F0107000F0300A
:1004B000030000120800003203000014080000349A
:1004C00010B586B000200390082304AA03A9C348EE
:1004D00000F047FA002005E004A9095C01AA1154C4
:1004E000411CC8B20828F7DB002445E104EB840076
:1004F000BB4901EB8000007A032800D13FE1C4EB47
:100500008410B84901EB8000D0F8F80000F5407085
:10051000039988427DD145F250420198811A904258
:1005200078D01ADC44F64D72A0EB0201904228D03C
:100530000BDCA0F58040A0F5A87000286BD0A0F2DD
:10054000F110E8B3032867D174E0B1F5837F6FD071
:10055000A1F203310029F6D199E0A34A881A914209
:1005600067D007DCB1F5FD7F16D0A048084400280D
:10057000E9D1A8E0A0F2077000287BD00628E2D1DC
:10058000B7E00298012803D1204601F009F802E003
:10059000204600F0FBFFC0E09DED020AB8EEC00A65
:1005A000DFED930A80EE201AC4EB84108D4901EB35
:1005B000800080ED071AC4EB841001EB800000E09E
:1005C00015E090ED091AF0EE410AC4EB841001EB3E
:1005D000800090ED071AB0EE410A00F089FEC4EBEE
:1005E0008410804901EB800080ED070A95E09DEDC5
:1005F000020AB8EEC00ADFED7F0A80EE201AC4EBD3
:100600008410784901EB800080ED0B1AC4EB841054
:1006100003E083E051E02EE07EE001EB800090ED0E
:100620000B0AC4EB841001EB800080ED170A74E024
:1006300010E055E09DED020AB8EEC00ADFED6D0A4C
:1006400080EE201AC4EB8410664901EB800080ED37
:100650000C1A62E09DED020AB8EEC00ADFED640AF2
:1006600080EE201AC4EB84105E4901EB800080ED1F
:10067000161A52E046E09DED020AB8EEC00AC4EB3D
:100680008410584901EB800080ED130A45E0C4EB6B
:100690008410544901EB800090ED120AF8EEC00A74
:1006A0009DED020AB8EEC00A30EE800AC4EB841059
:1006B00001EB800080ED130A2FE02046DDE90112F6
:1006C00001F0D8F829E0202000F080FA38B14A483B
:1006D000C4EB8411434A02EB8101C1F8F4001CE031
:1006E0004648C4EB84113F4A02EB8101C1F8F40093
:1006F00013E04348C4EB84113A4A02EB8101C1F88C
:10070000F4000AE03E48801FC4EB8411354A02EB36
:100710008101C1F8F40000E000BF2CE00398B0F5BF
:10072000407F28D1354949420198084428B1A0F2B8
:100730000770A0B106281CD108E03048C4EB841132
:10074000284A02EB8101C1F8F40013E02C48C4EB05
:100750008411244A02EB8101C1F8F4000AE0284820
:10076000801FC4EB84111F4A02EB8101C1F8F40021
:1007700000E000BF00BF641C082CFFF6B7AE00BF4E
:100780002049164800F04AF81E49491C134800F059
:1007900045F81C49C91C114800F040F81A490F4897
:1007A00000F03CF819490D4800F038F818490B489A
:1007B00000F034F816490831084800F02FF81549C0
:1007C000064800F02BF81449044800F027F81249B5
:1007D0000831024800F022F806B010BD0068004061
:1007E000E00D0020F0050020F9FCFF3F0E0D00C0D9
:1007F00000007A44002474494247004049510040B7
:10080000565800400100F0107000F0300300001254
:1008100008000032030000140800003400220C4BD2
:10082000994202D10023836111E0C1F3130201F068
:1008300000730BB1C2600AE001F080630BB102618A
:1008400005E001F000630BB1826000E04260704798
:100850007000F0300246002019B9D36803F003009D
:1008600006E0012903D1136903F0030000E0002032
:10087000704710B500F5D87303EB01131B6803F044
:1008800004031372137A53B900F5D87303EB011301
:100890001B6840F2FF7404EA5353136009E000F54B
:1008A000D87303EB01131B686FF0604404EAD303B1
:1008B000536000F5D87303EB01131B6803F00203C8
:1008C000537200F5D87303EB01135B6803F00F0359
:1008D000937200F5D87303EB01135B681B0AD374A2
:1008E00000F5D87303EB01139B68D37200F5D8733E
:1008F00003EB01139B681C0A147300F5D87303EB18
:1009000001139B681C0C547300F5D87303EB01139F
:100910009B681B0E937300F5D87303EB0113DB6820
:10092000D37300F5D87303EB0113DB681C0A14744E
:1009300000F5D87303EB0113DB681C0C547400F54D
:10094000D87303EB0113DB681B0E937421B9C368E2
:1009500043F02003C36003E0036943F02003036115
:1009600010BD2DE9F04186B080460D4616461F4663
:10097000002400214046FFF76DFF18B9002006B0A3
:10098000BDE8F08101AA00214046FFF772FF002474
:1009900005E00DF10F00005D3055601CC4B2BC4293
:1009A000F7DB019828600120E9E710B50246002036
:1009B000936803F08063B3F1806F00D110E0936817
:1009C00003F00063B3F1006F01D1012008E09368E8
:1009D00003F08053B3F1805F01D1022000E00420D6
:1009E000042874D002F5C07303EB00131B6803F0F6
:1009F000010402F5C07303EB00131C600B7A7BB992
:100A00004B7A0C8843EA445302F5C07404EB00149B
:100A10002468234302F5C07404EB0014236010E043
:100A20000B7A4C6843EAC4034C7A234302F5C07442
:100A300004EB00142468234302F5C07404EB001493
:100A400023608B7A03F00F038B7202F5C07303EB04
:100A500000135B6823F00F0402F5C07303EB00136F
:100A60005C6002F5C07303EB00135B688C7A234370
:100A700002F5C07404EB001463608B7B1C064B7B97
:100A800044EA03440B7B44EA0323CC7A234302F574
:100A9000C07404EB0014A3608B7C1C064B7C44EAFE
:100AA00003440B7C44EA0323CC7B234302F5C0744C
:100AB00004EB0014E36002F5C07303EB00131B6842
:100AC00043F0010402F5C07303EB00131C6010BD7A
:100AD00010B50246002321B1012907D002290FD108
:100AE00009E090681D4C00EA04030BE090681C4C80
:100AF00000EA040306E090681A4C00EA040301E0EF
:100B0000002300BF00BF184C181BA34216D007DCFF
:100B100083B16FF08060184470B1022818D111E0E1
:100B2000B0F5007F10D0114C204448B1B0F5003F23
:100B30000ED10BE002230DE000230BE0002309E0BF
:100B4000002307E0012305E0012303E0012301E086
:100B5000002300BF00BFD8B210BD00000300000496
:100B60000003000800000310000100080001FFF767
:100B700010B50022D1E900341A1B0B684B60E82441
:100B8000235803EBD374B2EB640F02DDE8231B5848
:100B9000D21AE824235803EBD374641064429442BD
:100BA00002DDE8231B581A44836C1344836491EDDF
:100BB000030AB8EEC00ADFED040A20EE200A80ED39
:100BC000060A90ED060A10BD63CF0B3E01460448AD
:100BD000D0F88800084008B1012070470020FCE7E9
:100BE000F005002010B50949094800F039F860B156
:100BF0000021074800F028F80449054800F00AF8E9
:100C00004FF4AF61024800F0A7F810BD0080001853
:100C1000586002400246094B9A4201D2084801E05E
:100C20000648103801F000531BB1064B0B40C3605F
:100C300002E0044B0B4083607047000010640240E8
:100C4000006002407D0F7D0F21B1026842F0010279
:100C5000026003E0026822F00102026070470000B7
:100C600070B50246002000240025124EB24201D287
:100C7000114B01E00F4B103B104E0E4036B11E26BB
:100C800006EAD124166806EA040502E0566906F071
:100C9000800501F000560EB15C6800E01C68084E4B
:100CA000344004EA010616B10DB1012000E0002035
:100CB00070BD000010640240006002403C0F3C0F19
:100CC0007D0F7D0F10B501F080034BB122B1436958
:100CD00043F08003436103E0436923F080034361F1
:100CE00080290BD02AB1036801F01E04234303605E
:100CF00004E0036801F01E04A343036010BD00007C
:100D000010B500220268134B1A40CC680B682343CD
:100D10004C6923438C692343CC6923430C6A2343E6
:100D20004C6A23438C6A23434C6B23438C6B2343D1
:100D30001A430260426922F00702D1E90B342343CF
:100D40001A4342610B6943604B6883608B68C360E0
:100D500010BD00003F801CF04160704770470000EC
:100D600010B501200B490860802000F015F8202004
:100D700000F018F8402000F015F8802000F012F87C
:100D80004FF4807000F00EF84FF4007000F00AF895
:100D900010BD0000000000200149086070470000FD
:100DA000143C01400149086070470000143C0140B8
:100DB000002006490860091D0860091D0860091D1A
:100DC000086003480149143108607047003C014045
:100DD000FFFF7F00002123498279002A3AD00A468A
:100DE000126803689A430B461A600A1D126803686A
:100DF0009A430B1D1A60027911440A6803681A436A
:100E00000A60184A0832126803689A43154B08337F
:100E10001A601A1D126803689A43124B0C331A6049
:100E20004279102A0ED11A1F126803681A430D4B1B
:100E300008331A601A1D126803681A43094B0C33F1
:100E40001A600DE00749427911440A6803681A43A1
:100E50000A6005E0027911440A6803689A430A604F
:100E600070470000003C01400EB50121880300F0EE
:100E7000FDFD8020019000208DF8080008208DF8ED
:100E8000090001208DF80A0001A8FFF7A3FF072140
:100E9000022000F0C3FE17208DF8000001208DF81D
:100EA000030000208DF8010001208DF80200684643
:100EB00000F0B2FB0EBDF0B50A460021002300246D
:100EC00000BF3DE0012505FA01F3156805EA0304BA
:100ED0009C4234D105684F000326BE40B5430560EF
:100EE00015794E00B5400668354305601579012D2A
:100EF00002D01579022D16D185684F000326BE4019
:100F0000B543856055794E00B540866835438560A8
:100F1000456801268E40B5434560456896798E4008
:100F2000B6B235434560C5684F000326BE40B543A1
:100F3000C560D5794E00B540C6683543C560491CCB
:100F40001029BFD3F0BDF0B5002300244D07ED0EEE
:100F500002FA05F3CE1000F1200555F826504E0791
:100F6000F70E0F26BE40B543CF1000F1200646F81D
:100F70002750CE1000F1200555F8265045EA03040D
:100F8000CE1000F1200545F82640F0BD41837047A2
:100F90000183704700BFFEE700B5024692ED2F0ABD
:100FA00082ED080A02F1180001F0C8FFF0EE401AC5
:100FB00092ED300AF0EE400AB0EE610A00F098F9C6
:100FC00082ED330A92ED060AB0EEC00AF0EE000A96
:100FD000B4EEE00AF1EE10FA05D8C8208058401CA3
:100FE000C821885002E00021C8208150C8208058C4
:100FF000B0F5FA7F29DB0020906492ED120AB8EE7A
:10100000C00ADFED120A30EE200A82ED130A9FEDCE
:10101000100A82ED330A9FED0E0A82ED070A9FED5A
:101020000C0A82ED080A9FED0A0A82ED100A9FED74
:10103000080A82ED030A9FED060A82ED330A9FED4E
:10104000040A82ED0F0A0520106000BD0000004672
:101050000000000010B580201549087010211548C7
:10106000FFF794FF00BF1348006820F44040114987
:1010700008600846006840F40040086000BF0C4962
:10108000087800F077FD00BF0A48006820F440406F
:101090000849086008460068086000BF002000F0AA
:1010A00069FD0549088010210248FFF771FF10BD56
:1010B000F00E0020000002403800002010B5602033
:1010C0001E49087003204870E82088701C20C870F2
:1010D00010211B48FFF75AFF00BF1948006820F491
:1010E0004040174908600846006840F40040086026
:1010F00000BF1249087800F03DFD1049487800F023
:1011000039FD0E49887800F035FD0C49C87800F0AB
:1011100031FD00BF0A48006820F4404008490860DB
:1011200008460068086000BF002000F023FD054964
:10113000088010210248FFF72BFF10BDF00E0020A1
:10114000000002403800002070B510214548FFF72C
:101150001DFF00BF4348006820F44040414908603B
:101160000846006840F40040086000BF36203E4951
:101170000870087800F0FEFC00BF3A48006820F4D0
:1011800040403849086008460068086000BF0020F9
:1011900000F0F0FC3549088010213248FFF7F8FED6
:1011A0003248028832A1334801F028FE012132483A
:1011B00001F0BEF810212B48FFF7E8FE46202A492F
:1011C000087000BF2748006820F4404025490860A7
:1011D0000846006840F40040086000BF22490878D3
:1011E00000F0C8FC00BF1F48006820F440401D49C3
:1011F000086008460068086000BF002000F0BAFCE4
:10120000C5B2002409E0002000F0B4FC1B490855D9
:101210000121194801F08CF8641C042CF3DB102127
:101220001048FFF7B5FE00BF0E48006820F44040AC
:101230000C4908600846006840F40040086000BFA0
:101240000E48C178807801EB002083B20B484178CA
:10125000007801EB002082B209A1064801F0CEFD22
:1012600070BD000000000240F00E00203800002099
:101270002564090000480040000400403A000020B6
:1012800025640925640D0A0010B52620154908704B
:1012900010211548FFF77AFE00BF1348006820F4BC
:1012A0004040114908600846006840F4004008606A
:1012B00000BF0C49087800F05DFC00BF0A480068D8
:1012C00020F440400849086008460068086000BFF4
:1012D000002000F04FFC0549088010210248FFF76C
:1012E00057FE10BDF00E0020000002403800002024
:1012F000B4EEE00AF1EE10FA01DDB0EE600AB1EEF4
:10130000601AB4EEC10AF1EE10FA03D2B1EE601A1F
:10131000B0EE410A704700BFFEE7000070B501F073
:1013200087F801F07BF8934908610024D4E004EBCE
:101330008400914901EB8000007A032800D1CEE0BF
:1013400004EB84028C4B03EB8201C4EB8412894BC7
:1013500003EB8200FFF70CFCC4EB8410854901EB22
:101360008000007A012808D09FED840AC4EB841025
:1013700001EB800080ED030AADE0C4EB84107D49F1
:1013800051F82000022836D0052804D006284CD079
:1013900007287CD15EE0C4EB8411764A02EB810120
:1013A00001F1480000F000FAC4EB8410714901EB30
:1013B000800090ED1B0AC4EB841001EB800080EDEF
:1013C000070AC4EB84116B4A02EB810101F118009A
:1013D00001F0ECFDC4EB8411664A02EB810101F1DE
:1013E000180001F0ABFDC4EB8410624901EB8000F2
:1013F00080ED030A6DE0C4EB84115E4A02EB8101CB
:1014000001F1180001F0D2FDC4EB8411594A02EB3E
:10141000810101F1180001F091FDC4EB84105549E0
:1014200001EB800080ED030A53E0C4EB8411514AC4
:1014300002EB8100FFF7B0FDC4EB84104D4901EBD6
:10144000800090ED330AC4EB841001EB800080ED46
:10145000030A3EE0C4EB8413464D05EB830303F11E
:101460001802C4EB841305EB830303F14801C4EBBA
:10147000841305EB830303F1700000F013F9C4EB50
:101480008410294601EB800090ED240A00E01FE063
:10149000C4EB841001EB800080ED070AC4EB8411DB
:1014A0002A4602EB810101F1180001F07FFDC4EB37
:1014B00084112A4602EB810101F1180001F03EFD82
:1014C000C4EB8410294601EB800080ED030A00E0A4
:1014D00000BF00BF00BF641C082CFFF628AF00BF90
:1014E000002041E000EB8001234A02EB8101097AF0
:1014F000012914D1C0EB80111E4A02EB810191ED4C
:10150000030ADFED1F0A20EE200AF3EE040A80EE44
:10151000201A1C4901EB800181ED001A23E000EB49
:101520008001154A02EB8101097A022914D1C0EB2E
:101530008011104A02EB810191ED030ADFED120ADE
:1015400020EE200AF2EE040A80EE201A0D4901EB8B
:10155000800181ED001A06E09FED080A094901EBC0
:10156000800181ED000A401C0428BBDB054800F027
:1015700075FB70BDF0050020E00D002000000000AC
:1015800000008046D00D002000401C460021C0EB2A
:101590008012024B03EB820211727047F0050020AB
:1015A000C0EB8011194A52F8211005290DD1C0EB6A
:1015B000801102EB810191ED120AB8EEC00AC0EB76
:1015C000801102EB810181ED130AC0EB80110F4AFB
:1015D00052F82110022907D19FED0D0AC0EB8011AE
:1015E00002EB810181ED070A9FED090AC0EB801132
:1015F000064A02EB810181ED0F0A0121C0EB801246
:10160000024B03EB8202117270470000F0050020CC
:101610000000000000BFFEE770B5002100230F228C
:10162000C4781CB3174C246804F4E064C4F5E06487
:10163000C4F30721C1F10404E3B20A4144789C4099
:10164000E1B28478144021430C07210E0E4C05783A
:101650006155047804F01F050124AC4005786D1134
:10166000AD0005F1E025C5F8004109E0047804F07B
:101670001F050124AC40054D0678761145F826403B
:1016800070BD00000CED00E000E400E080E100E04F
:1016900002490143024A1160704700000000FA0548
:1016A0000CED00E070B504460D4616464020FFF7ED
:1016B0008DFA00285BD094F83000E17B884256DA3E
:1016C000607B217B884242DA94F83010206850F821
:1016D0002110024694F83000401E52F82000081AEB
:1016E000217B90FBF1F000EE100AB8EEC00A84ED09
:1016F000090A607B401C607394F83010206850F831
:1017000021002968401A00EE100AB8EEC00A2248EB
:1017100080ED000A90ED000A2048D0ED000A20EE8E
:10172000200A1D48D0ED000A1D4890ED001A70EE09
:10173000C10A1C4890ED001A00EE810A84ED090AE6
:10174000154890ED000A164880ED000A0FE094F865
:101750003000401C84F830000020607394F83000A2
:10176000E17B884203D16FF0400000F0D1FA00F035
:10177000F5F894ED091AD4ED0A1A31EE211AB0EEFB
:10178000410A94ED0B1AF0EE410AFFF7B1FD84ED2A
:10179000080A94ED080A70BD2800002020000020EF
:1017A0002C0000202400002000B59FED300AF0EE50
:1017B000401A9FED2E0AB0EE402AB7EE000AF0EE76
:1017C000402AD0ED010A90ED000AB8EEC00A30EED2
:1017D000C00A80ED020A90ED020AD0ED070A20EE61
:1017E000200AD0ED020A90ED031A70EEC10A90EDC6
:1017F000081A01EE200AF0EE401A90ED020A80ED80
:10180000030A90ED020AB5EEC00AF1EE10FA03D217
:10181000BFEE000AF0EE402A90ED050ADFED140A53
:1018200020EE200A20EE220AD0ED020A60EE200A05
:10183000B1EEE00A20EE220AB0EE402AB0EEC20A73
:10184000F0EEE10AB4EEE00AF1EE10FA01D2F0EEA9
:10185000421A90ED040AF0EE400AB0EE610AFFF77A
:1018600047FD80ED090A90ED090A00BD0000000067
:101870003333B33F37B504461820FFF7A7F910B943
:1018800001203349087032480078012802D002282C
:101890005BD114E0012000F03BFA082000F038FA98
:1018A0002C480299C0F884100220294908706FF072
:1018B000080000F02DFA102000F02AFA46E0019806
:1018C00000F0304000283FD001980001029940EA22
:1018D00021712048806F204A127840F822101E485B
:1018E0000078401C1C4908701A48D0F88400097818
:1018F00088420ED9029840F31B011648806F164AA1
:10190000127840F8221014480078401C12490870E0
:101910001AE000200E4908700F4908706FF010009F
:1019200000F0F6F9202000F0F3F96FF0010000F06C
:10193000EFF9022000F0ECF90648D0F88410C0F866
:1019400080100021C0F8841000E000BF00BF3EBD41
:1019500030000020F00500203100002010B54020AC
:10196000FFF734F900285CD10420FFF72FF990B37A
:1019700000200DE02B49496F51F82010294A126FC1
:1019800042F8201000222749496F41F82020401CCE
:101990002449D1F884108142ECD82248D0F8800044
:1019A000010E204880F87F10D0F88000010C1D48FF
:1019B00080F87E10B0F88000010A1A4880F87C1088
:1019C0000021C0F88010402000F0A2F96FF0040060
:1019D00000F09EF925E0FFE7124890F87E0001280C
:1019E00009D1402000F094F900210E4880F8A010A1
:1019F00080F87D1015E00B4890F87E0088B109480A
:101A000090F87E0002280CD19FED070A054880ED72
:101A1000250A9FED050A80ED260A9FED030A80ED59
:101A2000240A10BDF00500200000000029B1064A7C
:101A300012680243044B1A6004E0034A12688243AE
:101A4000014B1A60704700003038024029B1064A45
:101A500012680243044B1A6004E0034A126882438E
:101A6000014B1A60704700004038024029B1064A15
:101A700012680243044B1A6004E0034A126882436E
:101A8000014B1A607047000044380240F0B5002155
:101A900000220024022500260223324F3F6807F06F
:101AA0000C0121B1042905D0082937D105E02E4FBA
:101AB000076036E02D4F076033E02A4F3F1F3F6835
:101AC000C7F38056274F3F1F3F6807F03F036EB1B3
:101AD000264FB7FBF3F7DFF88CC0ACF1040CDCF851
:101AE00000C0CCF3881C07FB0CF40CE01E4FB7FBC6
:101AF000F3F7DFF870C0ACF1040CDCF800C0CCF3F5
:101B0000881C07FB0CF4174F3F1F3F68C7F30147C2
:101B10007F1C7D00B4FBF5F7076002E0124F076001
:101B200000BF00BF0F4F3F6807F0F0010909104FD9
:101B30007A5C0768D74047600A4F3F6807F4E05176
:101B4000890A0B4F7A5C4768D7408760054F3F682A
:101B500007F46041490B064F7A5C4768D740C7607D
:101B6000F0BD0000083802400024F40000127A00A2
:101B70005400002010B5044600BF0221094800F0BF
:101B80001FF80028F9D02146064800F025F800BFCC
:101B90000121044800F014F80028F9D0014800F0B1
:101BA00018F810BD0030014021B1028842F0400217
:101BB000028004E002884FF6BF731A40028070472B
:101BC0000246002013890B400BB1012000E00020E9
:101BD00070470146888970478181704710B500229F
:101BE000028802F441520B884C8823438C8823439B
:101BF000CC8823430C8923434C8923438C8923437A
:101C0000CC8923431A430280838B4FF2FF74234015
:101C100083830B8A038210BD7047000030B5002219
:101C20008B071C0F0F2303FA04F20B4B8C1053F895
:101C300024309343084C8D1044F8253023468C10F3
:101C400053F824308C07240F00FA04F42343024C89
:101C50008D1044F8253030BD0838014030B587B0CC
:101C6000054600200090019000BF0BE005EB8001CD
:101C700091ED000ABDEEC00A10EE101A09B22DF85F
:101C80001010401C0428F1DB4FF400700290039008
:101C900000208DF810008DF8110008208DF812003A
:101CA000BDF80000000A8DF81300BDF80000C1B2B5
:101CB0008DF81410BDF80200010A8DF81510BDF85A
:101CC0000200C1B28DF81610BDF80400010A8DF8AB
:101CD0001710BDF80400C1B28DF81810BDF8060049
:101CE000010A8DF81910BDF80600C1B28DF81A105E
:101CF00002A90648FEF759FE044600BF21460348E4
:101D0000FEF7E6FE0128F9D107B030BD00640040BF
:101D1000012827D017DC10F1090F62D009DC10F17F
:101D2000810F70D010F1210F6ED010F1110F21D161
:101D30006BE010F1050F42D010F1030F2DD010F120
:101D4000020F17D117E0102854D006DC02281BD050
:101D500004282BD008280DD13AE020285ED0802816
:101D600008D16DE04049D1F8881041F001023E49A8
:101D7000C1F8882076E03C49D1F8881021F00102B2
:101D80003949C1F888206DE03749D1F8881041F011
:101D900001023549C1F8882064E03349D1F8881040
:101DA00021F001023049C1F888205BE02E49D1F8CA
:101DB000881041F001022C49C1F8882052E02A49DC
:101DC000D1F8881021F001022749C1F8882049E0A4
:101DD0002549D1F8881041F008022349C1F888202C
:101DE00040E02149D1F8881021F008021E49C1F8CD
:101DF000882037E01C49D1F8881041F010021A49B8
:101E0000C1F888202EE024E011E01749D1F88810AD
:101E100021F010021449C1F8882023E01249D1F8BA
:101E2000881041F020021049C1F888201AE00E49BC
:101E3000D1F8881021F020020B49C1F8882011E068
:101E40000949D1F8881041F080020749C1F888207B
:101E500008E00549D1F8881021F080020249C1F854
:101E6000882000BF00BF7047F00500200CB500209F
:101E7000019000903448006840F480303249086096
:101E800000BF3148006800F4003000900198401C09
:101E90000190009818B90198B0F5A06FF1D12A48C7
:101EA000006800F4003010B10120009001E0002033
:101EB00000900098012846D123484030006840F047
:101EC00080502149403108602048006840F480403B
:101ED0001E4908601C48083000681B49083108602A
:101EE0000846006840F4004008600846006840F476
:101EF000A05008601648091F0860081F006840F0DD
:101F00008070091F086000BF0F48006800F0007073
:101F10000028F9D040F205600E4908600A480830F0
:101F2000006820F00300084908310860084600688E
:101F300040F00200086000BF03480830006800F06D
:101F40000C000828F8D10CBD003802400070004099
:101F500008544007003C024000B587B00121084604
:101F6000FFF764FD01210803FFF780FDE0200590E5
:101F700002208DF8180000208DF81A0003208DF83B
:101F8000190001208DF81B0005A92648FEF793FFD4
:101F9000052211462348FEF7D6FF052206212148D7
:101FA000FEF7D1FF052207211E48FEF7CCFF1020C7
:101FB000059001208DF8180000208DF81A000320EC
:101FC0008DF8190001208DF81B0005A91548FEF7B2
:101FD00072FF10211348FEF7DBFF4FF48270ADF85B
:101FE00002000020ADF80000ADF804002820ADF894
:101FF0000C000020ADF80E000220ADF80600012014
:10200000ADF808004002ADF80A000720ADF8100056
:1020100069460548FFF7E2FD01210348FFF7C4FDCB
:1020200007B000BD000002400030014010B5154867
:10203000006840F47000134908601348006840F0DD
:1020400001001149086000200F49083108600E485E
:1020500000680E4908400C4908600D48091D0860D9
:10206000081F006820F48020091F0860002006492E
:102070000C310860FFF7FAFE4FF00060014980392B
:10208000086010BD88ED00E000380240FFFFF6FE5A
:102090001030002410B50121044800F05AF901283D
:1020A00003D10121014800F049F810BD00000140B2
:1020B00010B50121880700F04CF9012805D1012154
:1020C000800700F03BF8FFF729F910BD10B501219A
:1020D000044800F03EF9012803D10121014800F035
:1020E0002DF810BD0004004010B50121044800F097
:1020F00030F9012803D10121014800F01FF810BD7B
:102100000008004010B50121044800F022F9012820
:1021100003D10121014800F011F810BD000C00406E
:1021200010B50121044800F014F9012803D1012160
:10213000014800F003F810BD00040140CA430282C8
:10214000704721B1028842F00102028004E0028857
:102150004FF6FE731A40028070470000FEB5044639
:102160000D46002600200090019002906D49601AF3
:102170008C426FD01ADC6C49A4EB01008C4274D005
:102180000ADCB4F1804F53D068482044002858D06E
:10219000B0F5806F72D15FE0B0F5806F71D0B0F5AF
:1021A000006F77D0B0F5406FF4D17DE0B0F5923F8D
:1021B00023D009DCB0F5806F75D0B0F5644F0AD03C
:1021C000B0F5684F5AD10FE0B0F5943F1ED0B0F58E
:1021D000963F53D123E001210846FFF747FC44F224
:1021E000A010ADF800007BE001210220FFF73EFCCB
:1021F00044F2A010ADF8000072E001210804FFF7DE
:1022000035FC44F2A010ADF8000069E0012148045B
:10221000FFF72CFC44F2A010ADF8000060E00121B3
:102220008804FFF723FC44F2A010ADF8000057E04B
:1022300001210846FFF70AFC42F2D000ADF8000089
:102240004EE001210220FFF701FC42F2D000ADF880
:10225000000045E031E008E001210420FFF7F6FB33
:1022600042F2D000ADF800003AE001210820FFF76B
:10227000EDFB42F2D000ADF8000031E02FE000E0CD
:1022800008E001211020FFF7E1FB42F2D000ADF899
:10229000000025E001212020FFF7D8FB42F2D0000A
:1022A000ADF800001CE011E001214020FFF7CEFB5B
:1022B00042F2D000ADF8000012E001218020FFF7CB
:1022C000C5FB42F2D000ADF8000009E00121080290
:1022D000FFF7BCFB42F2D000ADF8000000E000BF09
:1022E00000BF4FF6FF7001900020ADF80800ADF878
:1022F00002006946204600F03FF801212046FFF722
:1023000020FF0021204600F035F803E0204600F0D1
:102310001DF886B2AE42F9DB00212046FFF711FF1F
:10232000FEBD0000001C0040000C004000FCFFBF90
:1023300070B506460C46002500BF04E00A21304671
:10234000FFF70CFF6D1CA542F8D370BD0146486A2B
:10235000704730B50246002000230024158A05EAA4
:102360000103958905EA010413B10CB1012000E0D5
:10237000002030BD4162704700220288184B98420D
:102380000ED0184B98420BD0B0F1804F08D0164BAE
:10239000984205D0154B984202D0154B984204D173
:1023A0004FF68F731A404B881A43124B984207D04E
:1023B000114B984204D04FF6FF431A400B891A4341
:1023C00002804B68C3620B880385054B984202D09C
:1023D000044B984201D18B7A038601238382704794
:1023E00000000140000401400004004000080040DB
:1023F000000C0040001000400014004010B500F038
:102400001BF805490860084690ED000AB8EEC00ABE
:1024100080ED040A10BD0000800E00200348016812
:10242000C81701EB9070801070470000800E0020EC
:1024300010B5FFF7E3FF10BD38B500240020009071
:10244000694648F2214000F007F80446BDF8000054
:10245000C0F30E0038BD000070B505460C461021D3
:10246000A148FEF793FD00BF00BF00BF00BF00BF43
:1024700000BF00BF00BF00BF00BF00BF00BF00BF64
:1024800000BF00BF00BF00BF00BF00BF00BF00BF54
:1024900000BF00BF00BF00BF00BF00BF00BF00BF44
:1024A00000BF00BF00BF00BF00BF00BF00BF00BF34
:1024B00000BF00BF00BF00BF00BF00BF00BF00BF24
:1024C00000BF00BF00BF00BF00BF00BF00BF00BF14
:1024D00000BF00BF00BF00BF00BF00BF00BF00BF04
:1024E00000BF00BF00BF00BF00BF00BF00BF00BFF4
:1024F00000BF00BF00BF00BF00BF00BF00BF00BFE4
:1025000000BF00BF00BF00BF00BF00BF00BF00BFD3
:1025100000BF00BF00BF00BF00BF00BF00BF00BFC3
:1025200000BF00BF00BF00BF00BF00BF00BF00BFB3
:1025300000BF00BF00BF00BF00BF00BF00BF00BFA3
:1025400000BF00BF00BF00BF00BF00BF00BF00BF93
:1025500000BF00BF00BF00BF00BF00BF00BF00BF83
:1025600000BF00BF00BF00BF00BF00BF00BF00BF73
:1025700000BF00BF00BF00BF00BF00BF00BF00BF63
:1025800000BF00BF00BF00BF00BF00BF00BF00BF53
:1025900000BF00BF00BF00BF00BF00BF00BF00BF43
:1025A00000BF00BF00BF00BF00BF00BF00BF00BF33
:1025B00000BF00BF00BF00BF00BF10214A48FEF7A8
:1025C000E7FC00BF00BF00BF00BF00BF00BF00BFEF
:1025D00000BF00BF00BF00BF00BF00BF00BF00BF03
:1025E00000BF00BF00BF00BF00BF00BF00BF00BFF3
:1025F00000BF00BF00BF00BF00BF00BF00BF00BFE3
:1026000000BF00BF00BF00BF00BF00BF00BF00BFD2
:1026100000BF00BF00BF00BF00BF00BF00BF00BFC2
:1026200000BF00BF00BF00BF00BF00BF00BF00BFB2
:1026300000BF00BF00BF00BF00BF00BF00BF00BFA2
:1026400000BF00BF00BF00BF00BF00BF00BF00BF92
:1026500000BF00BF00BF00BF00BF00BF00BF00BF82
:1026600000BF00BF00BF00BF00BF00BF00BF00BF72
:1026700000BF00BF00BF00BF00BF00BF00BF00BF62
:1026800000BF00BF00BF00BF00BF10211648FEF70B
:102690007DFC2846FFF76EFA00BF1348006820F45F
:1026A00040401149086008460068086000BF28469D
:1026B000FFF760FA20802846FFF75CFA0B49088094
:1026C00010210948FEF764FC00BF0748006820F4A9
:1026D0004040054908600846006840F40040086032
:1026E00000BF0248008870BD000002403800002092
:1026F00010B540F22551054800F0C6FA012804D172
:1027000040F22551014800F08EFA10BD0050004003
:1027100010B596B0044601210420FFF787F9012186
:102720008804FFF793F901214805FFF77FF9072295
:102730000A214248FEF707FC07220B213F48FEF71B
:1027400002FC4FF44060149002208DF854008DF884
:10275000550000208DF8560001208DF8570014A96F
:102760003648FEF7A8FB10940020ADF84400ADF801
:102770004600ADF84800ADF84C000C20ADF84A001A
:1027800010A92F4800F0D0FA01212D4800F05AFA84
:10279000012280212A4800F061FA012240F22551ED
:1027A000274800F09BFA4FF0006000902448001D7D
:1027B000019024480290402003904FF4AF600490B1
:1027C000002005904FF4806006900020079008904C
:1027D00009904FF400300A9000200B9001200C90DB
:1027E00000200D900E9069461748FEF789FA0121E6
:1027F0001548FEF729FA012210211348FEF762FA64
:102800000E208DF83C0002208DF83D008DF83E0032
:1028100001208DF83F000FA8FEF7FEFE27208DF85F
:102820003C0000208DF83D0001208DF83E008DF821
:102830003F000FA8FEF7F0FE16B010BD00080240E2
:1028400000480040640000205860024010B540F28B
:1028500025510A4800F018FA01280ED140F22551FE
:10286000064800F0E0F9054800F04BFB0449087009
:1028700008460178014800F005F810BD0048004006
:102880000C00002070B505460C46202C08D0AD4841
:10289000AD4909684454AC480068401CAA49086026
:1028A000A9480068401EA749085C0A280BD0A64822
:1028B0000068401E085C0D2805D0A3480068401E33
:1028C000085C3B287DD1A0480068012803D1002086
:1028D0009D4908602CE19B4880783D2872D1994839
:1028E000C0782D281ED14FF0FF3098490860042091
:1028F0000BE09449095C964A126802EB820201EBF4
:1029000042013039924A1160401C8F490968491EC2
:102910008142EEDC8D4800688D49096848438C4946
:10292000086012E003200BE08649095C884A1268BF
:1029300002EB820201EB42013039854A1160401CF2
:1029400081490968491E8142EEDC022281A17D484D
:10295000FDF78AFCD0B97E4890ED000AB8EEC00AB7
:10296000DFED7D0A20EE200A7C4880ED070A90ED1D
:10297000070ADFED7B0A20EE200ABDEEC00A10EE4A
:10298000102A78A1284600F039FAD1E0022278A175
:102990006C48FDF769FCE8B96D4890ED000AB8EEA7
:1029A000C00ADFED740A80EE201A6C4880ED0B1A25
:1029B00090ED0B0ADFED6F0A20EE200ABDEEC00A93
:1029C00001E0BDE082E010EE102A6BA1284600F085
:1029D00015FAADE002226BA15A48FDF745FCD0B9CB
:1029E0005B4890ED000AB8EEC00ADFED620A80EEA7
:1029F000201A5A4880ED0C1A90ED0C0ADFED5D0AA2
:102A000020EE200ABDEEC00A10EE102A5EA1284674
:102A100000F0F4F98CE002225EA14A48FDF724FCA4
:102A2000D0B94B4890ED000AB8EEC00ADFED4A0A73
:102A300020EE200A494880ED070A90ED070ADFEDF5
:102A4000480A20EE200ABDEEC00A10EE102A52A15C
:102A5000284600F0D3F96BE0022252A13948FDF775
:102A600003FC90B93A4890ED000AB8EEC00A3B4822
:102A700080ED130A90ED130ABDEEC00A10EE102A85
:102A800049A1284600F0BAF952E0022249A12D4896
:102A9000FDF7EAFBA8B9314890ED120AF8EEC00A3A
:102AA0002B4890ED000AB8EEC00A30EE800A2B48A1
:102AB00080ED130A26483CA10268284600F09EF9E2
:102AC00036E03DA1284600F099F931E0022240A10C
:102AD0001C48FDF7C9FB78B9204890ED060ADFEDE8
:102AE000200A20EE200ABDEEC00A10EE102A39A1FD
:102AF000284600F083F91BE0022238A11148FDF7B7
:102B0000B3FB30B9154836A1826C284600F076F93F
:102B10000EE0022234A10B48FDF7A6FB20B933A139
:102B2000284600F06BF903E034A1284600F066F96E
:102B30000020054908600649086001200349086033
:102B400070BD0000DC050020140000201C000020E7
:102B5000180000204A5600006F12833AF00500204A
:102B600000007A444A563D25643B0D0A00000000EF
:102B7000414300000024744941433D25643B0D0A54
:102B8000000000004443000044433D25643B0D0A1F
:102B9000000000005350000053503D25643B0D0AD7
:102BA000000000005041000050413D25643B0D0AEB
:102BB0000000000050520000494E56414C4944204C
:102BC000575249544520434D442121210D0A00000C
:102BD00056580000565825643B0D0A005058000016
:102BE000505825643B0D0A004951000049512069A5
:102BF0006E76616C69640D0A00000000494E564112
:102C00004C4944205245414420434D442121210D4B
:102C10000A00000001F40072B2F5007F00D100BF8D
:102C2000CA430280704710B50022002340F66A14A0
:102C3000A14200D100BF0A1201249440A3B2DC4398
:102C4000048010BD21B1828942F40052828104E0E7
:102C500082894DF6FF731A40828170471AB1838AC8
:102C60000B43838202E0838A8B4383827047024650
:102C70000020B1F5007F00D100BF13880B400BB1DD
:102C8000012000E00020704770B5024600240023B8
:102C90000025002040F66A16B14200D100BFC1F302
:102CA000421501F01F03012606FA03F3012D02D19C
:102CB0009689334006E0022D02D1168A334001E0A6
:102CC000968A33400C12012606FA04F41688344022
:102CD00013B10CB1012000E0002070BDF0B5034637
:102CE000002400260025002040F66A17B94200D1D2
:102CF00000BF1846C1F3421401F01F06012707FA6E
:102D000006F5012C01D10C3004E0022C01D1103069
:102D100000E014301AB107682F43076002E007682B
:102D2000AF430760F0BD00002DE9FF4705460E46A2
:102D30000024A14600BFA046B08900B100BF2C8A84
:102D400024F44054F08804432C82AC8941F20C6096
:102D50008443B08831890843718908430443AC81B6
:102D6000AC8A24F44074B0890443AC826846FEF710
:102D70008DFE2048854202D01F48854202D1DDF8F1
:102D80000C9001E0DDF80890A88900F4004040B103
:102D900009EBC90000EB091031684900B0FBF1F7FD
:102DA00007E009EBC90000EB091031688900B0FBAE
:102DB000F1F76420B7FBF0F004012009642101FB66
:102DC0001078A88900F4004040B1322000EBC80020
:102DD000B0FBF1F000F00700044308E0322000EB04
:102DE00008106421B0FBF1F000F00F0004432C81C7
:102DF000BDE8FF8700100140001401400FB470B51A
:102E000086B006460CA8019073E00B9800785C2809
:102E10001CD10B98401C0B9000786E2809D07228AA
:102E20000FD10D21304600F071F80B98401C0B902B
:102E30000BE00A21304600F069F80B98401C0B901B
:102E400003E00B98401C0B9000BF4BE00B98007800
:102E5000252840D10B98401C0B900078642818D08E
:102E6000732833D1019810C801900BE021783046C7
:102E700000F04CF800BF40213046FFF7F8FE002874
:102E8000F9D0641C20780028F0D10B98401C0B90DE
:102E900020E0019820C801900A2202A9284600F0EB
:102EA000B9F802AC0BE02178304600F02FF800BFF3
:102EB00040213046FFF7DBFE0028F9D0641C207863
:102EC0000028F0D10B98401C0B9003E00B98401C9D
:102ED0000B9000BF06E00B9810F8011B0B903046DA
:102EE00000F014F800BF40213046FFF7C0FE002874
:102EF000F9D00B980078002887D106B070BC5DF837
:102F000014FB01468888C0F30800704730B50446BA
:102F10000D4600BF80212046FFF7A9FE0028F9D00A
:102F200080212046FFF776FE40212046FFF772FE03
:102F3000C5F30800A08030BD00BFFEE700B590EDEE
:102F4000020AD0ED000A30EE600A80ED040A90ED2E
:102F5000090AD0ED080A90ED041A00EE810A80ED0E
:102F6000090A90ED0B1AF0EE410A90ED091AB0EE45
:102F7000410AFEF7BDF980ED090A90ED090AD0ED8E
:102F8000070A90ED041A00EE810A80ED0A0A90ED1E
:102F90000B1AF0EE410A90ED0A1AB0EE410AFEF764
:102FA000A7F980ED0A0A90ED0A0A00BD90ED010A2A
:102FB000D0ED050A30EE600AD0ED020AB4EEE00A68
:102FC000F1EE10FA08DD90ED020AD0ED050A30EEC0
:102FD000200A80ED020A19E090ED010AD0ED060A00
:102FE00030EE200AD0ED020AB4EEE00AF1EE10FA5B
:102FF00008D290ED020AD0ED060A30EE600A80EDAC
:10300000020A03E090ED010A80ED020A90ED020A47
:1030100070470000F0B503460D46164600272946C6
:103020000A2E03D0002008702846F0BD33B93020A6
:1030300001F8010B002008702846F6E7002B03DAA0
:103040002D2001F8010B5B420A4A0DE093FBF2F4DC
:1030500004B937B104F1300001F8010B04FB12335D
:1030600001270A2092FBF0F2002AEFDC0020087012
:103070002846DAE740420F0010B54FF4A060FEF793
:1030800007FBFEF769FF4FF46120FFF741FB642166
:103090001F48FFF74DF9FEF711F838E01D480068AA
:1030A00010B1012829D115E0FEF74EF81A48006842
:1030B000B0F5FA7F0DDD012016490860FDF7D4FE5A
:1030C00003211348FFF734F9002014490860FEF784
:1030D000DBF812E000201049086010480068012861
:1030E0000AD100200B4908600DA10F48FFF786FEAA
:1030F000FDF7B0FFFDF75CFE00BF00BF06480068AB
:10310000401C0549086001210148FFF711F9C5E796
:1031100000040040080000200400002000000020FF
:10312000496E0D0A00000000004800404FF040705A
:10313000E1EE100A7047000058310008000000203E
:1031400064000000C4010008BC31000864000020D5
:10315000FC540000E0010008000000000000000036
:10316000000000000000000000000000000000005F
:1031700000000000010000000AD7233C3333B33EB7
:10318000000000000000000001000000000000003E
:10319000000000000000000000000000000000002F
:1031A000000000000000000000000000000000001F
:0C31B000010203040102030406070809E1
:040000050800018965
:00000001FF
