:020000040800F2
:100000009862002069020008DD1D0008BF19000881
:10001000AF1A0008070400088D4100080000000026
:10002000000000000000000000000000112A00088D
:1000300015160008000000007F0200088102000879
:10004000830200088302000883020008830200087C
:10005000830200088302000883020008830200086C
:10006000830200088302000883020008830200085C
:1000700083020008830200089D1400088302000820
:10008000830200088302000883020008830200083C
:100090000D040008830200088302000883020008A0
:1000A00083020008ED300008830200088302000884
:1000B0000931000825310008413100088302000899
:1000C00083020008830200088302000883020008FC
:1000D0008302000883020008830200087D3A0008BA
:1000E00083020008830200088302000883020008DC
:1000F00079310008830200088302000883020008A7
:1001000083020008830200085D31000883020008B2
:1001100083020008213900088302000883020008D6
:10012000830200088302000883020008830200089B
:10013000830200088302000883020008830200088B
:1001400051050008830200088302000883020008AA
:10015000830200088302000883020008830200086B
:10016000830200088302000883020008830200085B
:10017000830200088302000883020008830200084B
:10018000830200088302000800F002F800F05CF827
:100190000AA090E8000C82448344AAF10107DA45E2
:1001A00001D100F051F8AFF2090EBAE80F0013F0D8
:1001B000010F18BFFB1A43F0010318475842000013
:1001C000784200000A444FF0000C10F8013B13F095
:1001D000070408BF10F8014B1D1108BF10F8015BA0
:1001E000641E05D010F8016B641E01F8016BF9D193
:1001F00013F0080F1EBF10F8014BAD1C0C1B09D1EA
:100200006D1E58BF01F801CBFAD505E014F8016B5B
:1002100001F8016B6D1EF9D59142D6D370470000ED
:100220000023002400250026103A28BF78C1FBD8FF
:10023000520728BF30C148BF0B6070471FB504F09C
:10024000E3F81FBD10B510BD00F0A3F81146FFF78D
:10025000F5FF04F0CDF800F0C1F803B4FFF7F2FFAA
:1002600003BC00F0C5F80000094880470948004772
:10027000FEE7FEE7FEE7FEE7FEE7FEE7FEE7FEE756
:10028000FEE7FEE704480549054A064B70470000B3
:100290008530000889010008981C00209862002021
:1002A000985E0020985E002040EA010370B59B072D
:1002B0002ED14FF00136042A2AD308C810C99D1B3D
:1002C0009D43121F15EAC61517D0D8B2E1B2401AE5
:1002D00050EA056110D198B2A1B2401A50EA054126
:1002E0000AD123F07F4024F07F41401A50EA0521D3
:1002F00002D1180EA0EB146070BDA342DBD018BA77
:1003000021BA884201D9012070BD4FF0FF3070BD85
:100310000AB9002070BD10F8013B11F8014B63B120
:10032000A3420AD1521E08D010F8013B11F8014B2C
:100330001BB1A34201D1521EEDD1181B70BD4FF06D
:10034000000200B5134694469646203922BFA0E825
:100350000C50A0E80C50B1F12001BFF4F7AF090731
:1003600028BFA0E80C5048BF0CC05DF804EB890022
:1003700028BF40F8042B08BF704748BF20F8022B65
:1003800011F0804F18BF00F8012B7047704770477D
:100390007047754600F032F8AE4605006946534690
:1003A00020F00700854618B020B5FFF76BFFBDE8C9
:1003B00020404FF000064FF000074FF000084FF0CC
:1003C000000B21F00701AC46ACE8C009ACE8C0095D
:1003D000ACE8C009ACE8C0098D46704710B50446CA
:1003E000AFF300802046BDE81040FFF736BF0000A5
:1003F00001491820ABBEFEE7260002000048704706
:10040000341C0020704700BFFEE7000010B586B026
:10041000002400200390082304AA03A9444800F004
:10042000BFFE002005E004A9095C01AA1154411C8B
:10043000C8B20828F7DB40F20121039888421BD09C
:10044000491C0398884217D0491C0398884213D04E
:100450000398B0F5017F0FD0891C039888420BD018
:10046000491C0398884207D0491C0398884203D04E
:100470000398B0F5027F2DD10398401EC4B29DF8B9
:1004800005009DF8041000EB012004EB8401294ACB
:1004900042F821009DF80600000200B29DF8071006
:1004A000084404EB840102EB8101C8609DF8090057
:1004B0009DF8081000EB012000B204EB840102EB70
:1004C000810108829DF80A0040B204EB840102EB2E
:1004D000810188741849164800F0B4FA1649491C7D
:1004E000134800F0AFFA1449C91C114800F0AAFAE9
:1004F00012490F4800F0A6FA11490D4800F0A2FA7F
:1005000010490B4800F09EFA0E490831084800F0E7
:1005100099FA0D49064800F095FA0C49044800F094
:1005200091FA0A490831024800F08CFA06B010BD71
:1005300000640040301B00200100F0107000F0301B
:100540000300001208000032030000140800003409
:1005500010B586B000200390082304AA03A9CE4852
:1005600000F01EFE002005E004A9095C01AA115458
:10057000411CC8B20828F7DB00245BE104EB8400CF
:10058000C64901EB8000007A032800D155E1C4EB95
:100590008410C34901EBC000D0F8F40100F54070AD
:1005A0000399884275D1E0B2102100F067FF00285E
:1005B00070D145F250420198811A90426BD01ADCFA
:1005C00044F64D72A0EB020190422CD00BDCA0F55A
:1005D0008040A0F5A87000287AD0A0F2F110E8B30E
:1005E000032876D178E0B1F5837F73D0A1F203318F
:1005F0000029F6D19EE0AB4A881A91426BD00BDC01
:10060000B1F5FD7F1AD0A8480844002874D0A0F6A0
:1006100007200028E5D1B2E0A0F2035000286CD0FA
:100620000628DED1B4E00298012803D1204601F06B
:100630009BFB02E0204601F08DFBC6E09DED020A27
:10064000B8EEC00ADFED990A80EE201AC4EB8410E0
:10065000934901EBC00080ED071A00E01CE0C4EBF9
:10066000841001EBC00090ED091AF0EE410AC4EBD2
:10067000841001EBC00090ED071AB0EE410A01F0C2
:1006800003FAC4EB8410864901EBC00080ED070A31
:100690009BE0A1E09AE063E09DED020AB8EEC00A9B
:1006A000DFED830A80EE201AC4EB84107C4901EB55
:1006B000C00080ED0B1AC4EB841001EBC00090ED7C
:1006C0000B0AC4EB841001EBC00080ED170A7CE03C
:1006D00024E079E012E06EE09DED020AB8EEC00A77
:1006E000DFED730A80EE201AC4EB84106C4901EB35
:1006F000C00080ED0C1A68E037E052E09DED020A80
:10070000B8EEC00ADFED690A80EE201AC4EB84104F
:10071000634901EBC00080ED161A56E09DED020A18
:10072000B8EEC00AC4EB84105D4901EBC00080ED57
:10073000130A4AE0C4EB8410594901EBC00090ED64
:10074000120AF8EEC00A9DED020AB8EEC00A30EEB9
:10075000800AC4EB841001EBC00080ED130A34E082
:10076000E0B2082102F0B0F92FE0E0B2102100F071
:1007700085FE18B9E0B2202102F0A6F925E04D4827
:10078000C4EB8411464A02EBC101C1F8F0011CE040
:100790004948C4EB8411424A02EBC101C1F8F0019F
:1007A00013E04548801FC4EB84113D4A02EBC101B0
:1007B000C1F8F00109E04148C4EB8411384A02EB6A
:1007C000C101C1F8F00100E000BF00BFE0B2DDE907
:1007D000011201F013FD2CE00398B0F5407F28D101
:1007E000344949420198084428B1A0F20770A0B1E9
:1007F00006281CD108E02F48C4EB8411284A02EBDC
:10080000C101C1F8F00113E02B48C4EB8411244A64
:1008100002EBC101C1F8F0010AE02748801FC4EBD8
:1008200084111F4A02EBC101C1F8F00100E000BFD2
:1008300000BF641C082CFFF6A1AE00BF204916487B
:1008400000F000F91E49491C134800F0FBF81C4950
:10085000C91C114800F0F6F81A490F4800F0F2F8E8
:1008600019490D4800F0EEF818490B4800F0EAF875
:1008700016490831084800F0E5F81549064800F027
:10088000E1F81449044800F0DDF812490831024843
:1008900000F0D8F806B010BD00680040301B002002
:1008A000280B0020FDFEFF3F0E0D00C000007A4423
:1008B0000024744949510040565800404D530040AF
:1008C0000100F0107000F030030000120800003248
:1008D00003000014080000341CB50024A2E004EB5F
:1008E0008400534901EB8000007A032800D19CE08A
:1008F000C4EB84104F4901EBC0004F4AD0F8F0110F
:10090000881A91427FD009DC71B14C480844002814
:1009100078D0A0F60720002879D12CE0A0F203506F
:10092000E8B3062873D100E072E045F65600009067
:10093000C4EB84103F4901EBC00090ED060ADFEDE7
:10094000400A20EE200ABDEEC00A8DED010AC4EB7C
:100950008411384A02EBC101D1F8F401DDE900123B
:1009600000F064FD0020C4EB8411324A02EBC101A7
:10097000C1F8F0014CE045F24910009004EB84000E
:100980002B4901EB8000B0F9100000EE100AB8EE20
:10099000C00A8DED010AC4EB8411264A00E010E084
:1009A00002EBC101D1F8F401DDE9001200F03EFDD7
:1009B0000020C4EB84111F4A02EBC101C1F8F00111
:1009C00026E045F650000090C4EB8410194901EB75
:1009D000C000806C0190C4EB8411164A02EBC10187
:1009E000D1F8F401DDE9001200F020FD0020C4EB95
:1009F0008411104A02EBC101C1F8F00108E002E0E5
:100A000000E004E004E045F24D30009000E000BF5B
:100A100000BFE0B2202100F031FD10B1E0B201F0E2
:100A200049FE641C082CFFF65AAF00BF1CBD000035
:100A3000301B0020280B00204D530040BEB8FFBFE4
:100A400000007A4400220C4B994202D100238361BA
:100A500011E0C1F3130201F000730BB1C2600AE0B0
:100A600001F080630BB1026105E001F000630BB19E
:100A7000826000E0426070477000F0302DE9F04F76
:100A80008BB006460F4614461D46DDF850804FF0E9
:100A90000009CA46CB46B5F5807F43D012DC102D45
:100AA00034D008DC012D25D0022D26D0042D27D0EE
:100AB000082D4FD127E0202D2BD0402D2CD0802D7C
:100AC00048D12CE0B5F5805F38D009DCB5F5007F62
:100AD0002BD0B5F5806F2BD0B5F5006F3AD12AE059
:100AE000B5F5005F2DD0B5F5804F2DD0B5F5004F91
:100AF00030D12CE04FF000092DE04FF001092AE041
:100B00004FF0020927E04FF0030924E04FF00409F9
:100B100021E04FF005091EE04FF006091BE04FF001
:100B2000070918E04FF0080915E04FF0090912E035
:100B30004FF00A090FE04FF00B090CE04FF00C09E1
:100B400009E04FF00D0906E04FF00E0903E04FF009
:100B50000F0900E000BF00BFB8F5807F4BD01ADC62
:100B6000B8F1100F3BD00CDCB8F1010F2BD0B8F16D
:100B7000020F2BD0B8F1040F2BD0B8F1080F52D1CF
:100B80002AE0B8F1200F2DD0B8F1400F2DD0B8F1E8
:100B9000800F48D12CE0B8F5805F38D009DCB8F57B
:100BA000007F2BD0B8F5806F2BD0B8F5006F3AD10D
:100BB0002AE0B8F5005F2DD0B8F5804F2DD0B8F5FC
:100BC000004F30D12CE04FF0000A2DE04FF0010A29
:100BD0002AE04FF0020A27E04FF0030A24E04FF02A
:100BE000040A21E04FF0050A1EE04FF0060A1BE060
:100BF0004FF0070A18E04FF0080A15E04FF0090A15
:100C000012E04FF00A0A0FE04FF00B0A0CE04FF031
:100C10000C0A09E04FF00D0A06E04FF00E0A03E05F
:100C20004FF00F0A00E000BF00BF7F48304418B10A
:100C3000B0F5806F1AD10CE04FF0090B00208DF851
:100C4000120014208DF804000121480601F0EAFD8D
:100C50000DE04FF0090B0E208DF8120040208DF8AA
:100C600004000121000501F0DDFD00E000BF00BF30
:100C7000C4F3090078BBA012A0F5801080380928C1
:100C800034D2DFE800F0050A0F14191E23292E00C4
:100C90000121084601F0B6FD29E00121022001F002
:100CA000B1FD24E00121042001F0ACFD1FE0012191
:100CB000082001F0A7FD1AE00121102001F0A2FD9B
:100CC00015E00121202001F09DFD10E001214020D0
:100CD00001F098FD0BE009E00121802001F092FD78
:100CE00005E00121080201F08DFD00E000BF00BF1A
:100CF0005A464946204600F03BFE5A465146204699
:100D000000F036FE45EA0800099002208DF8280020
:100D10008DF8290000208DF82A0001208DF82B0085
:100D200009A9204600F0DCFD304600F07FF80020E5
:100D30008DF81E008DF81F008DF820008DF8210021
:100D40008DF822008DF823008DF81A008DF81B0015
:100D50000B208DF81C0007208DF81D007D2F22D060
:100D600008DC0A2F0FD0142F11D0322F13D0642F8C
:100D700029D114E0FA2F1AD0B7F5FA7F1BD0B7F5B6
:100D80007A7F20D11BE0C820ADF818001CE0642059
:100D9000ADF8180018E02820ADF8180014E0142071
:100DA000ADF8180010E01020ADF818000CE0082095
:100DB000ADF8180008E00420ADF8180004E00220A7
:100DC000ADF8180000E000BF00BF06A9304600F0F3
:100DD000D6F800208DF8130001208DF814000020B3
:100DE000ADF80800ADF80A00ADF80C00ADF80E0043
:100DF000ADF8100001208DF8150002A800F032F8BF
:100E000000208DF8050003208DF8060001208DF8E4
:100E1000070001A800F0E4FF01220221304600F0A3
:100E2000A5F80BB0BDE8F08F009CFFBF10B50446DD
:100E30000B48844209D10121480601F003FD00213D
:100E40004FF0007001F0FEFC08E00121880601F07F
:100E5000F9FC00214FF0806001F0F4FC10BD0000AF
:100E60000064004010B50021837A012202FA03F1E8
:100E70003D4A126842F001023B4B1A603A4A1C326A
:100E800012688A43384B1C331A60027BCAB9364A4F
:100E90000C3212688A43344B0C331A604288C38880
:100EA00042EA0343304A4032847A42F834300288BE
:100EB000838842EA03432C4A4032847A02EBC4021C
:100EC0005360027B012A19D1274A0C3212680A4367
:100ED000254B0C331A604288038842EA0343224AB6
:100EE0004032847A42F83430C288838842EA03432D
:100EF0001D4A4032847A02EBC4025360C27A3AB986
:100F0000194A121D12688A43174B1B1D1A6006E00E
:100F1000154A121D12680A43134B1B1D1A600289E1
:100F200032B9114A143212688A430F4B14331A60D3
:100F30000289012A06D10C4A143212680A430A4B6C
:100F400014331A60427B012A06D1074A1C32126808
:100F50000A43054B1C331A60034A126822F001024F
:100F6000014B1A6010BD0000006600401AB14369D1
:100F70000B43436102E043698B434361704730B5E3
:100F8000024600200023146824F002041460146850
:100F900044F00104146000E05B1C546804F0010498
:100FA0001CB94FF6FF74A342F6D1546804F0010453
:100FB0000CB900206CE08C79012C04D1146844F049
:100FC0008004146003E0146824F080041460CC7979
:100FD000012C04D1146844F04004146003E0146848
:100FE00024F0400414600C7A012C04D1146844F0FD
:100FF0002004146003E0146824F0200414604C7A88
:10100000012C04D1146844F01004146003E0146847
:1010100024F0100414608C7A012C04D1146844F07C
:101020000804146003E0146824F008041460CC7A07
:10103000012C04D1146844F00404146003E0146823
:1010400024F0040414608C78A407CD7844EA056485
:101050000D7944EA05444D7944EA05540D886D1E26
:101060002C43D461146824F001041460002300E0D0
:101070005B1C546804F001041CB14FF6FF74A342DA
:10108000F6D1546804F001040CB1002000E0012006
:1010900030BD0246002019B9D36803F0030006E012
:1010A000012903D1136903F0030000E00020704719
:1010B00010B500F5D87303EB01131B6803F00403AC
:1010C0001372137A53B900F5D87303EB01131B683D
:1010D00040F2FF7404EA5353136009E000F5D8733B
:1010E00003EB01131B686FF0604404EAD303536001
:1010F00000F5D87303EB01131B6803F0020353726E
:1011000000F5D87303EB01135B6803F00F039372D0
:1011100000F5D87303EB01135B681B0AD37400F569
:10112000D87303EB01139B68D37200F5D87303EBFC
:1011300001139B681C0A147300F5D87303EB0113A9
:101140009B681C0C547300F5D87303EB01139B6868
:101150001B0E937300F5D87303EB0113DB68D37395
:1011600000F5D87303EB0113DB681C0A147400F557
:10117000D87303EB0113DB681C0C547400F5D873AF
:1011800003EB0113DB681B0E937421B9C36843F0B2
:101190002003C36003E0036943F02003036110BD33
:1011A0002DE9F04186B080460D4616461F460024C4
:1011B00000214046FFF76DFF18B9002006B0BDE8DA
:1011C000F08101AA00214046FFF772FF002405E0EC
:1011D0000DF10F00005D3055601CC4B2BC42F7DB5E
:1011E000019828600120E9E710B5024600209368C5
:1011F00003F08063B3F1806F00D110E0936803F0D7
:101200000063B3F1006F01D1012008E0936803F09F
:101210008053B3F1805F01D1022000E00420042854
:1012200074D002F5C07303EB00131B6803F00104D4
:1012300002F5C07303EB00131C600B7A7BB94B7A89
:101240000C8843EA445302F5C07404EB001424688C
:10125000234302F5C07404EB0014236010E00B7A02
:101260004C6843EAC4034C7A234302F5C07404EB90
:1012700000142468234302F5C07404EB00142360B7
:101280008B7A03F00F038B7202F5C07303EB00132C
:101290005B6823F00F0402F5C07303EB00135C607E
:1012A00002F5C07303EB00135B688C7A234302F5ED
:1012B000C07404EB001463608B7B1C064B7B44EA18
:1012C00003440B7B44EA0323CC7A234302F5C07426
:1012D00004EB0014A3608B7C1C064B7C44EA0344A3
:1012E0000B7C44EA0323CC7B234302F5C07404EB5C
:1012F0000014E36002F5C07303EB00131B6843F0B6
:10130000010402F5C07303EB00131C6010BD000064
:1013100010B50246002321B1012907D002290FD1BF
:1013200009E090681D4C00EA04030BE090681C4C37
:1013300000EA040306E090681A4C00EA040301E0A6
:10134000002300BF00BF184C181BA34216D007DCB7
:1013500083B16FF08060184470B1022818D111E099
:10136000B0F5007F10D0114C204448B1B0F5003FDB
:101370000ED10BE002230DE000230BE0002309E077
:10138000002307E0012305E0012303E0012301E03E
:10139000002300BF00BFD8B210BD0000030000044E
:1013A0000003000800000310000100080001FFF71F
:1013B00010B50A460021D2E90034191B13685360A6
:1013C0004FF4F274235803EBD374B1EB640F03DDD5
:1013D0004FF4F2731B58C91A4FF4F274235803EBFD
:1013E000D374641064428C4203DD4FF4F2731B58D3
:1013F0001944836C0B448364D0ED630A00EE101A29
:10140000B8EEC00A30EE800A80ED630A92ED030A5E
:10141000B8EEC00ADFED040A20EE200A80ED060ACD
:1014200090ED060A10BD000063CF0B3E37B586B0C5
:10143000044604F520700190029000208DF80C0005
:101440008DF80D0008208DF80E00002004E007A99B
:101450000A5C0D390A54401C0828F8DB01A906482B
:10146000FFF7C2FE054600BF29460348FFF750FFBD
:101470000128F9D109B030BD006800400246C2EB36
:101480008210054B03EBC000D0F86C01084008B196
:10149000012070470020FCE7280B002010B5094907
:1014A000094800F039F860B10021074800F028F839
:1014B0000449054800F00AF84FF4AF61024800F013
:1014C000A7F810BD00800018586002400246094B82
:1014D0009A4201D2084801E00648103801F0005352
:1014E0001BB1064B0B40C36002E0044B0B40836012
:1014F0007047000010640240006002407D0F7D0FC5
:1015000021B1026842F00102026003E0026822F0A9
:10151000010202607047000070B5024600200024FE
:101520000025124EB24201D2114B01E00F4B103B8D
:10153000104E0E4036B11E2606EAD124166806EA81
:10154000040502E0566906F0800501F000560EB170
:101550005C6800E01C68084E344004EA010616B1DD
:101560000DB1012000E0002070BD000010640240B9
:10157000006002403C0F3C0F7D0F7D0F10B501F065
:1015800080034BB122B1436943F08003436103E020
:10159000436923F08003436180290BD02AB103689B
:1015A00001F01E042343036004E0036801F01E04FD
:1015B000A343036010BD000010B500220268134B66
:1015C0001A40CC680B6823434C6923438C6923433E
:1015D000CC6923430C6A23434C6A23438C6A23431C
:1015E0004C6B23438C6B23431A430260426922F005
:1015F0000702D1E90B3423431A4342610B6943606C
:101600004B6883608B68C36010BD00003F801CF096
:10161000416070477047000001209F490872012116
:101620009D48017780F83010032180F84410012193
:101630009A48C0F8E4150221C0F8F4110321C0F85B
:10164000EC1300201EE10021C0EB8012934B03EB52
:10165000C20211724FF40052C0EB801103EBC101C2
:10166000C1F8E42100EB80018B4A02EB8101097A89
:1016700001297BD10721C0EB801243F832109FED86
:10168000880AC0EB80111A4602EBC10181ED0D0AF8
:101690009FED840AC0EB801102EBC10181ED0E0ABF
:1016A000B3EE040AC0EB801102EBC10181ED110A17
:1016B0009FED7D0AC0EB801102EBC10181ED090AAB
:1016C0009FED7A0AC0EB801102EBC10181ED1A0A8D
:1016D0009FED770AC0EB801102EBC10181ED190A81
:1016E0009FED740AC0EB801102EBC10181ED6F0A1E
:1016F0009FED710AC0EB801102EBC10181ED0B0A75
:101700009FED6D0AC0EB801102EBC10181ED0C0A67
:101710009FED660AC0EB801102EBC10181ED070A63
:101720009FED620AC0EB801102EBC10181ED130A4B
:10173000C0EB801102EBC10191ED0C0AC0EB8011EE
:1017400002EBC10181ED170A9FED5C0AC0EB80112D
:1017500002EBC10181ED160A9FED590AC0EB801121
:1017600002EBC10181ED6E0A8BE0FFE700EB800127
:10177000494A02EB8101097A02297DD10621C0EB99
:101780008012464B43F832109FED4E0AC0EB801199
:101790001A4602EBC10181ED0D0A9FED4B0AC0EB29
:1017A000801102EBC10181ED0E0AB1EE080AC0EB17
:1017B000801102EBC10181ED110A9FED440AC0EBDB
:1017C000801102EBC10181ED090A9FED3E0AC0EBD9
:1017D000801102EBC10181ED1A0A9FED3D0AC0EBB9
:1017E000801102EBC10181ED190A9FED3A0AC0EBAD
:1017F000801102EBC10181ED6F0A9FED370AC0EB4A
:10180000801102EBC10181ED0B0A9FED330AC0EBA1
:10181000801102EBC10181ED0C0A9FED280AC0EB9B
:10182000801102EBC10181ED070A9FED200AC0EB98
:10183000801102EBC10181ED130AC0EB801102EBB4
:10184000C10191ED0C0ADFED250A20EE200AC0EB64
:10185000801102EBC10181ED170A9FED180AC0EB60
:10186000801102EBC10181ED160A9FED150AC0EB54
:10187000801102EBC10100E002E081ED6E0A00E0A0
:1018800003E0401C0828FFF6DEAE00BF0520034938
:10189000C1F8F00370470000301B0020280B002027
:1018A000CDCCCC3D6F12833A0000A0440000000074
:1018B000AE47E13DCDCC4C3F00803B4500007A4334
:1018C000000020C3CDCC4C3DA69B443B00001645F8
:1018D0001B2FDD3C333333400000C8423333333FEA
:1018E000F0B50A4600210023002400BF3DE0012599
:1018F00005FA01F3156805EA03049C4234D1056832
:101900004F000326BE40B543056015794E00B54033
:101910000668354305601579012D02D01579022D31
:1019200016D185684F000326BE40B54385605579C2
:101930004E00B540866835438560456801268E4077
:10194000B5434560456896798E40B6B235434560EB
:10195000C5684F000326BE40B543C560D5794E002B
:10196000B540C6683543C560491C1029BFD3F0BDDA
:10197000F0B5002300244D07ED0E02FA05F3CE105A
:1019800000F1200555F826504E07F70E0F26BE40F1
:10199000B543CF1000F1200646F82750CE1000F1D5
:1019A000200555F8265045EA0304CE1000F1200525
:1019B00045F82640F0BD418370470183704700BF62
:1019C000FEE7000000B5024692ED6E0A82ED080ABD
:1019D00002F1180002F0DCFBF0EE401A92ED6F0A03
:1019E000F0EE400AB0EE610A00F04EF882ED720AA5
:1019F00092ED060AB0EEC00AF0EE000AB4EEE00A7C
:101A0000F1EE10FA07D84FF4E2708058401C4FF402
:101A1000E271885003E000214FF4E27081504FF4EE
:101A2000E2708058B0F5FA7F29DB0020906492EDD7
:101A3000120AB8EEC00ADFED120A30EE200A82ED7B
:101A4000130A9FED100A82ED720A9FED0E0A82EDD5
:101A5000070A9FED0C0A82ED080A9FED0A0A82ED43
:101A6000100A9FED080A82ED030A9FED060A82ED37
:101A7000720A9FED040A82ED0F0A0520106000BD76
:101A80000000004600000000B4EEE00AF1EE10FA9B
:101A900001DDB0EE600AB1EE601AB4EEC10AF1EEFB
:101AA00010FA03D2B1EE601AB0EE410A704700BFDF
:101AB000FEE7000070B501F0D3FD01F0C7FD9C49C1
:101AC000C1F800040024E5E004EB8400994901EB2F
:101AD0008000007A032800D1DFE004EB8402954BFC
:101AE00003EB8201C4EB8412914B03EBC200FFF7BE
:101AF0005FFCC4EB84108E4901EBC000007A012822
:101B000008D09FED8D0AC4EB841001EBC00080ED7E
:101B1000030ABEE0C4EB8410854951F83000022866
:101B200036D0052804D006285DD0072870D170E093
:101B3000C4EB84117E4A02EBC10101F1480000F0C0
:101B4000F7FAC4EB84107A4901EBC00090ED1B0A50
:101B5000C4EB841001EBC00080ED070AC4EB8411D4
:101B6000734A02EBC10101F1180002F049FBC4EB1A
:101B700084116F4A02EBC10101F1180002F008FB69
:101B8000C4EB84106A4901EBC00080ED030A7EE0DB
:101B9000674890ED080ABDEEC00A10EE103A90EDCD
:101BA000060ABDEEC00A10EE102A64A1654802F0D4
:101BB0003DFAC4EB84115E4A02EBC10101F1180049
:101BC00002F01EFBC4EB8411594A02EBC10101F182
:101BD000180002F0DDFAC4EB8410554901EBC00097
:101BE00080ED030A53E0C4EB8411514A02EBC100BB
:101BF000FFF7E8FEC4EB84104D4901EBC00090ED07
:101C0000720AC4EB841001EBC00080ED030A3EE0D1
:101C10003CE0C4EB8415464E06EBC50505F1180300
:101C2000C4EB841506EBC50505F14802C4EB841529
:101C300006EBC50505F17001E0B200F017F9C4EB41
:101C40008410314601EBC00090ED5D0AC4EB8410B6
:101C500001EBC00080ED070AC4EB8411324602EBB1
:101C6000C10101F1180002F0CBFAC4EB8411324635
:101C700002EBC10101F1180002F08AFAC4EB8410F2
:101C8000314601EBC00080ED030A00E000BF00BF59
:101C900000BF641C082CFFF617AF00BF002041E016
:101CA00000EB8001234A02EB8101097A012914D15A
:101CB000C0EB80111E4A02EBC10191ED030ADFED7A
:101CC000220A20EE200AF3EE040A80EE201A1F49B1
:101CD00001EB800181ED001A23E000EB8001154A41
:101CE00002EB8101097A022914D1C0EB8011104A5C
:101CF00002EBC10191ED030ADFED150A20EE200A87
:101D0000F2EE040A80EE201A104901EB800181ED09
:101D1000001A06E09FED080A0C4901EB800181EDF5
:101D2000000A401C0428BBDB084800F073FE70BDAD
:101D3000280B0020301B002000000000256409252E
:101D4000640D0A000048004000008046E81A0020A8
:101D500000401C460021C0EB8012024B03EBC20284
:101D600011727047280B0020C0EB8011194A52F8FD
:101D7000311005290DD1C0EB801102EBC10191EDAD
:101D8000120AB8EEC00AC0EB801102EBC10181ED6E
:101D9000130AC0EB80110F4A52F83110022907D103
:101DA0009FED0D0AC0EB801102EBC10181ED070A26
:101DB0009FED090AC0EB8011064A02EBC10181EDDB
:101DC0000F0A0121C0EB8012024B03EBC202117219
:101DD00070470000280B00200000000000BFFEE755
:101DE00070B5002100230F22C4781CB3174C24685F
:101DF00004F4E064C4F5E064C4F30721C1F1040411
:101E0000E3B20A4144789C40E1B284781440214313
:101E10000C07210E0E4C05786155047804F01F055F
:101E20000124AC4005786D11AD0005F1E025C5F841
:101E3000004109E0047804F01F050124AC40054D81
:101E40000678761145F8264070BD00000CED00E0E4
:101E500000E400E080E100E002490143024A116031
:101E6000704700000000FA050CED00E0FEB50546E5
:101E70000C4616461F4640212846FFF7FFFA002869
:101E80007DD094F82C0194F8F310884277DA94F816
:101E9000F10094F8F010884272DA94F82C0180B9BD
:101EA00094F82C0154F820003168401A94F8F0108E
:101EB00090FBF1F000EE100AB8EEC00A84ED420A81
:101EC00011E094F82C0154F82010401E54F8200022
:101ED000081A94F8F01090FBF1F000EE100AB8EE3A
:101EE000C00A84ED420ADFED600A604890ED000A06
:101EF000FFF7CAFD5D4880ED000A94F8F100401C30
:101F000084F8F10094F82C0154F820003168401A4C
:101F100000EE100AB8EEC00A554800EB850080EDCF
:101F2000000A534800EB8500D0ED000A4F4890EDC1
:101F3000000A504890ED001A01EE200A4B4880ED4F
:101F4000000A4B4800EB850090ED000A4A4800EB80
:101F50008500D0ED000A20EE200A454800EB850000
:101F6000D0ED000A454800EB850090ED001A70EEB8
:101F7000C10A434800EB850090ED001A01E03DE006
:101F800013E000EE810A3948D0ED000A30EE200A55
:101F900084ED430A364800EB850090ED000A37488F
:101FA00000EB850080ED000A28E094F82C01401C2D
:101FB00084F82C014FF48061284600F085FD002054
:101FC00084F8F10094F82C0194F8F310884209D1B8
:101FD0006FF04001284600F077FD4FF4007128466D
:101FE00000F072FD94F82C1194F8F300401E814229
:101FF00004DB4FF48071284600F066FD284600F0AF
:1020000061FAD5B994ED440ABDEEC00AD7ED000AD5
:10201000FDEEE00A94ED421ABDEEC11A8DED001AF4
:10202000CDED010A8DED020A94F82C0154F8203010
:1020300014A11948326801F0F9FF2146284600F042
:102040002DF894ED421AD4ED431A31EE211AB0EE78
:10205000410A94ED441AF0EE410AFFF715FD84EDB4
:10206000410A94ED410AFEBD5555D5433400002088
:10207000181B00203000002018000020241B002026
:1020800024000020256409256409256409256409C4
:1020900025640D0A000000000048004010B591EDD5
:1020A000470AD1ED450AB4EEE00AF1EE10FA07DD79
:1020B0001C4A52F82020521C1A4B43F820200FE0F3
:1020C00091ED470AD1ED460AB4EEE00AF1EE10FABE
:1020D00006D2144A52F82020521C124B43F82020FA
:1020E000104A52F820201E2A1BDD9FED0F0A81EDB9
:1020F000410A9FED0D0A81ED420A9FED0B0A81ED29
:10210000430A0022C0EB8013084C04EBC3031A728D
:102110009FED050AC0EB8012234603EBC20282ED5D
:10212000030A10BDF81A002000000000280B002050
:1021300000B59FED300AF0EE401A9FED2E0AB0EE8A
:10214000402AB7EE000AF0EE402AD0ED010A90EDE9
:10215000000AB8EEC00A30EEC00A80ED020A90ED27
:10216000020AD0ED070A20EE200AD0ED020A90ED17
:10217000031A70EEC10A90ED081A01EE200AF0EE83
:10218000401A90ED020A80ED030A90ED020AB5EEC6
:10219000C00AF1EE10FA03D2BFEE000AF0EE402AB8
:1021A00090ED050ADFED140A20EE200A20EE220A47
:1021B000D0ED020A60EE200AB1EEE00A20EE220A1B
:1021C000B0EE402AB0EEC20AF0EEE10AB4EEE00A48
:1021D000F1EE10FA01D2F0EE421A90ED040AF0EEA0
:1021E000400AB0EE610AFFF74FFC80ED090A90ED5E
:1021F000090A00BD000000003333B33F37B5044681
:10220000012C7DD1AA480078012802D0022878D17B
:1022100022E008212046FFF731F9E0B16FF40071A8
:10222000204600F051FC0121204600F04DFCC4EB9B
:102230008410A04A02EBC0000299C0F86811022085
:102240009B4908706FF00801204600F03DFC10210A
:10225000204600F039FC7CE010212046FFF70EF903
:10226000054629462046FFF709F9002867D0C4EB48
:102270008410904A02EBC00000F588708E4A1278F4
:10228000019940F822108C480078401C8A49087057
:10229000C4EB8410874901EBC000D0F8680186497F
:1022A0000978B1EB106F10D2C4EB8410814A02EBB5
:1022B000C00000F58870804A1278029940F8221018
:1022C0007D480078401C7C490870C4EB8410794933
:1022D00001EBC000D0F8680177490978B1EB106FC5
:1022E0002DD16FF40061204600F0EEFB6FF010017D
:1022F000204600F0E9FB2021204600F0E5FB01E04C
:1023000028E025E06FF00101204600F0DDFB02210E
:10231000204600F0D9FB6748D0F86013C4EB841066
:10232000644A02EBC000C0F864110021C4EB8410C1
:1023300002EBC000C0F8681100205F49087020213E
:102340002046FFF79BF810B101205949087000E0C2
:1023500000BFACE0002CFCD158480078012802D026
:1023600002287DD122E008212046FFF787F8E0B15E
:102370006FF40071204600F0A7FB0121204600F019
:10238000A3FBC4EB84104B4A02EBC0000299C0F8D7
:1023900068110220494908706FF00801204600F0DA
:1023A00093FB1021204600F08FFB7FE01021204698
:1023B000FFF764F8054629462046FFF75FF8002836
:1023C0006AD0C4EB84103B4A02EBC00000F5887071
:1023D0003B4A1278019940F8221039480078401C95
:1023E00037490870C4EB8410324901EBC000D0F8C3
:1023F000680133490978B1EB106F10D2C4EB841037
:102400002C4A02EBC00000F588702D4A1278029920
:1024100040F822102A480078401C29490870C4EB73
:102420008410244901EBC000D0F8680124490978E0
:10243000B1EB106F30D16FF40061204600F044FB27
:102440006FF01001204600F03FFB2021204600F0F5
:102450003BFB6FF00101204600F036FB022100E05B
:1024600023E0204600F030FBC4EB8410114901EB5F
:10247000C000D0F86811C4EB84100E4A02EBC00013
:10248000C0F864110021C4EB841002EBC000C0F856
:10249000681100200A49087020212046FEF7EEFF4F
:1024A00010B101200549087000E000BF00BF3EBD2B
:1024B00060050020280B0020620500206105002037
:1024C0006305002010B5044640212046FEF7D6FFE4
:1024D000002872D104212046FEF7D0FF00286ED0DC
:1024E000C4EB8410714901EBC000D0F86401010E07
:1024F000C4EB84106D4A02EBC00080F86311C4EB9A
:102500008410114601EBC000D0F86401010CC4EB4B
:10251000841002EBC00080F86211C4EB84101146F5
:1025200001EBC000B0F86401010AC4EB841002EBB7
:10253000C00080F860110021C4EB841002EBC000E1
:10254000C0F86411002018E0C4EB8411574A02EB74
:10255000C101C03151F82020C4EB8411534B03EB6F
:10256000C101703141F820200022C4EB841103EB3B
:10257000C101C03141F82020401CC4EB84114B4AFA
:1025800002EBC10191F863118142DDDC402120465C
:1025900000F09AFA6FF00401204600F095FA6FF40B
:1025A0008071204600F090FA0021C4EB84103F4A6D
:1025B00002EBC00080F89C1172E076E0FFE7C4EB0C
:1025C00084103A4901EBC00090F86201012812D151
:1025D0004021204600F078FA0021C4EB8410334AF1
:1025E00002EBC00080F89C11C4EB841002EBC00029
:1025F00080F8611154E0C4EB84102C4901EBC00059
:1026000090F86201F0B3C4EB841001EBC00090F8C5
:102610006201022844D19FED260AC4EB841001EB2D
:10262000C00080ED5E0AC4EB841001EBC000703086
:10263000C4EB84111D4A02EBC10191F86311491EDC
:1026400050F82100C4EB841102EBC101896C401ADF
:1026500000EE100AB8EEC00AC4EB8410114601EB7C
:10266000C000D0ED640AB1EE001A60EE810A20EEDF
:10267000200AC4EB841001EBC00080ED5F0A9FEDDF
:102680000C0A00E00CE0C4EB841001EBC00080ED0C
:102690005D0A0021C4EB841002EBC00080F89C119D
:1026A0006FF48071204600F00FFA10BD280B002057
:1026B0000000000010B5044602212046FEF7DEFEB1
:1026C000A0B300201AE0C4EB8411194A02EBC10147
:1026D00001F5887151F82020C4EB8411144B03EBF1
:1026E000C101C03141F820200022C4EB841103EB6A
:1026F000C10101F5887141F82020401CC4EB841110
:102700000B4A02EBC101D1F86411B0EB116FDAD3BF
:102710006FF02001204600F0D7F96FF0020120464B
:1027200000F0D2F90421204600F0CEF910BD0000DF
:10273000280B002010B54FF498712A48FDF7FFFDD3
:1027400000202849703988649FED270A084680EDEB
:10275000600A002180F89C1180F863119FED230A24
:1027600080ED640A9FED220A80ED650A9FED210A43
:1027700080ED660A9FED1F0A80ED070A9FED1E0A95
:1027800080ED610A9FED1D0A80ED620A4FF4987199
:1027900000F51A70FDF7D3FD002112487038C0F81B
:1027A00040129FED110A80EDDE0A80F8941380F844
:1027B0005B139FED0E0A80EDE20A9FED0D0A80ED9E
:1027C000E30A9FED0C0A80EDE40A9FED0A0A80ED12
:1027D000850A9FED090A80EDDF0A9FED090A80ED69
:1027E000E00A10BD980B00200000A0440AD7233C4B
:1027F0003333B33E0000000000409C450080BBC75F
:10280000000000C829B1064A12680243044B1A604E
:1028100004E0034A12688243014B1A6070470000CB
:102820003038024029B1064A12680243044B1A604C
:1028300004E0034A12688243014B1A6070470000AB
:102840004038024029B1064A12680243044B1A601C
:1028500004E0034A12688243014B1A60704700008B
:102860002038024029B1064A12680243044B1A601C
:1028700004E0034A12688243014B1A60704700006B
:1028800044380240F0B50021002200240225002631
:102890000223324F3F6807F00C0121B1042905D013
:1028A000082937D105E02E4F076036E02D4F07602D
:1028B00033E02A4F3F1F3F68C7F38056274F3F1F23
:1028C0003F6807F03F036EB1264FB7FBF3F7DFF821
:1028D0008CC0ACF1040CDCF800C0CCF3881C07FB06
:1028E0000CF40CE01E4FB7FBF3F7DFF870C0ACF14F
:1028F000040CDCF800C0CCF3881C07FB0CF4174F69
:102900003F1F3F68C7F301477F1C7D00B4FBF5F70D
:10291000076002E0124F076000BF00BF0F4F3F6823
:1029200007F0F0010909104F7A5C0768D74047604B
:102930000A4F3F6807F4E051890A0B4F7A5C4768F9
:10294000D7408760054F3F6807F46041490B064F49
:102950007A5C4768D740C760F0BD00000838024085
:102960000024F40000127A008C05002010B5044603
:1029700000BF0221094800F01FF80028F9D02146C5
:10298000064800F025F800BF0121044800F014F8C3
:102990000028F9D0014800F018F810BD00300140BF
:1029A00021B1028842F04002028004E002884FF622
:1029B000BF731A40028070470246002013890B4003
:1029C0000BB1012000E00020704701468889704764
:1029D0008181704710B50022028802F441520B88B1
:1029E0004C8823438C882343CC8823430C8923437E
:1029F0004C8923438C892343CC8923431A43028087
:102A0000838B4FF2FF74234083830B8A038210BDB4
:102A10007047000030B587B0054600200090019057
:102A200000BF0BE005EB800191ED000ABDEEC00A8E
:102A300010EE101A09B22DF81010401C0428F1DB1A
:102A40004FF400700290039000208DF810008DF874
:102A5000110008208DF81200BDF80000000A8DF862
:102A60001300BDF80000C1B28DF81410BDF80200CB
:102A7000010A8DF81510BDF80200C1B28DF81610CC
:102A8000BDF80400010A8DF81710BDF80400C1B2AA
:102A90008DF81810BDF80600010A8DF81910BDF860
:102AA0000600C1B28DF81A1002A90648FEF79CFB79
:102AB000044600BF21460348FEF72AFC0128F9D14D
:102AC00007B030BD0064004010B501294FD02DDCA7
:102AD00011F1210F7ED017DC6FF48073A1EB03029C
:102AE000994278D009DC12F5E06F75D012F5407F7D
:102AF00073D012F5807F4AD167E111F1810F6DD05B
:102B000011F1410FF7D13EE111F1050F67D006DC5D
:102B100011F1110F75D011F1090FECD1ABE011F1EA
:102B2000030F5DD011F1020FE5D131E0402969D0EA
:102B30000CDC082967D004DC02293AD00429DAD158
:102B400062E0102971D02029D5D1C7E0B1F5007F0E
:102B50006CD005DC80296AD0B1F5807FCBD145E10E
:102B6000B1F5806F75D0B1F5006FC4D182E1C0EBD3
:102B70008012D24B03EBC202D2F86C2142F0010367
:102B8000C0EB8012CD4C04EBC202C2F86C3193E171
:102B9000C0EB8012C94B03EBC202D2F86C2122F0C9
:102BA0000103C0EB8012C54C04EBC202C2F86C31C9
:102BB00082E1C0EB8012C14B03EBC202D2F86C2160
:102BC00042F00203C0EB8012BC4C04EBC202C2F81C
:102BD0006C3171E193E01AE15DE13AE1B1E027E0A7
:102BE000C0EB8012B54B03EBC202D2F86C2122F08D
:102BF0000203C0EB8012B14C04EBC202C2F86C318C
:102C00005AE15AE0AEE025E0C0EB8012AB4B03EB9B
:102C1000C202D2F86C2142F00403C0EB8012A74C30
:102C200004EBC202C2F86C3146E135E0BCE077E06B
:102C3000C0EB8012A14B03EBC202D2F86C2122F050
:102C40000403C0EB80129D4C04EBC202C2F86C314D
:102C500032E1EDE0C0EB8012984B03EBC202D2F8F8
:102C60006C2142F00803C0EB8012944C04EBC202CA
:102C7000C2F86C3120E1C0EB8012904B03EBC20232
:102C8000D2F86C2122F00803C0EB80128B4C04EBCD
:102C9000C202C2F86C310FE1C0EB8012874B03EB2C
:102CA000C202D2F86C2142F01003C0EB8012834CB8
:102CB00004EBC202C2F86C31FEE0C0EB80127F4B25
:102CC00003EBC202D2F86C2122F01003C0EB801299
:102CD0007A4C04EBC202C2F86C31EDE0C0EB80121A
:102CE000764B03EBC202D2F86C2142F02003C0EB1A
:102CF0008012724C04EBC202C2F86C31DCE0C0EB13
:102D000080126E4B03EBC202D2F86C2122F020033A
:102D1000C0EB8012694C04EBC202C2F86C31CBE00C
:102D2000C0EB8012654B03EBC202D2F86C2142F07B
:102D30008003C0EB8012614C04EBC202C2F86C311C
:102D4000BAE0C0EB80125D4B03EBC202D2F86C21FB
:102D500022F08003C0EB8012584C04EBC202C2F890
:102D60006C31A9E0C0EB8012544B03EBC202D2F8E5
:102D70006C2142F04003C0EB8012504C04EBC202C5
:102D8000C2F86C3198E0C0EB80124C4B03EBC202EE
:102D9000D2F86C2122F04003C0EB8012474C04EBC8
:102DA000C202C2F86C3187E0C0EB8012434B03EBE8
:102DB000C202D2F86C2142F40073C0EB80123F4C87
:102DC00004EBC202C2F86C3176E0C0EB80123B4BE0
:102DD00003EBC202D2F86C2122F40073C0EB801224
:102DE000364C04EBC202C2F86C3165E0C0EB8012D5
:102DF000324B03EBC202D2F86C2142F48073C0EB79
:102E000080122E4C04EBC202C2F86C3154E0C0EBCD
:102E100080122A4B03EBC202D2F86C2122F4807399
:102E2000C0EB8012254C04EBC202C2F86C3143E0C7
:102E3000C0EB8012214B03EBC202D2F86C2142F4AA
:102E40008063C0EB80121D4C04EBC202C2F86C31EF
:102E500032E0C0EB8012194B03EBC202D2F86C21B6
:102E600022F48063C0EB8012144C04EBC202C2F85F
:102E70006C3121E0C0EB8012104B03EBC202D2F8A0
:102E80006C2142F40063C0EB80120C4C04EBC202D4
:102E9000C2F86C3110E0C0EB8012084B03EBC202A9
:102EA000D2F86C2122F40063C0EB8012034C04EBD7
:102EB000C202C2F86C3100BF00BF10BD280B002059
:102EC0000CB50020019000903448006840F4803038
:102ED0003249086000BF3148006800F400300090BB
:102EE0000198401C0190009818B90198B0F5A06FA6
:102EF000F1D12A48006800F4003010B101200090A0
:102F000001E0002000900098012846D1234840307D
:102F1000006840F080502149403108602048006836
:102F200040F480401E4908601C48083000681B4976
:102F3000083108600846006840F400400860084610
:102F4000006840F4A05008601648091F0860081F78
:102F5000006840F08070091F086000BF0F480068DB
:102F600000F000700028F9D040F205600E490860BA
:102F70000A480830006820F003000849083108605A
:102F80000846006840F00200086000BF03480830AF
:102F9000006800F00C000828F8D10CBD0038024091
:102FA0000070004008544007003C024000B587B064
:102FB00001210846FFF726FC01210803FFF752FC18
:102FC000E020059002208DF8180000208DF81A00EE
:102FD00003208DF8190001208DF81B0005A9274852
:102FE000FEF77EFC052211462448FEF7C1FC0522AF
:102FF00006212248FEF7BCFC052207211F48FEF7E8
:10300000B7FC1020059001208DF8180000208DF8E5
:103010001A0003208DF8190001208DF81B0005A966
:103020001648FEF75DFC10211448FEF7C6FC4FF46D
:103030008270ADF802000020ADF800004FF400608F
:10304000ADF804002020ADF80C000020ADF80E0013
:10305000ADF806000120ADF808004002ADF80A0006
:103060000720ADF8100069460548FFF7B3FC0121C1
:103070000348FFF795FC07B000BD000000000240C8
:103080000030014010B51548006840F47000134945
:1030900008601348006840F00100114908600020F2
:1030A0000F49083108600E4800680E4908400C4975
:1030B00008600D48091D0860081F006820F4802082
:1030C000091F0860002006490C310860FFF7F8FE70
:1030D0004FF0006001498039086010BD88ED00E0C4
:1030E00000380240FFFFF6FE1030002410B5012129
:1030F000044800F05AF9012803D10121014800F0E9
:1031000049F810BD0000014010B50121880700F00A
:103110004CF9012805D10121800700F03BF8FEF7AA
:10312000C9FC10BD10B50121044800F03EF901288A
:1031300003D10121014800F02DF810BD000400402A
:1031400010B50121044800F030F9012803D1012114
:10315000014800F01FF810BD0008004010B5012123
:10316000044800F022F9012803D10121014800F0B0
:1031700011F810BD000C004010B50121044800F00A
:1031800014F9012803D10121014800F003F810BD12
:1031900000040140CA430282704721B1028842F014
:1031A0000102028004E002884FF6FE731A4002809A
:1031B00070470000FEB504460D4600260020009032
:1031C000019002906D49601A8C426FD01ADC6C49F4
:1031D000A4EB01008C4274D00ADCB4F1804F53D0D0
:1031E00068482044002858D0B0F5806F72D15FE065
:1031F000B0F5806F71D0B0F5006F77D0B0F5406F4B
:10320000F4D17DE0B0F5923F23D009DCB0F5806FBA
:1032100075D0B0F5644F0AD0B0F5684F5AD10FE0C1
:10322000B0F5943F1ED0B0F5963F53D123E0012175
:103230000846FFF717FB44F2A010ADF800007BE052
:1032400001210220FFF70EFB44F2A010ADF80000B0
:1032500072E001210804FFF705FB44F2A010ADF86D
:10326000000069E001214804FFF7FCFA44F2A010D5
:10327000ADF8000060E001218804FFF7F3FA44F2A2
:10328000A010ADF8000057E001210846FFF7CAFA88
:1032900042F2D000ADF800004EE001210220FFF71D
:1032A000C1FA42F2D000ADF8000045E031E008E09C
:1032B00001210420FFF7B6FA42F2D000ADF8000079
:1032C0003AE001210820FFF7ADFA42F2D000ADF854
:1032D000000031E02FE000E008E001211020FFF7BE
:1032E000A1FA42F2D000ADF8000025E00121202033
:1032F000FFF798FA42F2D000ADF800001CE011E0B0
:1033000001214020FFF78EFA42F2D000ADF8000014
:1033100012E001218020FFF785FA42F2D000ADF8DB
:10332000000009E001210802FFF77CFA42F2D00018
:10333000ADF8000000E000BF00BF4FF6FF70019045
:103340000020ADF80800ADF802006946204600F004
:103350002BF901212046FFF720FF0021204600F035
:1033600021F903E0204600F01DF886B2AE42F9DBF9
:1033700000212046FFF711FFFEBD0000001C0040A9
:10338000000C004000FCFFBF70B506460C4600254F
:1033900000BF04E00A213046FFF70CFF6D1CA54278
:1033A000F8D370BD0146486A704730B50246002028
:1033B00000230024158A05EA0103958905EA010422
:1033C00013B10CB1012000E0002030BD1AB1838997
:1033D0000B43838102E083898B4383817047000024
:1033E0002DE9FF4104460D4616461F46DDF82880AC
:1033F0006949601A8C4270D01ADC6849A4EB01005C
:103400008C426CD00ADCB4F1804F4ED0644820442A
:10341000002852D0B0F5806F71D156E0B0F5806FC2
:1034200065D0B0F5006F6CD0B0F5406FF4D170E0AE
:10343000B0F5923F21D009DCB0F5806F7AD0B0F5BD
:10344000644F0AD0B0F5684F7CD10EE0B0F5943FE0
:103450001BD0B0F5963F75D11FE001210846FFF75C
:1034600001FA19208DF800006DE001210220FFF71C
:10347000F9F92C208DF8000065E001210804FFF720
:10348000F1F918208DF800005DE001211920FFF707
:10349000E9F92C208DF8000055E001218804FFF7A0
:1034A000E1F91A208DF800004DE001210846FFF7F0
:1034B000B9F91C208DF8000045E001210220FFF73A
:1034C000B1F91D208DF800003DE001210420FFF737
:1034D000A9F91E208DF8000035E023E0FFE7012167
:1034E0000820FFF79FF932208DF800002BE0012122
:1034F0001020FFF797F936208DF8000023E021E037
:10350000FFE701212020FFF78DF937208DF800001B
:1035100019E001214020FFF785F92B208DF80000EC
:1035200011E007E001218020FFF77CF92C208DF8C5
:10353000000008E001210802FFF774F92D208DF842
:10354000000000E000BF00BF0295ADF8046000205D
:10355000ADF80C00ADF8060001A9204600F024F8F3
:1035600001212046FFF716FE012211462046FFF7F3
:103570002DFFF8B28DF8010008F0FF008DF8020071
:1035800001208DF803006846FEF72AFC0121204641
:10359000FFF703FEBDE8FF81001C0040000C004067
:1035A00000FCFFBF4162704700220288184B98421E
:1035B0000ED0184B98420BD0B0F1804F08D0164B6C
:1035C000984205D0154B984202D0154B984204D131
:1035D0004FF68F731A404B881A43124B984207D00C
:1035E000114B984204D04FF6FF431A400B891A43FF
:1035F00002804B68C3620B880385054B984202D05A
:10360000044B984201D18B7A038601238382704751
:103610000000014000040140000400400008004098
:10362000000C0040001000400014004010B500F0F5
:103630001BF805490860084690ED000AB8EEC00A7C
:1036400080ED040A10BD0000D01B00200348016873
:10365000C81701EB9070801070470000D01B00204D
:1036600010B5FFF7E3FF10BD38B50024002000902F
:10367000694648F2214000F007F80446BDF8000012
:10368000C0F30E0038BD000070B505460C46102191
:10369000A148FEF790F900BF00BF00BF00BF00BF08
:1036A00000BF00BF00BF00BF00BF00BF00BF00BF22
:1036B00000BF00BF00BF00BF00BF00BF00BF00BF12
:1036C00000BF00BF00BF00BF00BF00BF00BF00BF02
:1036D00000BF00BF00BF00BF00BF00BF00BF00BFF2
:1036E00000BF00BF00BF00BF00BF00BF00BF00BFE2
:1036F00000BF00BF00BF00BF00BF00BF00BF00BFD2
:1037000000BF00BF00BF00BF00BF00BF00BF00BFC1
:1037100000BF00BF00BF00BF00BF00BF00BF00BFB1
:1037200000BF00BF00BF00BF00BF00BF00BF00BFA1
:1037300000BF00BF00BF00BF00BF00BF00BF00BF91
:1037400000BF00BF00BF00BF00BF00BF00BF00BF81
:1037500000BF00BF00BF00BF00BF00BF00BF00BF71
:1037600000BF00BF00BF00BF00BF00BF00BF00BF61
:1037700000BF00BF00BF00BF00BF00BF00BF00BF51
:1037800000BF00BF00BF00BF00BF00BF00BF00BF41
:1037900000BF00BF00BF00BF00BF00BF00BF00BF31
:1037A00000BF00BF00BF00BF00BF00BF00BF00BF21
:1037B00000BF00BF00BF00BF00BF00BF00BF00BF11
:1037C00000BF00BF00BF00BF00BF00BF00BF00BF01
:1037D00000BF00BF00BF00BF00BF00BF00BF00BFF1
:1037E00000BF00BF00BF00BF00BF10214A48FEF766
:1037F000E4F800BF00BF00BF00BF00BF00BF00BFB4
:1038000000BF00BF00BF00BF00BF00BF00BF00BFC0
:1038100000BF00BF00BF00BF00BF00BF00BF00BFB0
:1038200000BF00BF00BF00BF00BF00BF00BF00BFA0
:1038300000BF00BF00BF00BF00BF00BF00BF00BF90
:1038400000BF00BF00BF00BF00BF00BF00BF00BF80
:1038500000BF00BF00BF00BF00BF00BF00BF00BF70
:1038600000BF00BF00BF00BF00BF00BF00BF00BF60
:1038700000BF00BF00BF00BF00BF00BF00BF00BF50
:1038800000BF00BF00BF00BF00BF00BF00BF00BF40
:1038900000BF00BF00BF00BF00BF00BF00BF00BF30
:1038A00000BF00BF00BF00BF00BF00BF00BF00BF20
:1038B00000BF00BF00BF00BF00BF10211648FEF7C9
:1038C0007AF82846FFF752F800BF1348006820F442
:1038D00040401149086008460068086000BF28465B
:1038E000FFF744F820802846FFF740F80B4908808E
:1038F00010210948FEF761F800BF0748006820F46E
:103900004040054908600846006840F400400860EF
:1039100000BF0248008870BD000002403C0000204B
:1039200010B540F22551054800F0C6FA012804D12F
:1039300040F22551014800F08EFA10BD00500040C1
:1039400010B596B0044601210420FEF75BFF01216B
:103950008804FEF767FF01214805FEF753FF0722A1
:103960000A214248FEF704F807220B213F48FDF7E1
:10397000FFFF4FF44060149002208DF854008DF842
:10398000550000208DF8560001208DF8570014A92D
:103990003648FDF7A5FF10940020ADF84400ADF8BF
:1039A0004600ADF84800ADF84C000C20ADF84A00D8
:1039B00010A92F4800F0D0FA01212D4800F05AFA42
:1039C000012280212A4800F061FA012240F22551AB
:1039D000274800F09BFA4FF0006000902448001D3B
:1039E000019024480290402003904FF4AF6004906F
:1039F000002005904FF4806006900020079008900A
:103A000009904FF400300A9000200B9001200C9098
:103A100000200D900E9069461748FDF7CDFD01215D
:103A20001548FDF76DFD012210211348FDF7A6FD95
:103A30000E208DF83C0002208DF83D008DF83E00F0
:103A400001208DF83F000FA8FEF7CAF927208DF856
:103A50003C0000208DF83D0001208DF83E008DF8DF
:103A60003F000FA8FEF7BCF916B010BD00080240D9
:103A7000004800409C0500205860024010B540F20C
:103A800025510A4800F018FA01280ED140F22551BC
:103A9000064800F0E0F9054800F05DFB04490870B5
:103AA00008460178014800F005F810BD00480040C4
:103AB0000000002070B505460C46202C08D0AD480B
:103AC000AD4909684454AC480068401CAA490860E4
:103AD000A9480068401EA749085C0A280BD0A648E0
:103AE0000068401E085C0D2805D0A3480068401EF1
:103AF000085C3B287DD1A0480068012803D1002044
:103B00009D4908602CE19B4880783D2872D19948F6
:103B1000C0782D281ED14FF0FF309849086004204E
:103B20000BE09449095C964A126802EB820201EBB1
:103B300042013039924A1160401C8F490968491E80
:103B40008142EEDC8D4800688D49096848438C4904
:103B5000086012E003200BE08649095C884A12687D
:103B600002EB820201EB42013039854A1160401CB0
:103B700081490968491E8142EEDC022281A17D480B
:103B8000FCF792FBD0B97E4890ED000AB8EEC00A6F
:103B9000DFED7D0A20EE200A7C4880ED070A90EDDB
:103BA000070ADFED7B0A20EE200ABDEEC00A10EE08
:103BB000102A78A1284600F039FAD1E0022278A133
:103BC0006C48FCF771FBE8B96D4890ED000AB8EE5F
:103BD000C00ADFED740A80EE201A6C4880ED0B1AE3
:103BE00090ED0B0ADFED6F0A20EE200ABDEEC00A51
:103BF00001E0BDE082E010EE102A6BA1284600F043
:103C000015FAADE002226BA15A48FCF74DFBD0B982
:103C10005B4890ED000AB8EEC00ADFED620A80EE64
:103C2000201A5A4880ED0C1A90ED0C0ADFED5D0A5F
:103C300020EE200ABDEEC00A10EE102A5EA1284632
:103C400000F0F4F98CE002225EA14A48FCF72CFB5C
:103C5000D0B94B4890ED000AB8EEC00ADFED4A0A31
:103C600020EE200A494880ED070A90ED070ADFEDB3
:103C7000480A20EE200ABDEEC00A10EE102A52A11A
:103C8000284600F0D3F96BE0022252A13948FCF734
:103C90000BFB90B93A4890ED000AB8EEC00A3B48D9
:103CA00080ED130A90ED130ABDEEC00A10EE102A43
:103CB00049A1284600F0BAF952E0022249A12D4854
:103CC000FCF7F2FAA8B9314890ED120AF8EEC00AF2
:103CD0002B4890ED000AB8EEC00A30EE800A2B485F
:103CE00080ED130A26483CA10268284600F09EF9A0
:103CF00036E03DA1284600F099F931E0022240A1CA
:103D00001C48FCF7D1FA78B9204890ED060ADFED9F
:103D1000200A20EE200ABDEEC00A10EE102A39A1BA
:103D2000284600F083F91BE0022238A11148FCF775
:103D3000BBFA30B9154836A1826C284600F076F9F6
:103D40000EE0022234A10B48FCF7AEFA20B933A1F1
:103D5000284600F06BF903E034A1284600F066F92C
:103D600000200549086006490860012003490860F1
:103D700070BD0000140B002008000020100000207F
:103D80000C0000204A5600006F12833A280B0020D6
:103D900000007A444A563D25643B0D0A00000000AD
:103DA000414300000024744941433D25643B0D0A12
:103DB000000000004443000044433D25643B0D0ADD
:103DC000000000005350000053503D25643B0D0A95
:103DD000000000005041000050413D25643B0D0AA9
:103DE0000000000050520000494E56414C4944200A
:103DF000575249544520434D442121210D0A0000CA
:103E000056580000565825643B0D0A0050580000D3
:103E1000505825643B0D0A00495100004951206962
:103E20006E76616C69640D0A00000000494E5641CF
:103E30004C4944205245414420434D442121210D09
:103E40000A00000001F40072B2F5007F00D100BF4B
:103E5000CA430280704710B50022002340F66A145E
:103E6000A14200D100BF0A1201249440A3B2DC4356
:103E7000048010BD21B1828942F40052828104E0A5
:103E800082894DF6FF731A40828170471AB1838A86
:103E90000B43838202E0838A8B438382704702460E
:103EA0000020B1F5007F00D100BF13880B400BB19B
:103EB000012000E00020704770B502460024002376
:103EC0000025002040F66A16B14200D100BFC1F3C0
:103ED000421501F01F03012606FA03F3012D02D15A
:103EE0009689334006E0022D02D1168A334001E064
:103EF000968A33400C12012606FA04F416883440E0
:103F000013B10CB1012000E0002070BDF0B50346F4
:103F1000002400260025002040F66A17B94200D18F
:103F200000BF1846C1F3421401F01F06012707FA2B
:103F300006F5012C01D10C3004E0022C01D1103027
:103F400000E014301AB107682F43076002E00768E9
:103F5000AF430760F0BD00002DE9FF4705460E4660
:103F60000024A14600BFA046B08900B100BF2C8A42
:103F700024F44054F08804432C82AC8941F20C6054
:103F80008443B08831890843718908430443AC8174
:103F9000AC8A24F44074B0890443AC826846FEF7CE
:103FA00071FC2048854202D01F48854202D1DDF8CD
:103FB0000C9001E0DDF80890A88900F4004040B1C1
:103FC00009EBC90000EB091031684900B0FBF1F7BB
:103FD00007E009EBC90000EB091031688900B0FB6C
:103FE000F1F76420B7FBF0F004012009642101FB24
:103FF0001078A88900F4004040B1322000EBC800DE
:10400000B0FBF1F000F00700044308E0322000EBC1
:1040100008106421B0FBF1F000F00F0004432C8184
:10402000BDE8FF8700100140001401400FB4F0B557
:1040300085B007460CA8009084E00B9800785C28B7
:104040001CD10B98401C0B9000786E2809D0722868
:104050000FD10D21384600F083F80B98401C0B90CF
:104060000BE00A21384600F07BF80B98401C0B90BF
:1040700003E00B98401C0B9000BF5CE00B980078AD
:10408000252851D10B98401C0B90007864281BD038
:10409000732802D0782842D133E0009810C80090ED
:1040A0000BE02178384600F05BF800BF402138462D
:1040B000FFF7F5FE0028F9D0641C20780028F0D125
:1040C0000B98401C0B902EE0009820C800900A220C
:1040D00001A9284600F05AF901AC0BE021783846D6
:1040E00000F03EF800BF40213846FFF7D8FE002818
:1040F000F9D0641C20780028F0D10B98401C0B905C
:1041000011E0009840C80090300E0A2201A900F08A
:104110003DF90A2201A9284600F038F903E00B987E
:10412000401C0B9000BF06E00B9810F8011B0B9091
:10413000384600F015F800BF40213846FFF7AFFEC3
:104140000028F9D00B98007800287FF476AF05B0EE
:10415000F0BC5DF814FB01468888C0F30800704786
:1041600030B504460D4600BF80212046FFF797FE7C
:104170000028F9D080212046FFF764FE4021204628
:10418000FFF760FEC5F30800A08030BD00BFFEE76A
:1041900000B590ED020AD0ED000A30EE600A80ED25
:1041A000040A90ED090AD0ED080A90ED041A00EE19
:1041B000810A80ED090A90ED0B1AF0EE410A90EDAC
:1041C000091AB0EE410AFDF75FFC80ED090A90ED97
:1041D000090AD0ED070A90ED041A00EE810A80ED7D
:1041E0000A0A90ED0B1AF0EE410A90ED0A1AB0EEB1
:1041F000410AFDF749FC80ED0A0A90ED0A0A00BD6C
:1042000090ED010AD0ED050A30EE600AD0ED020A09
:10421000B4EEE00AF1EE10FA08DD90ED020AD0EDFE
:10422000050A30EE200A80ED020A19E090ED010A3D
:10423000D0ED060A30EE200AD0ED020AB4EEE00A14
:10424000F1EE10FA08D290ED020AD0ED060A30EE37
:10425000600A80ED020A03E090ED010A80ED020A97
:1042600090ED020A7047000010B541F62721104872
:10427000C0F80414FFF7EAF90D49C1F80004084634
:10428000D0F80014D0F80404081A00EE100AB8EEB2
:10429000C00ADFED080A20EE200ABDEEC00A06487B
:1042A00080ED120A9FED050A80ED130A10BD000093
:1042B000280B00209A9999C1180F002000000000D7
:1042C00038B54FF4A060FDF7C7FD4FF46120FFF74C
:1042D00037FB4FF400704310264A4FF47A71009078
:1042E0002548FCF7CBFB40202023224A4FF4FA71EB
:1042F00000902248FCF7C2FBFEF758FE4DF6BF20A7
:1043000000F07DF800200346532240F2E731009090
:104310004FF08040FFF764F800214FF08040FEF737
:104320003CFFFDF779F9FEF705FA01218807FEF752
:1043300034FFC8211248FFF727F8002413E004EBEC
:104340008400104901EB8000007A032800D10CE0C2
:104350000020C4EB84110C4A02EBC10188642046A2
:10436000FDF702FD641C082CE9DB00BFFFF77CFFB2
:1043700038BD0000000402400064004000680040B6
:1043800000040040301B0020280B0020F0B503463D
:104390000D461646002729460A2E03D00020087035
:1043A0002846F0BD33B9302001F8010B0020087019
:1043B0002846F6E7002B03DA2D2001F8010B5B42BB
:1043C0000A4A0DE093FBF2F404B937B104F130006E
:1043D00001F8010B04FB123301270A2092FBF0F2D3
:1043E000002AEFDC002008702846DAE740420F0080
:1043F00010B5FFF765FF01E0FCF76EFAFCE700BFC0
:10440000401E0028FCD170474FF04070E1EE100ACA
:104410007047000034440008000000209C050000A4
:10442000C4010008D84800089C050020FC5C00007E
:1044300020020008011072010D120AD7233C04C5A6
:1044400095BFD633180D8FC2B53E1F85AB3F66F7BB
:104450004040082240180E0641C3F540410AD77B70
:10446000417B149608180AA841713DB641AE47BE7B
:104470001823C04133803F19281A40041A80041AB7
:10448000A0041AC0041AE0041119201A10041A20FA
:10449000041A30041A40041A50041A60042A703CAA
:1044A00019041A88041A90041A98045AA004290CB2
:1044B0002914291C2924292C2934293C2944294C34
:1044C0002954295C2964296C2974297C2984298C24
:1044D0002994299CBE0842D7A30D04091414211065
:1044E0006F1F85F3BFF54AE1BF19E2983E9BE67165
:1044F000405C8F0141DCD74B41158C8A414B59AC54
:10450000416891C94186DAE041F230F14154E3F962
:1045100041A392FA415541F341DF4FE4411F74CE6C
:10452000414CB7B241447A924131085F4139451854
:1045300041E561AD4030BB074066F7243E1B2FDDEF
:10454000BC92CBD73F9E5E834045D8C640FED4196F
:1045500020182A1A41DC6830410E2D434198DD5263
:1045600041849E5F41448B6941BBB87041053475FD
:1045700041250677419031764174B5721828266C32
:10458000411EA76341CFF75741F163494129CB371A
:10459000413B01234192CB0A418CB9DD4081959D7D
:1045A000401B0D28F85160C5BC74133ED42B353F19
:1045B000F9A0D73FD509384014D08040F4FD9C4085
:1045C0006F12AB40984CA740CA548F4048504440AB
:1045D000423E803F1DC9D5BF7DD09BC036CD07C1AF
:1045E000226C46C192DC83C12CD4A4C15917C5C129
:1045F0009790E3C197FFFEC16BEB0AC2481013C24C
:10460000D9CE16C24B2A15C20DB10DC27E9D03C272
:10461000DA1BF4C13BDFE1C11C6BD0C114AEBFC1DA
:10462000D49AAFC19329A0C1325591C1091B83C14E
:104630001FF46AC160E550C1BF0E38C1C97620C100
:1046400081260AC18F53EAC0431CC3C0E3C79EC082
:10465000C5FE7AC048E13EC09FAB09C092CBB7BF50
:104660006C0959BF560ECDBE42CFE6BD2320411A7C
:10467000A0043EC841DF4FD70449142AC8083D4270
:104680007D3F6504291838643789D7413333D841D1
:10469000D34DD941FED4DA41C1CADC41022BDF41FE
:1046A000AAF1E141AC1CE541BE9FE841FA7EEC4134
:1046B00008ACF041E926F54148E1F9410AD7FE414D
:1046C000FAFE0142D1A20442FE540742500D0A42B2
:1046D00096C30C42A4700F423D0A12422B8714422B
:1046E00023DB1642CFF71842A8C61A041840B81E9A
:1046F0001C427B141D4217D91D420C821E426210BF
:104700001F4266661F4217591F42986E1E4227B10C
:104710001B4291ED164206810F42486105424C371B
:10472000F141C520D541B4C8B3415A6492903822B2
:1047300064418B6C2941D9CEE74068918D40AC1C17
:104740001A404260A53FE7FBA93F17D91E40A4705D
:10475000910418082731D84019040EB838262E4184
:1047600019044E41BA496C416ABC8441E5D092417A
:104770004E62A041BC74AD413108BA41B81EC64179
:1047800039B4D1F02045355EE741986EF141B6F37A
:10479000FA41CFF701420E2D064293180A424CB758
:1047A0000D421F051142FAFE1342C5A0164260E5F4
:1047B00018427D3F6542773E6542643B65423F3526
:1047C0006542022B6542A01A65421A65DC1A64280C
:1047D000180A6442F25264427FEA63C81A63D83806
:1047E000366242F2D2614277BE6042856B5F42E53B
:1047F000D05D424EE25B428D97594254E3564246A9
:10480000B653421203504252B84B4289C14642311C
:10481000084142448B3A04380877BE3542B07233BF
:10482000041C4A0C35601A370C1A3C081A42041A48
:104830004B041A57041A631C1A6F041A7804180ED2
:104840007E42964380422B877F429CC47AAC1E7284
:1048500042EC51675418165B4206814E42C97643BA
:104860004229DC3A421D5A36427B14367C3A3A04DD
:1048700018085C0F4242378948D4174E42393453E6
:10488000421B8057D81E5B4246365E981E6042E946
:10489000A6625C1E644279E9646049F01818A4704D
:1048A0006442A2456342A09A6142986E5F4283C00F
:1048B0005C42508D59EC1A5508180A51424CB74CBD
:1048C00042C14A4784052E414201012D01020304E1
:0848D0000405000607080900B9
:040000050800018965
:00000001FF
