:020000040800F2
:100000000052002029020008B51D0008DF19000871
:10001000BF1A0008770300088530000800000000C0
:100020000000000000000000000000007520000833
:10003000A1150008000000003F020008410200086E
:10004000430200084302000843020008430200087C
:10005000430200084302000843020008430200086C
:10006000430200084302000843020008430200085C
:100070004302000843020008AD13000843020008D1
:10008000430200084302000843020008430200083C
:100090007D030008430200084302000843020008F1
:1000A00043020008F9220008430200084302000846
:1000B00015230008312300084D23000843020008DF
:1000C00043020008430200084302000843020008FC
:1000D0004302000843020008430200089529000873
:1000E00043020008430200084302000843020008DC
:1000F0008523000843020008430200084302000869
:100100004302000843020008692300084302000874
:10011000430200083928000843020008430200088F
:10012000430200084302000843020008430200089B
:10013000430200084302000843020008430200088B
:10014000C1040008430200084302000843020008FB
:10015000430200084302000843020008430200086B
:10016000430200084302000843020008430200085B
:10017000430200084302000843020008430200084B
:10018000430200084302000800F002F800F03CF8C7
:100190000AA090E8000C82448344AAF10107DA45E2
:1001A00001D100F031F8AFF2090EBAE80F0013F0F8
:1001B000010F18BFFB1A43F001031847F430000089
:1001C00014310000103A24BF78C878C1FAD8520719
:1001D00024BF30C830C144BF04680C6070470000C1
:1001E0000023002400250026103A28BF78C1FBD840
:1001F000520728BF30C148BF0B6070471FB503F0DE
:1002000052F81FBD10B510BD00F07CF81146FFF785
:10021000F5FF03F035F800F09AF803B4FFF7F2FFAA
:1002200003BC00F09DF800000948804709480047DA
:10023000FEE7FEE7FEE7FEE7FEE7FEE7FEE7FEE796
:10024000FEE7FEE704480549054A064B70470000F3
:100250009122000889010008000C002000520020B3
:10026000004E0020004E002040EA010370B59B07BD
:100270002ED14FF00136042A2AD308C810C99D1B7D
:100280009D43121F15EAC61517D0D8B2E1B2401A25
:1002900050EA056110D198B2A1B2401A50EA054166
:1002A0000AD123F07F4024F07F41401A50EA052113
:1002B00002D1180EA0EB146070BDA342DBD018BAB7
:1002C00021BA884201D9012070BD4FF0FF3070BDC6
:1002D0000AB9002070BD10F8013B11F8014B63B161
:1002E000A3420AD1521E08D010F8013B11F8014B6D
:1002F0001BB1A34201D1521EEDD1181B70BD704736
:1003000070477047754600F031F8AE460500694603
:10031000534620F00700854618B020B5FFF792FF3E
:10032000BDE820404FF000064FF000074FF00008F6
:100330004FF0000B21F00701AC46ACE8C009ACE877
:10034000C009ACE8C009ACE8C0098D46704710B5DB
:100350000446AFF300802046BDE81040FFF75DBFC4
:1003600001491820ABBEFEE7260002000048704796
:10037000A00B0020704700BFFEE7000010B586B05C
:10038000002400200390082304AA03A9444800F095
:10039000A7FE002005E004A9095C01AA1154411C34
:1003A000C8B20828F7DB40F20121039888421BD02D
:1003B000491C0398884217D0491C0398884213D0DF
:1003C0000398B0F5017F0FD0891C039888420BD0A9
:1003D000491C0398884207D0491C0398884203D0DF
:1003E0000398B0F5027F2DD10398401EC4B29DF84A
:1003F00005009DF8041000EB012004EB8401294A5C
:1004000042F821009DF80600000200B29DF8071096
:10041000084404EB840102EB8101C8609DF80900E7
:100420009DF8081000EB012000B204EB840102EB00
:10043000810108829DF80A0040B204EB840102EBBE
:10044000810188741849164800F09CFA1649491C25
:10045000134800F097FA1449C91C114800F092FAA9
:1004600012490F4800F08EFA11490D4800F08AFA3F
:1004700010490B4800F086FA0E490831084800F090
:1004800081FA0D49064800F07DFA0C49044800F055
:1004900079FA0A490831024800F074FA06B010BD32
:1004A00000640040000B00200100F0107000F030EC
:1004B000030000120800003203000014080000349A
:1004C00010B586B000200390082304AA03A9C748EA
:1004D00000F006FE002005E004A9095C01AA115401
:1004E000411CC8B20828F7DB00244CE104EB84006F
:1004F000BF4901EB8000007A032800D146E1C4EB3C
:10050000C40000EB4000BB4901EBC000D0F8A400E0
:1005100000F54070039988427DD145F25022019840
:10052000811A904278D018DC44F24432A0EB0201E8
:10053000904272D00ADCA0F58040A0F5A870002897
:100540006CD0A0F2F110002869D150E0A1F6094169
:1005500089B1B1F5837FF7D185E0A1F2FA31A9B174
:10056000A548084400287CD0A0F20770002879D064
:10057000062854D1BAE00298012803D1204601F0A0
:10058000D3FB02E0204601F0C3FBC7E09DED020A69
:10059000B8EEC00ADFED990A80EE201AC4EBC40061
:1005A00000EB4000934901EBC00080ED051AC4EB5D
:1005B000C40000EB400001EBC00090ED071AF0EE24
:1005C000410AC4EBC40000EB400001EBC00090ED19
:1005D000051AB0EE410A01F05FFAC4EBC40000EB6B
:1005E0004000844901EBC00080ED050A96E09DEDD6
:1005F000020AB8EEC00ADFED820A80EE201AC4EBD0
:10060000C40000EB40007B4901EBC00080ED091AFB
:10061000C4EBC40004E082E045E010E035E07CE09B
:1006200000EB400001EBC00090ED090AC4EBC400F0
:1006300000EB400001EBC00080ED150A6EE09DED7F
:10064000020AB8EEC00ADFED6E0A80EE201AC4EB93
:10065000C40000EB4000674901EBC00080ED0A1ABE
:100660005CE038E04DE09DED020AB8EEC00ADFED37
:10067000630A80EE201AC4EBC40000EB40005D4921
:1006800001EBC00080ED141A48E09DED020AB8EEBF
:10069000C00AC4EBC40000EB4000564901EBC000A7
:1006A00080ED110A3AE0C4EBC40000EB4000514970
:1006B00001EBC000D0ED100A9DED020AB8EEC00AB1
:1006C00030EE800AC4EBC40000EB400001EBC00038
:1006D00080ED110A22E04B48C4EBC40101EB41015B
:1006E000444A02EBC101C1F8A00017E04648C4EB40
:1006F000C40101EB41013F4A02EBC101C1F8A00076
:100700000CE04148801FC4EBC40101EB4101394AB0
:1007100002EBC101C1F8A00000E000BF32E0039885
:10072000B0F5407F2ED1374949420198084428B19D
:10073000A0F20770C0B1062822D10AE03148C4EB0C
:10074000C40101EB41012B4A02EBC101C1F8A00039
:1007500017E02D48C4EBC40101EB4101254A02EB2F
:10076000C101C1F8A0000CE02748801FC4EBC40100
:1007700001EB41011F4A02EBC101C1F8A00000E0FA
:1007800000BF00BF641C082CFFF6B0AE00BF1F49BD
:10079000164800F0F7F81D49491C144800F0F2F81B
:1007A0001A49C91C114800F0EDF819490F4800F02A
:1007B000E9F818490D4800F0E5F817490B4800F032
:1007C000E1F815490831094800F0DCF813490748F9
:1007D00000F0D8F81249054800F0D4F81049083163
:1007E000024800F0CFF806B010BD000000680040DD
:1007F000000B0020B0050020010500C000007A4475
:100800000024744949510040565800400100F0103E
:100810007000F030030000120800003203000014E2
:10082000080000341CB500249FE004EB840051490B
:1008300001EB8000007A032800D199E0C4EBC400EA
:1008400000EB40004C4901EBC000D0F8A00040B1E3
:100850004A49084490B3A0F2077080B306287DD1BE
:1008600000E080E045F656000090C4EBC40000EBC9
:100870004000414901EBC00090ED040ADFED400A61
:1008800020EE200ABDEEC00A8DED010AC4EBC401C2
:1008900001EB4101384A02EBC101D1F8A400DDE9C6
:1008A000001200F05BFD0020C4EBC40101EB41012C
:1008B000314A02EBC101C1F8A00054E000E027E09A
:1008C00045F24910009004EB84002A4901EB8000B6
:1008D000B0F9100000EE100AB8EEC00A8DED010A62
:1008E000C4EBC40101EB4101234A02EBC101D1F881
:1008F000A400DDE9001200F031FD0020C4EBC401CA
:1009000001EB41011C4A02EBC101C1F8A0002AE041
:1009100045F650000090C4EBC40000EB40001649BF
:1009200001EBC00090ED100ABDEEC00A8DED010A8A
:10093000C4EBC40101EB41010F4A02EBC101D1F844
:10094000A400DDE9001200F009FD0020C4EBC401A1
:1009500001EB4101084A02EBC10100E002E0C1F8ED
:10096000A00000E000BF00BF641C082CFFF65DAFD4
:1009700000BF1CBD000B0020B0050020B7AEFFBFBC
:1009800000007A4400220C4B994202D1002383617B
:1009900011E0C1F3130201F000730BB1C2600AE071
:1009A00001F080630BB1026105E001F000630BB15F
:1009B000826000E0426070477000F0302DE9F04F37
:1009C0008BB006460F4614461D46DDF850804FF0AA
:1009D0000009CA46CB46B5F5807F43D012DC102D06
:1009E00034D008DC012D25D0022D26D0042D27D0AF
:1009F000082D4FD127E0202D2BD0402D2CD0802D3D
:100A000048D12CE0B5F5805F38D009DCB5F5007F22
:100A10002BD0B5F5806F2BD0B5F5006F3AD12AE019
:100A2000B5F5005F2DD0B5F5804F2DD0B5F5004F51
:100A300030D12CE04FF000092DE04FF001092AE001
:100A40004FF0020927E04FF0030924E04FF00409BA
:100A500021E04FF005091EE04FF006091BE04FF0C2
:100A6000070918E04FF0080915E04FF0090912E0F6
:100A70004FF00A090FE04FF00B090CE04FF00C09A2
:100A800009E04FF00D0906E04FF00E0903E04FF0CA
:100A90000F0900E000BF00BFB8F5807F4BD01ADC23
:100AA000B8F1100F3BD00CDCB8F1010F2BD0B8F12E
:100AB000020F2BD0B8F1040F2BD0B8F1080F52D190
:100AC0002AE0B8F1200F2DD0B8F1400F2DD0B8F1A9
:100AD000800F48D12CE0B8F5805F38D009DCB8F53C
:100AE000007F2BD0B8F5806F2BD0B8F5006F3AD1CE
:100AF0002AE0B8F5005F2DD0B8F5804F2DD0B8F5BD
:100B0000004F30D12CE04FF0000A2DE04FF0010AE9
:100B10002AE04FF0020A27E04FF0030A24E04FF0EA
:100B2000040A21E04FF0050A1EE04FF0060A1BE020
:100B30004FF0070A18E04FF0080A15E04FF0090AD5
:100B400012E04FF00A0A0FE04FF00B0A0CE04FF0F2
:100B50000C0A09E04FF00D0A06E04FF00E0A03E020
:100B60004FF00F0A00E000BF00BF7F48304418B1CB
:100B7000B0F5806F1AD10CE04FF0090B00208DF812
:100B8000120014208DF804000121480601F0CEF96E
:100B90000DE04FF0090B0E208DF8120040208DF86B
:100BA00004000121000501F0C1F900E000BF00BF11
:100BB000C4F3090078BBA012A0F580108038092882
:100BC00034D2DFE800F0050A0F14191E23292E0085
:100BD0000121084601F09AF929E00121022001F0E3
:100BE00095F924E00121042001F090F91FE0012192
:100BF000082001F08BF91AE00121102001F086F99C
:100C000015E00121202001F081F910E001214020B0
:100C100001F07CF90BE009E00121802001F076F978
:100C200005E00121080201F071F900E000BF00BFFA
:100C30005A464946204600F0AFFE5A4651462046E5
:100C400000F0AAFE45EA0800099002208DF828006D
:100C50008DF8290000208DF82A0001208DF82B0046
:100C600009A9204600F050FE304600F07FF8002031
:100C70008DF81E008DF81F008DF820008DF82100E2
:100C80008DF822008DF823008DF81A008DF81B00D6
:100C90000B208DF81C0007208DF81D007D2F22D021
:100CA00008DC0A2F0FD0142F11D0322F13D0642F4D
:100CB00029D114E0FA2F1AD0B7F5FA7F1BD0B7F577
:100CC0007A7F20D11BE0C820ADF818001CE064201A
:100CD000ADF8180018E02820ADF8180014E0142032
:100CE000ADF8180010E01020ADF818000CE0082056
:100CF000ADF8180008E00420ADF8180004E0022068
:100D0000ADF8180000E000BF00BF06A9304600F0B3
:100D1000D6F800208DF8130001208DF81400002073
:100D2000ADF80800ADF80A00ADF80C00ADF80E0003
:100D3000ADF8100001208DF8150002A800F032F87F
:100D400000208DF8050003208DF8060001208DF8A5
:100D5000070001A801F030F801220221304600F01E
:100D6000A5F80BB0BDE8F08F009CFFBF10B504469E
:100D70000B48844209D10121480601F0E7F800211F
:100D80004FF0007001F0E2F808E00121880601F060
:100D9000DDF800214FF0806001F0D8F810BD0000B0
:100DA0000064004010B50021837A012202FA03F1A9
:100DB0003D4A126842F001023B4B1A603A4A1C322B
:100DC00012688A43384B1C331A60027BCAB9364A10
:100DD0000C3212688A43344B0C331A604288C38841
:100DE00042EA0343304A4032847A42F8343002887F
:100DF000838842EA03432C4A4032847A02EBC402DD
:100E00005360027B012A19D1274A0C3212680A4327
:100E1000254B0C331A604288038842EA0343224A76
:100E20004032847A42F83430C288838842EA0343ED
:100E30001D4A4032847A02EBC4025360C27A3AB946
:100E4000194A121D12688A43174B1B1D1A6006E0CF
:100E5000154A121D12680A43134B1B1D1A600289A2
:100E600032B9114A143212688A430F4B14331A6094
:100E70000289012A06D10C4A143212680A430A4B2D
:100E800014331A60427B012A06D1074A1C321268C9
:100E90000A43054B1C331A60034A126822F0010210
:100EA000014B1A6010BD0000006600401AB1436992
:100EB0000B43436102E043698B434361704730B5A4
:100EC000024600200023146824F002041460146811
:100ED00044F00104146000E05B1C546804F0010459
:100EE0001CB94FF6FF74A342F6D1546804F0010414
:100EF0000CB900206CE08C79012C04D1146844F00A
:100F00008004146003E0146824F080041460CC7939
:100F1000012C04D1146844F04004146003E0146808
:100F200024F0400414600C7A012C04D1146844F0BD
:100F30002004146003E0146824F0200414604C7A48
:100F4000012C04D1146844F01004146003E0146808
:100F500024F0100414608C7A012C04D1146844F03D
:100F60000804146003E0146824F008041460CC7AC8
:100F7000012C04D1146844F00404146003E01468E4
:100F800024F0040414608C78A407CD7844EA056446
:100F90000D7944EA05444D7944EA05540D886D1EE7
:100FA0002C43D461146824F001041460002300E091
:100FB0005B1C546804F001041CB14FF6FF74A3429B
:100FC000F6D1546804F001040CB1002000E00120C7
:100FD00030BD0246002019B9D36803F0030006E0D3
:100FE000012903D1136903F0030000E000207047DA
:100FF00010B500F5D87303EB01131B6803F004036D
:101000001372137A53B900F5D87303EB01131B68FD
:1010100040F2FF7404EA5353136009E000F5D873FB
:1010200003EB01131B686FF0604404EAD3035360C1
:1010300000F5D87303EB01131B6803F0020353722E
:1010400000F5D87303EB01135B6803F00F03937291
:1010500000F5D87303EB01135B681B0AD37400F52A
:10106000D87303EB01139B68D37200F5D87303EBBD
:1010700001139B681C0A147300F5D87303EB01136A
:101080009B681C0C547300F5D87303EB01139B6829
:101090001B0E937300F5D87303EB0113DB68D37356
:1010A00000F5D87303EB0113DB681C0A147400F518
:1010B000D87303EB0113DB681C0C547400F5D87370
:1010C00003EB0113DB681B0E937421B9C36843F073
:1010D0002003C36003E0036943F02003036110BDF4
:1010E0002DE9F04186B080460D4616461F46002485
:1010F00000214046FFF76DFF18B9002006B0BDE89B
:10110000F08101AA00214046FFF772FF002405E0AC
:101110000DF10F00005D3055601CC4B2BC42F7DB1E
:10112000019828600120E9E710B502460020936885
:1011300003F08063B3F1806F00D110E0936803F097
:101140000063B3F1006F01D1012008E0936803F060
:101150008053B3F1805F01D1022000E00420042815
:1011600074D002F5C07303EB00131B6803F0010495
:1011700002F5C07303EB00131C600B7A7BB94B7A4A
:101180000C8843EA445302F5C07404EB001424684D
:10119000234302F5C07404EB0014236010E00B7AC3
:1011A0004C6843EAC4034C7A234302F5C07404EB51
:1011B00000142468234302F5C07404EB0014236078
:1011C0008B7A03F00F038B7202F5C07303EB0013ED
:1011D0005B6823F00F0402F5C07303EB00135C603F
:1011E00002F5C07303EB00135B688C7A234302F5AE
:1011F000C07404EB001463608B7B1C064B7B44EAD9
:1012000003440B7B44EA0323CC7A234302F5C074E6
:1012100004EB0014A3608B7C1C064B7C44EA034463
:101220000B7C44EA0323CC7B234302F5C07404EB1C
:101230000014E36002F5C07303EB00131B6843F076
:10124000010402F5C07303EB00131C6010BD000025
:1012500010B50246002321B1012907D002290FD180
:1012600009E090681D4C00EA04030BE090681C4CF8
:1012700000EA040306E090681A4C00EA040301E067
:10128000002300BF00BF184C181BA34216D007DC78
:1012900083B16FF08060184470B1022818D111E05A
:1012A000B0F5007F10D0114C204448B1B0F5003F9C
:1012B0000ED10BE002230DE000230BE0002309E038
:1012C000002307E0012305E0012303E0012301E0FF
:1012D000002300BF00BFD8B210BD0000030000040F
:1012E0000003000800000310000100080001FFF7E0
:1012F00010B50022D1E900341A1B0B684B6094240E
:10130000235803EBD374B2EB640F02DD94231B5814
:10131000D21A9424235803EBD37464106442944289
:1013200002DD94231B581A44D0ED100A00EE102A57
:10133000B8EEC00A30EE800A80ED100A91ED030A83
:10134000B8EEC00ADFED040A20EE200A80ED040AA0
:1013500090ED040A10BD000063CF0B3E37B586B098
:10136000044604F520700190029000208DF80C00D6
:101370008DF80D0008208DF80E00002004E007A96C
:101380000A5C0D390A54401C0828F8DB01A90648FC
:10139000FFF7CAFE054600BF29460348FFF758FF7E
:1013A0000128F9D109B030BD0068004010B50949E5
:1013B000094800F039F860B10021074800F028F82A
:1013C0000449054800F00AF84FF4AF61024800F004
:1013D000E5F810BD00800018586002400246094B35
:1013E0009A4201D2084801E00648103801F0005343
:1013F0001BB1064B0B40C36002E0044B0B40836003
:101400007047000010640240006002407D0F7D0FB5
:1014100021B1026842F00102026003E0026822F09A
:10142000010202607047000070B5024600200024EF
:101430000025124EB24201D2114B01E00F4B103B7E
:10144000104E0E4036B11E2606EAD124166806EA72
:10145000040502E0566906F0800501F000560EB161
:101460005C6800E01C68084E344004EA010616B1CE
:101470000DB1012000E0002070BD000010640240AA
:10148000006002403C0F3C0F7D0F7D0F10B501F056
:1014900080034BB122B1436943F08003436103E011
:1014A000436923F08003436180290BD02AB103688C
:1014B00001F01E042343036004E0036801F01E04EE
:1014C000A343036010BD000010B500220268134B57
:1014D0001A40CC680B6823434C6923438C6923432F
:1014E000CC6923430C6A23434C6A23438C6A23430D
:1014F0004C6B23438C6B23431A430260426922F0F6
:101500000702D1E90B3423431A4342610B6943605C
:101510004B6883608B68C36010BD00003F801CF087
:1015200038B505460C461A480088C82824DC1849F6
:10153000088800EBD0714910A0EB410171B9144843
:10154000008813490988491C114A1180114B09224E
:1015500001210090284600F08EFD0DE00C48008827
:101560000B490988491C0A4A11800A4B0A220121A9
:101570000090204600F07FFD05480088C82806D16D
:1015800001210548FFF744FF00200149088038BDCC
:101590000400002024000020586002404160704791
:1015A000704700000120C54908720321C348017734
:1015B000022180F8301080F84410032180F8581080
:1015C000012180F86C10022180F8801080F89410BE
:1015D0000521BB48C0F8A4100621C0F84C11072112
:1015E000C0F8F4110821C0F89C12002050E101213C
:1015F000C0EBC00202EB4202B14B03EBC20211721C
:101600004A03C0EBC00101EB410103EBC101C1F88A
:10161000942000EB8001A94A02EB8101097A01299B
:101620007CD10521C0EBC00202EB420243F832102C
:101630009FEDA40AC0EBC00101EB41011A4602EB89
:10164000C10181ED0B0A9FEDA00AC0EBC00101EBC7
:10165000410102EBC10181ED0C0AB3EE040AC0EBBB
:10166000C00101EB410102EBC10181ED0F0A9FEDC9
:10167000970AC0EBC00101EB410102EBC10181ED12
:10168000070A9FED930AC0EBC00101EB410102EB99
:10169000C10181ED180A9FED8F0AC0EBC00101EB7B
:1016A000410102EBC10181ED170A9FED8B0AC0EBEE
:1016B000C00101EB410102EBC10181ED1B0A9FED6D
:1016C000870AC0EBC00101EB410102EBC10181EDD2
:1016D000090A9FED820AC0EBC00101EB410102EB58
:1016E000C10181ED0A0A9FED7D0AC0EBC00101EB4B
:1016F000410102EBC10181ED050AC0EBC00101EB24
:10170000410102EBC10191ED0A0AC0EBC00101EBFE
:10171000410102EBC10181ED150A00E014E09FEDEB
:10172000700AC0EBC00101EB410102EBC10181ED88
:10173000140A9FED6C0AC0EBC00101EB410102EB02
:10174000C10181ED1A0AA2E000EB80015B4A02EBC5
:101750008101097A02297DD19FED630AC0EBC001A6
:1017600001EB4101564A02EBC10181ED0B0A9FEDED
:101770005F0AC0EBC00101EB410102EBC10181ED49
:101780000C0AB1EE080AC0EBC00101EB410102EB0B
:10179000C10181ED0F0A9FED560AC0EBC00101EBBC
:1017A000410102EBC10181ED070A9FED4F0AC0EB39
:1017B000C00101EB410102EBC10181ED180A9FED6F
:1017C0004D0AC0EBC00101EB410102EBC10181ED0B
:1017D000170A9FED490AC0EBC00101EB410102EB82
:1017E000C10181ED1B0AB7EE000AC0EBC00101EB9D
:1017F000410102EBC10181ED090AB7EE000AC0EB1D
:10180000C00101EB410102EBC10181ED0A0A9FED2C
:101810003B0AC0EBC00101EB410102EBC10181EDCC
:10182000050A9FED2B0AC0EBC00101EB410102EB61
:10183000C10181ED110AC0EBC00101EB410102EBD6
:10184000C10191ED0A0ADFED2E0A20EE200AC0EB5D
:10185000C00100E01AE001EB410102EBC10181EDA2
:10186000150A9FED260AC0EBC00101EB410102EB16
:10187000C10181ED140A9FED1B0AC0EBC00101EB11
:10188000410102EBC10181ED1A0A00E003E0401CB6
:101890000828FFF6ACAE00BF9FED170A084880EDA0
:1018A0001B0A9FED150A80ED450A9FED160A80ED93
:1018B0001A0A9FED140A80ED440A7047000B0020BD
:1018C000B0050020CDCCCC3D6F12833A0000A0447F
:1018D00000000000AE47E13DCDCC4C3F00007A4413
:1018E00000004842000020C3CDCC4C3DA69B443BA9
:1018F000000016451B2FDD3C3333334000007A4394
:101900003333333F00002043F0B50A460021002363
:10191000002400BF3DE0012505FA01F3156805EA42
:1019200003049C4234D105684F000326BE40B543F2
:10193000056015794E00B540066835430560157998
:10194000012D02D01579022D16D185684F0003268E
:10195000BE40B543856055794E00B5408668354335
:101960008560456801268E40B54345604568967997
:101970008E40B6B235434560C5684F000326BE4071
:10198000B543C560D5794E00B540C6683543C560DE
:10199000491C1029BFD3F0BDF0B5002300244D072A
:1019A000ED0E02FA05F3CE1000F1200555F8265091
:1019B0004E07F70E0F26BE40B543CF1000F12006AC
:1019C00046F82750CE1000F1200555F8265045EA7C
:1019D0000304CE1000F1200545F82640F0BD00BFFD
:1019E000FEE7000000B5024692ED1A0A82ED060AF3
:1019F00002F1100001F048FBF0EE401A92ED1B0AD4
:101A0000F0EE400AB0EE610A00F046F882ED1E0AE0
:101A100092ED040AB0EEC00AF0EE000AB4EEE00A5D
:101A2000F1EE10FA03D8506F401C506701E000211E
:101A30005167506FB0F5FA7F29DB9FED150A82EDF3
:101A4000100A92ED100ADFED130A30EE200A82ED43
:101A5000110A9FED0F0A82ED1E0A9FED0D0A82ED1D
:101A6000050A9FED0B0A82ED060A9FED090A82ED39
:101A70000E0A9FED070A82ED030A9FED050A82ED2B
:101A80001E0A9FED030A82ED0D0A0520106000BDBD
:101A90000000000000000046B4EEE00AF1EE10FA8B
:101AA00001DDB0EE600AB1EE601AB4EEC10AF1EEEB
:101AB00010FA03D2B1EE601AB0EE410A704700BFCF
:101AC000FEE7000010B50024B5E004EB84008A496D
:101AD00001EB8000007A032800D1AFE004EB840220
:101AE000854B03EB8201C4EBC40202EB4202834B41
:101AF00003EBC200FFF7FCFBC4EBC40000EB4000AB
:101B00007E4901EBC000007A01280AD09FED7C0AD3
:101B1000C4EBC40000EB400001EBC00080ED030A01
:101B200088E0C4EBC40000EB4000744951F8300079
:101B3000022840D0052802D0062878D15BE0C4EB0B
:101B4000C40101EB41016D4A02EBC10101F140000A
:101B500000F078F9C4EBC40000EB4000674901EBEA
:101B6000C00090ED190AC4EBC40000EB400001EB8B
:101B7000C00080ED050AC4EBC40101EB41015F4ADE
:101B800002EBC10101F1100001F0B6FAC4EBC4018F
:101B900001EB4101594A02EBC10101F1100001F0D2
:101BA00073FAC4EBC40000EB4000544901EBC000E1
:101BB00080ED030A3CE0C4EBC40101EB41014F4A54
:101BC00002EBC10101F1100001F096FAC4EBC4016F
:101BD00001EB4101494A02EBC10101F1100001F0A2
:101BE00053FAC4EBC40000EB4000444901EBC000D1
:101BF00080ED030A1CE0C4EBC40101EB41013F4A44
:101C000002EBC100FFF7EEFEC4EBC40000EB4000A6
:101C10003A4901EBC00090ED1E0AC4EBC40000EB92
:101C2000400001EBC00080ED030A01E0FFE700BFC8
:101C300000BF00BF641C082CFFF647AF00BF0020A8
:101C400045E000EB80012C4A02EB8101097A012971
:101C500016D1C0EBC00101EB4101284A02EBC101E2
:101C600091ED030ADFED270A20EE200AF3EE040AC5
:101C700080EE201A244901EB800181ED001A25E055
:101C800000EB80011C4A02EB8101097A022916D17E
:101C9000C0EBC00101EB4101184A02EBC10191ED1B
:101CA000030ADFED1A0A20EE200AF2EE040A80EEA3
:101CB000201A154901EB800181ED001A06E09FED25
:101CC000100A114901EB800181ED000A401C042833
:101CD000B7DB0D4800F00CFA084A92ED6D0ABDEE34
:101CE000C00A10EE101A92ED580ABDEEC00A10EEAE
:101CF000100AFFF715FC10BD000B0020B0050020F6
:101D00000000000000008046F00A002000401C4651
:101D10000021C0EBC00202EB4202024B03EBC20205
:101D200011727047B0050020C0EBC00101EB41010A
:101D30001E4A52F8311005290FD1C0EBC00101EB4A
:101D4000410102EBC10191ED100AC0EBC00101EBB2
:101D5000410102EBC10181ED110AC0EBC00101EBB1
:101D60004101124A52F83110022909D19FED100A9F
:101D7000C0EBC00101EB410102EBC10181ED050A9D
:101D80009FED0B0AC0EBC00101EB4101074A02EBDA
:101D9000C10181ED0D0A0121C0EBC00202EB42023C
:101DA000024B03EBC202117270470000B005002025
:101DB0000000000000BFFEE770B5002100230F22E5
:101DC000C4781CB3174C246804F4E064C4F5E064E0
:101DD000C4F30721C1F10404E3B20A4144789C40F2
:101DE000E1B28478144021430C07210E0E4C057893
:101DF0006155047804F01F050124AC4005786D118D
:101E0000AD0005F1E025C5F8004109E0047804F0D3
:101E10001F050124AC40054D0678761145F8264093
:101E200070BD00000CED00E000E400E080E100E0A7
:101E300002490143024A1160704700000000FA05A0
:101E40000CED00E000B59FED2F0AF0EE401A9FED7B
:101E50002D0AB0EE402AB7EE000AF0EE402A90EDCF
:101E6000010AD0ED000A30EE600A80ED020A90ED22
:101E7000020AD0ED070A20EE200AD0ED020A90ED0A
:101E8000031A70EEC10A90ED081A01EE200AF0EE76
:101E9000401A90ED020A80ED030A90ED020AB5EEB9
:101EA000C00AF1EE10FA03D2BFEE000AF0EE402AAB
:101EB00090ED050ADFED140A20EE200A20EE220A3A
:101EC000D0ED020A60EE200AB1EEE00A20EE220A0E
:101ED000B0EE402AB0EEC20AF0EEE10AB4EEE00A3B
:101EE000F1EE10FA01D2F0EE421A90ED040AF0EE93
:101EF000400AB0EE610AFFF7CFFD80ED090A90EDD0
:101F0000090A00BD000000003333B33F29B1064A7F
:101F100012680243044B1A6004E0034A12688243C9
:101F2000014B1A60704700003038024029B1064A60
:101F300012680243044B1A6004E0034A12688243A9
:101F4000014B1A60704700004038024029B1064A30
:101F500012680243044B1A6004E0034A1268824389
:101F6000014B1A60704700002038024029B1064A30
:101F700012680243044B1A6004E0034A1268824369
:101F8000014B1A607047000044380240F0B5002150
:101F900000220024022500260223324F3F6807F06A
:101FA0000C0121B1042905D0082937D105E02E4FB5
:101FB000076036E02D4F076033E02A4F3F1F3F6830
:101FC000C7F38056274F3F1F3F6807F03F036EB1AE
:101FD000264FB7FBF3F7DFF88CC0ACF1040CDCF84C
:101FE00000C0CCF3881C07FB0CF40CE01E4FB7FBC1
:101FF000F3F7DFF870C0ACF1040CDCF800C0CCF3F0
:10200000881C07FB0CF4174F3F1F3F68C7F30147BD
:102010007F1C7D00B4FBF5F7076002E0124F0760FC
:1020200000BF00BF0F4F3F6807F0F0010909104FD4
:102030007A5C0768D74047600A4F3F6807F4E05171
:10204000890A0B4F7A5C4768D7408760054F3F6825
:1020500007F46041490B064F7A5C4768D740C76078
:10206000F0BD0000083802400024F40000127A009D
:102070001400002070472DE9F04707468846914636
:102080001C46089D0026B246BA46B8F1000F0DD096
:10209000002F06DA2D20C5EBC5016054CAF1000AF5
:1020A00008E02020C5EBC501605403E02020C5EB0B
:1020B000C5016054012612E0C6F105010A2001F0B5
:1020C000E6F8BAFBF0F00A21B0FBF1F201FB1200D6
:1020D0003030C5EBC50121448855701CC6B2062EB0
:1020E000EADBC5EBC500204480F80690BDE8F08728
:1020F00030B587B0054600200090019000BF0BE08E
:1021000005EB800191ED000ABDEEC00A10EE101A39
:1021100009B22DF81010401C0428F1DB4FF40070B8
:102120000290039000208DF810008DF81100082017
:102130008DF81200BDF80000000A8DF81300BDF8FC
:102140000000C1B28DF81410BDF80200010A8DF82C
:102150001510BDF80200C1B28DF81610BDF80400CC
:10216000010A8DF81710BDF80400C1B28DF81810DF
:10217000BDF80600010A8DF81910BDF80600C1B2BD
:102180008DF81A1002A90648FEF7CEFF044600BFDC
:1021900021460348FFF75CF80128F9D107B030BDAC
:1021A000006400400CB500200190009034480068A5
:1021B00040F480303249086000BF3148006800F4C4
:1021C000003000900198401C0190009818B90198C7
:1021D000B0F5A06FF1D12A48006800F4003010B1CA
:1021E0000120009001E0002000900098012846D1D5
:1021F00023484030006840F0805021494031086059
:102200002048006840F480401E4908601C4808309F
:1022100000681B49083108600846006840F4004027
:1022200008600846006840F4A05008601648091F7E
:102230000860081F006840F08070091F086000BF38
:102240000F48006800F000700028F9D040F20560E7
:102250000E4908600A480830006820F00300084969
:10226000083108600846006840F00200086000BFBE
:1022700003480830006800F00C000828F8D10CBDB5
:10228000003802400070004008544007003C024003
:1022900010B51548006840F47000134908601348F1
:1022A000006840F001001149086000200F49083122
:1022B00008600E4800680E4908400C4908600D4847
:1022C000091D0860081F006820F48020091F0860AD
:1022D000002006490C310860FFF764FF4FF00060F2
:1022E00001498039086010BD88ED00E000380240E7
:1022F000FFFFF6FE1030002410B50121044800F065
:102300005AF9012803D10121014800F049F810BD14
:102310000000014010B50121880700F04CF90128A8
:1023200005D10121800700F03BF8FFF7CBFB10BD82
:1023300010B50121044800F03EF9012803D1012124
:10234000014800F02DF810BD0004004010B5012137
:10235000044800F030F9012803D10121014800F0C0
:102360001FF810BD0008004010B50121044800F01E
:1023700022F9012803D10121014800F011F810BD14
:10238000000C004010B50121044800F014F90128A8
:1023900003D10121014800F003F810BD0004014001
:1023A000CA430282704721B1028842F001020280D2
:1023B00004E002884FF6FE731A4002807047000066
:1023C000FEB504460D4600260020009001900290C4
:1023D0006D49601A8C426FD01ADC6C49A4EB010085
:1023E0008C4274D00ADCB4F1804F53D0684820444A
:1023F000002858D0B0F5806F72D15FE0B0F5806FE3
:1024000071D0B0F5006F77D0B0F5406FF4D17DE0BA
:10241000B0F5923F23D009DCB0F5806F75D0B0F5F0
:10242000644F0AD0B0F5684F5AD10FE0B0F5943F31
:102430001ED0B0F5963F53D123E001210846FFF7A7
:1024400095FD44F2A010ADF800007BE001210220D0
:10245000FFF78CFD44F2A010ADF8000072E00121FE
:102460000804FFF783FD44F2A010ADF8000069E016
:1024700001214804FFF77AFD44F2A010ADF80000F6
:1024800060E001218804FFF771FD44F2A010ADF86F
:10249000000057E001210846FFF748FD42F2D00056
:1024A000ADF800004EE001210220FFF73FFD42F2AF
:1024B000D000ADF8000045E031E008E00121042043
:1024C000FFF734FD42F2D000ADF800003AE0012100
:1024D0000820FFF72BFD42F2D000ADF8000031E0FC
:1024E0002FE000E008E001211020FFF71FFD42F27D
:1024F000D000ADF8000025E001212020FFF716FDF7
:1025000042F2D000ADF800001CE011E001214020B3
:10251000FFF70CFD42F2D000ADF8000012E00121FF
:102520008020FFF703FD42F2D000ADF8000009E083
:1025300001210802FFF7FAFC42F2D000ADF80000DA
:1025400000E000BF00BF4FF6FF7001900020ADF823
:102550000800ADF802006946204600F02BF9012181
:102560002046FFF720FF0021204600F021F903E07C
:10257000204600F01DF886B2AE42F9DB002120466D
:10258000FFF711FFFEBD0000001C0040000C0040E2
:1025900000FCFFBF70B506460C46002500BF04E0F6
:1025A0000A213046FFF70CFF6D1CA542F8D370BD21
:1025B0000146486A704730B50246002000230024D7
:1025C000158A05EA0103958905EA010413B10CB1E6
:1025D000012000E0002030BD1AB183890B438381C4
:1025E00002E083898B438381704700002DE9FF411E
:1025F00004460D4616461F46DDF828806949601AD4
:102600008C4270D01ADC6849A4EB01008C426CD07B
:102610000ADCB4F1804F4ED064482044002852D0E8
:10262000B0F5806F71D156E0B0F5806F65D0B0F530
:10263000006F6CD0B0F5406FF4D170E0B0F5923F10
:1026400021D009DCB0F5806F7AD0B0F5644F0AD0A4
:10265000B0F5684F7CD10EE0B0F5943F1BD0B0F5DB
:10266000963F75D11FE001210846FFF77FFC192036
:102670008DF800006DE001210220FFF777FC2C208F
:102680008DF8000065E001210804FFF76FFC1820B9
:102690008DF800005DE001211920FFF767FC2C2078
:1026A0008DF8000055E001218804FFF75FFC1A2037
:1026B0008DF800004DE001210846FFF737FC1C2093
:1026C0008DF8000045E001210220FFF72FFC1D20BE
:1026D0008DF800003DE001210420FFF727FC1E20BB
:1026E0008DF8000035E023E0FFE701210820FFF727
:1026F0001DFC32208DF800002BE001211020FFF797
:1027000015FC36208DF8000023E021E0FFE70121D1
:102710002020FFF70BFC37208DF8000019E0012185
:102720004020FFF703FC2B208DF8000011E007E0AC
:1027300001218020FFF7FAFB2C208DF8000008E033
:1027400001210802FFF7F2FB2D208DF8000000E0C8
:1027500000BF00BF0295ADF804600020ADF80C008A
:10276000ADF8060001A9204600F024F8012120461A
:10277000FFF716FE012211462046FFF72DFFF8B2A3
:102780008DF8010008F0FF008DF8020001208DF89F
:1027900003006846FFF710FB01212046FFF703FE08
:1027A000BDE8FF81001C0040000C004000FCFFBFA2
:1027B0004162704700220288184B98420ED0184B95
:1027C00098420BD0B0F1804F08D0164B984205D0FC
:1027D000154B984202D0154B984204D14FF68F7397
:1027E0001A404B881A43124B984207D0114B98421B
:1027F00004D04FF6FF431A400B891A4302804B68FE
:10280000C3620B880385054B984202D0044B984263
:1028100001D18B7A03860123838270470000014037
:10282000000401400004004000080040000C00408B
:10283000001000400014004010B540F2255105483A
:1028400000F0C8FA012804D140F22551014800F0F7
:1028500090FA10BD0050004010B596B0044601211A
:102860000420FFF753FB01218804FFF75FFB0121E0
:102870004805FFF74BFB07220A214248FFF78CF877
:1028800007220B213F48FFF787F84FF44060149070
:1028900002208DF854008DF8550000208DF8560068
:1028A00001208DF8570014A93648FFF72DF8109431
:1028B0000020ADF84400ADF84600ADF84800ADF892
:1028C0004C000C20ADF84A0010A92F4800F0D2FAB5
:1028D00001212D4800F05CFA012280212A4800F0F5
:1028E00063FA012240F22551274800F09DFA4FF08B
:1028F000006000902448001D019024480290402070
:1029000003904FF4AF600490002005904FF4806076
:10291000069000200790089009904FF400300A902C
:1029200000200B9001200C9000200D900E90694625
:102930001748FEF7C9FD01211548FEF769FD012280
:1029400010211348FEF7A2FD0E208DF83C00022056
:102950008DF83D008DF83E0001208DF83F000FA856
:10296000FFF72AFA27208DF83C0000208DF83D0063
:1029700001208DF83E008DF83F000FA8FFF71CFAEC
:1029800016B010BD0008024000480040240000209E
:102990005860024010B540F225510A4800F01AFA7A
:1029A00001280ED140F22551064800F0E2F9054811
:1029B00000F04DFB0449087008460178014800F01A
:1029C00005F810BD004800400000002070B5054625
:1029D0000C46202C08D0AE48AE4909684454AD4896
:1029E0000068401CAB490860AA480068401EA8491E
:1029F000085C0A280BD0A7480068401E085C0D2818
:102A000005D0A4480068401E085C3B287DD1A14841
:102A10000068012803D100209E4908602FE19C48EE
:102A200080783D2872D19A48C0782D281ED14FF069
:102A3000FF309949086004200BE09549095C974AEA
:102A4000126802EB820201EB42013039934A1160B5
:102A5000401C90490968491E8142EEDC8E4800689E
:102A60008E49096848438D49086012E003200BE055
:102A70008749095C894A126802EB820201EB420134
:102A80003039864A1160401C82490968491E8142DA
:102A9000EEDC022282A17E48FDF7E6FBD0B97F483A
:102AA00090ED000AB8EEC00ADFED7E0A20EE200AA3
:102AB0007D4880ED050A90ED050ADFED7C0A20EEE9
:102AC000200ABDEEC00A10EE102A79A1284600F0B7
:102AD0003BFAD4E0022279A16D48FDF7C5FBE8B9C5
:102AE0006E4890ED000AB8EEC00ADFED750A80EE80
:102AF000201A6D4880ED091A90ED090ADFED700A81
:102B000020EE200ABDEEC00A01E0C0E080E010EE39
:102B1000102A6CA1284600F017FAB0E002226CA13E
:102B20005B48FDF7A1FBD0B95C4890ED000AB8EE18
:102B3000C00ADFED630A80EE201A5B4880ED0A1AB6
:102B400090ED0A0ADFED5E0A20EE200ABDEEC00A13
:102B500010EE102A5FA1284600F0F6F98FE002225D
:102B60005FA14B48FDF780FBD0B94C4890ED000ABF
:102B7000B8EEC00ADFED4B0A20EE200A4A4880ED8D
:102B8000050A90ED050ADFED490A20EE200ABDEEA8
:102B9000C00A10EE102A53A1284600F0D5F96EE0C5
:102BA000022253A13A48FDF75FFB90B93B4890EDF4
:102BB000000AB8EEC00A3C4880ED110A90ED110AF7
:102BC000BDEEC00A10EE102A4AA1284600F0BCF95A
:102BD00055E002224AA12E48FDF746FB98B932483B
:102BE000D0ED100A2D4890ED000AB8EEC00A30EE84
:102BF000800A2D4880ED110A28483EA10268284627
:102C000000F0A2F93BE03FA1284600F09DF936E034
:102C1000022242A11E48FDF727FB78B9224890ED19
:102C2000040ADFED220A20EE200ABDEEC00A10EEF3
:102C3000102A3BA1284600F087F920E002223AA1A1
:102C40001348FDF711FB58B9174890ED100ABDEE77
:102C5000C00A10EE102A35A1284600F075F90EE0E2
:102C6000022234A10A48FDF7FFFA20B932A1284612
:102C700000F06AF903E034A1284600F065F900206D
:102C8000044908600549086001200349086070BDD7
:102C90009C05002008000020100000200C000020EF
:102CA0004A5600006F12833AB005002000007A44B3
:102CB0004A563D25643B0D0A0000000041430000D8
:102CC0000024744941433D25643B0D0A0000000087
:102CD0004443000044433D25643B0D0A00000000CE
:102CE0005350000053503D25643B0D0A0000000086
:102CF0005041000050413D25643B0D0A000000009A
:102D000050520000494E56414C49442057524954B4
:102D10004520434D442121210D0A00005658000052
:102D2000565825643B0D0A00505800005058256441
:102D30003B0D0A0049510000495120696E76616CD3
:102D400069640D0A00000000494E56414C49442078
:102D50005245414420434D442121210D0A000000E9
:102D600001F40072B2F5007F00D100BFCA430280B7
:102D7000704710B50022002340F66A14A14200D12A
:102D800000BF0A1201249440A3B2DC43048010BDAA
:102D900021B1828942F40052828104E082894DF699
:102DA000FF731A40828170471AB1838A0B43838272
:102DB00002E0838A8B438382704702460020B1F58C
:102DC000007F00D100BF13880B400BB1012000E051
:102DD0000020704770B50246002400230025002023
:102DE00040F66A16B14200D100BFC1F3421501F0AE
:102DF0001F03012606FA03F3012D02D19689334001
:102E000006E0022D02D1168A334001E0968A334053
:102E10000C12012606FA04F41688344013B10CB1E2
:102E2000012000E0002070BDF0B50346002400261C
:102E30000025002040F66A17B94200D100BF1846AD
:102E4000C1F3421401F01F06012707FA06F5012C11
:102E500001D10C3004E0022C01D1103000E014301C
:102E60001AB107682F43076002E00768AF430760A5
:102E7000F0BD00002DE9FF4705460E460024A1469F
:102E800000BFA046B08900B100BF2C8A24F4405492
:102E9000F08804432C82AC8941F20C608443B088F2
:102EA00031890843718908430443AC81AC8A24F416
:102EB0004074B0890443AC826846FFF767F8204845
:102EC000854202D01F48854202D1DDF80C9001E016
:102ED000DDF80890A88900F4004040B109EBC90072
:102EE00000EB091031684900B0FBF1F707E009EB8E
:102EF000C90000EB091031688900B0FBF1F76420CC
:102F0000B7FBF0F004012009642101FB1078A889C7
:102F100000F4004040B1322000EBC800B0FBF1F0FB
:102F200000F00700044308E0322000EB08106421A1
:102F3000B0FBF1F000F00F0004432C81BDE8FF87E7
:102F400000100140001401400FB470B586B0064671
:102F50000CA8019073E00B9800785C281CD10B98AA
:102F6000401C0B9000786E2809D072280FD10D21DB
:102F7000304600F071F80B98401C0B900BE00A21D2
:102F8000304600F069F80B98401C0B9003E00B985A
:102F9000401C0B9000BF4BE00B980078252840D1D7
:102FA0000B98401C0B900078642818D0732833D1FC
:102FB000019810C801900BE02178304600F04CF8E1
:102FC00000BF40213046FFF7F8FE0028F9D0641C0E
:102FD00020780028F0D10B98401C0B9020E001983D
:102FE00020C801900A2202A9284600F017F902AC75
:102FF0000BE02178304600F02FF800BF402130462A
:10300000FFF7DBFE0028F9D0641C20780028F0D1FF
:103010000B98401C0B9003E00B98401C0B9000BFDA
:1030200006E00B9810F8011B0B90304600F014F8E6
:1030300000BF40213046FFF7C0FE0028F9D00B98B2
:103040000078002887D106B070BC5DF814FB0146FB
:103050008888C0F30800704730B504460D4600BFAD
:1030600080212046FFF7A9FE0028F9D080212046C4
:10307000FFF776FE40212046FFF772FEC5F30800F9
:10308000A08030BD00BFFEE700B590ED020AD0ED94
:10309000000A30EE600A80ED040A90ED090AD0EDD6
:1030A000080A90ED041A00EE810A80ED090A90EDFD
:1030B0000B1AF0EE410A90ED091AB0EE410AFEF744
:1030C000EBFC80ED090A90ED090AD0ED070A90EDBE
:1030D000041A00EE810A80ED0A0A90ED0B1AF0EE58
:1030E000410A90ED0A1AB0EE410AFEF7D5FC80EDD8
:1030F0000A0A90ED0A0A00BD90ED010AD0ED050A1A
:1031000030EE600AD0ED020AB4EEE00AF1EE10FAF9
:1031100008DD90ED020AD0ED050A30EE200A80EDC0
:10312000020A19E090ED010AD0ED060A30EE200AFD
:10313000D0ED020AB4EEE00AF1EE10FA08D290EDFA
:10314000020AD0ED060A30EE600A80ED020A03E0C2
:1031500090ED010A80ED020A90ED020A704700002E
:1031600038B54FF4A060FEF763FE4FF46120FFF71F
:1031700073FB4FF400704310214A4FF47A710090B2
:103180002048FDF71BFC402020231D4A4FF4FA7114
:1031900000901D48FDF712FC00200346532240F228
:1031A000E73100904FF08040FFF720FA00214FF008
:1031B0008040FFF7F8F8FEF7F5F9C8211348FFF74C
:1031C000E9F9002417E004EB8400114901EB8000C9
:1031D000007A032800D110E09FED0E0AC4EBC40072
:1031E00000EB40000C4901EBC00080ED100A2046C6
:1031F000FEF79AFD641C082CE5DB00BF38BD00001B
:1032000000040240006400400068004000040040E8
:10321000000B002000000000B0050020F0B50346C0
:103220000D461646002729460A2E03D000200870B6
:103230002846F0BD33B9302001F8010B002008709A
:103240002846F6E7002B03DA2D2001F8010B5B423C
:103250000A4A0DE093FBF2F404B937B104F13000EF
:1032600001F8010B04FB123301270A2092FBF0F254
:10327000002AEFDC002008702846DAE740420F0001
:1032800010B5FFF76DFF01E0FDF7CCFAFCE710B5D4
:1032900002460023012000BF02E050435C1CE3B261
:1032A0008B42FAD310BD4FF04070E1EE100A704728
:1032B000D03200080000002024000000C4010008F3
:1032C000F432000824000020DC510000E001000876
:1032D00000000000000000000000000000000000EE
:1032E00001000000000000000102030401020304C9
:0432F00006070809BC
:040000050800018965
:00000001FF
